{
	"contracts/CollaborativeArt.sol": {
		"CollaborativeArt": {
			"abi": [
				{
					"inputs": [],
					"stateMutability": "nonpayable",
					"type": "constructor"
				},
				{
					"anonymous": false,
					"inputs": [
						{
							"indexed": false,
							"internalType": "uint256",
							"name": "price",
							"type": "uint256"
						},
						{
							"indexed": false,
							"internalType": "string",
							"name": "message",
							"type": "string"
						}
					],
					"name": "ArtworkSold",
					"type": "event"
				},
				{
					"anonymous": false,
					"inputs": [
						{
							"indexed": false,
							"internalType": "string",
							"name": "message",
							"type": "string"
						}
					],
					"name": "DisputeResolved",
					"type": "event"
				},
				{
					"inputs": [
						{
							"internalType": "address",
							"name": "_artistAddress",
							"type": "address"
						},
						{
							"internalType": "uint256",
							"name": "_ownershipPercentage",
							"type": "uint256"
						}
					],
					"name": "addArtist",
					"outputs": [],
					"stateMutability": "nonpayable",
					"type": "function"
				},
				{
					"inputs": [
						{
							"internalType": "address",
							"name": "",
							"type": "address"
						}
					],
					"name": "artistToOwnershipPercentage",
					"outputs": [
						{
							"internalType": "uint256",
							"name": "",
							"type": "uint256"
						}
					],
					"stateMutability": "view",
					"type": "function"
				},
				{
					"inputs": [
						{
							"internalType": "uint256",
							"name": "",
							"type": "uint256"
						}
					],
					"name": "artists",
					"outputs": [
						{
							"internalType": "address",
							"name": "artistAddress",
							"type": "address"
						},
						{
							"internalType": "uint256",
							"name": "ownershipPercentage",
							"type": "uint256"
						}
					],
					"stateMutability": "view",
					"type": "function"
				},
				{
					"inputs": [],
					"name": "artworkPrice",
					"outputs": [
						{
							"internalType": "uint256",
							"name": "",
							"type": "uint256"
						}
					],
					"stateMutability": "view",
					"type": "function"
				},
				{
					"inputs": [
						{
							"internalType": "address",
							"name": "",
							"type": "address"
						}
					],
					"name": "isArtist",
					"outputs": [
						{
							"internalType": "bool",
							"name": "",
							"type": "bool"
						}
					],
					"stateMutability": "view",
					"type": "function"
				},
				{
					"inputs": [],
					"name": "owner",
					"outputs": [
						{
							"internalType": "address",
							"name": "",
							"type": "address"
						}
					],
					"stateMutability": "view",
					"type": "function"
				},
				{
					"inputs": [],
					"name": "purchaseArtwork",
					"outputs": [],
					"stateMutability": "payable",
					"type": "function"
				},
				{
					"inputs": [
						{
							"internalType": "string",
							"name": "_message",
							"type": "string"
						}
					],
					"name": "resolveDispute",
					"outputs": [
						{
							"internalType": "string",
							"name": "",
							"type": "string"
						}
					],
					"stateMutability": "view",
					"type": "function"
				},
				{
					"inputs": [
						{
							"internalType": "uint256",
							"name": "_price",
							"type": "uint256"
						}
					],
					"name": "setArtworkPrice",
					"outputs": [],
					"stateMutability": "nonpayable",
					"type": "function"
				},
				{
					"inputs": [],
					"name": "totalPercentage",
					"outputs": [
						{
							"internalType": "uint256",
							"name": "",
							"type": "uint256"
						}
					],
					"stateMutability": "view",
					"type": "function"
				}
			],
			"devdoc": {
				"kind": "dev",
				"methods": {},
				"version": 1
			},
			"evm": {
				"assembly": "    /* \"contracts/CollaborativeArt.sol\":94:2240  contract CollaborativeArt{... */\n  mstore(0x40, 0x80)\n    /* \"contracts/CollaborativeArt.sol\":431:432  0 */\n  0x00\n    /* \"contracts/CollaborativeArt.sol\":398:432  uint256 public totalPercentage = 0 */\n  0x04\n  sstore\n    /* \"contracts/CollaborativeArt.sol\":836:886  constructor(){... */\n  callvalue\n  dup1\n  iszero\n  tag_1\n  jumpi\n  0x00\n  dup1\n  revert\ntag_1:\n  pop\n    /* \"contracts/CollaborativeArt.sol\":868:878  msg.sender */\n  caller\n    /* \"contracts/CollaborativeArt.sol\":860:865  owner */\n  0x00\n  dup1\n    /* \"contracts/CollaborativeArt.sol\":860:878  owner = msg.sender */\n  0x0100\n  exp\n  dup2\n  sload\n  dup2\n  0xffffffffffffffffffffffffffffffffffffffff\n  mul\n  not\n  and\n  swap1\n  dup4\n  0xffffffffffffffffffffffffffffffffffffffff\n  and\n  mul\n  or\n  swap1\n  sstore\n  pop\n    /* \"contracts/CollaborativeArt.sol\":94:2240  contract CollaborativeArt{... */\n  dataSize(sub_0)\n  dup1\n  dataOffset(sub_0)\n  0x00\n  codecopy\n  0x00\n  return\nstop\n\nsub_0: assembly {\n        /* \"contracts/CollaborativeArt.sol\":94:2240  contract CollaborativeArt{... */\n      mstore(0x40, 0x80)\n      jumpi(tag_1, lt(calldatasize, 0x04))\n      shr(0xe0, calldataload(0x00))\n      dup1\n      0x8da5cb5b\n      gt\n      tag_12\n      jumpi\n      dup1\n      0x8da5cb5b\n      eq\n      tag_7\n      jumpi\n      dup1\n      0x8f2238ba\n      eq\n      tag_8\n      jumpi\n      dup1\n      0xab1ce0b0\n      eq\n      tag_9\n      jumpi\n      dup1\n      0xcd7e10c1\n      eq\n      tag_10\n      jumpi\n      dup1\n      0xd44a0e61\n      eq\n      tag_11\n      jumpi\n      jump(tag_1)\n    tag_12:\n      dup1\n      0x5d1b5805\n      eq\n      tag_2\n      jumpi\n      dup1\n      0x6b2f65b0\n      eq\n      tag_3\n      jumpi\n      dup1\n      0x6beeedb8\n      eq\n      tag_4\n      jumpi\n      dup1\n      0x7f8fbc22\n      eq\n      tag_5\n      jumpi\n      dup1\n      0x89b5efa7\n      eq\n      tag_6\n      jumpi\n    tag_1:\n      0x00\n      dup1\n      revert\n        /* \"contracts/CollaborativeArt.sol\":920:1392  function addArtist(address _artistAddress, uint256 _ownershipPercentage) public onlyOwner{... */\n    tag_2:\n      callvalue\n      dup1\n      iszero\n      tag_13\n      jumpi\n      0x00\n      dup1\n      revert\n    tag_13:\n      pop\n      tag_14\n      0x04\n      dup1\n      calldatasize\n      sub\n      dup2\n      add\n      swap1\n      tag_15\n      swap2\n      swap1\n      tag_16\n      jump\t// in\n    tag_15:\n      tag_17\n      jump\t// in\n    tag_14:\n      stop\n        /* \"contracts/CollaborativeArt.sol\":351:391  mapping(address => bool) public isArtist */\n    tag_3:\n      callvalue\n      dup1\n      iszero\n      tag_18\n      jumpi\n      0x00\n      dup1\n      revert\n    tag_18:\n      pop\n      tag_19\n      0x04\n      dup1\n      calldatasize\n      sub\n      dup2\n      add\n      swap1\n      tag_20\n      swap2\n      swap1\n      tag_21\n      jump\t// in\n    tag_20:\n      tag_22\n      jump\t// in\n    tag_19:\n      mload(0x40)\n      tag_23\n      swap2\n      swap1\n      tag_24\n      jump\t// in\n    tag_23:\n      mload(0x40)\n      dup1\n      swap2\n      sub\n      swap1\n      return\n        /* \"contracts/CollaborativeArt.sol\":1436:1533  function setArtworkPrice(uint256 _price) public onlyOwner{... */\n    tag_4:\n      callvalue\n      dup1\n      iszero\n      tag_25\n      jumpi\n      0x00\n      dup1\n      revert\n    tag_25:\n      pop\n      tag_26\n      0x04\n      dup1\n      calldatasize\n      sub\n      dup2\n      add\n      swap1\n      tag_27\n      swap2\n      swap1\n      tag_28\n      jump\t// in\n    tag_27:\n      tag_29\n      jump\t// in\n    tag_26:\n      stop\n        /* \"contracts/CollaborativeArt.sol\":282:344  mapping(address => uint256) public artistToOwnershipPercentage */\n    tag_5:\n      callvalue\n      dup1\n      iszero\n      tag_30\n      jumpi\n      0x00\n      dup1\n      revert\n    tag_30:\n      pop\n      tag_31\n      0x04\n      dup1\n      calldatasize\n      sub\n      dup2\n      add\n      swap1\n      tag_32\n      swap2\n      swap1\n      tag_21\n      jump\t// in\n    tag_32:\n      tag_33\n      jump\t// in\n    tag_31:\n      mload(0x40)\n      tag_34\n      swap2\n      swap1\n      tag_35\n      jump\t// in\n    tag_34:\n      mload(0x40)\n      dup1\n      swap2\n      sub\n      swap1\n      return\n        /* \"contracts/CollaborativeArt.sol\":439:466  uint256 public artworkPrice */\n    tag_6:\n      callvalue\n      dup1\n      iszero\n      tag_36\n      jumpi\n      0x00\n      dup1\n      revert\n    tag_36:\n      pop\n      tag_37\n      tag_38\n      jump\t// in\n    tag_37:\n      mload(0x40)\n      tag_39\n      swap2\n      swap1\n      tag_35\n      jump\t// in\n    tag_39:\n      mload(0x40)\n      dup1\n      swap2\n      sub\n      swap1\n      return\n        /* \"contracts/CollaborativeArt.sol\":126:146  address public owner */\n    tag_7:\n      callvalue\n      dup1\n      iszero\n      tag_40\n      jumpi\n      0x00\n      dup1\n      revert\n    tag_40:\n      pop\n      tag_41\n      tag_42\n      jump\t// in\n    tag_41:\n      mload(0x40)\n      tag_43\n      swap2\n      swap1\n      tag_44\n      jump\t// in\n    tag_43:\n      mload(0x40)\n      dup1\n      swap2\n      sub\n      swap1\n      return\n        /* \"contracts/CollaborativeArt.sol\":2109:2237  function resolveDispute(string memory _message) public view onlyOwner returns (string memory) {... */\n    tag_8:\n      callvalue\n      dup1\n      iszero\n      tag_45\n      jumpi\n      0x00\n      dup1\n      revert\n    tag_45:\n      pop\n      tag_46\n      0x04\n      dup1\n      calldatasize\n      sub\n      dup2\n      add\n      swap1\n      tag_47\n      swap2\n      swap1\n      tag_48\n      jump\t// in\n    tag_47:\n      tag_49\n      jump\t// in\n    tag_46:\n      mload(0x40)\n      tag_50\n      swap2\n      swap1\n      tag_51\n      jump\t// in\n    tag_50:\n      mload(0x40)\n      dup1\n      swap2\n      sub\n      swap1\n      return\n        /* \"contracts/CollaborativeArt.sol\":1572:1786  function purchaseArtwork() public payable{... */\n    tag_9:\n      tag_52\n      tag_53\n      jump\t// in\n    tag_52:\n      stop\n        /* \"contracts/CollaborativeArt.sol\":250:273  Artist[] public artists */\n    tag_10:\n      callvalue\n      dup1\n      iszero\n      tag_54\n      jumpi\n      0x00\n      dup1\n      revert\n    tag_54:\n      pop\n      tag_55\n      0x04\n      dup1\n      calldatasize\n      sub\n      dup2\n      add\n      swap1\n      tag_56\n      swap2\n      swap1\n      tag_28\n      jump\t// in\n    tag_56:\n      tag_57\n      jump\t// in\n    tag_55:\n      mload(0x40)\n      tag_58\n      swap3\n      swap2\n      swap1\n      tag_59\n      jump\t// in\n    tag_58:\n      mload(0x40)\n      dup1\n      swap2\n      sub\n      swap1\n      return\n        /* \"contracts/CollaborativeArt.sol\":398:432  uint256 public totalPercentage = 0 */\n    tag_11:\n      callvalue\n      dup1\n      iszero\n      tag_60\n      jumpi\n      0x00\n      dup1\n      revert\n    tag_60:\n      pop\n      tag_61\n      tag_62\n      jump\t// in\n    tag_61:\n      mload(0x40)\n      tag_63\n      swap2\n      swap1\n      tag_35\n      jump\t// in\n    tag_63:\n      mload(0x40)\n      dup1\n      swap2\n      sub\n      swap1\n      return\n        /* \"contracts/CollaborativeArt.sol\":920:1392  function addArtist(address _artistAddress, uint256 _ownershipPercentage) public onlyOwner{... */\n    tag_17:\n        /* \"contracts/CollaborativeArt.sol\":630:635  owner */\n      0x00\n      dup1\n      sload\n      swap1\n      0x0100\n      exp\n      swap1\n      div\n      0xffffffffffffffffffffffffffffffffffffffff\n      and\n        /* \"contracts/CollaborativeArt.sol\":616:635  msg.sender == owner */\n      0xffffffffffffffffffffffffffffffffffffffff\n      and\n        /* \"contracts/CollaborativeArt.sol\":616:626  msg.sender */\n      caller\n        /* \"contracts/CollaborativeArt.sol\":616:635  msg.sender == owner */\n      0xffffffffffffffffffffffffffffffffffffffff\n      and\n      eq\n        /* \"contracts/CollaborativeArt.sol\":608:677  require(msg.sender == owner, \"Only the owner can call this function\") */\n      tag_65\n      jumpi\n      mload(0x40)\n      0x08c379a000000000000000000000000000000000000000000000000000000000\n      dup2\n      mstore\n      0x04\n      add\n      tag_66\n      swap1\n      tag_67\n      jump\t// in\n    tag_66:\n      mload(0x40)\n      dup1\n      swap2\n      sub\n      swap1\n      revert\n    tag_65:\n        /* \"contracts/CollaborativeArt.sol\":1069:1072  100 */\n      0x64\n        /* \"contracts/CollaborativeArt.sol\":1046:1066  _ownershipPercentage */\n      dup2\n        /* \"contracts/CollaborativeArt.sol\":1028:1043  totalPercentage */\n      sload(0x04)\n        /* \"contracts/CollaborativeArt.sol\":1028:1066  totalPercentage + _ownershipPercentage */\n      tag_69\n      swap2\n      swap1\n      tag_70\n      jump\t// in\n    tag_69:\n        /* \"contracts/CollaborativeArt.sol\":1028:1072  totalPercentage + _ownershipPercentage <=100 */\n      gt\n      iszero\n        /* \"contracts/CollaborativeArt.sol\":1020:1100  require(totalPercentage + _ownershipPercentage <=100,\"Total Ownership max 100%\") */\n      tag_71\n      jumpi\n      mload(0x40)\n      0x08c379a000000000000000000000000000000000000000000000000000000000\n      dup2\n      mstore\n      0x04\n      add\n      tag_72\n      swap1\n      tag_73\n      jump\t// in\n    tag_72:\n      mload(0x40)\n      dup1\n      swap2\n      sub\n      swap1\n      revert\n    tag_71:\n        /* \"contracts/CollaborativeArt.sol\":1111:1134  Artist memory newArtist */\n      0x00\n        /* \"contracts/CollaborativeArt.sol\":1137:1181  Artist(_artistAddress, _ownershipPercentage) */\n      mload(0x40)\n      dup1\n      0x40\n      add\n      0x40\n      mstore\n      dup1\n        /* \"contracts/CollaborativeArt.sol\":1144:1158  _artistAddress */\n      dup5\n        /* \"contracts/CollaborativeArt.sol\":1137:1181  Artist(_artistAddress, _ownershipPercentage) */\n      0xffffffffffffffffffffffffffffffffffffffff\n      and\n      dup2\n      mstore\n      0x20\n      add\n        /* \"contracts/CollaborativeArt.sol\":1160:1180  _ownershipPercentage */\n      dup4\n        /* \"contracts/CollaborativeArt.sol\":1137:1181  Artist(_artistAddress, _ownershipPercentage) */\n      dup2\n      mstore\n      pop\n        /* \"contracts/CollaborativeArt.sol\":1111:1181  Artist memory newArtist = Artist(_artistAddress, _ownershipPercentage) */\n      swap1\n      pop\n        /* \"contracts/CollaborativeArt.sol\":1192:1199  artists */\n      0x01\n        /* \"contracts/CollaborativeArt.sol\":1205:1214  newArtist */\n      dup2\n        /* \"contracts/CollaborativeArt.sol\":1192:1215  artists.push(newArtist) */\n      swap1\n      dup1\n      0x01\n      dup2\n      sload\n      add\n      dup1\n      dup3\n      sstore\n      dup1\n      swap2\n      pop\n      pop\n      0x01\n      swap1\n      sub\n      swap1\n      0x00\n      mstore\n      keccak256(0x00, 0x20)\n      swap1\n      0x02\n      mul\n      add\n      0x00\n      swap1\n      swap2\n      swap1\n      swap2\n      swap1\n      swap2\n      pop\n      0x00\n      dup3\n      add\n      mload\n      dup2\n      0x00\n      add\n      exp(0x0100, 0x00)\n      dup2\n      sload\n      dup2\n      0xffffffffffffffffffffffffffffffffffffffff\n      mul\n      not\n      and\n      swap1\n      dup4\n      0xffffffffffffffffffffffffffffffffffffffff\n      and\n      mul\n      or\n      swap1\n      sstore\n      pop\n      0x20\n      dup3\n      add\n      mload\n      dup2\n      0x01\n      add\n      sstore\n      pop\n      pop\n        /* \"contracts/CollaborativeArt.sol\":1272:1292  _ownershipPercentage */\n      dup2\n        /* \"contracts/CollaborativeArt.sol\":1226:1253  artistToOwnershipPercentage */\n      0x02\n        /* \"contracts/CollaborativeArt.sol\":1226:1269  artistToOwnershipPercentage[_artistAddress] */\n      0x00\n        /* \"contracts/CollaborativeArt.sol\":1254:1268  _artistAddress */\n      dup6\n        /* \"contracts/CollaborativeArt.sol\":1226:1269  artistToOwnershipPercentage[_artistAddress] */\n      0xffffffffffffffffffffffffffffffffffffffff\n      and\n      0xffffffffffffffffffffffffffffffffffffffff\n      and\n      dup2\n      mstore\n      0x20\n      add\n      swap1\n      dup2\n      mstore\n      0x20\n      add\n      0x00\n      keccak256\n        /* \"contracts/CollaborativeArt.sol\":1226:1292  artistToOwnershipPercentage[_artistAddress] = _ownershipPercentage */\n      dup2\n      swap1\n      sstore\n      pop\n        /* \"contracts/CollaborativeArt.sol\":1330:1334  true */\n      0x01\n        /* \"contracts/CollaborativeArt.sol\":1303:1311  isArtist */\n      0x03\n        /* \"contracts/CollaborativeArt.sol\":1303:1327  isArtist[_artistAddress] */\n      0x00\n        /* \"contracts/CollaborativeArt.sol\":1312:1326  _artistAddress */\n      dup6\n        /* \"contracts/CollaborativeArt.sol\":1303:1327  isArtist[_artistAddress] */\n      0xffffffffffffffffffffffffffffffffffffffff\n      and\n      0xffffffffffffffffffffffffffffffffffffffff\n      and\n      dup2\n      mstore\n      0x20\n      add\n      swap1\n      dup2\n      mstore\n      0x20\n      add\n      0x00\n      keccak256\n      0x00\n        /* \"contracts/CollaborativeArt.sol\":1303:1334  isArtist[_artistAddress] = true */\n      0x0100\n      exp\n      dup2\n      sload\n      dup2\n      0xff\n      mul\n      not\n      and\n      swap1\n      dup4\n      iszero\n      iszero\n      mul\n      or\n      swap1\n      sstore\n      pop\n        /* \"contracts/CollaborativeArt.sol\":1364:1384  _ownershipPercentage */\n      dup2\n        /* \"contracts/CollaborativeArt.sol\":1345:1360  totalPercentage */\n      0x04\n      0x00\n        /* \"contracts/CollaborativeArt.sol\":1345:1384  totalPercentage += _ownershipPercentage */\n      dup3\n      dup3\n      sload\n      tag_75\n      swap2\n      swap1\n      tag_70\n      jump\t// in\n    tag_75:\n      swap3\n      pop\n      pop\n      dup2\n      swap1\n      sstore\n      pop\n        /* \"contracts/CollaborativeArt.sol\":1009:1392  {... */\n      pop\n        /* \"contracts/CollaborativeArt.sol\":920:1392  function addArtist(address _artistAddress, uint256 _ownershipPercentage) public onlyOwner{... */\n      pop\n      pop\n      jump\t// out\n        /* \"contracts/CollaborativeArt.sol\":351:391  mapping(address => bool) public isArtist */\n    tag_22:\n      mstore(0x20, 0x03)\n      dup1\n      0x00\n      mstore\n      keccak256(0x00, 0x40)\n      0x00\n      swap2\n      pop\n      sload\n      swap1\n      0x0100\n      exp\n      swap1\n      div\n      0xff\n      and\n      dup2\n      jump\t// out\n        /* \"contracts/CollaborativeArt.sol\":1436:1533  function setArtworkPrice(uint256 _price) public onlyOwner{... */\n    tag_29:\n        /* \"contracts/CollaborativeArt.sol\":630:635  owner */\n      0x00\n      dup1\n      sload\n      swap1\n      0x0100\n      exp\n      swap1\n      div\n      0xffffffffffffffffffffffffffffffffffffffff\n      and\n        /* \"contracts/CollaborativeArt.sol\":616:635  msg.sender == owner */\n      0xffffffffffffffffffffffffffffffffffffffff\n      and\n        /* \"contracts/CollaborativeArt.sol\":616:626  msg.sender */\n      caller\n        /* \"contracts/CollaborativeArt.sol\":616:635  msg.sender == owner */\n      0xffffffffffffffffffffffffffffffffffffffff\n      and\n      eq\n        /* \"contracts/CollaborativeArt.sol\":608:677  require(msg.sender == owner, \"Only the owner can call this function\") */\n      tag_77\n      jumpi\n      mload(0x40)\n      0x08c379a000000000000000000000000000000000000000000000000000000000\n      dup2\n      mstore\n      0x04\n      add\n      tag_78\n      swap1\n      tag_67\n      jump\t// in\n    tag_78:\n      mload(0x40)\n      dup1\n      swap2\n      sub\n      swap1\n      revert\n    tag_77:\n        /* \"contracts/CollaborativeArt.sol\":1519:1525  _price */\n      dup1\n        /* \"contracts/CollaborativeArt.sol\":1504:1516  artworkPrice */\n      0x05\n        /* \"contracts/CollaborativeArt.sol\":1504:1525  artworkPrice = _price */\n      dup2\n      swap1\n      sstore\n      pop\n        /* \"contracts/CollaborativeArt.sol\":1436:1533  function setArtworkPrice(uint256 _price) public onlyOwner{... */\n      pop\n      jump\t// out\n        /* \"contracts/CollaborativeArt.sol\":282:344  mapping(address => uint256) public artistToOwnershipPercentage */\n    tag_33:\n      mstore(0x20, 0x02)\n      dup1\n      0x00\n      mstore\n      keccak256(0x00, 0x40)\n      0x00\n      swap2\n      pop\n      swap1\n      pop\n      sload\n      dup2\n      jump\t// out\n        /* \"contracts/CollaborativeArt.sol\":439:466  uint256 public artworkPrice */\n    tag_38:\n      sload(0x05)\n      dup2\n      jump\t// out\n        /* \"contracts/CollaborativeArt.sol\":126:146  address public owner */\n    tag_42:\n      0x00\n      dup1\n      sload\n      swap1\n      0x0100\n      exp\n      swap1\n      div\n      0xffffffffffffffffffffffffffffffffffffffff\n      and\n      dup2\n      jump\t// out\n        /* \"contracts/CollaborativeArt.sol\":2109:2237  function resolveDispute(string memory _message) public view onlyOwner returns (string memory) {... */\n    tag_49:\n        /* \"contracts/CollaborativeArt.sol\":2188:2201  string memory */\n      0x60\n        /* \"contracts/CollaborativeArt.sol\":630:635  owner */\n      0x00\n      dup1\n      sload\n      swap1\n      0x0100\n      exp\n      swap1\n      div\n      0xffffffffffffffffffffffffffffffffffffffff\n      and\n        /* \"contracts/CollaborativeArt.sol\":616:635  msg.sender == owner */\n      0xffffffffffffffffffffffffffffffffffffffff\n      and\n        /* \"contracts/CollaborativeArt.sol\":616:626  msg.sender */\n      caller\n        /* \"contracts/CollaborativeArt.sol\":616:635  msg.sender == owner */\n      0xffffffffffffffffffffffffffffffffffffffff\n      and\n      eq\n        /* \"contracts/CollaborativeArt.sol\":608:677  require(msg.sender == owner, \"Only the owner can call this function\") */\n      tag_81\n      jumpi\n      mload(0x40)\n      0x08c379a000000000000000000000000000000000000000000000000000000000\n      dup2\n      mstore\n      0x04\n      add\n      tag_82\n      swap1\n      tag_67\n      jump\t// in\n    tag_82:\n      mload(0x40)\n      dup1\n      swap2\n      sub\n      swap1\n      revert\n    tag_81:\n        /* \"contracts/CollaborativeArt.sol\":2221:2229  _message */\n      dup2\n        /* \"contracts/CollaborativeArt.sol\":2214:2229  return _message */\n      swap1\n      pop\n        /* \"contracts/CollaborativeArt.sol\":2109:2237  function resolveDispute(string memory _message) public view onlyOwner returns (string memory) {... */\n      swap2\n      swap1\n      pop\n      jump\t// out\n        /* \"contracts/CollaborativeArt.sol\":1572:1786  function purchaseArtwork() public payable{... */\n    tag_53:\n        /* \"contracts/CollaborativeArt.sol\":1645:1657  artworkPrice */\n      sload(0x05)\n        /* \"contracts/CollaborativeArt.sol\":1632:1641  msg.value */\n      callvalue\n        /* \"contracts/CollaborativeArt.sol\":1632:1657  msg.value == artworkPrice */\n      eq\n        /* \"contracts/CollaborativeArt.sol\":1624:1693  require(msg.value == artworkPrice, \"Payment must equal to art price\") */\n      tag_85\n      jumpi\n      mload(0x40)\n      0x08c379a000000000000000000000000000000000000000000000000000000000\n      dup2\n      mstore\n      0x04\n      add\n      tag_86\n      swap1\n      tag_87\n      jump\t// in\n    tag_86:\n      mload(0x40)\n      dup1\n      swap2\n      sub\n      swap1\n      revert\n    tag_85:\n        /* \"contracts/CollaborativeArt.sol\":1704:1721  distributeFunds() */\n      tag_88\n        /* \"contracts/CollaborativeArt.sol\":1704:1719  distributeFunds */\n      tag_89\n        /* \"contracts/CollaborativeArt.sol\":1704:1721  distributeFunds() */\n      jump\t// in\n    tag_88:\n        /* \"contracts/CollaborativeArt.sol\":1737:1778  ArtworkSold(artworkPrice, \"artwork sold\") */\n      0xd9952cbf75a3b7d22cfb7c2b9c7c00a23513676e5a486e14dcaf74485b483127\n        /* \"contracts/CollaborativeArt.sol\":1749:1761  artworkPrice */\n      sload(0x05)\n        /* \"contracts/CollaborativeArt.sol\":1737:1778  ArtworkSold(artworkPrice, \"artwork sold\") */\n      mload(0x40)\n      tag_90\n      swap2\n      swap1\n      tag_91\n      jump\t// in\n    tag_90:\n      mload(0x40)\n      dup1\n      swap2\n      sub\n      swap1\n      log1\n        /* \"contracts/CollaborativeArt.sol\":1572:1786  function purchaseArtwork() public payable{... */\n      jump\t// out\n        /* \"contracts/CollaborativeArt.sol\":250:273  Artist[] public artists */\n    tag_57:\n      0x01\n      dup2\n      dup2\n      sload\n      dup2\n      lt\n      tag_92\n      jumpi\n      0x00\n      dup1\n      revert\n    tag_92:\n      swap1\n      0x00\n      mstore\n      keccak256(0x00, 0x20)\n      swap1\n      0x02\n      mul\n      add\n      0x00\n      swap2\n      pop\n      swap1\n      pop\n      dup1\n      0x00\n      add\n      0x00\n      swap1\n      sload\n      swap1\n      0x0100\n      exp\n      swap1\n      div\n      0xffffffffffffffffffffffffffffffffffffffff\n      and\n      swap1\n      dup1\n      0x01\n      add\n      sload\n      swap1\n      pop\n      dup3\n      jump\t// out\n        /* \"contracts/CollaborativeArt.sol\":398:432  uint256 public totalPercentage = 0 */\n    tag_62:\n      sload(0x04)\n      dup2\n      jump\t// out\n        /* \"contracts/CollaborativeArt.sol\":1816:2075  function distributeFunds() private{... */\n    tag_89:\n        /* \"contracts/CollaborativeArt.sol\":1866:1875  uint256 i */\n      0x00\n        /* \"contracts/CollaborativeArt.sol\":1861:2068  for (uint256 i = 0; i < artists.length; i++){... */\n    tag_95:\n        /* \"contracts/CollaborativeArt.sol\":1885:1892  artists */\n      0x01\n        /* \"contracts/CollaborativeArt.sol\":1885:1899  artists.length */\n      dup1\n      sload\n      swap1\n      pop\n        /* \"contracts/CollaborativeArt.sol\":1881:1882  i */\n      dup2\n        /* \"contracts/CollaborativeArt.sol\":1881:1899  i < artists.length */\n      lt\n        /* \"contracts/CollaborativeArt.sol\":1861:2068  for (uint256 i = 0; i < artists.length; i++){... */\n      iszero\n      tag_96\n      jumpi\n        /* \"contracts/CollaborativeArt.sol\":1920:1940  Artist memory artist */\n      0x00\n        /* \"contracts/CollaborativeArt.sol\":1943:1950  artists */\n      0x01\n        /* \"contracts/CollaborativeArt.sol\":1951:1952  i */\n      dup3\n        /* \"contracts/CollaborativeArt.sol\":1943:1953  artists[i] */\n      dup2\n      sload\n      dup2\n      lt\n      tag_98\n      jumpi\n      tag_99\n      tag_100\n      jump\t// in\n    tag_99:\n    tag_98:\n      swap1\n      0x00\n      mstore\n      keccak256(0x00, 0x20)\n      swap1\n      0x02\n      mul\n      add\n        /* \"contracts/CollaborativeArt.sol\":1920:1953  Artist memory artist = artists[i] */\n      mload(0x40)\n      dup1\n      0x40\n      add\n      0x40\n      mstore\n      swap1\n      dup2\n      0x00\n      dup3\n      add\n      0x00\n      swap1\n      sload\n      swap1\n      0x0100\n      exp\n      swap1\n      div\n      0xffffffffffffffffffffffffffffffffffffffff\n      and\n      0xffffffffffffffffffffffffffffffffffffffff\n      and\n      0xffffffffffffffffffffffffffffffffffffffff\n      and\n      dup2\n      mstore\n      0x20\n      add\n      0x01\n      dup3\n      add\n      sload\n      dup2\n      mstore\n      pop\n      pop\n      swap1\n      pop\n        /* \"contracts/CollaborativeArt.sol\":1976:1982  artist */\n      dup1\n        /* \"contracts/CollaborativeArt.sol\":1976:1996  artist.artistAddress */\n      0x00\n      add\n      mload\n        /* \"contracts/CollaborativeArt.sol\":1968:2006  payable(artist.artistAddress).transfer */\n      0xffffffffffffffffffffffffffffffffffffffff\n      and\n        /* \"contracts/CollaborativeArt.sol\":1968:2056  payable(artist.artistAddress).transfer((artworkPrice * artist.ownershipPercentage )/100) */\n      0x08fc\n        /* \"contracts/CollaborativeArt.sol\":2052:2055  100 */\n      0x64\n        /* \"contracts/CollaborativeArt.sol\":2023:2029  artist */\n      dup4\n        /* \"contracts/CollaborativeArt.sol\":2023:2049  artist.ownershipPercentage */\n      0x20\n      add\n      mload\n        /* \"contracts/CollaborativeArt.sol\":2008:2020  artworkPrice */\n      sload(0x05)\n        /* \"contracts/CollaborativeArt.sol\":2008:2049  artworkPrice * artist.ownershipPercentage */\n      tag_102\n      swap2\n      swap1\n      tag_103\n      jump\t// in\n    tag_102:\n        /* \"contracts/CollaborativeArt.sol\":2007:2055  (artworkPrice * artist.ownershipPercentage )/100 */\n      tag_104\n      swap2\n      swap1\n      tag_105\n      jump\t// in\n    tag_104:\n        /* \"contracts/CollaborativeArt.sol\":1968:2056  payable(artist.artistAddress).transfer((artworkPrice * artist.ownershipPercentage )/100) */\n      swap1\n      dup2\n      iszero\n      mul\n      swap1\n      mload(0x40)\n      0x00\n      mload(0x40)\n      dup1\n      dup4\n      sub\n      dup2\n      dup6\n      dup9\n      dup9\n      call\n      swap4\n      pop\n      pop\n      pop\n      pop\n      iszero\n      dup1\n      iszero\n      tag_107\n      jumpi\n      returndatasize\n      0x00\n      dup1\n      returndatacopy\n      revert(0x00, returndatasize)\n    tag_107:\n      pop\n        /* \"contracts/CollaborativeArt.sol\":1905:2068  {... */\n      pop\n        /* \"contracts/CollaborativeArt.sol\":1901:1904  i++ */\n      dup1\n      dup1\n      0x01\n      add\n      swap2\n      pop\n      pop\n        /* \"contracts/CollaborativeArt.sol\":1861:2068  for (uint256 i = 0; i < artists.length; i++){... */\n      jump(tag_95)\n    tag_96:\n      pop\n        /* \"contracts/CollaborativeArt.sol\":1816:2075  function distributeFunds() private{... */\n      jump\t// out\n        /* \"#utility.yul\":7:82   */\n    tag_108:\n        /* \"#utility.yul\":40:46   */\n      0x00\n        /* \"#utility.yul\":73:75   */\n      0x40\n        /* \"#utility.yul\":67:76   */\n      mload\n        /* \"#utility.yul\":57:76   */\n      swap1\n      pop\n        /* \"#utility.yul\":7:82   */\n      swap1\n      jump\t// out\n        /* \"#utility.yul\":88:205   */\n    tag_109:\n        /* \"#utility.yul\":197:198   */\n      0x00\n        /* \"#utility.yul\":194:195   */\n      dup1\n        /* \"#utility.yul\":187:199   */\n      revert\n        /* \"#utility.yul\":211:328   */\n    tag_110:\n        /* \"#utility.yul\":320:321   */\n      0x00\n        /* \"#utility.yul\":317:318   */\n      dup1\n        /* \"#utility.yul\":310:322   */\n      revert\n        /* \"#utility.yul\":334:460   */\n    tag_111:\n        /* \"#utility.yul\":371:378   */\n      0x00\n        /* \"#utility.yul\":411:453   */\n      0xffffffffffffffffffffffffffffffffffffffff\n        /* \"#utility.yul\":404:409   */\n      dup3\n        /* \"#utility.yul\":400:454   */\n      and\n        /* \"#utility.yul\":389:454   */\n      swap1\n      pop\n        /* \"#utility.yul\":334:460   */\n      swap2\n      swap1\n      pop\n      jump\t// out\n        /* \"#utility.yul\":466:562   */\n    tag_112:\n        /* \"#utility.yul\":503:510   */\n      0x00\n        /* \"#utility.yul\":532:556   */\n      tag_152\n        /* \"#utility.yul\":550:555   */\n      dup3\n        /* \"#utility.yul\":532:556   */\n      tag_111\n      jump\t// in\n    tag_152:\n        /* \"#utility.yul\":521:556   */\n      swap1\n      pop\n        /* \"#utility.yul\":466:562   */\n      swap2\n      swap1\n      pop\n      jump\t// out\n        /* \"#utility.yul\":568:690   */\n    tag_113:\n        /* \"#utility.yul\":641:665   */\n      tag_154\n        /* \"#utility.yul\":659:664   */\n      dup2\n        /* \"#utility.yul\":641:665   */\n      tag_112\n      jump\t// in\n    tag_154:\n        /* \"#utility.yul\":634:639   */\n      dup2\n        /* \"#utility.yul\":631:666   */\n      eq\n        /* \"#utility.yul\":621:684   */\n      tag_155\n      jumpi\n        /* \"#utility.yul\":680:681   */\n      0x00\n        /* \"#utility.yul\":677:678   */\n      dup1\n        /* \"#utility.yul\":670:682   */\n      revert\n        /* \"#utility.yul\":621:684   */\n    tag_155:\n        /* \"#utility.yul\":568:690   */\n      pop\n      jump\t// out\n        /* \"#utility.yul\":696:835   */\n    tag_114:\n        /* \"#utility.yul\":742:747   */\n      0x00\n        /* \"#utility.yul\":780:786   */\n      dup2\n        /* \"#utility.yul\":767:787   */\n      calldataload\n        /* \"#utility.yul\":758:787   */\n      swap1\n      pop\n        /* \"#utility.yul\":796:829   */\n      tag_157\n        /* \"#utility.yul\":823:828   */\n      dup2\n        /* \"#utility.yul\":796:829   */\n      tag_113\n      jump\t// in\n    tag_157:\n        /* \"#utility.yul\":696:835   */\n      swap3\n      swap2\n      pop\n      pop\n      jump\t// out\n        /* \"#utility.yul\":841:918   */\n    tag_115:\n        /* \"#utility.yul\":878:885   */\n      0x00\n        /* \"#utility.yul\":907:912   */\n      dup2\n        /* \"#utility.yul\":896:912   */\n      swap1\n      pop\n        /* \"#utility.yul\":841:918   */\n      swap2\n      swap1\n      pop\n      jump\t// out\n        /* \"#utility.yul\":924:1046   */\n    tag_116:\n        /* \"#utility.yul\":997:1021   */\n      tag_160\n        /* \"#utility.yul\":1015:1020   */\n      dup2\n        /* \"#utility.yul\":997:1021   */\n      tag_115\n      jump\t// in\n    tag_160:\n        /* \"#utility.yul\":990:995   */\n      dup2\n        /* \"#utility.yul\":987:1022   */\n      eq\n        /* \"#utility.yul\":977:1040   */\n      tag_161\n      jumpi\n        /* \"#utility.yul\":1036:1037   */\n      0x00\n        /* \"#utility.yul\":1033:1034   */\n      dup1\n        /* \"#utility.yul\":1026:1038   */\n      revert\n        /* \"#utility.yul\":977:1040   */\n    tag_161:\n        /* \"#utility.yul\":924:1046   */\n      pop\n      jump\t// out\n        /* \"#utility.yul\":1052:1191   */\n    tag_117:\n        /* \"#utility.yul\":1098:1103   */\n      0x00\n        /* \"#utility.yul\":1136:1142   */\n      dup2\n        /* \"#utility.yul\":1123:1143   */\n      calldataload\n        /* \"#utility.yul\":1114:1143   */\n      swap1\n      pop\n        /* \"#utility.yul\":1152:1185   */\n      tag_163\n        /* \"#utility.yul\":1179:1184   */\n      dup2\n        /* \"#utility.yul\":1152:1185   */\n      tag_116\n      jump\t// in\n    tag_163:\n        /* \"#utility.yul\":1052:1191   */\n      swap3\n      swap2\n      pop\n      pop\n      jump\t// out\n        /* \"#utility.yul\":1197:1671   */\n    tag_16:\n        /* \"#utility.yul\":1265:1271   */\n      0x00\n        /* \"#utility.yul\":1273:1279   */\n      dup1\n        /* \"#utility.yul\":1322:1324   */\n      0x40\n        /* \"#utility.yul\":1310:1319   */\n      dup4\n        /* \"#utility.yul\":1301:1308   */\n      dup6\n        /* \"#utility.yul\":1297:1320   */\n      sub\n        /* \"#utility.yul\":1293:1325   */\n      slt\n        /* \"#utility.yul\":1290:1409   */\n      iszero\n      tag_165\n      jumpi\n        /* \"#utility.yul\":1328:1407   */\n      tag_166\n      tag_109\n      jump\t// in\n    tag_166:\n        /* \"#utility.yul\":1290:1409   */\n    tag_165:\n        /* \"#utility.yul\":1448:1449   */\n      0x00\n        /* \"#utility.yul\":1473:1526   */\n      tag_167\n        /* \"#utility.yul\":1518:1525   */\n      dup6\n        /* \"#utility.yul\":1509:1515   */\n      dup3\n        /* \"#utility.yul\":1498:1507   */\n      dup7\n        /* \"#utility.yul\":1494:1516   */\n      add\n        /* \"#utility.yul\":1473:1526   */\n      tag_114\n      jump\t// in\n    tag_167:\n        /* \"#utility.yul\":1463:1526   */\n      swap3\n      pop\n        /* \"#utility.yul\":1419:1536   */\n      pop\n        /* \"#utility.yul\":1575:1577   */\n      0x20\n        /* \"#utility.yul\":1601:1654   */\n      tag_168\n        /* \"#utility.yul\":1646:1653   */\n      dup6\n        /* \"#utility.yul\":1637:1643   */\n      dup3\n        /* \"#utility.yul\":1626:1635   */\n      dup7\n        /* \"#utility.yul\":1622:1644   */\n      add\n        /* \"#utility.yul\":1601:1654   */\n      tag_117\n      jump\t// in\n    tag_168:\n        /* \"#utility.yul\":1591:1654   */\n      swap2\n      pop\n        /* \"#utility.yul\":1546:1664   */\n      pop\n        /* \"#utility.yul\":1197:1671   */\n      swap3\n      pop\n      swap3\n      swap1\n      pop\n      jump\t// out\n        /* \"#utility.yul\":1677:2006   */\n    tag_21:\n        /* \"#utility.yul\":1736:1742   */\n      0x00\n        /* \"#utility.yul\":1785:1787   */\n      0x20\n        /* \"#utility.yul\":1773:1782   */\n      dup3\n        /* \"#utility.yul\":1764:1771   */\n      dup5\n        /* \"#utility.yul\":1760:1783   */\n      sub\n        /* \"#utility.yul\":1756:1788   */\n      slt\n        /* \"#utility.yul\":1753:1872   */\n      iszero\n      tag_170\n      jumpi\n        /* \"#utility.yul\":1791:1870   */\n      tag_171\n      tag_109\n      jump\t// in\n    tag_171:\n        /* \"#utility.yul\":1753:1872   */\n    tag_170:\n        /* \"#utility.yul\":1911:1912   */\n      0x00\n        /* \"#utility.yul\":1936:1989   */\n      tag_172\n        /* \"#utility.yul\":1981:1988   */\n      dup5\n        /* \"#utility.yul\":1972:1978   */\n      dup3\n        /* \"#utility.yul\":1961:1970   */\n      dup6\n        /* \"#utility.yul\":1957:1979   */\n      add\n        /* \"#utility.yul\":1936:1989   */\n      tag_114\n      jump\t// in\n    tag_172:\n        /* \"#utility.yul\":1926:1989   */\n      swap2\n      pop\n        /* \"#utility.yul\":1882:1999   */\n      pop\n        /* \"#utility.yul\":1677:2006   */\n      swap3\n      swap2\n      pop\n      pop\n      jump\t// out\n        /* \"#utility.yul\":2012:2102   */\n    tag_118:\n        /* \"#utility.yul\":2046:2053   */\n      0x00\n        /* \"#utility.yul\":2089:2094   */\n      dup2\n        /* \"#utility.yul\":2082:2095   */\n      iszero\n        /* \"#utility.yul\":2075:2096   */\n      iszero\n        /* \"#utility.yul\":2064:2096   */\n      swap1\n      pop\n        /* \"#utility.yul\":2012:2102   */\n      swap2\n      swap1\n      pop\n      jump\t// out\n        /* \"#utility.yul\":2108:2217   */\n    tag_119:\n        /* \"#utility.yul\":2189:2210   */\n      tag_175\n        /* \"#utility.yul\":2204:2209   */\n      dup2\n        /* \"#utility.yul\":2189:2210   */\n      tag_118\n      jump\t// in\n    tag_175:\n        /* \"#utility.yul\":2184:2187   */\n      dup3\n        /* \"#utility.yul\":2177:2211   */\n      mstore\n        /* \"#utility.yul\":2108:2217   */\n      pop\n      pop\n      jump\t// out\n        /* \"#utility.yul\":2223:2433   */\n    tag_24:\n        /* \"#utility.yul\":2310:2314   */\n      0x00\n        /* \"#utility.yul\":2348:2350   */\n      0x20\n        /* \"#utility.yul\":2337:2346   */\n      dup3\n        /* \"#utility.yul\":2333:2351   */\n      add\n        /* \"#utility.yul\":2325:2351   */\n      swap1\n      pop\n        /* \"#utility.yul\":2361:2426   */\n      tag_177\n        /* \"#utility.yul\":2423:2424   */\n      0x00\n        /* \"#utility.yul\":2412:2421   */\n      dup4\n        /* \"#utility.yul\":2408:2425   */\n      add\n        /* \"#utility.yul\":2399:2405   */\n      dup5\n        /* \"#utility.yul\":2361:2426   */\n      tag_119\n      jump\t// in\n    tag_177:\n        /* \"#utility.yul\":2223:2433   */\n      swap3\n      swap2\n      pop\n      pop\n      jump\t// out\n        /* \"#utility.yul\":2439:2768   */\n    tag_28:\n        /* \"#utility.yul\":2498:2504   */\n      0x00\n        /* \"#utility.yul\":2547:2549   */\n      0x20\n        /* \"#utility.yul\":2535:2544   */\n      dup3\n        /* \"#utility.yul\":2526:2533   */\n      dup5\n        /* \"#utility.yul\":2522:2545   */\n      sub\n        /* \"#utility.yul\":2518:2550   */\n      slt\n        /* \"#utility.yul\":2515:2634   */\n      iszero\n      tag_179\n      jumpi\n        /* \"#utility.yul\":2553:2632   */\n      tag_180\n      tag_109\n      jump\t// in\n    tag_180:\n        /* \"#utility.yul\":2515:2634   */\n    tag_179:\n        /* \"#utility.yul\":2673:2674   */\n      0x00\n        /* \"#utility.yul\":2698:2751   */\n      tag_181\n        /* \"#utility.yul\":2743:2750   */\n      dup5\n        /* \"#utility.yul\":2734:2740   */\n      dup3\n        /* \"#utility.yul\":2723:2732   */\n      dup6\n        /* \"#utility.yul\":2719:2741   */\n      add\n        /* \"#utility.yul\":2698:2751   */\n      tag_117\n      jump\t// in\n    tag_181:\n        /* \"#utility.yul\":2688:2751   */\n      swap2\n      pop\n        /* \"#utility.yul\":2644:2761   */\n      pop\n        /* \"#utility.yul\":2439:2768   */\n      swap3\n      swap2\n      pop\n      pop\n      jump\t// out\n        /* \"#utility.yul\":2774:2892   */\n    tag_120:\n        /* \"#utility.yul\":2861:2885   */\n      tag_183\n        /* \"#utility.yul\":2879:2884   */\n      dup2\n        /* \"#utility.yul\":2861:2885   */\n      tag_115\n      jump\t// in\n    tag_183:\n        /* \"#utility.yul\":2856:2859   */\n      dup3\n        /* \"#utility.yul\":2849:2886   */\n      mstore\n        /* \"#utility.yul\":2774:2892   */\n      pop\n      pop\n      jump\t// out\n        /* \"#utility.yul\":2898:3120   */\n    tag_35:\n        /* \"#utility.yul\":2991:2995   */\n      0x00\n        /* \"#utility.yul\":3029:3031   */\n      0x20\n        /* \"#utility.yul\":3018:3027   */\n      dup3\n        /* \"#utility.yul\":3014:3032   */\n      add\n        /* \"#utility.yul\":3006:3032   */\n      swap1\n      pop\n        /* \"#utility.yul\":3042:3113   */\n      tag_185\n        /* \"#utility.yul\":3110:3111   */\n      0x00\n        /* \"#utility.yul\":3099:3108   */\n      dup4\n        /* \"#utility.yul\":3095:3112   */\n      add\n        /* \"#utility.yul\":3086:3092   */\n      dup5\n        /* \"#utility.yul\":3042:3113   */\n      tag_120\n      jump\t// in\n    tag_185:\n        /* \"#utility.yul\":2898:3120   */\n      swap3\n      swap2\n      pop\n      pop\n      jump\t// out\n        /* \"#utility.yul\":3126:3244   */\n    tag_121:\n        /* \"#utility.yul\":3213:3237   */\n      tag_187\n        /* \"#utility.yul\":3231:3236   */\n      dup2\n        /* \"#utility.yul\":3213:3237   */\n      tag_112\n      jump\t// in\n    tag_187:\n        /* \"#utility.yul\":3208:3211   */\n      dup3\n        /* \"#utility.yul\":3201:3238   */\n      mstore\n        /* \"#utility.yul\":3126:3244   */\n      pop\n      pop\n      jump\t// out\n        /* \"#utility.yul\":3250:3472   */\n    tag_44:\n        /* \"#utility.yul\":3343:3347   */\n      0x00\n        /* \"#utility.yul\":3381:3383   */\n      0x20\n        /* \"#utility.yul\":3370:3379   */\n      dup3\n        /* \"#utility.yul\":3366:3384   */\n      add\n        /* \"#utility.yul\":3358:3384   */\n      swap1\n      pop\n        /* \"#utility.yul\":3394:3465   */\n      tag_189\n        /* \"#utility.yul\":3462:3463   */\n      0x00\n        /* \"#utility.yul\":3451:3460   */\n      dup4\n        /* \"#utility.yul\":3447:3464   */\n      add\n        /* \"#utility.yul\":3438:3444   */\n      dup5\n        /* \"#utility.yul\":3394:3465   */\n      tag_121\n      jump\t// in\n    tag_189:\n        /* \"#utility.yul\":3250:3472   */\n      swap3\n      swap2\n      pop\n      pop\n      jump\t// out\n        /* \"#utility.yul\":3478:3595   */\n    tag_122:\n        /* \"#utility.yul\":3587:3588   */\n      0x00\n        /* \"#utility.yul\":3584:3585   */\n      dup1\n        /* \"#utility.yul\":3577:3589   */\n      revert\n        /* \"#utility.yul\":3601:3718   */\n    tag_123:\n        /* \"#utility.yul\":3710:3711   */\n      0x00\n        /* \"#utility.yul\":3707:3708   */\n      dup1\n        /* \"#utility.yul\":3700:3712   */\n      revert\n        /* \"#utility.yul\":3724:3826   */\n    tag_124:\n        /* \"#utility.yul\":3765:3771   */\n      0x00\n        /* \"#utility.yul\":3816:3818   */\n      0x1f\n        /* \"#utility.yul\":3812:3819   */\n      not\n        /* \"#utility.yul\":3807:3809   */\n      0x1f\n        /* \"#utility.yul\":3800:3805   */\n      dup4\n        /* \"#utility.yul\":3796:3810   */\n      add\n        /* \"#utility.yul\":3792:3820   */\n      and\n        /* \"#utility.yul\":3782:3820   */\n      swap1\n      pop\n        /* \"#utility.yul\":3724:3826   */\n      swap2\n      swap1\n      pop\n      jump\t// out\n        /* \"#utility.yul\":3832:4012   */\n    tag_125:\n        /* \"#utility.yul\":3880:3957   */\n      0x4e487b7100000000000000000000000000000000000000000000000000000000\n        /* \"#utility.yul\":3877:3878   */\n      0x00\n        /* \"#utility.yul\":3870:3958   */\n      mstore\n        /* \"#utility.yul\":3977:3981   */\n      0x41\n        /* \"#utility.yul\":3974:3975   */\n      0x04\n        /* \"#utility.yul\":3967:3982   */\n      mstore\n        /* \"#utility.yul\":4001:4005   */\n      0x24\n        /* \"#utility.yul\":3998:3999   */\n      0x00\n        /* \"#utility.yul\":3991:4006   */\n      revert\n        /* \"#utility.yul\":4018:4299   */\n    tag_126:\n        /* \"#utility.yul\":4101:4128   */\n      tag_195\n        /* \"#utility.yul\":4123:4127   */\n      dup3\n        /* \"#utility.yul\":4101:4128   */\n      tag_124\n      jump\t// in\n    tag_195:\n        /* \"#utility.yul\":4093:4099   */\n      dup2\n        /* \"#utility.yul\":4089:4129   */\n      add\n        /* \"#utility.yul\":4231:4237   */\n      dup2\n        /* \"#utility.yul\":4219:4229   */\n      dup2\n        /* \"#utility.yul\":4216:4238   */\n      lt\n        /* \"#utility.yul\":4195:4213   */\n      0xffffffffffffffff\n        /* \"#utility.yul\":4183:4193   */\n      dup3\n        /* \"#utility.yul\":4180:4214   */\n      gt\n        /* \"#utility.yul\":4177:4239   */\n      or\n        /* \"#utility.yul\":4174:4262   */\n      iszero\n      tag_196\n      jumpi\n        /* \"#utility.yul\":4242:4260   */\n      tag_197\n      tag_125\n      jump\t// in\n    tag_197:\n        /* \"#utility.yul\":4174:4262   */\n    tag_196:\n        /* \"#utility.yul\":4282:4292   */\n      dup1\n        /* \"#utility.yul\":4278:4280   */\n      0x40\n        /* \"#utility.yul\":4271:4293   */\n      mstore\n        /* \"#utility.yul\":4061:4299   */\n      pop\n        /* \"#utility.yul\":4018:4299   */\n      pop\n      pop\n      jump\t// out\n        /* \"#utility.yul\":4305:4434   */\n    tag_127:\n        /* \"#utility.yul\":4339:4345   */\n      0x00\n        /* \"#utility.yul\":4366:4386   */\n      tag_199\n      tag_108\n      jump\t// in\n    tag_199:\n        /* \"#utility.yul\":4356:4386   */\n      swap1\n      pop\n        /* \"#utility.yul\":4395:4428   */\n      tag_200\n        /* \"#utility.yul\":4423:4427   */\n      dup3\n        /* \"#utility.yul\":4415:4421   */\n      dup3\n        /* \"#utility.yul\":4395:4428   */\n      tag_126\n      jump\t// in\n    tag_200:\n        /* \"#utility.yul\":4305:4434   */\n      swap2\n      swap1\n      pop\n      jump\t// out\n        /* \"#utility.yul\":4440:4748   */\n    tag_128:\n        /* \"#utility.yul\":4502:4506   */\n      0x00\n        /* \"#utility.yul\":4592:4610   */\n      0xffffffffffffffff\n        /* \"#utility.yul\":4584:4590   */\n      dup3\n        /* \"#utility.yul\":4581:4611   */\n      gt\n        /* \"#utility.yul\":4578:4634   */\n      iszero\n      tag_202\n      jumpi\n        /* \"#utility.yul\":4614:4632   */\n      tag_203\n      tag_125\n      jump\t// in\n    tag_203:\n        /* \"#utility.yul\":4578:4634   */\n    tag_202:\n        /* \"#utility.yul\":4652:4681   */\n      tag_204\n        /* \"#utility.yul\":4674:4680   */\n      dup3\n        /* \"#utility.yul\":4652:4681   */\n      tag_124\n      jump\t// in\n    tag_204:\n        /* \"#utility.yul\":4644:4681   */\n      swap1\n      pop\n        /* \"#utility.yul\":4736:4740   */\n      0x20\n        /* \"#utility.yul\":4730:4734   */\n      dup2\n        /* \"#utility.yul\":4726:4741   */\n      add\n        /* \"#utility.yul\":4718:4741   */\n      swap1\n      pop\n        /* \"#utility.yul\":4440:4748   */\n      swap2\n      swap1\n      pop\n      jump\t// out\n        /* \"#utility.yul\":4754:4900   */\n    tag_129:\n        /* \"#utility.yul\":4851:4857   */\n      dup3\n        /* \"#utility.yul\":4846:4849   */\n      dup2\n        /* \"#utility.yul\":4841:4844   */\n      dup4\n        /* \"#utility.yul\":4828:4858   */\n      calldatacopy\n        /* \"#utility.yul\":4892:4893   */\n      0x00\n        /* \"#utility.yul\":4883:4889   */\n      dup4\n        /* \"#utility.yul\":4878:4881   */\n      dup4\n        /* \"#utility.yul\":4874:4890   */\n      add\n        /* \"#utility.yul\":4867:4894   */\n      mstore\n        /* \"#utility.yul\":4754:4900   */\n      pop\n      pop\n      pop\n      jump\t// out\n        /* \"#utility.yul\":4906:5331   */\n    tag_130:\n        /* \"#utility.yul\":4984:4989   */\n      0x00\n        /* \"#utility.yul\":5009:5075   */\n      tag_207\n        /* \"#utility.yul\":5025:5074   */\n      tag_208\n        /* \"#utility.yul\":5067:5073   */\n      dup5\n        /* \"#utility.yul\":5025:5074   */\n      tag_128\n      jump\t// in\n    tag_208:\n        /* \"#utility.yul\":5009:5075   */\n      tag_127\n      jump\t// in\n    tag_207:\n        /* \"#utility.yul\":5000:5075   */\n      swap1\n      pop\n        /* \"#utility.yul\":5098:5104   */\n      dup3\n        /* \"#utility.yul\":5091:5096   */\n      dup2\n        /* \"#utility.yul\":5084:5105   */\n      mstore\n        /* \"#utility.yul\":5136:5140   */\n      0x20\n        /* \"#utility.yul\":5129:5134   */\n      dup2\n        /* \"#utility.yul\":5125:5141   */\n      add\n        /* \"#utility.yul\":5174:5177   */\n      dup5\n        /* \"#utility.yul\":5165:5171   */\n      dup5\n        /* \"#utility.yul\":5160:5163   */\n      dup5\n        /* \"#utility.yul\":5156:5172   */\n      add\n        /* \"#utility.yul\":5153:5178   */\n      gt\n        /* \"#utility.yul\":5150:5262   */\n      iszero\n      tag_209\n      jumpi\n        /* \"#utility.yul\":5181:5260   */\n      tag_210\n      tag_123\n      jump\t// in\n    tag_210:\n        /* \"#utility.yul\":5150:5262   */\n    tag_209:\n        /* \"#utility.yul\":5271:5325   */\n      tag_211\n        /* \"#utility.yul\":5318:5324   */\n      dup5\n        /* \"#utility.yul\":5313:5316   */\n      dup3\n        /* \"#utility.yul\":5308:5311   */\n      dup6\n        /* \"#utility.yul\":5271:5325   */\n      tag_129\n      jump\t// in\n    tag_211:\n        /* \"#utility.yul\":4990:5331   */\n      pop\n        /* \"#utility.yul\":4906:5331   */\n      swap4\n      swap3\n      pop\n      pop\n      pop\n      jump\t// out\n        /* \"#utility.yul\":5351:5691   */\n    tag_131:\n        /* \"#utility.yul\":5407:5412   */\n      0x00\n        /* \"#utility.yul\":5456:5459   */\n      dup3\n        /* \"#utility.yul\":5449:5453   */\n      0x1f\n        /* \"#utility.yul\":5441:5447   */\n      dup4\n        /* \"#utility.yul\":5437:5454   */\n      add\n        /* \"#utility.yul\":5433:5460   */\n      slt\n        /* \"#utility.yul\":5423:5545   */\n      tag_213\n      jumpi\n        /* \"#utility.yul\":5464:5543   */\n      tag_214\n      tag_122\n      jump\t// in\n    tag_214:\n        /* \"#utility.yul\":5423:5545   */\n    tag_213:\n        /* \"#utility.yul\":5581:5587   */\n      dup2\n        /* \"#utility.yul\":5568:5588   */\n      calldataload\n        /* \"#utility.yul\":5606:5685   */\n      tag_215\n        /* \"#utility.yul\":5681:5684   */\n      dup5\n        /* \"#utility.yul\":5673:5679   */\n      dup3\n        /* \"#utility.yul\":5666:5670   */\n      0x20\n        /* \"#utility.yul\":5658:5664   */\n      dup7\n        /* \"#utility.yul\":5654:5671   */\n      add\n        /* \"#utility.yul\":5606:5685   */\n      tag_130\n      jump\t// in\n    tag_215:\n        /* \"#utility.yul\":5597:5685   */\n      swap2\n      pop\n        /* \"#utility.yul\":5413:5691   */\n      pop\n        /* \"#utility.yul\":5351:5691   */\n      swap3\n      swap2\n      pop\n      pop\n      jump\t// out\n        /* \"#utility.yul\":5697:6206   */\n    tag_48:\n        /* \"#utility.yul\":5766:5772   */\n      0x00\n        /* \"#utility.yul\":5815:5817   */\n      0x20\n        /* \"#utility.yul\":5803:5812   */\n      dup3\n        /* \"#utility.yul\":5794:5801   */\n      dup5\n        /* \"#utility.yul\":5790:5813   */\n      sub\n        /* \"#utility.yul\":5786:5818   */\n      slt\n        /* \"#utility.yul\":5783:5902   */\n      iszero\n      tag_217\n      jumpi\n        /* \"#utility.yul\":5821:5900   */\n      tag_218\n      tag_109\n      jump\t// in\n    tag_218:\n        /* \"#utility.yul\":5783:5902   */\n    tag_217:\n        /* \"#utility.yul\":5969:5970   */\n      0x00\n        /* \"#utility.yul\":5958:5967   */\n      dup3\n        /* \"#utility.yul\":5954:5971   */\n      add\n        /* \"#utility.yul\":5941:5972   */\n      calldataload\n        /* \"#utility.yul\":5999:6017   */\n      0xffffffffffffffff\n        /* \"#utility.yul\":5991:5997   */\n      dup2\n        /* \"#utility.yul\":5988:6018   */\n      gt\n        /* \"#utility.yul\":5985:6102   */\n      iszero\n      tag_219\n      jumpi\n        /* \"#utility.yul\":6021:6100   */\n      tag_220\n      tag_110\n      jump\t// in\n    tag_220:\n        /* \"#utility.yul\":5985:6102   */\n    tag_219:\n        /* \"#utility.yul\":6126:6189   */\n      tag_221\n        /* \"#utility.yul\":6181:6188   */\n      dup5\n        /* \"#utility.yul\":6172:6178   */\n      dup3\n        /* \"#utility.yul\":6161:6170   */\n      dup6\n        /* \"#utility.yul\":6157:6179   */\n      add\n        /* \"#utility.yul\":6126:6189   */\n      tag_131\n      jump\t// in\n    tag_221:\n        /* \"#utility.yul\":6116:6189   */\n      swap2\n      pop\n        /* \"#utility.yul\":5912:6199   */\n      pop\n        /* \"#utility.yul\":5697:6206   */\n      swap3\n      swap2\n      pop\n      pop\n      jump\t// out\n        /* \"#utility.yul\":6212:6311   */\n    tag_132:\n        /* \"#utility.yul\":6264:6270   */\n      0x00\n        /* \"#utility.yul\":6298:6303   */\n      dup2\n        /* \"#utility.yul\":6292:6304   */\n      mload\n        /* \"#utility.yul\":6282:6304   */\n      swap1\n      pop\n        /* \"#utility.yul\":6212:6311   */\n      swap2\n      swap1\n      pop\n      jump\t// out\n        /* \"#utility.yul\":6317:6486   */\n    tag_133:\n        /* \"#utility.yul\":6401:6412   */\n      0x00\n        /* \"#utility.yul\":6435:6441   */\n      dup3\n        /* \"#utility.yul\":6430:6433   */\n      dup3\n        /* \"#utility.yul\":6423:6442   */\n      mstore\n        /* \"#utility.yul\":6475:6479   */\n      0x20\n        /* \"#utility.yul\":6470:6473   */\n      dup3\n        /* \"#utility.yul\":6466:6480   */\n      add\n        /* \"#utility.yul\":6451:6480   */\n      swap1\n      pop\n        /* \"#utility.yul\":6317:6486   */\n      swap3\n      swap2\n      pop\n      pop\n      jump\t// out\n        /* \"#utility.yul\":6492:6738   */\n    tag_134:\n        /* \"#utility.yul\":6573:6574   */\n      0x00\n        /* \"#utility.yul\":6583:6696   */\n    tag_225:\n        /* \"#utility.yul\":6597:6603   */\n      dup4\n        /* \"#utility.yul\":6594:6595   */\n      dup2\n        /* \"#utility.yul\":6591:6604   */\n      lt\n        /* \"#utility.yul\":6583:6696   */\n      iszero\n      tag_227\n      jumpi\n        /* \"#utility.yul\":6682:6683   */\n      dup1\n        /* \"#utility.yul\":6677:6680   */\n      dup3\n        /* \"#utility.yul\":6673:6684   */\n      add\n        /* \"#utility.yul\":6667:6685   */\n      mload\n        /* \"#utility.yul\":6663:6664   */\n      dup2\n        /* \"#utility.yul\":6658:6661   */\n      dup5\n        /* \"#utility.yul\":6654:6665   */\n      add\n        /* \"#utility.yul\":6647:6686   */\n      mstore\n        /* \"#utility.yul\":6619:6621   */\n      0x20\n        /* \"#utility.yul\":6616:6617   */\n      dup2\n        /* \"#utility.yul\":6612:6622   */\n      add\n        /* \"#utility.yul\":6607:6622   */\n      swap1\n      pop\n        /* \"#utility.yul\":6583:6696   */\n      jump(tag_225)\n    tag_227:\n        /* \"#utility.yul\":6730:6731   */\n      0x00\n        /* \"#utility.yul\":6721:6727   */\n      dup5\n        /* \"#utility.yul\":6716:6719   */\n      dup5\n        /* \"#utility.yul\":6712:6728   */\n      add\n        /* \"#utility.yul\":6705:6732   */\n      mstore\n        /* \"#utility.yul\":6554:6738   */\n      pop\n        /* \"#utility.yul\":6492:6738   */\n      pop\n      pop\n      pop\n      jump\t// out\n        /* \"#utility.yul\":6744:7121   */\n    tag_135:\n        /* \"#utility.yul\":6832:6835   */\n      0x00\n        /* \"#utility.yul\":6860:6899   */\n      tag_229\n        /* \"#utility.yul\":6893:6898   */\n      dup3\n        /* \"#utility.yul\":6860:6899   */\n      tag_132\n      jump\t// in\n    tag_229:\n        /* \"#utility.yul\":6915:6986   */\n      tag_230\n        /* \"#utility.yul\":6979:6985   */\n      dup2\n        /* \"#utility.yul\":6974:6977   */\n      dup6\n        /* \"#utility.yul\":6915:6986   */\n      tag_133\n      jump\t// in\n    tag_230:\n        /* \"#utility.yul\":6908:6986   */\n      swap4\n      pop\n        /* \"#utility.yul\":6995:7060   */\n      tag_231\n        /* \"#utility.yul\":7053:7059   */\n      dup2\n        /* \"#utility.yul\":7048:7051   */\n      dup6\n        /* \"#utility.yul\":7041:7045   */\n      0x20\n        /* \"#utility.yul\":7034:7039   */\n      dup7\n        /* \"#utility.yul\":7030:7046   */\n      add\n        /* \"#utility.yul\":6995:7060   */\n      tag_134\n      jump\t// in\n    tag_231:\n        /* \"#utility.yul\":7085:7114   */\n      tag_232\n        /* \"#utility.yul\":7107:7113   */\n      dup2\n        /* \"#utility.yul\":7085:7114   */\n      tag_124\n      jump\t// in\n    tag_232:\n        /* \"#utility.yul\":7080:7083   */\n      dup5\n        /* \"#utility.yul\":7076:7115   */\n      add\n        /* \"#utility.yul\":7069:7115   */\n      swap2\n      pop\n        /* \"#utility.yul\":6836:7121   */\n      pop\n        /* \"#utility.yul\":6744:7121   */\n      swap3\n      swap2\n      pop\n      pop\n      jump\t// out\n        /* \"#utility.yul\":7127:7440   */\n    tag_51:\n        /* \"#utility.yul\":7240:7244   */\n      0x00\n        /* \"#utility.yul\":7278:7280   */\n      0x20\n        /* \"#utility.yul\":7267:7276   */\n      dup3\n        /* \"#utility.yul\":7263:7281   */\n      add\n        /* \"#utility.yul\":7255:7281   */\n      swap1\n      pop\n        /* \"#utility.yul\":7327:7336   */\n      dup2\n        /* \"#utility.yul\":7321:7325   */\n      dup2\n        /* \"#utility.yul\":7317:7337   */\n      sub\n        /* \"#utility.yul\":7313:7314   */\n      0x00\n        /* \"#utility.yul\":7302:7311   */\n      dup4\n        /* \"#utility.yul\":7298:7315   */\n      add\n        /* \"#utility.yul\":7291:7338   */\n      mstore\n        /* \"#utility.yul\":7355:7433   */\n      tag_234\n        /* \"#utility.yul\":7428:7432   */\n      dup2\n        /* \"#utility.yul\":7419:7425   */\n      dup5\n        /* \"#utility.yul\":7355:7433   */\n      tag_135\n      jump\t// in\n    tag_234:\n        /* \"#utility.yul\":7347:7433   */\n      swap1\n      pop\n        /* \"#utility.yul\":7127:7440   */\n      swap3\n      swap2\n      pop\n      pop\n      jump\t// out\n        /* \"#utility.yul\":7446:7778   */\n    tag_59:\n        /* \"#utility.yul\":7567:7571   */\n      0x00\n        /* \"#utility.yul\":7605:7607   */\n      0x40\n        /* \"#utility.yul\":7594:7603   */\n      dup3\n        /* \"#utility.yul\":7590:7608   */\n      add\n        /* \"#utility.yul\":7582:7608   */\n      swap1\n      pop\n        /* \"#utility.yul\":7618:7689   */\n      tag_236\n        /* \"#utility.yul\":7686:7687   */\n      0x00\n        /* \"#utility.yul\":7675:7684   */\n      dup4\n        /* \"#utility.yul\":7671:7688   */\n      add\n        /* \"#utility.yul\":7662:7668   */\n      dup6\n        /* \"#utility.yul\":7618:7689   */\n      tag_121\n      jump\t// in\n    tag_236:\n        /* \"#utility.yul\":7699:7771   */\n      tag_237\n        /* \"#utility.yul\":7767:7769   */\n      0x20\n        /* \"#utility.yul\":7756:7765   */\n      dup4\n        /* \"#utility.yul\":7752:7770   */\n      add\n        /* \"#utility.yul\":7743:7749   */\n      dup5\n        /* \"#utility.yul\":7699:7771   */\n      tag_120\n      jump\t// in\n    tag_237:\n        /* \"#utility.yul\":7446:7778   */\n      swap4\n      swap3\n      pop\n      pop\n      pop\n      jump\t// out\n        /* \"#utility.yul\":7784:8008   */\n    tag_136:\n        /* \"#utility.yul\":7924:7958   */\n      0x4f6e6c7920746865206f776e65722063616e2063616c6c20746869732066756e\n        /* \"#utility.yul\":7920:7921   */\n      0x00\n        /* \"#utility.yul\":7912:7918   */\n      dup3\n        /* \"#utility.yul\":7908:7922   */\n      add\n        /* \"#utility.yul\":7901:7959   */\n      mstore\n        /* \"#utility.yul\":7993:8000   */\n      0x6374696f6e000000000000000000000000000000000000000000000000000000\n        /* \"#utility.yul\":7988:7990   */\n      0x20\n        /* \"#utility.yul\":7980:7986   */\n      dup3\n        /* \"#utility.yul\":7976:7991   */\n      add\n        /* \"#utility.yul\":7969:8001   */\n      mstore\n        /* \"#utility.yul\":7784:8008   */\n      pop\n      jump\t// out\n        /* \"#utility.yul\":8014:8380   */\n    tag_137:\n        /* \"#utility.yul\":8156:8159   */\n      0x00\n        /* \"#utility.yul\":8177:8244   */\n      tag_240\n        /* \"#utility.yul\":8241:8243   */\n      0x25\n        /* \"#utility.yul\":8236:8239   */\n      dup4\n        /* \"#utility.yul\":8177:8244   */\n      tag_133\n      jump\t// in\n    tag_240:\n        /* \"#utility.yul\":8170:8244   */\n      swap2\n      pop\n        /* \"#utility.yul\":8253:8346   */\n      tag_241\n        /* \"#utility.yul\":8342:8345   */\n      dup3\n        /* \"#utility.yul\":8253:8346   */\n      tag_136\n      jump\t// in\n    tag_241:\n        /* \"#utility.yul\":8371:8373   */\n      0x40\n        /* \"#utility.yul\":8366:8369   */\n      dup3\n        /* \"#utility.yul\":8362:8374   */\n      add\n        /* \"#utility.yul\":8355:8374   */\n      swap1\n      pop\n        /* \"#utility.yul\":8014:8380   */\n      swap2\n      swap1\n      pop\n      jump\t// out\n        /* \"#utility.yul\":8386:8805   */\n    tag_67:\n        /* \"#utility.yul\":8552:8556   */\n      0x00\n        /* \"#utility.yul\":8590:8592   */\n      0x20\n        /* \"#utility.yul\":8579:8588   */\n      dup3\n        /* \"#utility.yul\":8575:8593   */\n      add\n        /* \"#utility.yul\":8567:8593   */\n      swap1\n      pop\n        /* \"#utility.yul\":8639:8648   */\n      dup2\n        /* \"#utility.yul\":8633:8637   */\n      dup2\n        /* \"#utility.yul\":8629:8649   */\n      sub\n        /* \"#utility.yul\":8625:8626   */\n      0x00\n        /* \"#utility.yul\":8614:8623   */\n      dup4\n        /* \"#utility.yul\":8610:8627   */\n      add\n        /* \"#utility.yul\":8603:8650   */\n      mstore\n        /* \"#utility.yul\":8667:8798   */\n      tag_243\n        /* \"#utility.yul\":8793:8797   */\n      dup2\n        /* \"#utility.yul\":8667:8798   */\n      tag_137\n      jump\t// in\n    tag_243:\n        /* \"#utility.yul\":8659:8798   */\n      swap1\n      pop\n        /* \"#utility.yul\":8386:8805   */\n      swap2\n      swap1\n      pop\n      jump\t// out\n        /* \"#utility.yul\":8811:8991   */\n    tag_138:\n        /* \"#utility.yul\":8859:8936   */\n      0x4e487b7100000000000000000000000000000000000000000000000000000000\n        /* \"#utility.yul\":8856:8857   */\n      0x00\n        /* \"#utility.yul\":8849:8937   */\n      mstore\n        /* \"#utility.yul\":8956:8960   */\n      0x11\n        /* \"#utility.yul\":8953:8954   */\n      0x04\n        /* \"#utility.yul\":8946:8961   */\n      mstore\n        /* \"#utility.yul\":8980:8984   */\n      0x24\n        /* \"#utility.yul\":8977:8978   */\n      0x00\n        /* \"#utility.yul\":8970:8985   */\n      revert\n        /* \"#utility.yul\":8997:9188   */\n    tag_70:\n        /* \"#utility.yul\":9037:9040   */\n      0x00\n        /* \"#utility.yul\":9056:9076   */\n      tag_246\n        /* \"#utility.yul\":9074:9075   */\n      dup3\n        /* \"#utility.yul\":9056:9076   */\n      tag_115\n      jump\t// in\n    tag_246:\n        /* \"#utility.yul\":9051:9076   */\n      swap2\n      pop\n        /* \"#utility.yul\":9090:9110   */\n      tag_247\n        /* \"#utility.yul\":9108:9109   */\n      dup4\n        /* \"#utility.yul\":9090:9110   */\n      tag_115\n      jump\t// in\n    tag_247:\n        /* \"#utility.yul\":9085:9110   */\n      swap3\n      pop\n        /* \"#utility.yul\":9133:9134   */\n      dup3\n        /* \"#utility.yul\":9130:9131   */\n      dup3\n        /* \"#utility.yul\":9126:9135   */\n      add\n        /* \"#utility.yul\":9119:9135   */\n      swap1\n      pop\n        /* \"#utility.yul\":9154:9157   */\n      dup1\n        /* \"#utility.yul\":9151:9152   */\n      dup3\n        /* \"#utility.yul\":9148:9158   */\n      gt\n        /* \"#utility.yul\":9145:9181   */\n      iszero\n      tag_248\n      jumpi\n        /* \"#utility.yul\":9161:9179   */\n      tag_249\n      tag_138\n      jump\t// in\n    tag_249:\n        /* \"#utility.yul\":9145:9181   */\n    tag_248:\n        /* \"#utility.yul\":8997:9188   */\n      swap3\n      swap2\n      pop\n      pop\n      jump\t// out\n        /* \"#utility.yul\":9194:9368   */\n    tag_139:\n        /* \"#utility.yul\":9334:9360   */\n      0x546f74616c204f776e657273686970206d617820313030250000000000000000\n        /* \"#utility.yul\":9330:9331   */\n      0x00\n        /* \"#utility.yul\":9322:9328   */\n      dup3\n        /* \"#utility.yul\":9318:9332   */\n      add\n        /* \"#utility.yul\":9311:9361   */\n      mstore\n        /* \"#utility.yul\":9194:9368   */\n      pop\n      jump\t// out\n        /* \"#utility.yul\":9374:9740   */\n    tag_140:\n        /* \"#utility.yul\":9516:9519   */\n      0x00\n        /* \"#utility.yul\":9537:9604   */\n      tag_252\n        /* \"#utility.yul\":9601:9603   */\n      0x18\n        /* \"#utility.yul\":9596:9599   */\n      dup4\n        /* \"#utility.yul\":9537:9604   */\n      tag_133\n      jump\t// in\n    tag_252:\n        /* \"#utility.yul\":9530:9604   */\n      swap2\n      pop\n        /* \"#utility.yul\":9613:9706   */\n      tag_253\n        /* \"#utility.yul\":9702:9705   */\n      dup3\n        /* \"#utility.yul\":9613:9706   */\n      tag_139\n      jump\t// in\n    tag_253:\n        /* \"#utility.yul\":9731:9733   */\n      0x20\n        /* \"#utility.yul\":9726:9729   */\n      dup3\n        /* \"#utility.yul\":9722:9734   */\n      add\n        /* \"#utility.yul\":9715:9734   */\n      swap1\n      pop\n        /* \"#utility.yul\":9374:9740   */\n      swap2\n      swap1\n      pop\n      jump\t// out\n        /* \"#utility.yul\":9746:10165   */\n    tag_73:\n        /* \"#utility.yul\":9912:9916   */\n      0x00\n        /* \"#utility.yul\":9950:9952   */\n      0x20\n        /* \"#utility.yul\":9939:9948   */\n      dup3\n        /* \"#utility.yul\":9935:9953   */\n      add\n        /* \"#utility.yul\":9927:9953   */\n      swap1\n      pop\n        /* \"#utility.yul\":9999:10008   */\n      dup2\n        /* \"#utility.yul\":9993:9997   */\n      dup2\n        /* \"#utility.yul\":9989:10009   */\n      sub\n        /* \"#utility.yul\":9985:9986   */\n      0x00\n        /* \"#utility.yul\":9974:9983   */\n      dup4\n        /* \"#utility.yul\":9970:9987   */\n      add\n        /* \"#utility.yul\":9963:10010   */\n      mstore\n        /* \"#utility.yul\":10027:10158   */\n      tag_255\n        /* \"#utility.yul\":10153:10157   */\n      dup2\n        /* \"#utility.yul\":10027:10158   */\n      tag_140\n      jump\t// in\n    tag_255:\n        /* \"#utility.yul\":10019:10158   */\n      swap1\n      pop\n        /* \"#utility.yul\":9746:10165   */\n      swap2\n      swap1\n      pop\n      jump\t// out\n        /* \"#utility.yul\":10171:10352   */\n    tag_141:\n        /* \"#utility.yul\":10311:10344   */\n      0x5061796d656e74206d75737420657175616c20746f2061727420707269636500\n        /* \"#utility.yul\":10307:10308   */\n      0x00\n        /* \"#utility.yul\":10299:10305   */\n      dup3\n        /* \"#utility.yul\":10295:10309   */\n      add\n        /* \"#utility.yul\":10288:10345   */\n      mstore\n        /* \"#utility.yul\":10171:10352   */\n      pop\n      jump\t// out\n        /* \"#utility.yul\":10358:10724   */\n    tag_142:\n        /* \"#utility.yul\":10500:10503   */\n      0x00\n        /* \"#utility.yul\":10521:10588   */\n      tag_258\n        /* \"#utility.yul\":10585:10587   */\n      0x1f\n        /* \"#utility.yul\":10580:10583   */\n      dup4\n        /* \"#utility.yul\":10521:10588   */\n      tag_133\n      jump\t// in\n    tag_258:\n        /* \"#utility.yul\":10514:10588   */\n      swap2\n      pop\n        /* \"#utility.yul\":10597:10690   */\n      tag_259\n        /* \"#utility.yul\":10686:10689   */\n      dup3\n        /* \"#utility.yul\":10597:10690   */\n      tag_141\n      jump\t// in\n    tag_259:\n        /* \"#utility.yul\":10715:10717   */\n      0x20\n        /* \"#utility.yul\":10710:10713   */\n      dup3\n        /* \"#utility.yul\":10706:10718   */\n      add\n        /* \"#utility.yul\":10699:10718   */\n      swap1\n      pop\n        /* \"#utility.yul\":10358:10724   */\n      swap2\n      swap1\n      pop\n      jump\t// out\n        /* \"#utility.yul\":10730:11149   */\n    tag_87:\n        /* \"#utility.yul\":10896:10900   */\n      0x00\n        /* \"#utility.yul\":10934:10936   */\n      0x20\n        /* \"#utility.yul\":10923:10932   */\n      dup3\n        /* \"#utility.yul\":10919:10937   */\n      add\n        /* \"#utility.yul\":10911:10937   */\n      swap1\n      pop\n        /* \"#utility.yul\":10983:10992   */\n      dup2\n        /* \"#utility.yul\":10977:10981   */\n      dup2\n        /* \"#utility.yul\":10973:10993   */\n      sub\n        /* \"#utility.yul\":10969:10970   */\n      0x00\n        /* \"#utility.yul\":10958:10967   */\n      dup4\n        /* \"#utility.yul\":10954:10971   */\n      add\n        /* \"#utility.yul\":10947:10994   */\n      mstore\n        /* \"#utility.yul\":11011:11142   */\n      tag_261\n        /* \"#utility.yul\":11137:11141   */\n      dup2\n        /* \"#utility.yul\":11011:11142   */\n      tag_142\n      jump\t// in\n    tag_261:\n        /* \"#utility.yul\":11003:11142   */\n      swap1\n      pop\n        /* \"#utility.yul\":10730:11149   */\n      swap2\n      swap1\n      pop\n      jump\t// out\n        /* \"#utility.yul\":11155:11317   */\n    tag_143:\n        /* \"#utility.yul\":11295:11309   */\n      0x617274776f726b20736f6c640000000000000000000000000000000000000000\n        /* \"#utility.yul\":11291:11292   */\n      0x00\n        /* \"#utility.yul\":11283:11289   */\n      dup3\n        /* \"#utility.yul\":11279:11293   */\n      add\n        /* \"#utility.yul\":11272:11310   */\n      mstore\n        /* \"#utility.yul\":11155:11317   */\n      pop\n      jump\t// out\n        /* \"#utility.yul\":11323:11689   */\n    tag_144:\n        /* \"#utility.yul\":11465:11468   */\n      0x00\n        /* \"#utility.yul\":11486:11553   */\n      tag_264\n        /* \"#utility.yul\":11550:11552   */\n      0x0c\n        /* \"#utility.yul\":11545:11548   */\n      dup4\n        /* \"#utility.yul\":11486:11553   */\n      tag_133\n      jump\t// in\n    tag_264:\n        /* \"#utility.yul\":11479:11553   */\n      swap2\n      pop\n        /* \"#utility.yul\":11562:11655   */\n      tag_265\n        /* \"#utility.yul\":11651:11654   */\n      dup3\n        /* \"#utility.yul\":11562:11655   */\n      tag_143\n      jump\t// in\n    tag_265:\n        /* \"#utility.yul\":11680:11682   */\n      0x20\n        /* \"#utility.yul\":11675:11678   */\n      dup3\n        /* \"#utility.yul\":11671:11683   */\n      add\n        /* \"#utility.yul\":11664:11683   */\n      swap1\n      pop\n        /* \"#utility.yul\":11323:11689   */\n      swap2\n      swap1\n      pop\n      jump\t// out\n        /* \"#utility.yul\":11695:12224   */\n    tag_91:\n        /* \"#utility.yul\":11889:11893   */\n      0x00\n        /* \"#utility.yul\":11927:11929   */\n      0x40\n        /* \"#utility.yul\":11916:11925   */\n      dup3\n        /* \"#utility.yul\":11912:11930   */\n      add\n        /* \"#utility.yul\":11904:11930   */\n      swap1\n      pop\n        /* \"#utility.yul\":11940:12011   */\n      tag_267\n        /* \"#utility.yul\":12008:12009   */\n      0x00\n        /* \"#utility.yul\":11997:12006   */\n      dup4\n        /* \"#utility.yul\":11993:12010   */\n      add\n        /* \"#utility.yul\":11984:11990   */\n      dup5\n        /* \"#utility.yul\":11940:12011   */\n      tag_120\n      jump\t// in\n    tag_267:\n        /* \"#utility.yul\":12058:12067   */\n      dup2\n        /* \"#utility.yul\":12052:12056   */\n      dup2\n        /* \"#utility.yul\":12048:12068   */\n      sub\n        /* \"#utility.yul\":12043:12045   */\n      0x20\n        /* \"#utility.yul\":12032:12041   */\n      dup4\n        /* \"#utility.yul\":12028:12046   */\n      add\n        /* \"#utility.yul\":12021:12069   */\n      mstore\n        /* \"#utility.yul\":12086:12217   */\n      tag_268\n        /* \"#utility.yul\":12212:12216   */\n      dup2\n        /* \"#utility.yul\":12086:12217   */\n      tag_144\n      jump\t// in\n    tag_268:\n        /* \"#utility.yul\":12078:12217   */\n      swap1\n      pop\n        /* \"#utility.yul\":11695:12224   */\n      swap3\n      swap2\n      pop\n      pop\n      jump\t// out\n        /* \"#utility.yul\":12230:12410   */\n    tag_100:\n        /* \"#utility.yul\":12278:12355   */\n      0x4e487b7100000000000000000000000000000000000000000000000000000000\n        /* \"#utility.yul\":12275:12276   */\n      0x00\n        /* \"#utility.yul\":12268:12356   */\n      mstore\n        /* \"#utility.yul\":12375:12379   */\n      0x32\n        /* \"#utility.yul\":12372:12373   */\n      0x04\n        /* \"#utility.yul\":12365:12380   */\n      mstore\n        /* \"#utility.yul\":12399:12403   */\n      0x24\n        /* \"#utility.yul\":12396:12397   */\n      0x00\n        /* \"#utility.yul\":12389:12404   */\n      revert\n        /* \"#utility.yul\":12416:12826   */\n    tag_103:\n        /* \"#utility.yul\":12456:12463   */\n      0x00\n        /* \"#utility.yul\":12479:12499   */\n      tag_271\n        /* \"#utility.yul\":12497:12498   */\n      dup3\n        /* \"#utility.yul\":12479:12499   */\n      tag_115\n      jump\t// in\n    tag_271:\n        /* \"#utility.yul\":12474:12499   */\n      swap2\n      pop\n        /* \"#utility.yul\":12513:12533   */\n      tag_272\n        /* \"#utility.yul\":12531:12532   */\n      dup4\n        /* \"#utility.yul\":12513:12533   */\n      tag_115\n      jump\t// in\n    tag_272:\n        /* \"#utility.yul\":12508:12533   */\n      swap3\n      pop\n        /* \"#utility.yul\":12568:12569   */\n      dup3\n        /* \"#utility.yul\":12565:12566   */\n      dup3\n        /* \"#utility.yul\":12561:12570   */\n      mul\n        /* \"#utility.yul\":12590:12620   */\n      tag_273\n        /* \"#utility.yul\":12608:12619   */\n      dup2\n        /* \"#utility.yul\":12590:12620   */\n      tag_115\n      jump\t// in\n    tag_273:\n        /* \"#utility.yul\":12579:12620   */\n      swap2\n      pop\n        /* \"#utility.yul\":12769:12770   */\n      dup3\n        /* \"#utility.yul\":12760:12767   */\n      dup3\n        /* \"#utility.yul\":12756:12771   */\n      div\n        /* \"#utility.yul\":12753:12754   */\n      dup5\n        /* \"#utility.yul\":12750:12772   */\n      eq\n        /* \"#utility.yul\":12730:12731   */\n      dup4\n        /* \"#utility.yul\":12723:12732   */\n      iszero\n        /* \"#utility.yul\":12703:12786   */\n      or\n        /* \"#utility.yul\":12680:12819   */\n      tag_274\n      jumpi\n        /* \"#utility.yul\":12799:12817   */\n      tag_275\n      tag_138\n      jump\t// in\n    tag_275:\n        /* \"#utility.yul\":12680:12819   */\n    tag_274:\n        /* \"#utility.yul\":12464:12826   */\n      pop\n        /* \"#utility.yul\":12416:12826   */\n      swap3\n      swap2\n      pop\n      pop\n      jump\t// out\n        /* \"#utility.yul\":12832:13012   */\n    tag_145:\n        /* \"#utility.yul\":12880:12957   */\n      0x4e487b7100000000000000000000000000000000000000000000000000000000\n        /* \"#utility.yul\":12877:12878   */\n      0x00\n        /* \"#utility.yul\":12870:12958   */\n      mstore\n        /* \"#utility.yul\":12977:12981   */\n      0x12\n        /* \"#utility.yul\":12974:12975   */\n      0x04\n        /* \"#utility.yul\":12967:12982   */\n      mstore\n        /* \"#utility.yul\":13001:13005   */\n      0x24\n        /* \"#utility.yul\":12998:12999   */\n      0x00\n        /* \"#utility.yul\":12991:13006   */\n      revert\n        /* \"#utility.yul\":13018:13203   */\n    tag_105:\n        /* \"#utility.yul\":13058:13059   */\n      0x00\n        /* \"#utility.yul\":13075:13095   */\n      tag_278\n        /* \"#utility.yul\":13093:13094   */\n      dup3\n        /* \"#utility.yul\":13075:13095   */\n      tag_115\n      jump\t// in\n    tag_278:\n        /* \"#utility.yul\":13070:13095   */\n      swap2\n      pop\n        /* \"#utility.yul\":13109:13129   */\n      tag_279\n        /* \"#utility.yul\":13127:13128   */\n      dup4\n        /* \"#utility.yul\":13109:13129   */\n      tag_115\n      jump\t// in\n    tag_279:\n        /* \"#utility.yul\":13104:13129   */\n      swap3\n      pop\n        /* \"#utility.yul\":13148:13149   */\n      dup3\n        /* \"#utility.yul\":13138:13173   */\n      tag_280\n      jumpi\n        /* \"#utility.yul\":13153:13171   */\n      tag_281\n      tag_145\n      jump\t// in\n    tag_281:\n        /* \"#utility.yul\":13138:13173   */\n    tag_280:\n        /* \"#utility.yul\":13195:13196   */\n      dup3\n        /* \"#utility.yul\":13192:13193   */\n      dup3\n        /* \"#utility.yul\":13188:13197   */\n      div\n        /* \"#utility.yul\":13183:13197   */\n      swap1\n      pop\n        /* \"#utility.yul\":13018:13203   */\n      swap3\n      swap2\n      pop\n      pop\n      jump\t// out\n\n    auxdata: 0xa264697066735822122062a2dc5842ded1f12cda1985fccfa55d75ff661f4852daa423cb6d9cbb5ed23264736f6c63430008180033\n}\n",
				"bytecode": {
					"linkReferences": {},
					"object": "60806040525f600455348015610013575f80fd5b50335f806101000a81548173ffffffffffffffffffffffffffffffffffffffff021916908373ffffffffffffffffffffffffffffffffffffffff160217905550610f38806100605f395ff3fe608060405260043610610090575f3560e01c80638da5cb5b116100585780638da5cb5b146101865780638f2238ba146101b0578063ab1ce0b0146101ec578063cd7e10c1146101f6578063d44a0e611461023357610090565b80635d1b5805146100945780636b2f65b0146100bc5780636beeedb8146100f85780637f8fbc221461012057806389b5efa71461015c575b5f80fd5b34801561009f575f80fd5b506100ba60048036038101906100b591906108a8565b61025d565b005b3480156100c7575f80fd5b506100e260048036038101906100dd91906108e6565b610496565b6040516100ef919061092b565b60405180910390f35b348015610103575f80fd5b5061011e60048036038101906101199190610944565b6104b3565b005b34801561012b575f80fd5b50610146600480360381019061014191906108e6565b61054a565b604051610153919061097e565b60405180910390f35b348015610167575f80fd5b5061017061055f565b60405161017d919061097e565b60405180910390f35b348015610191575f80fd5b5061019a610565565b6040516101a791906109a6565b60405180910390f35b3480156101bb575f80fd5b506101d660048036038101906101d19190610afb565b610588565b6040516101e39190610bbc565b60405180910390f35b6101f461061f565b005b348015610201575f80fd5b5061021c60048036038101906102179190610944565b6106a6565b60405161022a929190610bdc565b60405180910390f35b34801561023e575f80fd5b506102476106f4565b604051610254919061097e565b60405180910390f35b5f8054906101000a900473ffffffffffffffffffffffffffffffffffffffff1673ffffffffffffffffffffffffffffffffffffffff163373ffffffffffffffffffffffffffffffffffffffff16146102ea576040517f08c379a00000000000000000000000000000000000000000000000000000000081526004016102e190610c73565b60405180910390fd5b6064816004546102fa9190610cbe565b111561033b576040517f08c379a000000000000000000000000000000000000000000000000000000000815260040161033290610d3b565b60405180910390fd5b5f60405180604001604052808473ffffffffffffffffffffffffffffffffffffffff168152602001838152509050600181908060018154018082558091505060019003905f5260205f2090600202015f909190919091505f820151815f015f6101000a81548173ffffffffffffffffffffffffffffffffffffffff021916908373ffffffffffffffffffffffffffffffffffffffff1602179055506020820151816001015550508160025f8573ffffffffffffffffffffffffffffffffffffffff1673ffffffffffffffffffffffffffffffffffffffff1681526020019081526020015f2081905550600160035f8573ffffffffffffffffffffffffffffffffffffffff1673ffffffffffffffffffffffffffffffffffffffff1681526020019081526020015f205f6101000a81548160ff0219169083151502179055508160045f82825461048a9190610cbe565b92505081905550505050565b6003602052805f5260405f205f915054906101000a900460ff1681565b5f8054906101000a900473ffffffffffffffffffffffffffffffffffffffff1673ffffffffffffffffffffffffffffffffffffffff163373ffffffffffffffffffffffffffffffffffffffff1614610540576040517f08c379a000000000000000000000000000000000000000000000000000000000815260040161053790610c73565b60405180910390fd5b8060058190555050565b6002602052805f5260405f205f915090505481565b60055481565b5f8054906101000a900473ffffffffffffffffffffffffffffffffffffffff1681565b60605f8054906101000a900473ffffffffffffffffffffffffffffffffffffffff1673ffffffffffffffffffffffffffffffffffffffff163373ffffffffffffffffffffffffffffffffffffffff1614610617576040517f08c379a000000000000000000000000000000000000000000000000000000000815260040161060e90610c73565b60405180910390fd5b819050919050565b6005543414610663576040517f08c379a000000000000000000000000000000000000000000000000000000000815260040161065a90610da3565b60405180910390fd5b61066b6106fa565b7fd9952cbf75a3b7d22cfb7c2b9c7c00a23513676e5a486e14dcaf74485b48312760055460405161069c9190610e0b565b60405180910390a1565b600181815481106106b5575f80fd5b905f5260205f2090600202015f91509050805f015f9054906101000a900473ffffffffffffffffffffffffffffffffffffffff16908060010154905082565b60045481565b5f5b600180549050811015610807575f6001828154811061071e5761071d610e37565b5b905f5260205f2090600202016040518060400160405290815f82015f9054906101000a900473ffffffffffffffffffffffffffffffffffffffff1673ffffffffffffffffffffffffffffffffffffffff1673ffffffffffffffffffffffffffffffffffffffff1681526020016001820154815250509050805f015173ffffffffffffffffffffffffffffffffffffffff166108fc606483602001516005546107c69190610e64565b6107d09190610ed2565b90811502906040515f60405180830381858888f193505050501580156107f8573d5f803e3d5ffd5b505080806001019150506106fc565b50565b5f604051905090565b5f80fd5b5f80fd5b5f73ffffffffffffffffffffffffffffffffffffffff82169050919050565b5f6108448261081b565b9050919050565b6108548161083a565b811461085e575f80fd5b50565b5f8135905061086f8161084b565b92915050565b5f819050919050565b61088781610875565b8114610891575f80fd5b50565b5f813590506108a28161087e565b92915050565b5f80604083850312156108be576108bd610813565b5b5f6108cb85828601610861565b92505060206108dc85828601610894565b9150509250929050565b5f602082840312156108fb576108fa610813565b5b5f61090884828501610861565b91505092915050565b5f8115159050919050565b61092581610911565b82525050565b5f60208201905061093e5f83018461091c565b92915050565b5f6020828403121561095957610958610813565b5b5f61096684828501610894565b91505092915050565b61097881610875565b82525050565b5f6020820190506109915f83018461096f565b92915050565b6109a08161083a565b82525050565b5f6020820190506109b95f830184610997565b92915050565b5f80fd5b5f80fd5b5f601f19601f8301169050919050565b7f4e487b71000000000000000000000000000000000000000000000000000000005f52604160045260245ffd5b610a0d826109c7565b810181811067ffffffffffffffff82111715610a2c57610a2b6109d7565b5b80604052505050565b5f610a3e61080a565b9050610a4a8282610a04565b919050565b5f67ffffffffffffffff821115610a6957610a686109d7565b5b610a72826109c7565b9050602081019050919050565b828183375f83830152505050565b5f610a9f610a9a84610a4f565b610a35565b905082815260208101848484011115610abb57610aba6109c3565b5b610ac6848285610a7f565b509392505050565b5f82601f830112610ae257610ae16109bf565b5b8135610af2848260208601610a8d565b91505092915050565b5f60208284031215610b1057610b0f610813565b5b5f82013567ffffffffffffffff811115610b2d57610b2c610817565b5b610b3984828501610ace565b91505092915050565b5f81519050919050565b5f82825260208201905092915050565b5f5b83811015610b79578082015181840152602081019050610b5e565b5f8484015250505050565b5f610b8e82610b42565b610b988185610b4c565b9350610ba8818560208601610b5c565b610bb1816109c7565b840191505092915050565b5f6020820190508181035f830152610bd48184610b84565b905092915050565b5f604082019050610bef5f830185610997565b610bfc602083018461096f565b9392505050565b7f4f6e6c7920746865206f776e65722063616e2063616c6c20746869732066756e5f8201527f6374696f6e000000000000000000000000000000000000000000000000000000602082015250565b5f610c5d602583610b4c565b9150610c6882610c03565b604082019050919050565b5f6020820190508181035f830152610c8a81610c51565b9050919050565b7f4e487b71000000000000000000000000000000000000000000000000000000005f52601160045260245ffd5b5f610cc882610875565b9150610cd383610875565b9250828201905080821115610ceb57610cea610c91565b5b92915050565b7f546f74616c204f776e657273686970206d6178203130302500000000000000005f82015250565b5f610d25601883610b4c565b9150610d3082610cf1565b602082019050919050565b5f6020820190508181035f830152610d5281610d19565b9050919050565b7f5061796d656e74206d75737420657175616c20746f20617274207072696365005f82015250565b5f610d8d601f83610b4c565b9150610d9882610d59565b602082019050919050565b5f6020820190508181035f830152610dba81610d81565b9050919050565b7f617274776f726b20736f6c6400000000000000000000000000000000000000005f82015250565b5f610df5600c83610b4c565b9150610e0082610dc1565b602082019050919050565b5f604082019050610e1e5f83018461096f565b8181036020830152610e2f81610de9565b905092915050565b7f4e487b71000000000000000000000000000000000000000000000000000000005f52603260045260245ffd5b5f610e6e82610875565b9150610e7983610875565b9250828202610e8781610875565b91508282048414831517610e9e57610e9d610c91565b5b5092915050565b7f4e487b71000000000000000000000000000000000000000000000000000000005f52601260045260245ffd5b5f610edc82610875565b9150610ee783610875565b925082610ef757610ef6610ea5565b5b82820490509291505056fea264697066735822122062a2dc5842ded1f12cda1985fccfa55d75ff661f4852daa423cb6d9cbb5ed23264736f6c63430008180033",
					"opcodes": "PUSH1 0x80 PUSH1 0x40 MSTORE PUSH0 PUSH1 0x4 SSTORE CALLVALUE DUP1 ISZERO PUSH2 0x13 JUMPI PUSH0 DUP1 REVERT JUMPDEST POP CALLER PUSH0 DUP1 PUSH2 0x100 EXP DUP2 SLOAD DUP2 PUSH20 0xFFFFFFFFFFFFFFFFFFFFFFFFFFFFFFFFFFFFFFFF MUL NOT AND SWAP1 DUP4 PUSH20 0xFFFFFFFFFFFFFFFFFFFFFFFFFFFFFFFFFFFFFFFF AND MUL OR SWAP1 SSTORE POP PUSH2 0xF38 DUP1 PUSH2 0x60 PUSH0 CODECOPY PUSH0 RETURN INVALID PUSH1 0x80 PUSH1 0x40 MSTORE PUSH1 0x4 CALLDATASIZE LT PUSH2 0x90 JUMPI PUSH0 CALLDATALOAD PUSH1 0xE0 SHR DUP1 PUSH4 0x8DA5CB5B GT PUSH2 0x58 JUMPI DUP1 PUSH4 0x8DA5CB5B EQ PUSH2 0x186 JUMPI DUP1 PUSH4 0x8F2238BA EQ PUSH2 0x1B0 JUMPI DUP1 PUSH4 0xAB1CE0B0 EQ PUSH2 0x1EC JUMPI DUP1 PUSH4 0xCD7E10C1 EQ PUSH2 0x1F6 JUMPI DUP1 PUSH4 0xD44A0E61 EQ PUSH2 0x233 JUMPI PUSH2 0x90 JUMP JUMPDEST DUP1 PUSH4 0x5D1B5805 EQ PUSH2 0x94 JUMPI DUP1 PUSH4 0x6B2F65B0 EQ PUSH2 0xBC JUMPI DUP1 PUSH4 0x6BEEEDB8 EQ PUSH2 0xF8 JUMPI DUP1 PUSH4 0x7F8FBC22 EQ PUSH2 0x120 JUMPI DUP1 PUSH4 0x89B5EFA7 EQ PUSH2 0x15C JUMPI JUMPDEST PUSH0 DUP1 REVERT JUMPDEST CALLVALUE DUP1 ISZERO PUSH2 0x9F JUMPI PUSH0 DUP1 REVERT JUMPDEST POP PUSH2 0xBA PUSH1 0x4 DUP1 CALLDATASIZE SUB DUP2 ADD SWAP1 PUSH2 0xB5 SWAP2 SWAP1 PUSH2 0x8A8 JUMP JUMPDEST PUSH2 0x25D JUMP JUMPDEST STOP JUMPDEST CALLVALUE DUP1 ISZERO PUSH2 0xC7 JUMPI PUSH0 DUP1 REVERT JUMPDEST POP PUSH2 0xE2 PUSH1 0x4 DUP1 CALLDATASIZE SUB DUP2 ADD SWAP1 PUSH2 0xDD SWAP2 SWAP1 PUSH2 0x8E6 JUMP JUMPDEST PUSH2 0x496 JUMP JUMPDEST PUSH1 0x40 MLOAD PUSH2 0xEF SWAP2 SWAP1 PUSH2 0x92B JUMP JUMPDEST PUSH1 0x40 MLOAD DUP1 SWAP2 SUB SWAP1 RETURN JUMPDEST CALLVALUE DUP1 ISZERO PUSH2 0x103 JUMPI PUSH0 DUP1 REVERT JUMPDEST POP PUSH2 0x11E PUSH1 0x4 DUP1 CALLDATASIZE SUB DUP2 ADD SWAP1 PUSH2 0x119 SWAP2 SWAP1 PUSH2 0x944 JUMP JUMPDEST PUSH2 0x4B3 JUMP JUMPDEST STOP JUMPDEST CALLVALUE DUP1 ISZERO PUSH2 0x12B JUMPI PUSH0 DUP1 REVERT JUMPDEST POP PUSH2 0x146 PUSH1 0x4 DUP1 CALLDATASIZE SUB DUP2 ADD SWAP1 PUSH2 0x141 SWAP2 SWAP1 PUSH2 0x8E6 JUMP JUMPDEST PUSH2 0x54A JUMP JUMPDEST PUSH1 0x40 MLOAD PUSH2 0x153 SWAP2 SWAP1 PUSH2 0x97E JUMP JUMPDEST PUSH1 0x40 MLOAD DUP1 SWAP2 SUB SWAP1 RETURN JUMPDEST CALLVALUE DUP1 ISZERO PUSH2 0x167 JUMPI PUSH0 DUP1 REVERT JUMPDEST POP PUSH2 0x170 PUSH2 0x55F JUMP JUMPDEST PUSH1 0x40 MLOAD PUSH2 0x17D SWAP2 SWAP1 PUSH2 0x97E JUMP JUMPDEST PUSH1 0x40 MLOAD DUP1 SWAP2 SUB SWAP1 RETURN JUMPDEST CALLVALUE DUP1 ISZERO PUSH2 0x191 JUMPI PUSH0 DUP1 REVERT JUMPDEST POP PUSH2 0x19A PUSH2 0x565 JUMP JUMPDEST PUSH1 0x40 MLOAD PUSH2 0x1A7 SWAP2 SWAP1 PUSH2 0x9A6 JUMP JUMPDEST PUSH1 0x40 MLOAD DUP1 SWAP2 SUB SWAP1 RETURN JUMPDEST CALLVALUE DUP1 ISZERO PUSH2 0x1BB JUMPI PUSH0 DUP1 REVERT JUMPDEST POP PUSH2 0x1D6 PUSH1 0x4 DUP1 CALLDATASIZE SUB DUP2 ADD SWAP1 PUSH2 0x1D1 SWAP2 SWAP1 PUSH2 0xAFB JUMP JUMPDEST PUSH2 0x588 JUMP JUMPDEST PUSH1 0x40 MLOAD PUSH2 0x1E3 SWAP2 SWAP1 PUSH2 0xBBC JUMP JUMPDEST PUSH1 0x40 MLOAD DUP1 SWAP2 SUB SWAP1 RETURN JUMPDEST PUSH2 0x1F4 PUSH2 0x61F JUMP JUMPDEST STOP JUMPDEST CALLVALUE DUP1 ISZERO PUSH2 0x201 JUMPI PUSH0 DUP1 REVERT JUMPDEST POP PUSH2 0x21C PUSH1 0x4 DUP1 CALLDATASIZE SUB DUP2 ADD SWAP1 PUSH2 0x217 SWAP2 SWAP1 PUSH2 0x944 JUMP JUMPDEST PUSH2 0x6A6 JUMP JUMPDEST PUSH1 0x40 MLOAD PUSH2 0x22A SWAP3 SWAP2 SWAP1 PUSH2 0xBDC JUMP JUMPDEST PUSH1 0x40 MLOAD DUP1 SWAP2 SUB SWAP1 RETURN JUMPDEST CALLVALUE DUP1 ISZERO PUSH2 0x23E JUMPI PUSH0 DUP1 REVERT JUMPDEST POP PUSH2 0x247 PUSH2 0x6F4 JUMP JUMPDEST PUSH1 0x40 MLOAD PUSH2 0x254 SWAP2 SWAP1 PUSH2 0x97E JUMP JUMPDEST PUSH1 0x40 MLOAD DUP1 SWAP2 SUB SWAP1 RETURN JUMPDEST PUSH0 DUP1 SLOAD SWAP1 PUSH2 0x100 EXP SWAP1 DIV PUSH20 0xFFFFFFFFFFFFFFFFFFFFFFFFFFFFFFFFFFFFFFFF AND PUSH20 0xFFFFFFFFFFFFFFFFFFFFFFFFFFFFFFFFFFFFFFFF AND CALLER PUSH20 0xFFFFFFFFFFFFFFFFFFFFFFFFFFFFFFFFFFFFFFFF AND EQ PUSH2 0x2EA JUMPI PUSH1 0x40 MLOAD PUSH32 0x8C379A000000000000000000000000000000000000000000000000000000000 DUP2 MSTORE PUSH1 0x4 ADD PUSH2 0x2E1 SWAP1 PUSH2 0xC73 JUMP JUMPDEST PUSH1 0x40 MLOAD DUP1 SWAP2 SUB SWAP1 REVERT JUMPDEST PUSH1 0x64 DUP2 PUSH1 0x4 SLOAD PUSH2 0x2FA SWAP2 SWAP1 PUSH2 0xCBE JUMP JUMPDEST GT ISZERO PUSH2 0x33B JUMPI PUSH1 0x40 MLOAD PUSH32 0x8C379A000000000000000000000000000000000000000000000000000000000 DUP2 MSTORE PUSH1 0x4 ADD PUSH2 0x332 SWAP1 PUSH2 0xD3B JUMP JUMPDEST PUSH1 0x40 MLOAD DUP1 SWAP2 SUB SWAP1 REVERT JUMPDEST PUSH0 PUSH1 0x40 MLOAD DUP1 PUSH1 0x40 ADD PUSH1 0x40 MSTORE DUP1 DUP5 PUSH20 0xFFFFFFFFFFFFFFFFFFFFFFFFFFFFFFFFFFFFFFFF AND DUP2 MSTORE PUSH1 0x20 ADD DUP4 DUP2 MSTORE POP SWAP1 POP PUSH1 0x1 DUP2 SWAP1 DUP1 PUSH1 0x1 DUP2 SLOAD ADD DUP1 DUP3 SSTORE DUP1 SWAP2 POP POP PUSH1 0x1 SWAP1 SUB SWAP1 PUSH0 MSTORE PUSH1 0x20 PUSH0 KECCAK256 SWAP1 PUSH1 0x2 MUL ADD PUSH0 SWAP1 SWAP2 SWAP1 SWAP2 SWAP1 SWAP2 POP PUSH0 DUP3 ADD MLOAD DUP2 PUSH0 ADD PUSH0 PUSH2 0x100 EXP DUP2 SLOAD DUP2 PUSH20 0xFFFFFFFFFFFFFFFFFFFFFFFFFFFFFFFFFFFFFFFF MUL NOT AND SWAP1 DUP4 PUSH20 0xFFFFFFFFFFFFFFFFFFFFFFFFFFFFFFFFFFFFFFFF AND MUL OR SWAP1 SSTORE POP PUSH1 0x20 DUP3 ADD MLOAD DUP2 PUSH1 0x1 ADD SSTORE POP POP DUP2 PUSH1 0x2 PUSH0 DUP6 PUSH20 0xFFFFFFFFFFFFFFFFFFFFFFFFFFFFFFFFFFFFFFFF AND PUSH20 0xFFFFFFFFFFFFFFFFFFFFFFFFFFFFFFFFFFFFFFFF AND DUP2 MSTORE PUSH1 0x20 ADD SWAP1 DUP2 MSTORE PUSH1 0x20 ADD PUSH0 KECCAK256 DUP2 SWAP1 SSTORE POP PUSH1 0x1 PUSH1 0x3 PUSH0 DUP6 PUSH20 0xFFFFFFFFFFFFFFFFFFFFFFFFFFFFFFFFFFFFFFFF AND PUSH20 0xFFFFFFFFFFFFFFFFFFFFFFFFFFFFFFFFFFFFFFFF AND DUP2 MSTORE PUSH1 0x20 ADD SWAP1 DUP2 MSTORE PUSH1 0x20 ADD PUSH0 KECCAK256 PUSH0 PUSH2 0x100 EXP DUP2 SLOAD DUP2 PUSH1 0xFF MUL NOT AND SWAP1 DUP4 ISZERO ISZERO MUL OR SWAP1 SSTORE POP DUP2 PUSH1 0x4 PUSH0 DUP3 DUP3 SLOAD PUSH2 0x48A SWAP2 SWAP1 PUSH2 0xCBE JUMP JUMPDEST SWAP3 POP POP DUP2 SWAP1 SSTORE POP POP POP POP JUMP JUMPDEST PUSH1 0x3 PUSH1 0x20 MSTORE DUP1 PUSH0 MSTORE PUSH1 0x40 PUSH0 KECCAK256 PUSH0 SWAP2 POP SLOAD SWAP1 PUSH2 0x100 EXP SWAP1 DIV PUSH1 0xFF AND DUP2 JUMP JUMPDEST PUSH0 DUP1 SLOAD SWAP1 PUSH2 0x100 EXP SWAP1 DIV PUSH20 0xFFFFFFFFFFFFFFFFFFFFFFFFFFFFFFFFFFFFFFFF AND PUSH20 0xFFFFFFFFFFFFFFFFFFFFFFFFFFFFFFFFFFFFFFFF AND CALLER PUSH20 0xFFFFFFFFFFFFFFFFFFFFFFFFFFFFFFFFFFFFFFFF AND EQ PUSH2 0x540 JUMPI PUSH1 0x40 MLOAD PUSH32 0x8C379A000000000000000000000000000000000000000000000000000000000 DUP2 MSTORE PUSH1 0x4 ADD PUSH2 0x537 SWAP1 PUSH2 0xC73 JUMP JUMPDEST PUSH1 0x40 MLOAD DUP1 SWAP2 SUB SWAP1 REVERT JUMPDEST DUP1 PUSH1 0x5 DUP2 SWAP1 SSTORE POP POP JUMP JUMPDEST PUSH1 0x2 PUSH1 0x20 MSTORE DUP1 PUSH0 MSTORE PUSH1 0x40 PUSH0 KECCAK256 PUSH0 SWAP2 POP SWAP1 POP SLOAD DUP2 JUMP JUMPDEST PUSH1 0x5 SLOAD DUP2 JUMP JUMPDEST PUSH0 DUP1 SLOAD SWAP1 PUSH2 0x100 EXP SWAP1 DIV PUSH20 0xFFFFFFFFFFFFFFFFFFFFFFFFFFFFFFFFFFFFFFFF AND DUP2 JUMP JUMPDEST PUSH1 0x60 PUSH0 DUP1 SLOAD SWAP1 PUSH2 0x100 EXP SWAP1 DIV PUSH20 0xFFFFFFFFFFFFFFFFFFFFFFFFFFFFFFFFFFFFFFFF AND PUSH20 0xFFFFFFFFFFFFFFFFFFFFFFFFFFFFFFFFFFFFFFFF AND CALLER PUSH20 0xFFFFFFFFFFFFFFFFFFFFFFFFFFFFFFFFFFFFFFFF AND EQ PUSH2 0x617 JUMPI PUSH1 0x40 MLOAD PUSH32 0x8C379A000000000000000000000000000000000000000000000000000000000 DUP2 MSTORE PUSH1 0x4 ADD PUSH2 0x60E SWAP1 PUSH2 0xC73 JUMP JUMPDEST PUSH1 0x40 MLOAD DUP1 SWAP2 SUB SWAP1 REVERT JUMPDEST DUP2 SWAP1 POP SWAP2 SWAP1 POP JUMP JUMPDEST PUSH1 0x5 SLOAD CALLVALUE EQ PUSH2 0x663 JUMPI PUSH1 0x40 MLOAD PUSH32 0x8C379A000000000000000000000000000000000000000000000000000000000 DUP2 MSTORE PUSH1 0x4 ADD PUSH2 0x65A SWAP1 PUSH2 0xDA3 JUMP JUMPDEST PUSH1 0x40 MLOAD DUP1 SWAP2 SUB SWAP1 REVERT JUMPDEST PUSH2 0x66B PUSH2 0x6FA JUMP JUMPDEST PUSH32 0xD9952CBF75A3B7D22CFB7C2B9C7C00A23513676E5A486E14DCAF74485B483127 PUSH1 0x5 SLOAD PUSH1 0x40 MLOAD PUSH2 0x69C SWAP2 SWAP1 PUSH2 0xE0B JUMP JUMPDEST PUSH1 0x40 MLOAD DUP1 SWAP2 SUB SWAP1 LOG1 JUMP JUMPDEST PUSH1 0x1 DUP2 DUP2 SLOAD DUP2 LT PUSH2 0x6B5 JUMPI PUSH0 DUP1 REVERT JUMPDEST SWAP1 PUSH0 MSTORE PUSH1 0x20 PUSH0 KECCAK256 SWAP1 PUSH1 0x2 MUL ADD PUSH0 SWAP2 POP SWAP1 POP DUP1 PUSH0 ADD PUSH0 SWAP1 SLOAD SWAP1 PUSH2 0x100 EXP SWAP1 DIV PUSH20 0xFFFFFFFFFFFFFFFFFFFFFFFFFFFFFFFFFFFFFFFF AND SWAP1 DUP1 PUSH1 0x1 ADD SLOAD SWAP1 POP DUP3 JUMP JUMPDEST PUSH1 0x4 SLOAD DUP2 JUMP JUMPDEST PUSH0 JUMPDEST PUSH1 0x1 DUP1 SLOAD SWAP1 POP DUP2 LT ISZERO PUSH2 0x807 JUMPI PUSH0 PUSH1 0x1 DUP3 DUP2 SLOAD DUP2 LT PUSH2 0x71E JUMPI PUSH2 0x71D PUSH2 0xE37 JUMP JUMPDEST JUMPDEST SWAP1 PUSH0 MSTORE PUSH1 0x20 PUSH0 KECCAK256 SWAP1 PUSH1 0x2 MUL ADD PUSH1 0x40 MLOAD DUP1 PUSH1 0x40 ADD PUSH1 0x40 MSTORE SWAP1 DUP2 PUSH0 DUP3 ADD PUSH0 SWAP1 SLOAD SWAP1 PUSH2 0x100 EXP SWAP1 DIV PUSH20 0xFFFFFFFFFFFFFFFFFFFFFFFFFFFFFFFFFFFFFFFF AND PUSH20 0xFFFFFFFFFFFFFFFFFFFFFFFFFFFFFFFFFFFFFFFF AND PUSH20 0xFFFFFFFFFFFFFFFFFFFFFFFFFFFFFFFFFFFFFFFF AND DUP2 MSTORE PUSH1 0x20 ADD PUSH1 0x1 DUP3 ADD SLOAD DUP2 MSTORE POP POP SWAP1 POP DUP1 PUSH0 ADD MLOAD PUSH20 0xFFFFFFFFFFFFFFFFFFFFFFFFFFFFFFFFFFFFFFFF AND PUSH2 0x8FC PUSH1 0x64 DUP4 PUSH1 0x20 ADD MLOAD PUSH1 0x5 SLOAD PUSH2 0x7C6 SWAP2 SWAP1 PUSH2 0xE64 JUMP JUMPDEST PUSH2 0x7D0 SWAP2 SWAP1 PUSH2 0xED2 JUMP JUMPDEST SWAP1 DUP2 ISZERO MUL SWAP1 PUSH1 0x40 MLOAD PUSH0 PUSH1 0x40 MLOAD DUP1 DUP4 SUB DUP2 DUP6 DUP9 DUP9 CALL SWAP4 POP POP POP POP ISZERO DUP1 ISZERO PUSH2 0x7F8 JUMPI RETURNDATASIZE PUSH0 DUP1 RETURNDATACOPY RETURNDATASIZE PUSH0 REVERT JUMPDEST POP POP DUP1 DUP1 PUSH1 0x1 ADD SWAP2 POP POP PUSH2 0x6FC JUMP JUMPDEST POP JUMP JUMPDEST PUSH0 PUSH1 0x40 MLOAD SWAP1 POP SWAP1 JUMP JUMPDEST PUSH0 DUP1 REVERT JUMPDEST PUSH0 DUP1 REVERT JUMPDEST PUSH0 PUSH20 0xFFFFFFFFFFFFFFFFFFFFFFFFFFFFFFFFFFFFFFFF DUP3 AND SWAP1 POP SWAP2 SWAP1 POP JUMP JUMPDEST PUSH0 PUSH2 0x844 DUP3 PUSH2 0x81B JUMP JUMPDEST SWAP1 POP SWAP2 SWAP1 POP JUMP JUMPDEST PUSH2 0x854 DUP2 PUSH2 0x83A JUMP JUMPDEST DUP2 EQ PUSH2 0x85E JUMPI PUSH0 DUP1 REVERT JUMPDEST POP JUMP JUMPDEST PUSH0 DUP2 CALLDATALOAD SWAP1 POP PUSH2 0x86F DUP2 PUSH2 0x84B JUMP JUMPDEST SWAP3 SWAP2 POP POP JUMP JUMPDEST PUSH0 DUP2 SWAP1 POP SWAP2 SWAP1 POP JUMP JUMPDEST PUSH2 0x887 DUP2 PUSH2 0x875 JUMP JUMPDEST DUP2 EQ PUSH2 0x891 JUMPI PUSH0 DUP1 REVERT JUMPDEST POP JUMP JUMPDEST PUSH0 DUP2 CALLDATALOAD SWAP1 POP PUSH2 0x8A2 DUP2 PUSH2 0x87E JUMP JUMPDEST SWAP3 SWAP2 POP POP JUMP JUMPDEST PUSH0 DUP1 PUSH1 0x40 DUP4 DUP6 SUB SLT ISZERO PUSH2 0x8BE JUMPI PUSH2 0x8BD PUSH2 0x813 JUMP JUMPDEST JUMPDEST PUSH0 PUSH2 0x8CB DUP6 DUP3 DUP7 ADD PUSH2 0x861 JUMP JUMPDEST SWAP3 POP POP PUSH1 0x20 PUSH2 0x8DC DUP6 DUP3 DUP7 ADD PUSH2 0x894 JUMP JUMPDEST SWAP2 POP POP SWAP3 POP SWAP3 SWAP1 POP JUMP JUMPDEST PUSH0 PUSH1 0x20 DUP3 DUP5 SUB SLT ISZERO PUSH2 0x8FB JUMPI PUSH2 0x8FA PUSH2 0x813 JUMP JUMPDEST JUMPDEST PUSH0 PUSH2 0x908 DUP5 DUP3 DUP6 ADD PUSH2 0x861 JUMP JUMPDEST SWAP2 POP POP SWAP3 SWAP2 POP POP JUMP JUMPDEST PUSH0 DUP2 ISZERO ISZERO SWAP1 POP SWAP2 SWAP1 POP JUMP JUMPDEST PUSH2 0x925 DUP2 PUSH2 0x911 JUMP JUMPDEST DUP3 MSTORE POP POP JUMP JUMPDEST PUSH0 PUSH1 0x20 DUP3 ADD SWAP1 POP PUSH2 0x93E PUSH0 DUP4 ADD DUP5 PUSH2 0x91C JUMP JUMPDEST SWAP3 SWAP2 POP POP JUMP JUMPDEST PUSH0 PUSH1 0x20 DUP3 DUP5 SUB SLT ISZERO PUSH2 0x959 JUMPI PUSH2 0x958 PUSH2 0x813 JUMP JUMPDEST JUMPDEST PUSH0 PUSH2 0x966 DUP5 DUP3 DUP6 ADD PUSH2 0x894 JUMP JUMPDEST SWAP2 POP POP SWAP3 SWAP2 POP POP JUMP JUMPDEST PUSH2 0x978 DUP2 PUSH2 0x875 JUMP JUMPDEST DUP3 MSTORE POP POP JUMP JUMPDEST PUSH0 PUSH1 0x20 DUP3 ADD SWAP1 POP PUSH2 0x991 PUSH0 DUP4 ADD DUP5 PUSH2 0x96F JUMP JUMPDEST SWAP3 SWAP2 POP POP JUMP JUMPDEST PUSH2 0x9A0 DUP2 PUSH2 0x83A JUMP JUMPDEST DUP3 MSTORE POP POP JUMP JUMPDEST PUSH0 PUSH1 0x20 DUP3 ADD SWAP1 POP PUSH2 0x9B9 PUSH0 DUP4 ADD DUP5 PUSH2 0x997 JUMP JUMPDEST SWAP3 SWAP2 POP POP JUMP JUMPDEST PUSH0 DUP1 REVERT JUMPDEST PUSH0 DUP1 REVERT JUMPDEST PUSH0 PUSH1 0x1F NOT PUSH1 0x1F DUP4 ADD AND SWAP1 POP SWAP2 SWAP1 POP JUMP JUMPDEST PUSH32 0x4E487B7100000000000000000000000000000000000000000000000000000000 PUSH0 MSTORE PUSH1 0x41 PUSH1 0x4 MSTORE PUSH1 0x24 PUSH0 REVERT JUMPDEST PUSH2 0xA0D DUP3 PUSH2 0x9C7 JUMP JUMPDEST DUP2 ADD DUP2 DUP2 LT PUSH8 0xFFFFFFFFFFFFFFFF DUP3 GT OR ISZERO PUSH2 0xA2C JUMPI PUSH2 0xA2B PUSH2 0x9D7 JUMP JUMPDEST JUMPDEST DUP1 PUSH1 0x40 MSTORE POP POP POP JUMP JUMPDEST PUSH0 PUSH2 0xA3E PUSH2 0x80A JUMP JUMPDEST SWAP1 POP PUSH2 0xA4A DUP3 DUP3 PUSH2 0xA04 JUMP JUMPDEST SWAP2 SWAP1 POP JUMP JUMPDEST PUSH0 PUSH8 0xFFFFFFFFFFFFFFFF DUP3 GT ISZERO PUSH2 0xA69 JUMPI PUSH2 0xA68 PUSH2 0x9D7 JUMP JUMPDEST JUMPDEST PUSH2 0xA72 DUP3 PUSH2 0x9C7 JUMP JUMPDEST SWAP1 POP PUSH1 0x20 DUP2 ADD SWAP1 POP SWAP2 SWAP1 POP JUMP JUMPDEST DUP3 DUP2 DUP4 CALLDATACOPY PUSH0 DUP4 DUP4 ADD MSTORE POP POP POP JUMP JUMPDEST PUSH0 PUSH2 0xA9F PUSH2 0xA9A DUP5 PUSH2 0xA4F JUMP JUMPDEST PUSH2 0xA35 JUMP JUMPDEST SWAP1 POP DUP3 DUP2 MSTORE PUSH1 0x20 DUP2 ADD DUP5 DUP5 DUP5 ADD GT ISZERO PUSH2 0xABB JUMPI PUSH2 0xABA PUSH2 0x9C3 JUMP JUMPDEST JUMPDEST PUSH2 0xAC6 DUP5 DUP3 DUP6 PUSH2 0xA7F JUMP JUMPDEST POP SWAP4 SWAP3 POP POP POP JUMP JUMPDEST PUSH0 DUP3 PUSH1 0x1F DUP4 ADD SLT PUSH2 0xAE2 JUMPI PUSH2 0xAE1 PUSH2 0x9BF JUMP JUMPDEST JUMPDEST DUP2 CALLDATALOAD PUSH2 0xAF2 DUP5 DUP3 PUSH1 0x20 DUP7 ADD PUSH2 0xA8D JUMP JUMPDEST SWAP2 POP POP SWAP3 SWAP2 POP POP JUMP JUMPDEST PUSH0 PUSH1 0x20 DUP3 DUP5 SUB SLT ISZERO PUSH2 0xB10 JUMPI PUSH2 0xB0F PUSH2 0x813 JUMP JUMPDEST JUMPDEST PUSH0 DUP3 ADD CALLDATALOAD PUSH8 0xFFFFFFFFFFFFFFFF DUP2 GT ISZERO PUSH2 0xB2D JUMPI PUSH2 0xB2C PUSH2 0x817 JUMP JUMPDEST JUMPDEST PUSH2 0xB39 DUP5 DUP3 DUP6 ADD PUSH2 0xACE JUMP JUMPDEST SWAP2 POP POP SWAP3 SWAP2 POP POP JUMP JUMPDEST PUSH0 DUP2 MLOAD SWAP1 POP SWAP2 SWAP1 POP JUMP JUMPDEST PUSH0 DUP3 DUP3 MSTORE PUSH1 0x20 DUP3 ADD SWAP1 POP SWAP3 SWAP2 POP POP JUMP JUMPDEST PUSH0 JUMPDEST DUP4 DUP2 LT ISZERO PUSH2 0xB79 JUMPI DUP1 DUP3 ADD MLOAD DUP2 DUP5 ADD MSTORE PUSH1 0x20 DUP2 ADD SWAP1 POP PUSH2 0xB5E JUMP JUMPDEST PUSH0 DUP5 DUP5 ADD MSTORE POP POP POP POP JUMP JUMPDEST PUSH0 PUSH2 0xB8E DUP3 PUSH2 0xB42 JUMP JUMPDEST PUSH2 0xB98 DUP2 DUP6 PUSH2 0xB4C JUMP JUMPDEST SWAP4 POP PUSH2 0xBA8 DUP2 DUP6 PUSH1 0x20 DUP7 ADD PUSH2 0xB5C JUMP JUMPDEST PUSH2 0xBB1 DUP2 PUSH2 0x9C7 JUMP JUMPDEST DUP5 ADD SWAP2 POP POP SWAP3 SWAP2 POP POP JUMP JUMPDEST PUSH0 PUSH1 0x20 DUP3 ADD SWAP1 POP DUP2 DUP2 SUB PUSH0 DUP4 ADD MSTORE PUSH2 0xBD4 DUP2 DUP5 PUSH2 0xB84 JUMP JUMPDEST SWAP1 POP SWAP3 SWAP2 POP POP JUMP JUMPDEST PUSH0 PUSH1 0x40 DUP3 ADD SWAP1 POP PUSH2 0xBEF PUSH0 DUP4 ADD DUP6 PUSH2 0x997 JUMP JUMPDEST PUSH2 0xBFC PUSH1 0x20 DUP4 ADD DUP5 PUSH2 0x96F JUMP JUMPDEST SWAP4 SWAP3 POP POP POP JUMP JUMPDEST PUSH32 0x4F6E6C7920746865206F776E65722063616E2063616C6C20746869732066756E PUSH0 DUP3 ADD MSTORE PUSH32 0x6374696F6E000000000000000000000000000000000000000000000000000000 PUSH1 0x20 DUP3 ADD MSTORE POP JUMP JUMPDEST PUSH0 PUSH2 0xC5D PUSH1 0x25 DUP4 PUSH2 0xB4C JUMP JUMPDEST SWAP2 POP PUSH2 0xC68 DUP3 PUSH2 0xC03 JUMP JUMPDEST PUSH1 0x40 DUP3 ADD SWAP1 POP SWAP2 SWAP1 POP JUMP JUMPDEST PUSH0 PUSH1 0x20 DUP3 ADD SWAP1 POP DUP2 DUP2 SUB PUSH0 DUP4 ADD MSTORE PUSH2 0xC8A DUP2 PUSH2 0xC51 JUMP JUMPDEST SWAP1 POP SWAP2 SWAP1 POP JUMP JUMPDEST PUSH32 0x4E487B7100000000000000000000000000000000000000000000000000000000 PUSH0 MSTORE PUSH1 0x11 PUSH1 0x4 MSTORE PUSH1 0x24 PUSH0 REVERT JUMPDEST PUSH0 PUSH2 0xCC8 DUP3 PUSH2 0x875 JUMP JUMPDEST SWAP2 POP PUSH2 0xCD3 DUP4 PUSH2 0x875 JUMP JUMPDEST SWAP3 POP DUP3 DUP3 ADD SWAP1 POP DUP1 DUP3 GT ISZERO PUSH2 0xCEB JUMPI PUSH2 0xCEA PUSH2 0xC91 JUMP JUMPDEST JUMPDEST SWAP3 SWAP2 POP POP JUMP JUMPDEST PUSH32 0x546F74616C204F776E657273686970206D617820313030250000000000000000 PUSH0 DUP3 ADD MSTORE POP JUMP JUMPDEST PUSH0 PUSH2 0xD25 PUSH1 0x18 DUP4 PUSH2 0xB4C JUMP JUMPDEST SWAP2 POP PUSH2 0xD30 DUP3 PUSH2 0xCF1 JUMP JUMPDEST PUSH1 0x20 DUP3 ADD SWAP1 POP SWAP2 SWAP1 POP JUMP JUMPDEST PUSH0 PUSH1 0x20 DUP3 ADD SWAP1 POP DUP2 DUP2 SUB PUSH0 DUP4 ADD MSTORE PUSH2 0xD52 DUP2 PUSH2 0xD19 JUMP JUMPDEST SWAP1 POP SWAP2 SWAP1 POP JUMP JUMPDEST PUSH32 0x5061796D656E74206D75737420657175616C20746F2061727420707269636500 PUSH0 DUP3 ADD MSTORE POP JUMP JUMPDEST PUSH0 PUSH2 0xD8D PUSH1 0x1F DUP4 PUSH2 0xB4C JUMP JUMPDEST SWAP2 POP PUSH2 0xD98 DUP3 PUSH2 0xD59 JUMP JUMPDEST PUSH1 0x20 DUP3 ADD SWAP1 POP SWAP2 SWAP1 POP JUMP JUMPDEST PUSH0 PUSH1 0x20 DUP3 ADD SWAP1 POP DUP2 DUP2 SUB PUSH0 DUP4 ADD MSTORE PUSH2 0xDBA DUP2 PUSH2 0xD81 JUMP JUMPDEST SWAP1 POP SWAP2 SWAP1 POP JUMP JUMPDEST PUSH32 0x617274776F726B20736F6C640000000000000000000000000000000000000000 PUSH0 DUP3 ADD MSTORE POP JUMP JUMPDEST PUSH0 PUSH2 0xDF5 PUSH1 0xC DUP4 PUSH2 0xB4C JUMP JUMPDEST SWAP2 POP PUSH2 0xE00 DUP3 PUSH2 0xDC1 JUMP JUMPDEST PUSH1 0x20 DUP3 ADD SWAP1 POP SWAP2 SWAP1 POP JUMP JUMPDEST PUSH0 PUSH1 0x40 DUP3 ADD SWAP1 POP PUSH2 0xE1E PUSH0 DUP4 ADD DUP5 PUSH2 0x96F JUMP JUMPDEST DUP2 DUP2 SUB PUSH1 0x20 DUP4 ADD MSTORE PUSH2 0xE2F DUP2 PUSH2 0xDE9 JUMP JUMPDEST SWAP1 POP SWAP3 SWAP2 POP POP JUMP JUMPDEST PUSH32 0x4E487B7100000000000000000000000000000000000000000000000000000000 PUSH0 MSTORE PUSH1 0x32 PUSH1 0x4 MSTORE PUSH1 0x24 PUSH0 REVERT JUMPDEST PUSH0 PUSH2 0xE6E DUP3 PUSH2 0x875 JUMP JUMPDEST SWAP2 POP PUSH2 0xE79 DUP4 PUSH2 0x875 JUMP JUMPDEST SWAP3 POP DUP3 DUP3 MUL PUSH2 0xE87 DUP2 PUSH2 0x875 JUMP JUMPDEST SWAP2 POP DUP3 DUP3 DIV DUP5 EQ DUP4 ISZERO OR PUSH2 0xE9E JUMPI PUSH2 0xE9D PUSH2 0xC91 JUMP JUMPDEST JUMPDEST POP SWAP3 SWAP2 POP POP JUMP JUMPDEST PUSH32 0x4E487B7100000000000000000000000000000000000000000000000000000000 PUSH0 MSTORE PUSH1 0x12 PUSH1 0x4 MSTORE PUSH1 0x24 PUSH0 REVERT JUMPDEST PUSH0 PUSH2 0xEDC DUP3 PUSH2 0x875 JUMP JUMPDEST SWAP2 POP PUSH2 0xEE7 DUP4 PUSH2 0x875 JUMP JUMPDEST SWAP3 POP DUP3 PUSH2 0xEF7 JUMPI PUSH2 0xEF6 PUSH2 0xEA5 JUMP JUMPDEST JUMPDEST DUP3 DUP3 DIV SWAP1 POP SWAP3 SWAP2 POP POP JUMP INVALID LOG2 PUSH5 0x6970667358 0x22 SLT KECCAK256 PUSH3 0xA2DC58 TIMESTAMP 0xDE 0xD1 CALL 0x2C 0xDA NOT DUP6 0xFC 0xCF 0xA5 TSTORE PUSH22 0xFF661F4852DAA423CB6D9CBB5ED23264736F6C634300 ADDMOD XOR STOP CALLER "
				},
				"gasEstimates": {
					"creation": {
						"codeDepositCost": "779200",
						"executionCost": "30080",
						"totalCost": "809280"
					},
					"external": {
						"addArtist(address,uint256)": "infinite",
						"artistToOwnershipPercentage(address)": "2869",
						"artists(uint256)": "infinite",
						"artworkPrice()": "2514",
						"isArtist(address)": "2856",
						"owner()": "2505",
						"purchaseArtwork()": "infinite",
						"resolveDispute(string)": "infinite",
						"setArtworkPrice(uint256)": "24726",
						"totalPercentage()": "2513"
					},
					"internal": {
						"distributeFunds()": "infinite"
					}
				},
				"methodIdentifiers": {
					"addArtist(address,uint256)": "5d1b5805",
					"artistToOwnershipPercentage(address)": "7f8fbc22",
					"artists(uint256)": "cd7e10c1",
					"artworkPrice()": "89b5efa7",
					"isArtist(address)": "6b2f65b0",
					"owner()": "8da5cb5b",
					"purchaseArtwork()": "ab1ce0b0",
					"resolveDispute(string)": "8f2238ba",
					"setArtworkPrice(uint256)": "6beeedb8",
					"totalPercentage()": "d44a0e61"
				}
			},
			"storageLayout": {
				"storage": [
					{
						"astId": 3,
						"contract": "contracts/CollaborativeArt.sol:CollaborativeArt",
						"label": "owner",
						"offset": 0,
						"slot": "0",
						"type": "t_address"
					},
					{
						"astId": 12,
						"contract": "contracts/CollaborativeArt.sol:CollaborativeArt",
						"label": "artists",
						"offset": 0,
						"slot": "1",
						"type": "t_array(t_struct(Artist)8_storage)dyn_storage"
					},
					{
						"astId": 16,
						"contract": "contracts/CollaborativeArt.sol:CollaborativeArt",
						"label": "artistToOwnershipPercentage",
						"offset": 0,
						"slot": "2",
						"type": "t_mapping(t_address,t_uint256)"
					},
					{
						"astId": 20,
						"contract": "contracts/CollaborativeArt.sol:CollaborativeArt",
						"label": "isArtist",
						"offset": 0,
						"slot": "3",
						"type": "t_mapping(t_address,t_bool)"
					},
					{
						"astId": 23,
						"contract": "contracts/CollaborativeArt.sol:CollaborativeArt",
						"label": "totalPercentage",
						"offset": 0,
						"slot": "4",
						"type": "t_uint256"
					},
					{
						"astId": 25,
						"contract": "contracts/CollaborativeArt.sol:CollaborativeArt",
						"label": "artworkPrice",
						"offset": 0,
						"slot": "5",
						"type": "t_uint256"
					}
				],
				"types": {
					"t_address": {
						"encoding": "inplace",
						"label": "address",
						"numberOfBytes": "20"
					},
					"t_array(t_struct(Artist)8_storage)dyn_storage": {
						"base": "t_struct(Artist)8_storage",
						"encoding": "dynamic_array",
						"label": "struct CollaborativeArt.Artist[]",
						"numberOfBytes": "32"
					},
					"t_bool": {
						"encoding": "inplace",
						"label": "bool",
						"numberOfBytes": "1"
					},
					"t_mapping(t_address,t_bool)": {
						"encoding": "mapping",
						"key": "t_address",
						"label": "mapping(address => bool)",
						"numberOfBytes": "32",
						"value": "t_bool"
					},
					"t_mapping(t_address,t_uint256)": {
						"encoding": "mapping",
						"key": "t_address",
						"label": "mapping(address => uint256)",
						"numberOfBytes": "32",
						"value": "t_uint256"
					},
					"t_struct(Artist)8_storage": {
						"encoding": "inplace",
						"label": "struct CollaborativeArt.Artist",
						"members": [
							{
								"astId": 5,
								"contract": "contracts/CollaborativeArt.sol:CollaborativeArt",
								"label": "artistAddress",
								"offset": 0,
								"slot": "0",
								"type": "t_address"
							},
							{
								"astId": 7,
								"contract": "contracts/CollaborativeArt.sol:CollaborativeArt",
								"label": "ownershipPercentage",
								"offset": 0,
								"slot": "1",
								"type": "t_uint256"
							}
						],
						"numberOfBytes": "64"
					},
					"t_uint256": {
						"encoding": "inplace",
						"label": "uint256",
						"numberOfBytes": "32"
					}
				}
			},
			"userdoc": {
				"kind": "user",
				"methods": {},
				"version": 1
			}
		}
	}
}