{
	"contracts/CollaborativeArt.sol": {
		"CollaborativeArt": {
			"abi": [
				{
					"inputs": [],
					"stateMutability": "nonpayable",
					"type": "constructor"
				},
				{
					"inputs": [],
					"name": "ECDSAInvalidSignature",
					"type": "error"
				},
				{
					"inputs": [
						{
							"internalType": "uint256",
							"name": "length",
							"type": "uint256"
						}
					],
					"name": "ECDSAInvalidSignatureLength",
					"type": "error"
				},
				{
					"inputs": [
						{
							"internalType": "bytes32",
							"name": "s",
							"type": "bytes32"
						}
					],
					"name": "ECDSAInvalidSignatureS",
					"type": "error"
				},
				{
					"inputs": [],
					"name": "InvalidShortString",
					"type": "error"
				},
				{
					"inputs": [
						{
							"internalType": "string",
							"name": "str",
							"type": "string"
						}
					],
					"name": "StringTooLong",
					"type": "error"
				},
				{
					"anonymous": false,
					"inputs": [
						{
							"indexed": false,
							"internalType": "address",
							"name": "artist",
							"type": "address"
						}
					],
					"name": "ArtistSigned",
					"type": "event"
				},
				{
					"anonymous": false,
					"inputs": [
						{
							"indexed": false,
							"internalType": "uint256",
							"name": "price",
							"type": "uint256"
						},
						{
							"indexed": false,
							"internalType": "string",
							"name": "message",
							"type": "string"
						}
					],
					"name": "ArtworkSold",
					"type": "event"
				},
				{
					"anonymous": false,
					"inputs": [
						{
							"indexed": false,
							"internalType": "string",
							"name": "message",
							"type": "string"
						}
					],
					"name": "DisputeResolved",
					"type": "event"
				},
				{
					"anonymous": false,
					"inputs": [],
					"name": "EIP712DomainChanged",
					"type": "event"
				},
				{
					"anonymous": false,
					"inputs": [
						{
							"indexed": false,
							"internalType": "uint256",
							"name": "milestoneIndex",
							"type": "uint256"
						},
						{
							"indexed": false,
							"internalType": "string",
							"name": "description",
							"type": "string"
						}
					],
					"name": "MilestoneCompleted",
					"type": "event"
				},
				{
					"inputs": [
						{
							"internalType": "address",
							"name": "_artistAddress",
							"type": "address"
						},
						{
							"internalType": "uint256",
							"name": "_ownershipPercentage",
							"type": "uint256"
						}
					],
					"name": "addArtist",
					"outputs": [],
					"stateMutability": "nonpayable",
					"type": "function"
				},
				{
					"inputs": [
						{
							"internalType": "string",
							"name": "_description",
							"type": "string"
						},
						{
							"internalType": "uint256",
							"name": "_deadline",
							"type": "uint256"
						}
					],
					"name": "addMilestone",
					"outputs": [],
					"stateMutability": "nonpayable",
					"type": "function"
				},
				{
					"inputs": [
						{
							"internalType": "address",
							"name": "",
							"type": "address"
						}
					],
					"name": "artistSigned",
					"outputs": [
						{
							"internalType": "bool",
							"name": "",
							"type": "bool"
						}
					],
					"stateMutability": "view",
					"type": "function"
				},
				{
					"inputs": [
						{
							"internalType": "address",
							"name": "",
							"type": "address"
						}
					],
					"name": "artistToOwnershipPercentage",
					"outputs": [
						{
							"internalType": "uint256",
							"name": "",
							"type": "uint256"
						}
					],
					"stateMutability": "view",
					"type": "function"
				},
				{
					"inputs": [
						{
							"internalType": "uint256",
							"name": "",
							"type": "uint256"
						}
					],
					"name": "artists",
					"outputs": [
						{
							"internalType": "address",
							"name": "artistAddress",
							"type": "address"
						},
						{
							"internalType": "uint256",
							"name": "ownershipPercentage",
							"type": "uint256"
						}
					],
					"stateMutability": "view",
					"type": "function"
				},
				{
					"inputs": [],
					"name": "artworkPrice",
					"outputs": [
						{
							"internalType": "uint256",
							"name": "",
							"type": "uint256"
						}
					],
					"stateMutability": "view",
					"type": "function"
				},
				{
					"inputs": [],
					"name": "eip712Domain",
					"outputs": [
						{
							"internalType": "bytes1",
							"name": "fields",
							"type": "bytes1"
						},
						{
							"internalType": "string",
							"name": "name",
							"type": "string"
						},
						{
							"internalType": "string",
							"name": "version",
							"type": "string"
						},
						{
							"internalType": "uint256",
							"name": "chainId",
							"type": "uint256"
						},
						{
							"internalType": "address",
							"name": "verifyingContract",
							"type": "address"
						},
						{
							"internalType": "bytes32",
							"name": "salt",
							"type": "bytes32"
						},
						{
							"internalType": "uint256[]",
							"name": "extensions",
							"type": "uint256[]"
						}
					],
					"stateMutability": "view",
					"type": "function"
				},
				{
					"inputs": [
						{
							"internalType": "uint256",
							"name": "_index",
							"type": "uint256"
						}
					],
					"name": "markMilestoneAsCompleted",
					"outputs": [],
					"stateMutability": "nonpayable",
					"type": "function"
				},
				{
					"inputs": [
						{
							"internalType": "uint256",
							"name": "",
							"type": "uint256"
						}
					],
					"name": "milestones",
					"outputs": [
						{
							"internalType": "string",
							"name": "description",
							"type": "string"
						},
						{
							"internalType": "uint256",
							"name": "deadline",
							"type": "uint256"
						},
						{
							"internalType": "bool",
							"name": "completed",
							"type": "bool"
						}
					],
					"stateMutability": "view",
					"type": "function"
				},
				{
					"inputs": [],
					"name": "owner",
					"outputs": [
						{
							"internalType": "address",
							"name": "",
							"type": "address"
						}
					],
					"stateMutability": "view",
					"type": "function"
				},
				{
					"inputs": [],
					"name": "purchaseArtwork",
					"outputs": [],
					"stateMutability": "payable",
					"type": "function"
				},
				{
					"inputs": [
						{
							"internalType": "string",
							"name": "_message",
							"type": "string"
						}
					],
					"name": "resolveDispute",
					"outputs": [
						{
							"internalType": "string",
							"name": "",
							"type": "string"
						}
					],
					"stateMutability": "view",
					"type": "function"
				},
				{
					"inputs": [
						{
							"internalType": "uint256",
							"name": "_price",
							"type": "uint256"
						}
					],
					"name": "setArtworkPrice",
					"outputs": [],
					"stateMutability": "nonpayable",
					"type": "function"
				},
				{
					"inputs": [
						{
							"internalType": "bytes",
							"name": "_signature",
							"type": "bytes"
						}
					],
					"name": "signContract",
					"outputs": [],
					"stateMutability": "nonpayable",
					"type": "function"
				},
				{
					"inputs": [],
					"name": "totalPercentage",
					"outputs": [
						{
							"internalType": "uint256",
							"name": "",
							"type": "uint256"
						}
					],
					"stateMutability": "view",
					"type": "function"
				}
			],
			"devdoc": {
				"errors": {
					"ECDSAInvalidSignature()": [
						{
							"details": "The signature derives the `address(0)`."
						}
					],
					"ECDSAInvalidSignatureLength(uint256)": [
						{
							"details": "The signature has an invalid length."
						}
					],
					"ECDSAInvalidSignatureS(bytes32)": [
						{
							"details": "The signature has an S value that is in the upper half order."
						}
					]
				},
				"events": {
					"EIP712DomainChanged()": {
						"details": "MAY be emitted to signal that the domain could have changed."
					}
				},
				"kind": "dev",
				"methods": {
					"eip712Domain()": {
						"details": "See {IERC-5267}."
					}
				},
				"version": 1
			},
			"evm": {
				"assembly": "    /* \"contracts/CollaborativeArt.sol\":219:3784  contract CollaborativeArt is EIP712{... */\n  mstore(0x40, 0x0160)\n    /* \"contracts/CollaborativeArt.sol\":751:752  0 */\n  0x00\n    /* \"contracts/CollaborativeArt.sol\":718:752  uint256 public totalPercentage = 0 */\n  0x07\n  sstore\n    /* \"contracts/CollaborativeArt.sol\":1275:1358  constructor() EIP712(\"CollaborativeArt\",\"1.0\"){... */\n  callvalue\n  dup1\n  iszero\n  tag_1\n  jumpi\n  0x00\n  dup1\n  revert\ntag_1:\n  pop\n    /* \"@openzeppelin/contracts/utils/cryptography/EIP712.sol\":3328:3759  constructor(string memory name, string memory version) {... */\n  mload(0x40)\n  dup1\n  0x40\n  add\n  0x40\n  mstore\n  dup1\n  0x10\n  dup2\n  mstore\n  0x20\n  add\n  0x436f6c6c61626f72617469766541727400000000000000000000000000000000\n  dup2\n  mstore\n  pop\n  mload(0x40)\n  dup1\n  0x40\n  add\n  0x40\n  mstore\n  dup1\n  0x03\n  dup2\n  mstore\n  0x20\n  add\n  0x312e300000000000000000000000000000000000000000000000000000000000\n  dup2\n  mstore\n  pop\n    /* \"@openzeppelin/contracts/utils/cryptography/EIP712.sol\":3401:3446  name.toShortStringWithFallback(_nameFallback) */\n  tag_5\n    /* \"@openzeppelin/contracts/utils/cryptography/EIP712.sol\":3432:3445  _nameFallback */\n  0x00\n    /* \"@openzeppelin/contracts/utils/cryptography/EIP712.sol\":3401:3405  name */\n  dup4\n    /* \"@openzeppelin/contracts/utils/cryptography/EIP712.sol\":3401:3431  name.toShortStringWithFallback */\n  shl(0x20, tag_6)\n  swap1\n    /* \"@openzeppelin/contracts/utils/cryptography/EIP712.sol\":3401:3446  name.toShortStringWithFallback(_nameFallback) */\n  swap2\n  swap1\n  0x20\n  shr\n  jump\t// in\ntag_5:\n    /* \"@openzeppelin/contracts/utils/cryptography/EIP712.sol\":3393:3446  _name = name.toShortStringWithFallback(_nameFallback) */\n  0x0120\n  dup2\n  dup2\n  mstore\n  pop\n  pop\n    /* \"@openzeppelin/contracts/utils/cryptography/EIP712.sol\":3467:3518  version.toShortStringWithFallback(_versionFallback) */\n  tag_7\n    /* \"@openzeppelin/contracts/utils/cryptography/EIP712.sol\":3501:3517  _versionFallback */\n  0x01\n    /* \"@openzeppelin/contracts/utils/cryptography/EIP712.sol\":3467:3474  version */\n  dup3\n    /* \"@openzeppelin/contracts/utils/cryptography/EIP712.sol\":3467:3500  version.toShortStringWithFallback */\n  shl(0x20, tag_6)\n  swap1\n    /* \"@openzeppelin/contracts/utils/cryptography/EIP712.sol\":3467:3518  version.toShortStringWithFallback(_versionFallback) */\n  swap2\n  swap1\n  0x20\n  shr\n  jump\t// in\ntag_7:\n    /* \"@openzeppelin/contracts/utils/cryptography/EIP712.sol\":3456:3518  _version = version.toShortStringWithFallback(_versionFallback) */\n  0x0140\n  dup2\n  dup2\n  mstore\n  pop\n  pop\n    /* \"@openzeppelin/contracts/utils/cryptography/EIP712.sol\":3558:3562  name */\n  dup2\n    /* \"@openzeppelin/contracts/utils/cryptography/EIP712.sol\":3542:3564  keccak256(bytes(name)) */\n  dup1\n  mload\n  swap1\n  0x20\n  add\n  keccak256\n    /* \"@openzeppelin/contracts/utils/cryptography/EIP712.sol\":3528:3564  _hashedName = keccak256(bytes(name)) */\n  0xe0\n  dup2\n  dup2\n  mstore\n  pop\n  pop\n    /* \"@openzeppelin/contracts/utils/cryptography/EIP712.sol\":3607:3614  version */\n  dup1\n    /* \"@openzeppelin/contracts/utils/cryptography/EIP712.sol\":3591:3616  keccak256(bytes(version)) */\n  dup1\n  mload\n  swap1\n  0x20\n  add\n  keccak256\n    /* \"@openzeppelin/contracts/utils/cryptography/EIP712.sol\":3574:3616  _hashedVersion = keccak256(bytes(version)) */\n  0x0100\n  dup2\n  dup2\n  mstore\n  pop\n  pop\n    /* \"@openzeppelin/contracts/utils/cryptography/EIP712.sol\":3644:3657  block.chainid */\n  chainid\n    /* \"@openzeppelin/contracts/utils/cryptography/EIP712.sol\":3627:3657  _cachedChainId = block.chainid */\n  0xa0\n  dup2\n  dup2\n  mstore\n  pop\n  pop\n    /* \"@openzeppelin/contracts/utils/cryptography/EIP712.sol\":3692:3715  _buildDomainSeparator() */\n  tag_8\n    /* \"@openzeppelin/contracts/utils/cryptography/EIP712.sol\":3692:3713  _buildDomainSeparator */\n  shl(0x20, tag_9)\n    /* \"@openzeppelin/contracts/utils/cryptography/EIP712.sol\":3692:3715  _buildDomainSeparator() */\n  0x20\n  shr\n  jump\t// in\ntag_8:\n    /* \"@openzeppelin/contracts/utils/cryptography/EIP712.sol\":3667:3715  _cachedDomainSeparator = _buildDomainSeparator() */\n  0x80\n  dup2\n  dup2\n  mstore\n  pop\n  pop\n    /* \"@openzeppelin/contracts/utils/cryptography/EIP712.sol\":3747:3751  this */\n  address\n    /* \"@openzeppelin/contracts/utils/cryptography/EIP712.sol\":3725:3752  _cachedThis = address(this) */\n  0xffffffffffffffffffffffffffffffffffffffff\n  and\n  0xc0\n  dup2\n  0xffffffffffffffffffffffffffffffffffffffff\n  and\n  dup2\n  mstore\n  pop\n  pop\n    /* \"@openzeppelin/contracts/utils/cryptography/EIP712.sol\":3328:3759  constructor(string memory name, string memory version) {... */\n  pop\n  pop\n    /* \"contracts/CollaborativeArt.sol\":1340:1350  msg.sender */\n  caller\n    /* \"contracts/CollaborativeArt.sol\":1332:1337  owner */\n  0x02\n  0x00\n    /* \"contracts/CollaborativeArt.sol\":1332:1350  owner = msg.sender */\n  0x0100\n  exp\n  dup2\n  sload\n  dup2\n  0xffffffffffffffffffffffffffffffffffffffff\n  mul\n  not\n  and\n  swap1\n  dup4\n  0xffffffffffffffffffffffffffffffffffffffff\n  and\n  mul\n  or\n  swap1\n  sstore\n  pop\n    /* \"contracts/CollaborativeArt.sol\":219:3784  contract CollaborativeArt is EIP712{... */\n  jump(tag_11)\n    /* \"@openzeppelin/contracts/utils/ShortStrings.sol\":2914:3254  function toShortStringWithFallback(string memory value, string storage store) internal returns (ShortString) {... */\ntag_6:\n    /* \"@openzeppelin/contracts/utils/ShortStrings.sol\":3010:3021  ShortString */\n  0x00\n    /* \"@openzeppelin/contracts/utils/ShortStrings.sol\":3059:3061  32 */\n  0x20\n    /* \"@openzeppelin/contracts/utils/ShortStrings.sol\":3043:3048  value */\n  dup4\n    /* \"@openzeppelin/contracts/utils/ShortStrings.sol\":3037:3056  bytes(value).length */\n  mload\n    /* \"@openzeppelin/contracts/utils/ShortStrings.sol\":3037:3061  bytes(value).length < 32 */\n  lt\n    /* \"@openzeppelin/contracts/utils/ShortStrings.sol\":3033:3248  if (bytes(value).length < 32) {... */\n  iszero\n  tag_13\n  jumpi\n    /* \"@openzeppelin/contracts/utils/ShortStrings.sol\":3084:3104  toShortString(value) */\n  tag_14\n    /* \"@openzeppelin/contracts/utils/ShortStrings.sol\":3098:3103  value */\n  dup4\n    /* \"@openzeppelin/contracts/utils/ShortStrings.sol\":3084:3097  toShortString */\n  shl(0x20, tag_15)\n    /* \"@openzeppelin/contracts/utils/ShortStrings.sol\":3084:3104  toShortString(value) */\n  0x20\n  shr\n  jump\t// in\ntag_14:\n    /* \"@openzeppelin/contracts/utils/ShortStrings.sol\":3077:3104  return toShortString(value) */\n  swap1\n  pop\n  jump(tag_12)\n    /* \"@openzeppelin/contracts/utils/ShortStrings.sol\":3033:3248  if (bytes(value).length < 32) {... */\ntag_13:\n    /* \"@openzeppelin/contracts/utils/ShortStrings.sol\":3176:3181  value */\n  dup3\n    /* \"@openzeppelin/contracts/utils/ShortStrings.sol\":3135:3167  StorageSlot.getStringSlot(store) */\n  tag_17\n    /* \"@openzeppelin/contracts/utils/ShortStrings.sol\":3161:3166  store */\n  dup4\n    /* \"@openzeppelin/contracts/utils/ShortStrings.sol\":3135:3160  StorageSlot.getStringSlot */\n  shl(0x20, tag_18)\n    /* \"@openzeppelin/contracts/utils/ShortStrings.sol\":3135:3167  StorageSlot.getStringSlot(store) */\n  0x20\n  shr\n  jump\t// in\ntag_17:\n    /* \"@openzeppelin/contracts/utils/ShortStrings.sol\":3135:3173  StorageSlot.getStringSlot(store).value */\n  0x00\n  add\n    /* \"@openzeppelin/contracts/utils/ShortStrings.sol\":3135:3181  StorageSlot.getStringSlot(store).value = value */\n  swap1\n  dup2\n  tag_19\n  swap2\n  swap1\n  tag_20\n  jump\t// in\ntag_19:\n  pop\n    /* \"@openzeppelin/contracts/utils/ShortStrings.sol\":1390:1456  0x00000000000000000000000000000000000000000000000000000000000000FF */\n  0xff\n    /* \"@openzeppelin/contracts/utils/ShortStrings.sol\":3219:3236  FALLBACK_SENTINEL */\n  0x00\n  shl\n    /* \"@openzeppelin/contracts/utils/ShortStrings.sol\":3195:3237  return ShortString.wrap(FALLBACK_SENTINEL) */\n  swap1\n  pop\n    /* \"@openzeppelin/contracts/utils/ShortStrings.sol\":2914:3254  function toShortStringWithFallback(string memory value, string storage store) internal returns (ShortString) {... */\ntag_12:\n  swap3\n  swap2\n  pop\n  pop\n  jump\t// out\n    /* \"@openzeppelin/contracts/utils/cryptography/EIP712.sol\":4113:4292  function _buildDomainSeparator() private view returns (bytes32) {... */\ntag_9:\n    /* \"@openzeppelin/contracts/utils/cryptography/EIP712.sol\":4168:4175  bytes32 */\n  0x00\n    /* \"@openzeppelin/contracts/utils/cryptography/EIP712.sol\":2079:2174  keccak256(\"EIP712Domain(string name,string version,uint256 chainId,address verifyingContract)\") */\n  0x8b73c3c69bb8fe3d512ecc4cf759cc79239f7b179b0ffacaa9a75d522b39400f\n    /* \"@openzeppelin/contracts/utils/cryptography/EIP712.sol\":4226:4237  _hashedName */\n  mload(0xe0)\n    /* \"@openzeppelin/contracts/utils/cryptography/EIP712.sol\":4239:4253  _hashedVersion */\n  mload(0x0100)\n    /* \"@openzeppelin/contracts/utils/cryptography/EIP712.sol\":4255:4268  block.chainid */\n  chainid\n    /* \"@openzeppelin/contracts/utils/cryptography/EIP712.sol\":4278:4282  this */\n  address\n    /* \"@openzeppelin/contracts/utils/cryptography/EIP712.sol\":4204:4284  abi.encode(TYPE_HASH, _hashedName, _hashedVersion, block.chainid, address(this)) */\n  add(0x20, mload(0x40))\n  tag_22\n  swap6\n  swap5\n  swap4\n  swap3\n  swap2\n  swap1\n  tag_23\n  jump\t// in\ntag_22:\n  mload(0x40)\n  0x20\n  dup2\n  dup4\n  sub\n  sub\n  dup2\n  mstore\n  swap1\n  0x40\n  mstore\n    /* \"@openzeppelin/contracts/utils/cryptography/EIP712.sol\":4194:4285  keccak256(abi.encode(TYPE_HASH, _hashedName, _hashedVersion, block.chainid, address(this))) */\n  dup1\n  mload\n  swap1\n  0x20\n  add\n  keccak256\n    /* \"@openzeppelin/contracts/utils/cryptography/EIP712.sol\":4187:4285  return keccak256(abi.encode(TYPE_HASH, _hashedName, _hashedVersion, block.chainid, address(this))) */\n  swap1\n  pop\n    /* \"@openzeppelin/contracts/utils/cryptography/EIP712.sol\":4113:4292  function _buildDomainSeparator() private view returns (bytes32) {... */\n  swap1\n  jump\t// out\n    /* \"@openzeppelin/contracts/utils/ShortStrings.sol\":1708:1994  function toShortString(string memory str) internal pure returns (ShortString) {... */\ntag_15:\n    /* \"@openzeppelin/contracts/utils/ShortStrings.sol\":1773:1784  ShortString */\n  0x00\n    /* \"@openzeppelin/contracts/utils/ShortStrings.sol\":1796:1813  bytes memory bstr */\n  dup1\n    /* \"@openzeppelin/contracts/utils/ShortStrings.sol\":1822:1825  str */\n  dup3\n    /* \"@openzeppelin/contracts/utils/ShortStrings.sol\":1796:1826  bytes memory bstr = bytes(str) */\n  swap1\n  pop\n    /* \"@openzeppelin/contracts/utils/ShortStrings.sol\":1854:1856  31 */\n  0x1f\n    /* \"@openzeppelin/contracts/utils/ShortStrings.sol\":1840:1844  bstr */\n  dup2\n    /* \"@openzeppelin/contracts/utils/ShortStrings.sol\":1840:1851  bstr.length */\n  mload\n    /* \"@openzeppelin/contracts/utils/ShortStrings.sol\":1840:1856  bstr.length > 31 */\n  gt\n    /* \"@openzeppelin/contracts/utils/ShortStrings.sol\":1836:1908  if (bstr.length > 31) {... */\n  iszero\n  tag_25\n  jumpi\n    /* \"@openzeppelin/contracts/utils/ShortStrings.sol\":1893:1896  str */\n  dup3\n    /* \"@openzeppelin/contracts/utils/ShortStrings.sol\":1879:1897  StringTooLong(str) */\n  mload(0x40)\n  0x305a27a900000000000000000000000000000000000000000000000000000000\n  dup2\n  mstore\n  0x04\n  add\n  tag_26\n  swap2\n  swap1\n  tag_27\n  jump\t// in\ntag_26:\n  mload(0x40)\n  dup1\n  swap2\n  sub\n  swap1\n  revert\n    /* \"@openzeppelin/contracts/utils/ShortStrings.sol\":1836:1908  if (bstr.length > 31) {... */\ntag_25:\n    /* \"@openzeppelin/contracts/utils/ShortStrings.sol\":1974:1978  bstr */\n  dup1\n    /* \"@openzeppelin/contracts/utils/ShortStrings.sol\":1974:1985  bstr.length */\n  mload\n    /* \"@openzeppelin/contracts/utils/ShortStrings.sol\":1965:1969  bstr */\n  dup2\n    /* \"@openzeppelin/contracts/utils/ShortStrings.sol\":1957:1970  bytes32(bstr) */\n  tag_28\n  swap1\n  tag_29\n  jump\t// in\ntag_28:\n    /* \"@openzeppelin/contracts/utils/ShortStrings.sol\":1949:1971  uint256(bytes32(bstr)) */\n  0x00\n  shr\n    /* \"@openzeppelin/contracts/utils/ShortStrings.sol\":1949:1985  uint256(bytes32(bstr)) | bstr.length */\n  or\n    /* \"@openzeppelin/contracts/utils/ShortStrings.sol\":1941:1986  bytes32(uint256(bytes32(bstr)) | bstr.length) */\n  0x00\n  shl\n    /* \"@openzeppelin/contracts/utils/ShortStrings.sol\":1917:1987  return ShortString.wrap(bytes32(uint256(bytes32(bstr)) | bstr.length)) */\n  swap2\n  pop\n  pop\n    /* \"@openzeppelin/contracts/utils/ShortStrings.sol\":1708:1994  function toShortString(string memory str) internal pure returns (ShortString) {... */\n  swap2\n  swap1\n  pop\n  jump\t// out\n    /* \"@openzeppelin/contracts/utils/StorageSlot.sol\":3135:3337  function getStringSlot(string storage store) internal pure returns (StringSlot storage r) {... */\ntag_18:\n    /* \"@openzeppelin/contracts/utils/StorageSlot.sol\":3203:3223  StringSlot storage r */\n  0x00\n    /* \"@openzeppelin/contracts/utils/StorageSlot.sol\":3311:3321  store.slot */\n  dup2\n    /* \"@openzeppelin/contracts/utils/StorageSlot.sol\":3301:3321  r.slot := store.slot */\n  swap1\n  pop\n    /* \"@openzeppelin/contracts/utils/StorageSlot.sol\":3135:3337  function getStringSlot(string storage store) internal pure returns (StringSlot storage r) {... */\n  swap2\n  swap1\n  pop\n  jump\t// out\n    /* \"#utility.yul\":7:106   */\ntag_31:\n    /* \"#utility.yul\":59:65   */\n  0x00\n    /* \"#utility.yul\":93:98   */\n  dup2\n    /* \"#utility.yul\":87:99   */\n  mload\n    /* \"#utility.yul\":77:99   */\n  swap1\n  pop\n    /* \"#utility.yul\":7:106   */\n  swap2\n  swap1\n  pop\n  jump\t// out\n    /* \"#utility.yul\":112:292   */\ntag_32:\n    /* \"#utility.yul\":160:237   */\n  0x4e487b7100000000000000000000000000000000000000000000000000000000\n    /* \"#utility.yul\":157:158   */\n  0x00\n    /* \"#utility.yul\":150:238   */\n  mstore\n    /* \"#utility.yul\":257:261   */\n  0x41\n    /* \"#utility.yul\":254:255   */\n  0x04\n    /* \"#utility.yul\":247:262   */\n  mstore\n    /* \"#utility.yul\":281:285   */\n  0x24\n    /* \"#utility.yul\":278:279   */\n  0x00\n    /* \"#utility.yul\":271:286   */\n  revert\n    /* \"#utility.yul\":298:478   */\ntag_33:\n    /* \"#utility.yul\":346:423   */\n  0x4e487b7100000000000000000000000000000000000000000000000000000000\n    /* \"#utility.yul\":343:344   */\n  0x00\n    /* \"#utility.yul\":336:424   */\n  mstore\n    /* \"#utility.yul\":443:447   */\n  0x22\n    /* \"#utility.yul\":440:441   */\n  0x04\n    /* \"#utility.yul\":433:448   */\n  mstore\n    /* \"#utility.yul\":467:471   */\n  0x24\n    /* \"#utility.yul\":464:465   */\n  0x00\n    /* \"#utility.yul\":457:472   */\n  revert\n    /* \"#utility.yul\":484:804   */\ntag_34:\n    /* \"#utility.yul\":528:534   */\n  0x00\n    /* \"#utility.yul\":565:566   */\n  0x02\n    /* \"#utility.yul\":559:563   */\n  dup3\n    /* \"#utility.yul\":555:567   */\n  div\n    /* \"#utility.yul\":545:567   */\n  swap1\n  pop\n    /* \"#utility.yul\":612:613   */\n  0x01\n    /* \"#utility.yul\":606:610   */\n  dup3\n    /* \"#utility.yul\":602:614   */\n  and\n    /* \"#utility.yul\":633:651   */\n  dup1\n    /* \"#utility.yul\":623:704   */\n  tag_69\n  jumpi\n    /* \"#utility.yul\":689:693   */\n  0x7f\n    /* \"#utility.yul\":681:687   */\n  dup3\n    /* \"#utility.yul\":677:694   */\n  and\n    /* \"#utility.yul\":667:694   */\n  swap2\n  pop\n    /* \"#utility.yul\":623:704   */\ntag_69:\n    /* \"#utility.yul\":751:753   */\n  0x20\n    /* \"#utility.yul\":743:749   */\n  dup3\n    /* \"#utility.yul\":740:754   */\n  lt\n    /* \"#utility.yul\":720:738   */\n  dup2\n    /* \"#utility.yul\":717:755   */\n  sub\n    /* \"#utility.yul\":714:798   */\n  tag_70\n  jumpi\n    /* \"#utility.yul\":770:788   */\n  tag_71\n  tag_33\n  jump\t// in\ntag_71:\n    /* \"#utility.yul\":714:798   */\ntag_70:\n    /* \"#utility.yul\":535:804   */\n  pop\n    /* \"#utility.yul\":484:804   */\n  swap2\n  swap1\n  pop\n  jump\t// out\n    /* \"#utility.yul\":810:951   */\ntag_35:\n    /* \"#utility.yul\":859:863   */\n  0x00\n    /* \"#utility.yul\":882:885   */\n  dup2\n    /* \"#utility.yul\":874:885   */\n  swap1\n  pop\n    /* \"#utility.yul\":905:908   */\n  dup2\n    /* \"#utility.yul\":902:903   */\n  0x00\n    /* \"#utility.yul\":895:909   */\n  mstore\n    /* \"#utility.yul\":939:943   */\n  0x20\n    /* \"#utility.yul\":936:937   */\n  0x00\n    /* \"#utility.yul\":926:944   */\n  keccak256\n    /* \"#utility.yul\":918:944   */\n  swap1\n  pop\n    /* \"#utility.yul\":810:951   */\n  swap2\n  swap1\n  pop\n  jump\t// out\n    /* \"#utility.yul\":957:1050   */\ntag_36:\n    /* \"#utility.yul\":994:1000   */\n  0x00\n    /* \"#utility.yul\":1041:1043   */\n  0x20\n    /* \"#utility.yul\":1036:1038   */\n  0x1f\n    /* \"#utility.yul\":1029:1034   */\n  dup4\n    /* \"#utility.yul\":1025:1039   */\n  add\n    /* \"#utility.yul\":1021:1044   */\n  div\n    /* \"#utility.yul\":1011:1044   */\n  swap1\n  pop\n    /* \"#utility.yul\":957:1050   */\n  swap2\n  swap1\n  pop\n  jump\t// out\n    /* \"#utility.yul\":1056:1163   */\ntag_37:\n    /* \"#utility.yul\":1100:1108   */\n  0x00\n    /* \"#utility.yul\":1150:1155   */\n  dup3\n    /* \"#utility.yul\":1144:1148   */\n  dup3\n    /* \"#utility.yul\":1140:1156   */\n  shl\n    /* \"#utility.yul\":1119:1156   */\n  swap1\n  pop\n    /* \"#utility.yul\":1056:1163   */\n  swap3\n  swap2\n  pop\n  pop\n  jump\t// out\n    /* \"#utility.yul\":1169:1562   */\ntag_38:\n    /* \"#utility.yul\":1238:1244   */\n  0x00\n    /* \"#utility.yul\":1288:1289   */\n  0x08\n    /* \"#utility.yul\":1276:1286   */\n  dup4\n    /* \"#utility.yul\":1272:1290   */\n  mul\n    /* \"#utility.yul\":1311:1408   */\n  tag_76\n    /* \"#utility.yul\":1341:1407   */\n  0xffffffffffffffffffffffffffffffffffffffffffffffffffffffffffffffff\n    /* \"#utility.yul\":1330:1339   */\n  dup3\n    /* \"#utility.yul\":1311:1408   */\n  tag_37\n  jump\t// in\ntag_76:\n    /* \"#utility.yul\":1429:1468   */\n  tag_77\n    /* \"#utility.yul\":1459:1467   */\n  dup7\n    /* \"#utility.yul\":1448:1457   */\n  dup4\n    /* \"#utility.yul\":1429:1468   */\n  tag_37\n  jump\t// in\ntag_77:\n    /* \"#utility.yul\":1417:1468   */\n  swap6\n  pop\n    /* \"#utility.yul\":1501:1505   */\n  dup1\n    /* \"#utility.yul\":1497:1506   */\n  not\n    /* \"#utility.yul\":1490:1495   */\n  dup5\n    /* \"#utility.yul\":1486:1507   */\n  and\n    /* \"#utility.yul\":1477:1507   */\n  swap4\n  pop\n    /* \"#utility.yul\":1550:1554   */\n  dup1\n    /* \"#utility.yul\":1540:1548   */\n  dup7\n    /* \"#utility.yul\":1536:1555   */\n  and\n    /* \"#utility.yul\":1529:1534   */\n  dup5\n    /* \"#utility.yul\":1526:1556   */\n  or\n    /* \"#utility.yul\":1516:1556   */\n  swap3\n  pop\n    /* \"#utility.yul\":1245:1562   */\n  pop\n  pop\n    /* \"#utility.yul\":1169:1562   */\n  swap4\n  swap3\n  pop\n  pop\n  pop\n  jump\t// out\n    /* \"#utility.yul\":1568:1645   */\ntag_39:\n    /* \"#utility.yul\":1605:1612   */\n  0x00\n    /* \"#utility.yul\":1634:1639   */\n  dup2\n    /* \"#utility.yul\":1623:1639   */\n  swap1\n  pop\n    /* \"#utility.yul\":1568:1645   */\n  swap2\n  swap1\n  pop\n  jump\t// out\n    /* \"#utility.yul\":1651:1711   */\ntag_40:\n    /* \"#utility.yul\":1679:1682   */\n  0x00\n    /* \"#utility.yul\":1700:1705   */\n  dup2\n    /* \"#utility.yul\":1693:1705   */\n  swap1\n  pop\n    /* \"#utility.yul\":1651:1711   */\n  swap2\n  swap1\n  pop\n  jump\t// out\n    /* \"#utility.yul\":1717:1859   */\ntag_41:\n    /* \"#utility.yul\":1767:1776   */\n  0x00\n    /* \"#utility.yul\":1800:1853   */\n  tag_81\n    /* \"#utility.yul\":1818:1852   */\n  tag_82\n    /* \"#utility.yul\":1827:1851   */\n  tag_83\n    /* \"#utility.yul\":1845:1850   */\n  dup5\n    /* \"#utility.yul\":1827:1851   */\n  tag_39\n  jump\t// in\ntag_83:\n    /* \"#utility.yul\":1818:1852   */\n  tag_40\n  jump\t// in\ntag_82:\n    /* \"#utility.yul\":1800:1853   */\n  tag_39\n  jump\t// in\ntag_81:\n    /* \"#utility.yul\":1787:1853   */\n  swap1\n  pop\n    /* \"#utility.yul\":1717:1859   */\n  swap2\n  swap1\n  pop\n  jump\t// out\n    /* \"#utility.yul\":1865:1940   */\ntag_42:\n    /* \"#utility.yul\":1908:1911   */\n  0x00\n    /* \"#utility.yul\":1929:1934   */\n  dup2\n    /* \"#utility.yul\":1922:1934   */\n  swap1\n  pop\n    /* \"#utility.yul\":1865:1940   */\n  swap2\n  swap1\n  pop\n  jump\t// out\n    /* \"#utility.yul\":1946:2215   */\ntag_43:\n    /* \"#utility.yul\":2056:2095   */\n  tag_86\n    /* \"#utility.yul\":2087:2094   */\n  dup4\n    /* \"#utility.yul\":2056:2095   */\n  tag_41\n  jump\t// in\ntag_86:\n    /* \"#utility.yul\":2117:2208   */\n  tag_87\n    /* \"#utility.yul\":2166:2207   */\n  tag_88\n    /* \"#utility.yul\":2190:2206   */\n  dup3\n    /* \"#utility.yul\":2166:2207   */\n  tag_42\n  jump\t// in\ntag_88:\n    /* \"#utility.yul\":2158:2164   */\n  dup5\n    /* \"#utility.yul\":2151:2155   */\n  dup5\n    /* \"#utility.yul\":2145:2156   */\n  sload\n    /* \"#utility.yul\":2117:2208   */\n  tag_38\n  jump\t// in\ntag_87:\n    /* \"#utility.yul\":2111:2115   */\n  dup3\n    /* \"#utility.yul\":2104:2209   */\n  sstore\n    /* \"#utility.yul\":2022:2215   */\n  pop\n    /* \"#utility.yul\":1946:2215   */\n  pop\n  pop\n  pop\n  jump\t// out\n    /* \"#utility.yul\":2221:2294   */\ntag_44:\n    /* \"#utility.yul\":2266:2269   */\n  0x00\n    /* \"#utility.yul\":2221:2294   */\n  swap1\n  jump\t// out\n    /* \"#utility.yul\":2300:2489   */\ntag_45:\n    /* \"#utility.yul\":2377:2409   */\n  tag_91\n  tag_44\n  jump\t// in\ntag_91:\n    /* \"#utility.yul\":2418:2483   */\n  tag_92\n    /* \"#utility.yul\":2476:2482   */\n  dup2\n    /* \"#utility.yul\":2468:2474   */\n  dup5\n    /* \"#utility.yul\":2462:2466   */\n  dup5\n    /* \"#utility.yul\":2418:2483   */\n  tag_43\n  jump\t// in\ntag_92:\n    /* \"#utility.yul\":2353:2489   */\n  pop\n    /* \"#utility.yul\":2300:2489   */\n  pop\n  pop\n  jump\t// out\n    /* \"#utility.yul\":2495:2681   */\ntag_46:\n    /* \"#utility.yul\":2555:2675   */\ntag_94:\n    /* \"#utility.yul\":2572:2575   */\n  dup2\n    /* \"#utility.yul\":2565:2570   */\n  dup2\n    /* \"#utility.yul\":2562:2576   */\n  lt\n    /* \"#utility.yul\":2555:2675   */\n  iszero\n  tag_96\n  jumpi\n    /* \"#utility.yul\":2626:2665   */\n  tag_97\n    /* \"#utility.yul\":2663:2664   */\n  0x00\n    /* \"#utility.yul\":2656:2661   */\n  dup3\n    /* \"#utility.yul\":2626:2665   */\n  tag_45\n  jump\t// in\ntag_97:\n    /* \"#utility.yul\":2599:2600   */\n  0x01\n    /* \"#utility.yul\":2592:2597   */\n  dup2\n    /* \"#utility.yul\":2588:2601   */\n  add\n    /* \"#utility.yul\":2579:2601   */\n  swap1\n  pop\n    /* \"#utility.yul\":2555:2675   */\n  jump(tag_94)\ntag_96:\n    /* \"#utility.yul\":2495:2681   */\n  pop\n  pop\n  jump\t// out\n    /* \"#utility.yul\":2687:3230   */\ntag_47:\n    /* \"#utility.yul\":2788:2790   */\n  0x1f\n    /* \"#utility.yul\":2783:2786   */\n  dup3\n    /* \"#utility.yul\":2780:2791   */\n  gt\n    /* \"#utility.yul\":2777:3223   */\n  iszero\n  tag_99\n  jumpi\n    /* \"#utility.yul\":2822:2860   */\n  tag_100\n    /* \"#utility.yul\":2854:2859   */\n  dup2\n    /* \"#utility.yul\":2822:2860   */\n  tag_35\n  jump\t// in\ntag_100:\n    /* \"#utility.yul\":2906:2935   */\n  tag_101\n    /* \"#utility.yul\":2924:2934   */\n  dup5\n    /* \"#utility.yul\":2906:2935   */\n  tag_36\n  jump\t// in\ntag_101:\n    /* \"#utility.yul\":2896:2904   */\n  dup2\n    /* \"#utility.yul\":2892:2936   */\n  add\n    /* \"#utility.yul\":3089:3091   */\n  0x20\n    /* \"#utility.yul\":3077:3087   */\n  dup6\n    /* \"#utility.yul\":3074:3092   */\n  lt\n    /* \"#utility.yul\":3071:3120   */\n  iszero\n  tag_102\n  jumpi\n    /* \"#utility.yul\":3110:3118   */\n  dup2\n    /* \"#utility.yul\":3095:3118   */\n  swap1\n  pop\n    /* \"#utility.yul\":3071:3120   */\ntag_102:\n    /* \"#utility.yul\":3133:3213   */\n  tag_103\n    /* \"#utility.yul\":3189:3211   */\n  tag_104\n    /* \"#utility.yul\":3207:3210   */\n  dup6\n    /* \"#utility.yul\":3189:3211   */\n  tag_36\n  jump\t// in\ntag_104:\n    /* \"#utility.yul\":3179:3187   */\n  dup4\n    /* \"#utility.yul\":3175:3212   */\n  add\n    /* \"#utility.yul\":3162:3173   */\n  dup3\n    /* \"#utility.yul\":3133:3213   */\n  tag_46\n  jump\t// in\ntag_103:\n    /* \"#utility.yul\":2792:3223   */\n  pop\n  pop\n    /* \"#utility.yul\":2777:3223   */\ntag_99:\n    /* \"#utility.yul\":2687:3230   */\n  pop\n  pop\n  pop\n  jump\t// out\n    /* \"#utility.yul\":3236:3353   */\ntag_48:\n    /* \"#utility.yul\":3290:3298   */\n  0x00\n    /* \"#utility.yul\":3340:3345   */\n  dup3\n    /* \"#utility.yul\":3334:3338   */\n  dup3\n    /* \"#utility.yul\":3330:3346   */\n  shr\n    /* \"#utility.yul\":3309:3346   */\n  swap1\n  pop\n    /* \"#utility.yul\":3236:3353   */\n  swap3\n  swap2\n  pop\n  pop\n  jump\t// out\n    /* \"#utility.yul\":3359:3528   */\ntag_49:\n    /* \"#utility.yul\":3403:3409   */\n  0x00\n    /* \"#utility.yul\":3436:3487   */\n  tag_107\n    /* \"#utility.yul\":3484:3485   */\n  0x00\n    /* \"#utility.yul\":3480:3486   */\n  not\n    /* \"#utility.yul\":3472:3477   */\n  dup5\n    /* \"#utility.yul\":3469:3470   */\n  0x08\n    /* \"#utility.yul\":3465:3478   */\n  mul\n    /* \"#utility.yul\":3436:3487   */\n  tag_48\n  jump\t// in\ntag_107:\n    /* \"#utility.yul\":3432:3488   */\n  not\n    /* \"#utility.yul\":3517:3521   */\n  dup1\n    /* \"#utility.yul\":3511:3515   */\n  dup4\n    /* \"#utility.yul\":3507:3522   */\n  and\n    /* \"#utility.yul\":3497:3522   */\n  swap2\n  pop\n    /* \"#utility.yul\":3410:3528   */\n  pop\n    /* \"#utility.yul\":3359:3528   */\n  swap3\n  swap2\n  pop\n  pop\n  jump\t// out\n    /* \"#utility.yul\":3533:3828   */\ntag_50:\n    /* \"#utility.yul\":3609:3613   */\n  0x00\n    /* \"#utility.yul\":3755:3784   */\n  tag_109\n    /* \"#utility.yul\":3780:3783   */\n  dup4\n    /* \"#utility.yul\":3774:3778   */\n  dup4\n    /* \"#utility.yul\":3755:3784   */\n  tag_49\n  jump\t// in\ntag_109:\n    /* \"#utility.yul\":3747:3784   */\n  swap2\n  pop\n    /* \"#utility.yul\":3817:3820   */\n  dup3\n    /* \"#utility.yul\":3814:3815   */\n  0x02\n    /* \"#utility.yul\":3810:3821   */\n  mul\n    /* \"#utility.yul\":3804:3808   */\n  dup3\n    /* \"#utility.yul\":3801:3822   */\n  or\n    /* \"#utility.yul\":3793:3822   */\n  swap1\n  pop\n    /* \"#utility.yul\":3533:3828   */\n  swap3\n  swap2\n  pop\n  pop\n  jump\t// out\n    /* \"#utility.yul\":3833:5228   */\ntag_20:\n    /* \"#utility.yul\":3950:3987   */\n  tag_111\n    /* \"#utility.yul\":3983:3986   */\n  dup3\n    /* \"#utility.yul\":3950:3987   */\n  tag_31\n  jump\t// in\ntag_111:\n    /* \"#utility.yul\":4052:4070   */\n  0xffffffffffffffff\n    /* \"#utility.yul\":4044:4050   */\n  dup2\n    /* \"#utility.yul\":4041:4071   */\n  gt\n    /* \"#utility.yul\":4038:4094   */\n  iszero\n  tag_112\n  jumpi\n    /* \"#utility.yul\":4074:4092   */\n  tag_113\n  tag_32\n  jump\t// in\ntag_113:\n    /* \"#utility.yul\":4038:4094   */\ntag_112:\n    /* \"#utility.yul\":4118:4156   */\n  tag_114\n    /* \"#utility.yul\":4150:4154   */\n  dup3\n    /* \"#utility.yul\":4144:4155   */\n  sload\n    /* \"#utility.yul\":4118:4156   */\n  tag_34\n  jump\t// in\ntag_114:\n    /* \"#utility.yul\":4203:4270   */\n  tag_115\n    /* \"#utility.yul\":4263:4269   */\n  dup3\n    /* \"#utility.yul\":4255:4261   */\n  dup3\n    /* \"#utility.yul\":4249:4253   */\n  dup6\n    /* \"#utility.yul\":4203:4270   */\n  tag_47\n  jump\t// in\ntag_115:\n    /* \"#utility.yul\":4297:4298   */\n  0x00\n    /* \"#utility.yul\":4321:4325   */\n  0x20\n    /* \"#utility.yul\":4308:4325   */\n  swap1\n  pop\n    /* \"#utility.yul\":4353:4355   */\n  0x1f\n    /* \"#utility.yul\":4345:4351   */\n  dup4\n    /* \"#utility.yul\":4342:4356   */\n  gt\n    /* \"#utility.yul\":4370:4371   */\n  0x01\n    /* \"#utility.yul\":4365:4983   */\n  dup2\n  eq\n  tag_117\n  jumpi\n    /* \"#utility.yul\":5027:5028   */\n  0x00\n    /* \"#utility.yul\":5044:5050   */\n  dup5\n    /* \"#utility.yul\":5041:5118   */\n  iszero\n  tag_118\n  jumpi\n    /* \"#utility.yul\":5093:5102   */\n  dup3\n    /* \"#utility.yul\":5088:5091   */\n  dup8\n    /* \"#utility.yul\":5084:5103   */\n  add\n    /* \"#utility.yul\":5078:5104   */\n  mload\n    /* \"#utility.yul\":5069:5104   */\n  swap1\n  pop\n    /* \"#utility.yul\":5041:5118   */\ntag_118:\n    /* \"#utility.yul\":5144:5211   */\n  tag_119\n    /* \"#utility.yul\":5204:5210   */\n  dup6\n    /* \"#utility.yul\":5197:5202   */\n  dup3\n    /* \"#utility.yul\":5144:5211   */\n  tag_50\n  jump\t// in\ntag_119:\n    /* \"#utility.yul\":5138:5142   */\n  dup7\n    /* \"#utility.yul\":5131:5212   */\n  sstore\n    /* \"#utility.yul\":5000:5222   */\n  pop\n    /* \"#utility.yul\":4335:5222   */\n  jump(tag_116)\n    /* \"#utility.yul\":4365:4983   */\ntag_117:\n    /* \"#utility.yul\":4417:4421   */\n  0x1f\n    /* \"#utility.yul\":4413:4422   */\n  not\n    /* \"#utility.yul\":4405:4411   */\n  dup5\n    /* \"#utility.yul\":4401:4423   */\n  and\n    /* \"#utility.yul\":4451:4488   */\n  tag_120\n    /* \"#utility.yul\":4483:4487   */\n  dup7\n    /* \"#utility.yul\":4451:4488   */\n  tag_35\n  jump\t// in\ntag_120:\n    /* \"#utility.yul\":4510:4511   */\n  0x00\n    /* \"#utility.yul\":4524:4732   */\ntag_121:\n    /* \"#utility.yul\":4538:4545   */\n  dup3\n    /* \"#utility.yul\":4535:4536   */\n  dup2\n    /* \"#utility.yul\":4532:4546   */\n  lt\n    /* \"#utility.yul\":4524:4732   */\n  iszero\n  tag_123\n  jumpi\n    /* \"#utility.yul\":4617:4626   */\n  dup5\n    /* \"#utility.yul\":4612:4615   */\n  dup10\n    /* \"#utility.yul\":4608:4627   */\n  add\n    /* \"#utility.yul\":4602:4628   */\n  mload\n    /* \"#utility.yul\":4594:4600   */\n  dup3\n    /* \"#utility.yul\":4587:4629   */\n  sstore\n    /* \"#utility.yul\":4668:4669   */\n  0x01\n    /* \"#utility.yul\":4660:4666   */\n  dup3\n    /* \"#utility.yul\":4656:4670   */\n  add\n    /* \"#utility.yul\":4646:4670   */\n  swap2\n  pop\n    /* \"#utility.yul\":4715:4717   */\n  0x20\n    /* \"#utility.yul\":4704:4713   */\n  dup6\n    /* \"#utility.yul\":4700:4718   */\n  add\n    /* \"#utility.yul\":4687:4718   */\n  swap5\n  pop\n    /* \"#utility.yul\":4561:4565   */\n  0x20\n    /* \"#utility.yul\":4558:4559   */\n  dup2\n    /* \"#utility.yul\":4554:4566   */\n  add\n    /* \"#utility.yul\":4549:4566   */\n  swap1\n  pop\n    /* \"#utility.yul\":4524:4732   */\n  jump(tag_121)\ntag_123:\n    /* \"#utility.yul\":4760:4766   */\n  dup7\n    /* \"#utility.yul\":4751:4758   */\n  dup4\n    /* \"#utility.yul\":4748:4767   */\n  lt\n    /* \"#utility.yul\":4745:4924   */\n  iszero\n  tag_124\n  jumpi\n    /* \"#utility.yul\":4818:4827   */\n  dup5\n    /* \"#utility.yul\":4813:4816   */\n  dup10\n    /* \"#utility.yul\":4809:4828   */\n  add\n    /* \"#utility.yul\":4803:4829   */\n  mload\n    /* \"#utility.yul\":4861:4909   */\n  tag_125\n    /* \"#utility.yul\":4903:4907   */\n  0x1f\n    /* \"#utility.yul\":4895:4901   */\n  dup10\n    /* \"#utility.yul\":4891:4908   */\n  and\n    /* \"#utility.yul\":4880:4889   */\n  dup3\n    /* \"#utility.yul\":4861:4909   */\n  tag_49\n  jump\t// in\ntag_125:\n    /* \"#utility.yul\":4853:4859   */\n  dup4\n    /* \"#utility.yul\":4846:4910   */\n  sstore\n    /* \"#utility.yul\":4768:4924   */\n  pop\n    /* \"#utility.yul\":4745:4924   */\ntag_124:\n    /* \"#utility.yul\":4970:4971   */\n  0x01\n    /* \"#utility.yul\":4966:4967   */\n  0x02\n    /* \"#utility.yul\":4958:4964   */\n  dup9\n    /* \"#utility.yul\":4954:4968   */\n  mul\n    /* \"#utility.yul\":4950:4972   */\n  add\n    /* \"#utility.yul\":4944:4948   */\n  dup9\n    /* \"#utility.yul\":4937:4973   */\n  sstore\n    /* \"#utility.yul\":4372:4983   */\n  pop\n  pop\n  pop\n    /* \"#utility.yul\":4335:5222   */\ntag_116:\n  pop\n    /* \"#utility.yul\":3925:5228   */\n  pop\n  pop\n  pop\n    /* \"#utility.yul\":3833:5228   */\n  pop\n  pop\n  jump\t// out\n    /* \"#utility.yul\":5234:5311   */\ntag_51:\n    /* \"#utility.yul\":5271:5278   */\n  0x00\n    /* \"#utility.yul\":5300:5305   */\n  dup2\n    /* \"#utility.yul\":5289:5305   */\n  swap1\n  pop\n    /* \"#utility.yul\":5234:5311   */\n  swap2\n  swap1\n  pop\n  jump\t// out\n    /* \"#utility.yul\":5317:5435   */\ntag_52:\n    /* \"#utility.yul\":5404:5428   */\n  tag_128\n    /* \"#utility.yul\":5422:5427   */\n  dup2\n    /* \"#utility.yul\":5404:5428   */\n  tag_51\n  jump\t// in\ntag_128:\n    /* \"#utility.yul\":5399:5402   */\n  dup3\n    /* \"#utility.yul\":5392:5429   */\n  mstore\n    /* \"#utility.yul\":5317:5435   */\n  pop\n  pop\n  jump\t// out\n    /* \"#utility.yul\":5441:5559   */\ntag_53:\n    /* \"#utility.yul\":5528:5552   */\n  tag_130\n    /* \"#utility.yul\":5546:5551   */\n  dup2\n    /* \"#utility.yul\":5528:5552   */\n  tag_39\n  jump\t// in\ntag_130:\n    /* \"#utility.yul\":5523:5526   */\n  dup3\n    /* \"#utility.yul\":5516:5553   */\n  mstore\n    /* \"#utility.yul\":5441:5559   */\n  pop\n  pop\n  jump\t// out\n    /* \"#utility.yul\":5565:5691   */\ntag_54:\n    /* \"#utility.yul\":5602:5609   */\n  0x00\n    /* \"#utility.yul\":5642:5684   */\n  0xffffffffffffffffffffffffffffffffffffffff\n    /* \"#utility.yul\":5635:5640   */\n  dup3\n    /* \"#utility.yul\":5631:5685   */\n  and\n    /* \"#utility.yul\":5620:5685   */\n  swap1\n  pop\n    /* \"#utility.yul\":5565:5691   */\n  swap2\n  swap1\n  pop\n  jump\t// out\n    /* \"#utility.yul\":5697:5793   */\ntag_55:\n    /* \"#utility.yul\":5734:5741   */\n  0x00\n    /* \"#utility.yul\":5763:5787   */\n  tag_133\n    /* \"#utility.yul\":5781:5786   */\n  dup3\n    /* \"#utility.yul\":5763:5787   */\n  tag_54\n  jump\t// in\ntag_133:\n    /* \"#utility.yul\":5752:5787   */\n  swap1\n  pop\n    /* \"#utility.yul\":5697:5793   */\n  swap2\n  swap1\n  pop\n  jump\t// out\n    /* \"#utility.yul\":5799:5917   */\ntag_56:\n    /* \"#utility.yul\":5886:5910   */\n  tag_135\n    /* \"#utility.yul\":5904:5909   */\n  dup2\n    /* \"#utility.yul\":5886:5910   */\n  tag_55\n  jump\t// in\ntag_135:\n    /* \"#utility.yul\":5881:5884   */\n  dup3\n    /* \"#utility.yul\":5874:5911   */\n  mstore\n    /* \"#utility.yul\":5799:5917   */\n  pop\n  pop\n  jump\t// out\n    /* \"#utility.yul\":5923:6587   */\ntag_23:\n    /* \"#utility.yul\":6128:6132   */\n  0x00\n    /* \"#utility.yul\":6166:6169   */\n  0xa0\n    /* \"#utility.yul\":6155:6164   */\n  dup3\n    /* \"#utility.yul\":6151:6170   */\n  add\n    /* \"#utility.yul\":6143:6170   */\n  swap1\n  pop\n    /* \"#utility.yul\":6180:6251   */\n  tag_137\n    /* \"#utility.yul\":6248:6249   */\n  0x00\n    /* \"#utility.yul\":6237:6246   */\n  dup4\n    /* \"#utility.yul\":6233:6250   */\n  add\n    /* \"#utility.yul\":6224:6230   */\n  dup9\n    /* \"#utility.yul\":6180:6251   */\n  tag_52\n  jump\t// in\ntag_137:\n    /* \"#utility.yul\":6261:6333   */\n  tag_138\n    /* \"#utility.yul\":6329:6331   */\n  0x20\n    /* \"#utility.yul\":6318:6327   */\n  dup4\n    /* \"#utility.yul\":6314:6332   */\n  add\n    /* \"#utility.yul\":6305:6311   */\n  dup8\n    /* \"#utility.yul\":6261:6333   */\n  tag_52\n  jump\t// in\ntag_138:\n    /* \"#utility.yul\":6343:6415   */\n  tag_139\n    /* \"#utility.yul\":6411:6413   */\n  0x40\n    /* \"#utility.yul\":6400:6409   */\n  dup4\n    /* \"#utility.yul\":6396:6414   */\n  add\n    /* \"#utility.yul\":6387:6393   */\n  dup7\n    /* \"#utility.yul\":6343:6415   */\n  tag_52\n  jump\t// in\ntag_139:\n    /* \"#utility.yul\":6425:6497   */\n  tag_140\n    /* \"#utility.yul\":6493:6495   */\n  0x60\n    /* \"#utility.yul\":6482:6491   */\n  dup4\n    /* \"#utility.yul\":6478:6496   */\n  add\n    /* \"#utility.yul\":6469:6475   */\n  dup6\n    /* \"#utility.yul\":6425:6497   */\n  tag_53\n  jump\t// in\ntag_140:\n    /* \"#utility.yul\":6507:6580   */\n  tag_141\n    /* \"#utility.yul\":6575:6578   */\n  0x80\n    /* \"#utility.yul\":6564:6573   */\n  dup4\n    /* \"#utility.yul\":6560:6579   */\n  add\n    /* \"#utility.yul\":6551:6557   */\n  dup5\n    /* \"#utility.yul\":6507:6580   */\n  tag_56\n  jump\t// in\ntag_141:\n    /* \"#utility.yul\":5923:6587   */\n  swap7\n  swap6\n  pop\n  pop\n  pop\n  pop\n  pop\n  pop\n  jump\t// out\n    /* \"#utility.yul\":6593:6762   */\ntag_57:\n    /* \"#utility.yul\":6677:6688   */\n  0x00\n    /* \"#utility.yul\":6711:6717   */\n  dup3\n    /* \"#utility.yul\":6706:6709   */\n  dup3\n    /* \"#utility.yul\":6699:6718   */\n  mstore\n    /* \"#utility.yul\":6751:6755   */\n  0x20\n    /* \"#utility.yul\":6746:6749   */\n  dup3\n    /* \"#utility.yul\":6742:6756   */\n  add\n    /* \"#utility.yul\":6727:6756   */\n  swap1\n  pop\n    /* \"#utility.yul\":6593:6762   */\n  swap3\n  swap2\n  pop\n  pop\n  jump\t// out\n    /* \"#utility.yul\":6768:7014   */\ntag_58:\n    /* \"#utility.yul\":6849:6850   */\n  0x00\n    /* \"#utility.yul\":6859:6972   */\ntag_144:\n    /* \"#utility.yul\":6873:6879   */\n  dup4\n    /* \"#utility.yul\":6870:6871   */\n  dup2\n    /* \"#utility.yul\":6867:6880   */\n  lt\n    /* \"#utility.yul\":6859:6972   */\n  iszero\n  tag_146\n  jumpi\n    /* \"#utility.yul\":6958:6959   */\n  dup1\n    /* \"#utility.yul\":6953:6956   */\n  dup3\n    /* \"#utility.yul\":6949:6960   */\n  add\n    /* \"#utility.yul\":6943:6961   */\n  mload\n    /* \"#utility.yul\":6939:6940   */\n  dup2\n    /* \"#utility.yul\":6934:6937   */\n  dup5\n    /* \"#utility.yul\":6930:6941   */\n  add\n    /* \"#utility.yul\":6923:6962   */\n  mstore\n    /* \"#utility.yul\":6895:6897   */\n  0x20\n    /* \"#utility.yul\":6892:6893   */\n  dup2\n    /* \"#utility.yul\":6888:6898   */\n  add\n    /* \"#utility.yul\":6883:6898   */\n  swap1\n  pop\n    /* \"#utility.yul\":6859:6972   */\n  jump(tag_144)\ntag_146:\n    /* \"#utility.yul\":7006:7007   */\n  0x00\n    /* \"#utility.yul\":6997:7003   */\n  dup5\n    /* \"#utility.yul\":6992:6995   */\n  dup5\n    /* \"#utility.yul\":6988:7004   */\n  add\n    /* \"#utility.yul\":6981:7008   */\n  mstore\n    /* \"#utility.yul\":6830:7014   */\n  pop\n    /* \"#utility.yul\":6768:7014   */\n  pop\n  pop\n  pop\n  jump\t// out\n    /* \"#utility.yul\":7020:7122   */\ntag_59:\n    /* \"#utility.yul\":7061:7067   */\n  0x00\n    /* \"#utility.yul\":7112:7114   */\n  0x1f\n    /* \"#utility.yul\":7108:7115   */\n  not\n    /* \"#utility.yul\":7103:7105   */\n  0x1f\n    /* \"#utility.yul\":7096:7101   */\n  dup4\n    /* \"#utility.yul\":7092:7106   */\n  add\n    /* \"#utility.yul\":7088:7116   */\n  and\n    /* \"#utility.yul\":7078:7116   */\n  swap1\n  pop\n    /* \"#utility.yul\":7020:7122   */\n  swap2\n  swap1\n  pop\n  jump\t// out\n    /* \"#utility.yul\":7128:7505   */\ntag_60:\n    /* \"#utility.yul\":7216:7219   */\n  0x00\n    /* \"#utility.yul\":7244:7283   */\n  tag_149\n    /* \"#utility.yul\":7277:7282   */\n  dup3\n    /* \"#utility.yul\":7244:7283   */\n  tag_31\n  jump\t// in\ntag_149:\n    /* \"#utility.yul\":7299:7370   */\n  tag_150\n    /* \"#utility.yul\":7363:7369   */\n  dup2\n    /* \"#utility.yul\":7358:7361   */\n  dup6\n    /* \"#utility.yul\":7299:7370   */\n  tag_57\n  jump\t// in\ntag_150:\n    /* \"#utility.yul\":7292:7370   */\n  swap4\n  pop\n    /* \"#utility.yul\":7379:7444   */\n  tag_151\n    /* \"#utility.yul\":7437:7443   */\n  dup2\n    /* \"#utility.yul\":7432:7435   */\n  dup6\n    /* \"#utility.yul\":7425:7429   */\n  0x20\n    /* \"#utility.yul\":7418:7423   */\n  dup7\n    /* \"#utility.yul\":7414:7430   */\n  add\n    /* \"#utility.yul\":7379:7444   */\n  tag_58\n  jump\t// in\ntag_151:\n    /* \"#utility.yul\":7469:7498   */\n  tag_152\n    /* \"#utility.yul\":7491:7497   */\n  dup2\n    /* \"#utility.yul\":7469:7498   */\n  tag_59\n  jump\t// in\ntag_152:\n    /* \"#utility.yul\":7464:7467   */\n  dup5\n    /* \"#utility.yul\":7460:7499   */\n  add\n    /* \"#utility.yul\":7453:7499   */\n  swap2\n  pop\n    /* \"#utility.yul\":7220:7505   */\n  pop\n    /* \"#utility.yul\":7128:7505   */\n  swap3\n  swap2\n  pop\n  pop\n  jump\t// out\n    /* \"#utility.yul\":7511:7824   */\ntag_27:\n    /* \"#utility.yul\":7624:7628   */\n  0x00\n    /* \"#utility.yul\":7662:7664   */\n  0x20\n    /* \"#utility.yul\":7651:7660   */\n  dup3\n    /* \"#utility.yul\":7647:7665   */\n  add\n    /* \"#utility.yul\":7639:7665   */\n  swap1\n  pop\n    /* \"#utility.yul\":7711:7720   */\n  dup2\n    /* \"#utility.yul\":7705:7709   */\n  dup2\n    /* \"#utility.yul\":7701:7721   */\n  sub\n    /* \"#utility.yul\":7697:7698   */\n  0x00\n    /* \"#utility.yul\":7686:7695   */\n  dup4\n    /* \"#utility.yul\":7682:7699   */\n  add\n    /* \"#utility.yul\":7675:7722   */\n  mstore\n    /* \"#utility.yul\":7739:7817   */\n  tag_154\n    /* \"#utility.yul\":7812:7816   */\n  dup2\n    /* \"#utility.yul\":7803:7809   */\n  dup5\n    /* \"#utility.yul\":7739:7817   */\n  tag_60\n  jump\t// in\ntag_154:\n    /* \"#utility.yul\":7731:7817   */\n  swap1\n  pop\n    /* \"#utility.yul\":7511:7824   */\n  swap3\n  swap2\n  pop\n  pop\n  jump\t// out\n    /* \"#utility.yul\":7830:7928   */\ntag_61:\n    /* \"#utility.yul\":7881:7887   */\n  0x00\n    /* \"#utility.yul\":7915:7920   */\n  dup2\n    /* \"#utility.yul\":7909:7921   */\n  mload\n    /* \"#utility.yul\":7899:7921   */\n  swap1\n  pop\n    /* \"#utility.yul\":7830:7928   */\n  swap2\n  swap1\n  pop\n  jump\t// out\n    /* \"#utility.yul\":7934:8050   */\ntag_62:\n    /* \"#utility.yul\":7985:7989   */\n  0x00\n    /* \"#utility.yul\":8008:8011   */\n  dup2\n    /* \"#utility.yul\":8000:8011   */\n  swap1\n  pop\n    /* \"#utility.yul\":8038:8042   */\n  0x20\n    /* \"#utility.yul\":8033:8036   */\n  dup3\n    /* \"#utility.yul\":8029:8043   */\n  add\n    /* \"#utility.yul\":8021:8043   */\n  swap1\n  pop\n    /* \"#utility.yul\":7934:8050   */\n  swap2\n  swap1\n  pop\n  jump\t// out\n    /* \"#utility.yul\":8056:8210   */\ntag_63:\n    /* \"#utility.yul\":8099:8110   */\n  0x00\n    /* \"#utility.yul\":8135:8164   */\n  tag_158\n    /* \"#utility.yul\":8159:8162   */\n  dup3\n    /* \"#utility.yul\":8153:8163   */\n  mload\n    /* \"#utility.yul\":8135:8164   */\n  tag_51\n  jump\t// in\ntag_158:\n    /* \"#utility.yul\":8198:8203   */\n  dup1\n    /* \"#utility.yul\":8174:8203   */\n  swap2\n  pop\n    /* \"#utility.yul\":8111:8210   */\n  pop\n    /* \"#utility.yul\":8056:8210   */\n  swap2\n  swap1\n  pop\n  jump\t// out\n    /* \"#utility.yul\":8216:8810   */\ntag_29:\n    /* \"#utility.yul\":8300:8305   */\n  0x00\n    /* \"#utility.yul\":8331:8369   */\n  tag_160\n    /* \"#utility.yul\":8363:8368   */\n  dup3\n    /* \"#utility.yul\":8331:8369   */\n  tag_61\n  jump\t// in\ntag_160:\n    /* \"#utility.yul\":8394:8399   */\n  dup3\n    /* \"#utility.yul\":8421:8461   */\n  tag_161\n    /* \"#utility.yul\":8455:8460   */\n  dup5\n    /* \"#utility.yul\":8421:8461   */\n  tag_62\n  jump\t// in\ntag_161:\n    /* \"#utility.yul\":8409:8461   */\n  swap1\n  pop\n    /* \"#utility.yul\":8480:8515   */\n  tag_162\n    /* \"#utility.yul\":8506:8514   */\n  dup2\n    /* \"#utility.yul\":8480:8515   */\n  tag_63\n  jump\t// in\ntag_162:\n    /* \"#utility.yul\":8471:8515   */\n  swap3\n  pop\n    /* \"#utility.yul\":8539:8541   */\n  0x20\n    /* \"#utility.yul\":8531:8537   */\n  dup3\n    /* \"#utility.yul\":8528:8542   */\n  lt\n    /* \"#utility.yul\":8525:8803   */\n  iszero\n  tag_163\n  jumpi\n    /* \"#utility.yul\":8610:8779   */\n  tag_164\n    /* \"#utility.yul\":8695:8761   */\n  0xffffffffffffffffffffffffffffffffffffffffffffffffffffffffffffffff\n    /* \"#utility.yul\":8665:8671   */\n  dup4\n    /* \"#utility.yul\":8661:8663   */\n  0x20\n    /* \"#utility.yul\":8657:8672   */\n  sub\n    /* \"#utility.yul\":8654:8655   */\n  0x08\n    /* \"#utility.yul\":8650:8673   */\n  mul\n    /* \"#utility.yul\":8610:8779   */\n  tag_37\n  jump\t// in\ntag_164:\n    /* \"#utility.yul\":8587:8592   */\n  dup4\n    /* \"#utility.yul\":8566:8793   */\n  and\n    /* \"#utility.yul\":8557:8793   */\n  swap3\n  pop\n    /* \"#utility.yul\":8525:8803   */\ntag_163:\n    /* \"#utility.yul\":8306:8810   */\n  pop\n  pop\n    /* \"#utility.yul\":8216:8810   */\n  swap2\n  swap1\n  pop\n  jump\t// out\n    /* \"contracts/CollaborativeArt.sol\":219:3784  contract CollaborativeArt is EIP712{... */\ntag_11:\n  mload(0x80)\n  mload(0xa0)\n  mload(0xc0)\n  mload(0xe0)\n  mload(0x0100)\n  mload(0x0120)\n  mload(0x0140)\n  codecopy(0x00, dataOffset(sub_0), dataSize(sub_0))\n  0x00\n  assignImmutable(\"0xc0bf3ddb79e7c5faf09af1eaa09640fae848e430edf7a04658ec05be9ade7aab\")\n  0x00\n  assignImmutable(\"0x24655aa402609c42cd9913a516bc50fe98c55f24cc6cbf7100f975460651f33e\")\n  0x00\n  assignImmutable(\"0x9d86ea630c09ef2f1acbc248368c7b7030882e2a5db3011ef0f1f27cf79c9d56\")\n  0x00\n  assignImmutable(\"0xa423c60bc1787d67fffc27d03c64206552502a85ae4c5cd0abbc1461b537b9d1\")\n  0x00\n  assignImmutable(\"0xd981c1aa70496adbf331222473f4f790f8f1219995826de705ab70eb68beb770\")\n  0x00\n  assignImmutable(\"0x336523fb849cd6067e17512896452e621202dd9ff259a43a1ec132781bec449f\")\n  0x00\n  assignImmutable(\"0x78a9014aa316c0d81e8cac1983f47ca946aa7db198b97933cfa2b1daf2bdc940\")\n  return(0x00, dataSize(sub_0))\nstop\n\nsub_0: assembly {\n        /* \"contracts/CollaborativeArt.sol\":219:3784  contract CollaborativeArt is EIP712{... */\n      mstore(0x40, 0x80)\n      jumpi(tag_1, lt(calldatasize, 0x04))\n      shr(0xe0, calldataload(0x00))\n      dup1\n      0x85e08a6b\n      gt\n      tag_17\n      jumpi\n      dup1\n      0xab1ce0b0\n      gt\n      tag_18\n      jumpi\n      dup1\n      0xab1ce0b0\n      eq\n      tag_13\n      jumpi\n      dup1\n      0xcd7e10c1\n      eq\n      tag_14\n      jumpi\n      dup1\n      0xd44a0e61\n      eq\n      tag_15\n      jumpi\n      dup1\n      0xe89e4ed6\n      eq\n      tag_16\n      jumpi\n      jump(tag_1)\n    tag_18:\n      dup1\n      0x85e08a6b\n      eq\n      tag_9\n      jumpi\n      dup1\n      0x89b5efa7\n      eq\n      tag_10\n      jumpi\n      dup1\n      0x8da5cb5b\n      eq\n      tag_11\n      jumpi\n      dup1\n      0x8f2238ba\n      eq\n      tag_12\n      jumpi\n      jump(tag_1)\n    tag_17:\n      dup1\n      0x6beeedb8\n      gt\n      tag_19\n      jumpi\n      dup1\n      0x6beeedb8\n      eq\n      tag_5\n      jumpi\n      dup1\n      0x7f8fbc22\n      eq\n      tag_6\n      jumpi\n      dup1\n      0x84b0196e\n      eq\n      tag_7\n      jumpi\n      dup1\n      0x84b62c28\n      eq\n      tag_8\n      jumpi\n      jump(tag_1)\n    tag_19:\n      dup1\n      0x52bb27b0\n      eq\n      tag_2\n      jumpi\n      dup1\n      0x538b7242\n      eq\n      tag_3\n      jumpi\n      dup1\n      0x5d1b5805\n      eq\n      tag_4\n      jumpi\n    tag_1:\n      0x00\n      dup1\n      revert\n        /* \"contracts/CollaborativeArt.sol\":2338:2864  function signContract(bytes calldata _signature) public{... */\n    tag_2:\n      callvalue\n      dup1\n      iszero\n      tag_20\n      jumpi\n      0x00\n      dup1\n      revert\n    tag_20:\n      pop\n      tag_21\n      0x04\n      dup1\n      calldatasize\n      sub\n      dup2\n      add\n      swap1\n      tag_22\n      swap2\n      swap1\n      tag_23\n      jump\t// in\n    tag_22:\n      tag_24\n      jump\t// in\n    tag_21:\n      stop\n        /* \"contracts/CollaborativeArt.sol\":667:711  mapping(address => bool) public artistSigned */\n    tag_3:\n      callvalue\n      dup1\n      iszero\n      tag_25\n      jumpi\n      0x00\n      dup1\n      revert\n    tag_25:\n      pop\n      tag_26\n      0x04\n      dup1\n      calldatasize\n      sub\n      dup2\n      add\n      swap1\n      tag_27\n      swap2\n      swap1\n      tag_28\n      jump\t// in\n    tag_27:\n      tag_29\n      jump\t// in\n    tag_26:\n      mload(0x40)\n      tag_30\n      swap2\n      swap1\n      tag_31\n      jump\t// in\n    tag_30:\n      mload(0x40)\n      dup1\n      swap2\n      sub\n      swap1\n      return\n        /* \"contracts/CollaborativeArt.sol\":1392:1868  function addArtist(address _artistAddress, uint256 _ownershipPercentage) public onlyOwner{... */\n    tag_4:\n      callvalue\n      dup1\n      iszero\n      tag_32\n      jumpi\n      0x00\n      dup1\n      revert\n    tag_32:\n      pop\n      tag_33\n      0x04\n      dup1\n      calldatasize\n      sub\n      dup2\n      add\n      swap1\n      tag_34\n      swap2\n      swap1\n      tag_35\n      jump\t// in\n    tag_34:\n      tag_36\n      jump\t// in\n    tag_33:\n      stop\n        /* \"contracts/CollaborativeArt.sol\":2908:3005  function setArtworkPrice(uint256 _price) public onlyOwner{... */\n    tag_5:\n      callvalue\n      dup1\n      iszero\n      tag_37\n      jumpi\n      0x00\n      dup1\n      revert\n    tag_37:\n      pop\n      tag_38\n      0x04\n      dup1\n      calldatasize\n      sub\n      dup2\n      add\n      swap1\n      tag_39\n      swap2\n      swap1\n      tag_40\n      jump\t// in\n    tag_39:\n      tag_41\n      jump\t// in\n    tag_38:\n      stop\n        /* \"contracts/CollaborativeArt.sol\":598:660  mapping(address => uint256) public artistToOwnershipPercentage */\n    tag_6:\n      callvalue\n      dup1\n      iszero\n      tag_42\n      jumpi\n      0x00\n      dup1\n      revert\n    tag_42:\n      pop\n      tag_43\n      0x04\n      dup1\n      calldatasize\n      sub\n      dup2\n      add\n      swap1\n      tag_44\n      swap2\n      swap1\n      tag_28\n      jump\t// in\n    tag_44:\n      tag_45\n      jump\t// in\n    tag_43:\n      mload(0x40)\n      tag_46\n      swap2\n      swap1\n      tag_47\n      jump\t// in\n    tag_46:\n      mload(0x40)\n      dup1\n      swap2\n      sub\n      swap1\n      return\n        /* \"@openzeppelin/contracts/utils/cryptography/EIP712.sol\":5144:5701  function eip712Domain()... */\n    tag_7:\n      callvalue\n      dup1\n      iszero\n      tag_48\n      jumpi\n      0x00\n      dup1\n      revert\n    tag_48:\n      pop\n      tag_49\n      tag_50\n      jump\t// in\n    tag_49:\n      mload(0x40)\n      tag_51\n      swap8\n      swap7\n      swap6\n      swap5\n      swap4\n      swap3\n      swap2\n      swap1\n      tag_52\n      jump\t// in\n    tag_51:\n      mload(0x40)\n      dup1\n      swap2\n      sub\n      swap1\n      return\n        /* \"contracts/CollaborativeArt.sol\":1904:2064  function addMilestone(string memory _description, uint256 _deadline) public onlyOwner{... */\n    tag_8:\n      callvalue\n      dup1\n      iszero\n      tag_53\n      jumpi\n      0x00\n      dup1\n      revert\n    tag_53:\n      pop\n      tag_54\n      0x04\n      dup1\n      calldatasize\n      sub\n      dup2\n      add\n      swap1\n      tag_55\n      swap2\n      swap1\n      tag_56\n      jump\t// in\n    tag_55:\n      tag_57\n      jump\t// in\n    tag_54:\n      stop\n        /* \"contracts/CollaborativeArt.sol\":2072:2307  function markMilestoneAsCompleted(uint256 _index) public onlyOwner{... */\n    tag_9:\n      callvalue\n      dup1\n      iszero\n      tag_58\n      jumpi\n      0x00\n      dup1\n      revert\n    tag_58:\n      pop\n      tag_59\n      0x04\n      dup1\n      calldatasize\n      sub\n      dup2\n      add\n      swap1\n      tag_60\n      swap2\n      swap1\n      tag_40\n      jump\t// in\n    tag_60:\n      tag_61\n      jump\t// in\n    tag_59:\n      stop\n        /* \"contracts/CollaborativeArt.sol\":759:786  uint256 public artworkPrice */\n    tag_10:\n      callvalue\n      dup1\n      iszero\n      tag_62\n      jumpi\n      0x00\n      dup1\n      revert\n    tag_62:\n      pop\n      tag_63\n      tag_64\n      jump\t// in\n    tag_63:\n      mload(0x40)\n      tag_65\n      swap2\n      swap1\n      tag_47\n      jump\t// in\n    tag_65:\n      mload(0x40)\n      dup1\n      swap2\n      sub\n      swap1\n      return\n        /* \"contracts/CollaborativeArt.sol\":503:523  address public owner */\n    tag_11:\n      callvalue\n      dup1\n      iszero\n      tag_66\n      jumpi\n      0x00\n      dup1\n      revert\n    tag_66:\n      pop\n      tag_67\n      tag_68\n      jump\t// in\n    tag_67:\n      mload(0x40)\n      tag_69\n      swap2\n      swap1\n      tag_70\n      jump\t// in\n    tag_69:\n      mload(0x40)\n      dup1\n      swap2\n      sub\n      swap1\n      return\n        /* \"contracts/CollaborativeArt.sol\":3653:3781  function resolveDispute(string memory _message) public view onlyOwner returns (string memory) {... */\n    tag_12:\n      callvalue\n      dup1\n      iszero\n      tag_71\n      jumpi\n      0x00\n      dup1\n      revert\n    tag_71:\n      pop\n      tag_72\n      0x04\n      dup1\n      calldatasize\n      sub\n      dup2\n      add\n      swap1\n      tag_73\n      swap2\n      swap1\n      tag_74\n      jump\t// in\n    tag_73:\n      tag_75\n      jump\t// in\n    tag_72:\n      mload(0x40)\n      tag_76\n      swap2\n      swap1\n      tag_77\n      jump\t// in\n    tag_76:\n      mload(0x40)\n      dup1\n      swap2\n      sub\n      swap1\n      return\n        /* \"contracts/CollaborativeArt.sol\":3044:3258  function purchaseArtwork() public payable{... */\n    tag_13:\n      tag_78\n      tag_79\n      jump\t// in\n    tag_78:\n      stop\n        /* \"contracts/CollaborativeArt.sol\":530:553  Artist[] public artists */\n    tag_14:\n      callvalue\n      dup1\n      iszero\n      tag_80\n      jumpi\n      0x00\n      dup1\n      revert\n    tag_80:\n      pop\n      tag_81\n      0x04\n      dup1\n      calldatasize\n      sub\n      dup2\n      add\n      swap1\n      tag_82\n      swap2\n      swap1\n      tag_40\n      jump\t// in\n    tag_82:\n      tag_83\n      jump\t// in\n    tag_81:\n      mload(0x40)\n      tag_84\n      swap3\n      swap2\n      swap1\n      tag_85\n      jump\t// in\n    tag_84:\n      mload(0x40)\n      dup1\n      swap2\n      sub\n      swap1\n      return\n        /* \"contracts/CollaborativeArt.sol\":718:752  uint256 public totalPercentage = 0 */\n    tag_15:\n      callvalue\n      dup1\n      iszero\n      tag_86\n      jumpi\n      0x00\n      dup1\n      revert\n    tag_86:\n      pop\n      tag_87\n      tag_88\n      jump\t// in\n    tag_87:\n      mload(0x40)\n      tag_89\n      swap2\n      swap1\n      tag_47\n      jump\t// in\n    tag_89:\n      mload(0x40)\n      dup1\n      swap2\n      sub\n      swap1\n      return\n        /* \"contracts/CollaborativeArt.sol\":560:589  Milestone[] public milestones */\n    tag_16:\n      callvalue\n      dup1\n      iszero\n      tag_90\n      jumpi\n      0x00\n      dup1\n      revert\n    tag_90:\n      pop\n      tag_91\n      0x04\n      dup1\n      calldatasize\n      sub\n      dup2\n      add\n      swap1\n      tag_92\n      swap2\n      swap1\n      tag_40\n      jump\t// in\n    tag_92:\n      tag_93\n      jump\t// in\n    tag_91:\n      mload(0x40)\n      tag_94\n      swap4\n      swap3\n      swap2\n      swap1\n      tag_95\n      jump\t// in\n    tag_94:\n      mload(0x40)\n      dup1\n      swap2\n      sub\n      swap1\n      return\n        /* \"contracts/CollaborativeArt.sol\":2338:2864  function signContract(bytes calldata _signature) public{... */\n    tag_24:\n        /* \"contracts/CollaborativeArt.sol\":2454:2455  0 */\n      0x00\n        /* \"contracts/CollaborativeArt.sol\":2412:2439  artistToOwnershipPercentage */\n      0x05\n        /* \"contracts/CollaborativeArt.sol\":2412:2451  artistToOwnershipPercentage[msg.sender] */\n      0x00\n        /* \"contracts/CollaborativeArt.sol\":2440:2450  msg.sender */\n      caller\n        /* \"contracts/CollaborativeArt.sol\":2412:2451  artistToOwnershipPercentage[msg.sender] */\n      0xffffffffffffffffffffffffffffffffffffffff\n      and\n      0xffffffffffffffffffffffffffffffffffffffff\n      and\n      dup2\n      mstore\n      0x20\n      add\n      swap1\n      dup2\n      mstore\n      0x20\n      add\n      0x00\n      keccak256\n      sload\n        /* \"contracts/CollaborativeArt.sol\":2412:2455  artistToOwnershipPercentage[msg.sender] > 0 */\n      gt\n        /* \"contracts/CollaborativeArt.sol\":2404:2493  require(artistToOwnershipPercentage[msg.sender] > 0 , \"must be an artist of the project\") */\n      tag_97\n      jumpi\n      mload(0x40)\n      0x08c379a000000000000000000000000000000000000000000000000000000000\n      dup2\n      mstore\n      0x04\n      add\n      tag_98\n      swap1\n      tag_99\n      jump\t// in\n    tag_98:\n      mload(0x40)\n      dup1\n      swap2\n      sub\n      swap1\n      revert\n    tag_97:\n        /* \"contracts/CollaborativeArt.sol\":2504:2516  bytes32 hash */\n      0x00\n        /* \"contracts/CollaborativeArt.sol\":2519:2654  _hashTypedDataV4(keccak256(abi.encode(... */\n      tag_100\n        /* \"contracts/CollaborativeArt.sol\":2571:2616  keccak256(\"CollaboritiveArt(address artist)\") */\n      0x8540a2c73aef6d686398f23a870bf15edd661211f410e2614d1e6add9f1b7375\n        /* \"contracts/CollaborativeArt.sol\":2631:2641  msg.sender */\n      caller\n        /* \"contracts/CollaborativeArt.sol\":2546:2652  abi.encode(... */\n      add(0x20, mload(0x40))\n      tag_101\n      swap3\n      swap2\n      swap1\n      tag_102\n      jump\t// in\n    tag_101:\n      mload(0x40)\n      0x20\n      dup2\n      dup4\n      sub\n      sub\n      dup2\n      mstore\n      swap1\n      0x40\n      mstore\n        /* \"contracts/CollaborativeArt.sol\":2536:2653  keccak256(abi.encode(... */\n      dup1\n      mload\n      swap1\n      0x20\n      add\n      keccak256\n        /* \"contracts/CollaborativeArt.sol\":2519:2535  _hashTypedDataV4 */\n      tag_103\n        /* \"contracts/CollaborativeArt.sol\":2519:2654  _hashTypedDataV4(keccak256(abi.encode(... */\n      jump\t// in\n    tag_100:\n        /* \"contracts/CollaborativeArt.sol\":2504:2654  bytes32 hash = _hashTypedDataV4(keccak256(abi.encode(... */\n      swap1\n      pop\n        /* \"contracts/CollaborativeArt.sol\":2665:2679  address signer */\n      0x00\n        /* \"contracts/CollaborativeArt.sol\":2682:2713  ECDSA.recover(hash, _signature) */\n      tag_104\n        /* \"contracts/CollaborativeArt.sol\":2696:2700  hash */\n      dup3\n        /* \"contracts/CollaborativeArt.sol\":2702:2712  _signature */\n      dup6\n      dup6\n        /* \"contracts/CollaborativeArt.sol\":2682:2713  ECDSA.recover(hash, _signature) */\n      dup1\n      dup1\n      0x1f\n      add\n      0x20\n      dup1\n      swap2\n      div\n      mul\n      0x20\n      add\n      mload(0x40)\n      swap1\n      dup2\n      add\n      0x40\n      mstore\n      dup1\n      swap4\n      swap3\n      swap2\n      swap1\n      dup2\n      dup2\n      mstore\n      0x20\n      add\n      dup4\n      dup4\n      dup1\n      dup3\n      dup5\n      calldatacopy\n      0x00\n      dup2\n      dup5\n      add\n      mstore\n      not(0x1f)\n      0x1f\n      dup3\n      add\n      and\n      swap1\n      pop\n      dup1\n      dup4\n      add\n      swap3\n      pop\n      pop\n      pop\n      pop\n      pop\n      pop\n      pop\n        /* \"contracts/CollaborativeArt.sol\":2682:2695  ECDSA.recover */\n      tag_105\n        /* \"contracts/CollaborativeArt.sol\":2682:2713  ECDSA.recover(hash, _signature) */\n      jump\t// in\n    tag_104:\n        /* \"contracts/CollaborativeArt.sol\":2665:2713  address signer = ECDSA.recover(hash, _signature) */\n      swap1\n      pop\n        /* \"contracts/CollaborativeArt.sol\":2742:2752  msg.sender */\n      caller\n        /* \"contracts/CollaborativeArt.sol\":2732:2752  signer == msg.sender */\n      0xffffffffffffffffffffffffffffffffffffffff\n      and\n        /* \"contracts/CollaborativeArt.sol\":2732:2738  signer */\n      dup2\n        /* \"contracts/CollaborativeArt.sol\":2732:2752  signer == msg.sender */\n      0xffffffffffffffffffffffffffffffffffffffff\n      and\n      eq\n        /* \"contracts/CollaborativeArt.sol\":2724:2774  require(signer == msg.sender, \"invalid signature\") */\n      tag_106\n      jumpi\n      mload(0x40)\n      0x08c379a000000000000000000000000000000000000000000000000000000000\n      dup2\n      mstore\n      0x04\n      add\n      tag_107\n      swap1\n      tag_108\n      jump\t// in\n    tag_107:\n      mload(0x40)\n      dup1\n      swap2\n      sub\n      swap1\n      revert\n    tag_106:\n        /* \"contracts/CollaborativeArt.sol\":2812:2816  true */\n      0x01\n        /* \"contracts/CollaborativeArt.sol\":2785:2797  artistSigned */\n      0x06\n        /* \"contracts/CollaborativeArt.sol\":2785:2809  artistSigned[msg.sender] */\n      0x00\n        /* \"contracts/CollaborativeArt.sol\":2798:2808  msg.sender */\n      caller\n        /* \"contracts/CollaborativeArt.sol\":2785:2809  artistSigned[msg.sender] */\n      0xffffffffffffffffffffffffffffffffffffffff\n      and\n      0xffffffffffffffffffffffffffffffffffffffff\n      and\n      dup2\n      mstore\n      0x20\n      add\n      swap1\n      dup2\n      mstore\n      0x20\n      add\n      0x00\n      keccak256\n      0x00\n        /* \"contracts/CollaborativeArt.sol\":2785:2816  artistSigned[msg.sender] = true */\n      0x0100\n      exp\n      dup2\n      sload\n      dup2\n      0xff\n      mul\n      not\n      and\n      swap1\n      dup4\n      iszero\n      iszero\n      mul\n      or\n      swap1\n      sstore\n      pop\n        /* \"contracts/CollaborativeArt.sol\":2832:2856  ArtistSigned(msg.sender) */\n      0xa8282372ef7169fe149442a58bf78d598416efe464e3468b4de9997235e9d7\n        /* \"contracts/CollaborativeArt.sol\":2845:2855  msg.sender */\n      caller\n        /* \"contracts/CollaborativeArt.sol\":2832:2856  ArtistSigned(msg.sender) */\n      mload(0x40)\n      tag_109\n      swap2\n      swap1\n      tag_70\n      jump\t// in\n    tag_109:\n      mload(0x40)\n      dup1\n      swap2\n      sub\n      swap1\n      log1\n        /* \"contracts/CollaborativeArt.sol\":2393:2864  {... */\n      pop\n      pop\n        /* \"contracts/CollaborativeArt.sol\":2338:2864  function signContract(bytes calldata _signature) public{... */\n      pop\n      pop\n      jump\t// out\n        /* \"contracts/CollaborativeArt.sol\":667:711  mapping(address => bool) public artistSigned */\n    tag_29:\n      mstore(0x20, 0x06)\n      dup1\n      0x00\n      mstore\n      keccak256(0x00, 0x40)\n      0x00\n      swap2\n      pop\n      sload\n      swap1\n      0x0100\n      exp\n      swap1\n      div\n      0xff\n      and\n      dup2\n      jump\t// out\n        /* \"contracts/CollaborativeArt.sol\":1392:1868  function addArtist(address _artistAddress, uint256 _ownershipPercentage) public onlyOwner{... */\n    tag_36:\n        /* \"contracts/CollaborativeArt.sol\":1065:1070  owner */\n      0x02\n      0x00\n      swap1\n      sload\n      swap1\n      0x0100\n      exp\n      swap1\n      div\n      0xffffffffffffffffffffffffffffffffffffffff\n      and\n        /* \"contracts/CollaborativeArt.sol\":1051:1070  msg.sender == owner */\n      0xffffffffffffffffffffffffffffffffffffffff\n      and\n        /* \"contracts/CollaborativeArt.sol\":1051:1061  msg.sender */\n      caller\n        /* \"contracts/CollaborativeArt.sol\":1051:1070  msg.sender == owner */\n      0xffffffffffffffffffffffffffffffffffffffff\n      and\n      eq\n        /* \"contracts/CollaborativeArt.sol\":1043:1112  require(msg.sender == owner, \"Only the owner can call this function\") */\n      tag_111\n      jumpi\n      mload(0x40)\n      0x08c379a000000000000000000000000000000000000000000000000000000000\n      dup2\n      mstore\n      0x04\n      add\n      tag_112\n      swap1\n      tag_113\n      jump\t// in\n    tag_112:\n      mload(0x40)\n      dup1\n      swap2\n      sub\n      swap1\n      revert\n    tag_111:\n        /* \"contracts/CollaborativeArt.sol\":1541:1544  100 */\n      0x64\n        /* \"contracts/CollaborativeArt.sol\":1518:1538  _ownershipPercentage */\n      dup2\n        /* \"contracts/CollaborativeArt.sol\":1500:1515  totalPercentage */\n      sload(0x07)\n        /* \"contracts/CollaborativeArt.sol\":1500:1538  totalPercentage + _ownershipPercentage */\n      tag_115\n      swap2\n      swap1\n      tag_116\n      jump\t// in\n    tag_115:\n        /* \"contracts/CollaborativeArt.sol\":1500:1544  totalPercentage + _ownershipPercentage <=100 */\n      gt\n      iszero\n        /* \"contracts/CollaborativeArt.sol\":1492:1572  require(totalPercentage + _ownershipPercentage <=100,\"Total Ownership max 100%\") */\n      tag_117\n      jumpi\n      mload(0x40)\n      0x08c379a000000000000000000000000000000000000000000000000000000000\n      dup2\n      mstore\n      0x04\n      add\n      tag_118\n      swap1\n      tag_119\n      jump\t// in\n    tag_118:\n      mload(0x40)\n      dup1\n      swap2\n      sub\n      swap1\n      revert\n    tag_117:\n        /* \"contracts/CollaborativeArt.sol\":1583:1606  Artist memory newArtist */\n      0x00\n        /* \"contracts/CollaborativeArt.sol\":1609:1653  Artist(_artistAddress, _ownershipPercentage) */\n      mload(0x40)\n      dup1\n      0x40\n      add\n      0x40\n      mstore\n      dup1\n        /* \"contracts/CollaborativeArt.sol\":1616:1630  _artistAddress */\n      dup5\n        /* \"contracts/CollaborativeArt.sol\":1609:1653  Artist(_artistAddress, _ownershipPercentage) */\n      0xffffffffffffffffffffffffffffffffffffffff\n      and\n      dup2\n      mstore\n      0x20\n      add\n        /* \"contracts/CollaborativeArt.sol\":1632:1652  _ownershipPercentage */\n      dup4\n        /* \"contracts/CollaborativeArt.sol\":1609:1653  Artist(_artistAddress, _ownershipPercentage) */\n      dup2\n      mstore\n      pop\n        /* \"contracts/CollaborativeArt.sol\":1583:1653  Artist memory newArtist = Artist(_artistAddress, _ownershipPercentage) */\n      swap1\n      pop\n        /* \"contracts/CollaborativeArt.sol\":1664:1671  artists */\n      0x03\n        /* \"contracts/CollaborativeArt.sol\":1677:1686  newArtist */\n      dup2\n        /* \"contracts/CollaborativeArt.sol\":1664:1687  artists.push(newArtist) */\n      swap1\n      dup1\n      0x01\n      dup2\n      sload\n      add\n      dup1\n      dup3\n      sstore\n      dup1\n      swap2\n      pop\n      pop\n      0x01\n      swap1\n      sub\n      swap1\n      0x00\n      mstore\n      keccak256(0x00, 0x20)\n      swap1\n      0x02\n      mul\n      add\n      0x00\n      swap1\n      swap2\n      swap1\n      swap2\n      swap1\n      swap2\n      pop\n      0x00\n      dup3\n      add\n      mload\n      dup2\n      0x00\n      add\n      exp(0x0100, 0x00)\n      dup2\n      sload\n      dup2\n      0xffffffffffffffffffffffffffffffffffffffff\n      mul\n      not\n      and\n      swap1\n      dup4\n      0xffffffffffffffffffffffffffffffffffffffff\n      and\n      mul\n      or\n      swap1\n      sstore\n      pop\n      0x20\n      dup3\n      add\n      mload\n      dup2\n      0x01\n      add\n      sstore\n      pop\n      pop\n        /* \"contracts/CollaborativeArt.sol\":1744:1764  _ownershipPercentage */\n      dup2\n        /* \"contracts/CollaborativeArt.sol\":1698:1725  artistToOwnershipPercentage */\n      0x05\n        /* \"contracts/CollaborativeArt.sol\":1698:1741  artistToOwnershipPercentage[_artistAddress] */\n      0x00\n        /* \"contracts/CollaborativeArt.sol\":1726:1740  _artistAddress */\n      dup6\n        /* \"contracts/CollaborativeArt.sol\":1698:1741  artistToOwnershipPercentage[_artistAddress] */\n      0xffffffffffffffffffffffffffffffffffffffff\n      and\n      0xffffffffffffffffffffffffffffffffffffffff\n      and\n      dup2\n      mstore\n      0x20\n      add\n      swap1\n      dup2\n      mstore\n      0x20\n      add\n      0x00\n      keccak256\n        /* \"contracts/CollaborativeArt.sol\":1698:1764  artistToOwnershipPercentage[_artistAddress] = _ownershipPercentage */\n      dup2\n      swap1\n      sstore\n      pop\n        /* \"contracts/CollaborativeArt.sol\":1806:1810  true */\n      0x01\n        /* \"contracts/CollaborativeArt.sol\":1775:1787  artistSigned */\n      0x06\n        /* \"contracts/CollaborativeArt.sol\":1775:1803  artistSigned[_artistAddress] */\n      0x00\n        /* \"contracts/CollaborativeArt.sol\":1788:1802  _artistAddress */\n      dup6\n        /* \"contracts/CollaborativeArt.sol\":1775:1803  artistSigned[_artistAddress] */\n      0xffffffffffffffffffffffffffffffffffffffff\n      and\n      0xffffffffffffffffffffffffffffffffffffffff\n      and\n      dup2\n      mstore\n      0x20\n      add\n      swap1\n      dup2\n      mstore\n      0x20\n      add\n      0x00\n      keccak256\n      0x00\n        /* \"contracts/CollaborativeArt.sol\":1775:1810  artistSigned[_artistAddress] = true */\n      0x0100\n      exp\n      dup2\n      sload\n      dup2\n      0xff\n      mul\n      not\n      and\n      swap1\n      dup4\n      iszero\n      iszero\n      mul\n      or\n      swap1\n      sstore\n      pop\n        /* \"contracts/CollaborativeArt.sol\":1840:1860  _ownershipPercentage */\n      dup2\n        /* \"contracts/CollaborativeArt.sol\":1821:1836  totalPercentage */\n      0x07\n      0x00\n        /* \"contracts/CollaborativeArt.sol\":1821:1860  totalPercentage += _ownershipPercentage */\n      dup3\n      dup3\n      sload\n      tag_121\n      swap2\n      swap1\n      tag_116\n      jump\t// in\n    tag_121:\n      swap3\n      pop\n      pop\n      dup2\n      swap1\n      sstore\n      pop\n        /* \"contracts/CollaborativeArt.sol\":1481:1868  {... */\n      pop\n        /* \"contracts/CollaborativeArt.sol\":1392:1868  function addArtist(address _artistAddress, uint256 _ownershipPercentage) public onlyOwner{... */\n      pop\n      pop\n      jump\t// out\n        /* \"contracts/CollaborativeArt.sol\":2908:3005  function setArtworkPrice(uint256 _price) public onlyOwner{... */\n    tag_41:\n        /* \"contracts/CollaborativeArt.sol\":1065:1070  owner */\n      0x02\n      0x00\n      swap1\n      sload\n      swap1\n      0x0100\n      exp\n      swap1\n      div\n      0xffffffffffffffffffffffffffffffffffffffff\n      and\n        /* \"contracts/CollaborativeArt.sol\":1051:1070  msg.sender == owner */\n      0xffffffffffffffffffffffffffffffffffffffff\n      and\n        /* \"contracts/CollaborativeArt.sol\":1051:1061  msg.sender */\n      caller\n        /* \"contracts/CollaborativeArt.sol\":1051:1070  msg.sender == owner */\n      0xffffffffffffffffffffffffffffffffffffffff\n      and\n      eq\n        /* \"contracts/CollaborativeArt.sol\":1043:1112  require(msg.sender == owner, \"Only the owner can call this function\") */\n      tag_123\n      jumpi\n      mload(0x40)\n      0x08c379a000000000000000000000000000000000000000000000000000000000\n      dup2\n      mstore\n      0x04\n      add\n      tag_124\n      swap1\n      tag_113\n      jump\t// in\n    tag_124:\n      mload(0x40)\n      dup1\n      swap2\n      sub\n      swap1\n      revert\n    tag_123:\n        /* \"contracts/CollaborativeArt.sol\":2991:2997  _price */\n      dup1\n        /* \"contracts/CollaborativeArt.sol\":2976:2988  artworkPrice */\n      0x08\n        /* \"contracts/CollaborativeArt.sol\":2976:2997  artworkPrice = _price */\n      dup2\n      swap1\n      sstore\n      pop\n        /* \"contracts/CollaborativeArt.sol\":2908:3005  function setArtworkPrice(uint256 _price) public onlyOwner{... */\n      pop\n      jump\t// out\n        /* \"contracts/CollaborativeArt.sol\":598:660  mapping(address => uint256) public artistToOwnershipPercentage */\n    tag_45:\n      mstore(0x20, 0x05)\n      dup1\n      0x00\n      mstore\n      keccak256(0x00, 0x40)\n      0x00\n      swap2\n      pop\n      swap1\n      pop\n      sload\n      dup2\n      jump\t// out\n        /* \"@openzeppelin/contracts/utils/cryptography/EIP712.sol\":5144:5701  function eip712Domain()... */\n    tag_50:\n        /* \"@openzeppelin/contracts/utils/cryptography/EIP712.sol\":5242:5255  bytes1 fields */\n      0x00\n        /* \"@openzeppelin/contracts/utils/cryptography/EIP712.sol\":5269:5287  string memory name */\n      0x60\n        /* \"@openzeppelin/contracts/utils/cryptography/EIP712.sol\":5301:5322  string memory version */\n      dup1\n        /* \"@openzeppelin/contracts/utils/cryptography/EIP712.sol\":5336:5351  uint256 chainId */\n      0x00\n        /* \"@openzeppelin/contracts/utils/cryptography/EIP712.sol\":5365:5390  address verifyingContract */\n      dup1\n        /* \"@openzeppelin/contracts/utils/cryptography/EIP712.sol\":5404:5416  bytes32 salt */\n      0x00\n        /* \"@openzeppelin/contracts/utils/cryptography/EIP712.sol\":5430:5457  uint256[] memory extensions */\n      0x60\n        /* \"@openzeppelin/contracts/utils/cryptography/EIP712.sol\":5533:5546  _EIP712Name() */\n      tag_127\n        /* \"@openzeppelin/contracts/utils/cryptography/EIP712.sol\":5533:5544  _EIP712Name */\n      tag_128\n        /* \"@openzeppelin/contracts/utils/cryptography/EIP712.sol\":5533:5546  _EIP712Name() */\n      jump\t// in\n    tag_127:\n        /* \"@openzeppelin/contracts/utils/cryptography/EIP712.sol\":5560:5576  _EIP712Version() */\n      tag_129\n        /* \"@openzeppelin/contracts/utils/cryptography/EIP712.sol\":5560:5574  _EIP712Version */\n      tag_130\n        /* \"@openzeppelin/contracts/utils/cryptography/EIP712.sol\":5560:5576  _EIP712Version() */\n      jump\t// in\n    tag_129:\n        /* \"@openzeppelin/contracts/utils/cryptography/EIP712.sol\":5590:5603  block.chainid */\n      chainid\n        /* \"@openzeppelin/contracts/utils/cryptography/EIP712.sol\":5625:5629  this */\n      address\n        /* \"@openzeppelin/contracts/utils/cryptography/EIP712.sol\":5652:5653  0 */\n      0x00\n        /* \"@openzeppelin/contracts/utils/cryptography/EIP712.sol\":5644:5654  bytes32(0) */\n      dup1\n      shl\n        /* \"@openzeppelin/contracts/utils/cryptography/EIP712.sol\":5682:5683  0 */\n      0x00\n        /* \"@openzeppelin/contracts/utils/cryptography/EIP712.sol\":5668:5684  new uint256[](0) */\n      0xffffffffffffffff\n      dup2\n      gt\n      iszero\n      tag_131\n      jumpi\n      tag_132\n      tag_133\n      jump\t// in\n    tag_132:\n    tag_131:\n      mload(0x40)\n      swap1\n      dup1\n      dup3\n      mstore\n      dup1\n      0x20\n      mul\n      0x20\n      add\n      dup3\n      add\n      0x40\n      mstore\n      dup1\n      iszero\n      tag_134\n      jumpi\n      dup2\n      0x20\n      add\n      0x20\n      dup3\n      mul\n      dup1\n      calldatasize\n      dup4\n      calldatacopy\n      dup1\n      dup3\n      add\n      swap2\n      pop\n      pop\n      swap1\n      pop\n    tag_134:\n      pop\n        /* \"@openzeppelin/contracts/utils/cryptography/EIP712.sol\":5482:5694  return (... */\n      0x0f00000000000000000000000000000000000000000000000000000000000000\n      swap6\n      swap5\n      swap4\n      swap3\n      swap2\n      swap1\n      swap7\n      pop\n      swap7\n      pop\n      swap7\n      pop\n      swap7\n      pop\n      swap7\n      pop\n      swap7\n      pop\n      swap7\n      pop\n        /* \"@openzeppelin/contracts/utils/cryptography/EIP712.sol\":5144:5701  function eip712Domain()... */\n      swap1\n      swap2\n      swap3\n      swap4\n      swap5\n      swap6\n      swap7\n      jump\t// out\n        /* \"contracts/CollaborativeArt.sol\":1904:2064  function addMilestone(string memory _description, uint256 _deadline) public onlyOwner{... */\n    tag_57:\n        /* \"contracts/CollaborativeArt.sol\":1065:1070  owner */\n      0x02\n      0x00\n      swap1\n      sload\n      swap1\n      0x0100\n      exp\n      swap1\n      div\n      0xffffffffffffffffffffffffffffffffffffffff\n      and\n        /* \"contracts/CollaborativeArt.sol\":1051:1070  msg.sender == owner */\n      0xffffffffffffffffffffffffffffffffffffffff\n      and\n        /* \"contracts/CollaborativeArt.sol\":1051:1061  msg.sender */\n      caller\n        /* \"contracts/CollaborativeArt.sol\":1051:1070  msg.sender == owner */\n      0xffffffffffffffffffffffffffffffffffffffff\n      and\n      eq\n        /* \"contracts/CollaborativeArt.sol\":1043:1112  require(msg.sender == owner, \"Only the owner can call this function\") */\n      tag_136\n      jumpi\n      mload(0x40)\n      0x08c379a000000000000000000000000000000000000000000000000000000000\n      dup2\n      mstore\n      0x04\n      add\n      tag_137\n      swap1\n      tag_113\n      jump\t// in\n    tag_137:\n      mload(0x40)\n      dup1\n      swap2\n      sub\n      swap1\n      revert\n    tag_136:\n        /* \"contracts/CollaborativeArt.sol\":2000:2010  milestones */\n      0x04\n        /* \"contracts/CollaborativeArt.sol\":2016:2055  Milestone(_description,_deadline,false) */\n      mload(0x40)\n      dup1\n      0x60\n      add\n      0x40\n      mstore\n      dup1\n        /* \"contracts/CollaborativeArt.sol\":2026:2038  _description */\n      dup5\n        /* \"contracts/CollaborativeArt.sol\":2016:2055  Milestone(_description,_deadline,false) */\n      dup2\n      mstore\n      0x20\n      add\n        /* \"contracts/CollaborativeArt.sol\":2039:2048  _deadline */\n      dup4\n        /* \"contracts/CollaborativeArt.sol\":2016:2055  Milestone(_description,_deadline,false) */\n      dup2\n      mstore\n      0x20\n      add\n        /* \"contracts/CollaborativeArt.sol\":2049:2054  false */\n      0x00\n        /* \"contracts/CollaborativeArt.sol\":2016:2055  Milestone(_description,_deadline,false) */\n      iszero\n      iszero\n      dup2\n      mstore\n      pop\n        /* \"contracts/CollaborativeArt.sol\":2000:2056  milestones.push(Milestone(_description,_deadline,false)) */\n      swap1\n      dup1\n      0x01\n      dup2\n      sload\n      add\n      dup1\n      dup3\n      sstore\n      dup1\n      swap2\n      pop\n      pop\n      0x01\n      swap1\n      sub\n      swap1\n      0x00\n      mstore\n      keccak256(0x00, 0x20)\n      swap1\n      0x03\n      mul\n      add\n      0x00\n      swap1\n      swap2\n      swap1\n      swap2\n      swap1\n      swap2\n      pop\n      0x00\n      dup3\n      add\n      mload\n      dup2\n      0x00\n      add\n      swap1\n      dup2\n      tag_140\n      swap2\n      swap1\n      tag_141\n      jump\t// in\n    tag_140:\n      pop\n      0x20\n      dup3\n      add\n      mload\n      dup2\n      0x01\n      add\n      sstore\n      0x40\n      dup3\n      add\n      mload\n      dup2\n      0x02\n      add\n      exp(0x0100, 0x00)\n      dup2\n      sload\n      dup2\n      0xff\n      mul\n      not\n      and\n      swap1\n      dup4\n      iszero\n      iszero\n      mul\n      or\n      swap1\n      sstore\n      pop\n      pop\n      pop\n        /* \"contracts/CollaborativeArt.sol\":1904:2064  function addMilestone(string memory _description, uint256 _deadline) public onlyOwner{... */\n      pop\n      pop\n      jump\t// out\n        /* \"contracts/CollaborativeArt.sol\":2072:2307  function markMilestoneAsCompleted(uint256 _index) public onlyOwner{... */\n    tag_61:\n        /* \"contracts/CollaborativeArt.sol\":1065:1070  owner */\n      0x02\n      0x00\n      swap1\n      sload\n      swap1\n      0x0100\n      exp\n      swap1\n      div\n      0xffffffffffffffffffffffffffffffffffffffff\n      and\n        /* \"contracts/CollaborativeArt.sol\":1051:1070  msg.sender == owner */\n      0xffffffffffffffffffffffffffffffffffffffff\n      and\n        /* \"contracts/CollaborativeArt.sol\":1051:1061  msg.sender */\n      caller\n        /* \"contracts/CollaborativeArt.sol\":1051:1070  msg.sender == owner */\n      0xffffffffffffffffffffffffffffffffffffffff\n      and\n      eq\n        /* \"contracts/CollaborativeArt.sol\":1043:1112  require(msg.sender == owner, \"Only the owner can call this function\") */\n      tag_143\n      jumpi\n      mload(0x40)\n      0x08c379a000000000000000000000000000000000000000000000000000000000\n      dup2\n      mstore\n      0x04\n      add\n      tag_144\n      swap1\n      tag_113\n      jump\t// in\n    tag_144:\n      mload(0x40)\n      dup1\n      swap2\n      sub\n      swap1\n      revert\n    tag_143:\n        /* \"contracts/CollaborativeArt.sol\":2149:2176  Milestone storage milestone */\n      0x00\n        /* \"contracts/CollaborativeArt.sol\":2179:2189  milestones */\n      0x04\n        /* \"contracts/CollaborativeArt.sol\":2190:2196  _index */\n      dup3\n        /* \"contracts/CollaborativeArt.sol\":2179:2197  milestones[_index] */\n      dup2\n      sload\n      dup2\n      lt\n      tag_146\n      jumpi\n      tag_147\n      tag_148\n      jump\t// in\n    tag_147:\n    tag_146:\n      swap1\n      0x00\n      mstore\n      keccak256(0x00, 0x20)\n      swap1\n      0x03\n      mul\n      add\n        /* \"contracts/CollaborativeArt.sol\":2149:2197  Milestone storage milestone = milestones[_index] */\n      swap1\n      pop\n        /* \"contracts/CollaborativeArt.sol\":2230:2234  true */\n      0x01\n        /* \"contracts/CollaborativeArt.sol\":2208:2217  milestone */\n      dup2\n        /* \"contracts/CollaborativeArt.sol\":2208:2227  milestone.completed */\n      0x02\n      add\n      0x00\n        /* \"contracts/CollaborativeArt.sol\":2208:2234  milestone.completed = true */\n      0x0100\n      exp\n      dup2\n      sload\n      dup2\n      0xff\n      mul\n      not\n      and\n      swap1\n      dup4\n      iszero\n      iszero\n      mul\n      or\n      swap1\n      sstore\n      pop\n        /* \"contracts/CollaborativeArt.sol\":2250:2299  MilestoneCompleted(_index, milestone.description) */\n      0x596b9dbf4a34a065b97919d952a438e69135615bbbe14d29df893d0ee0d78e48\n        /* \"contracts/CollaborativeArt.sol\":2269:2275  _index */\n      dup3\n        /* \"contracts/CollaborativeArt.sol\":2277:2286  milestone */\n      dup3\n        /* \"contracts/CollaborativeArt.sol\":2277:2298  milestone.description */\n      0x00\n      add\n        /* \"contracts/CollaborativeArt.sol\":2250:2299  MilestoneCompleted(_index, milestone.description) */\n      mload(0x40)\n      tag_150\n      swap3\n      swap2\n      swap1\n      tag_151\n      jump\t// in\n    tag_150:\n      mload(0x40)\n      dup1\n      swap2\n      sub\n      swap1\n      log1\n        /* \"contracts/CollaborativeArt.sol\":2138:2307  {... */\n      pop\n        /* \"contracts/CollaborativeArt.sol\":2072:2307  function markMilestoneAsCompleted(uint256 _index) public onlyOwner{... */\n      pop\n      jump\t// out\n        /* \"contracts/CollaborativeArt.sol\":759:786  uint256 public artworkPrice */\n    tag_64:\n      sload(0x08)\n      dup2\n      jump\t// out\n        /* \"contracts/CollaborativeArt.sol\":503:523  address public owner */\n    tag_68:\n      0x02\n      0x00\n      swap1\n      sload\n      swap1\n      0x0100\n      exp\n      swap1\n      div\n      0xffffffffffffffffffffffffffffffffffffffff\n      and\n      dup2\n      jump\t// out\n        /* \"contracts/CollaborativeArt.sol\":3653:3781  function resolveDispute(string memory _message) public view onlyOwner returns (string memory) {... */\n    tag_75:\n        /* \"contracts/CollaborativeArt.sol\":3732:3745  string memory */\n      0x60\n        /* \"contracts/CollaborativeArt.sol\":1065:1070  owner */\n      0x02\n      0x00\n      swap1\n      sload\n      swap1\n      0x0100\n      exp\n      swap1\n      div\n      0xffffffffffffffffffffffffffffffffffffffff\n      and\n        /* \"contracts/CollaborativeArt.sol\":1051:1070  msg.sender == owner */\n      0xffffffffffffffffffffffffffffffffffffffff\n      and\n        /* \"contracts/CollaborativeArt.sol\":1051:1061  msg.sender */\n      caller\n        /* \"contracts/CollaborativeArt.sol\":1051:1070  msg.sender == owner */\n      0xffffffffffffffffffffffffffffffffffffffff\n      and\n      eq\n        /* \"contracts/CollaborativeArt.sol\":1043:1112  require(msg.sender == owner, \"Only the owner can call this function\") */\n      tag_153\n      jumpi\n      mload(0x40)\n      0x08c379a000000000000000000000000000000000000000000000000000000000\n      dup2\n      mstore\n      0x04\n      add\n      tag_154\n      swap1\n      tag_113\n      jump\t// in\n    tag_154:\n      mload(0x40)\n      dup1\n      swap2\n      sub\n      swap1\n      revert\n    tag_153:\n        /* \"contracts/CollaborativeArt.sol\":3765:3773  _message */\n      dup2\n        /* \"contracts/CollaborativeArt.sol\":3758:3773  return _message */\n      swap1\n      pop\n        /* \"contracts/CollaborativeArt.sol\":3653:3781  function resolveDispute(string memory _message) public view onlyOwner returns (string memory) {... */\n      swap2\n      swap1\n      pop\n      jump\t// out\n        /* \"contracts/CollaborativeArt.sol\":3044:3258  function purchaseArtwork() public payable{... */\n    tag_79:\n        /* \"contracts/CollaborativeArt.sol\":3117:3129  artworkPrice */\n      sload(0x08)\n        /* \"contracts/CollaborativeArt.sol\":3104:3113  msg.value */\n      callvalue\n        /* \"contracts/CollaborativeArt.sol\":3104:3129  msg.value == artworkPrice */\n      eq\n        /* \"contracts/CollaborativeArt.sol\":3096:3165  require(msg.value == artworkPrice, \"Payment must equal to art price\") */\n      tag_157\n      jumpi\n      mload(0x40)\n      0x08c379a000000000000000000000000000000000000000000000000000000000\n      dup2\n      mstore\n      0x04\n      add\n      tag_158\n      swap1\n      tag_159\n      jump\t// in\n    tag_158:\n      mload(0x40)\n      dup1\n      swap2\n      sub\n      swap1\n      revert\n    tag_157:\n        /* \"contracts/CollaborativeArt.sol\":3176:3193  distributeFunds() */\n      tag_160\n        /* \"contracts/CollaborativeArt.sol\":3176:3191  distributeFunds */\n      tag_161\n        /* \"contracts/CollaborativeArt.sol\":3176:3193  distributeFunds() */\n      jump\t// in\n    tag_160:\n        /* \"contracts/CollaborativeArt.sol\":3209:3250  ArtworkSold(artworkPrice, \"artwork sold\") */\n      0xd9952cbf75a3b7d22cfb7c2b9c7c00a23513676e5a486e14dcaf74485b483127\n        /* \"contracts/CollaborativeArt.sol\":3221:3233  artworkPrice */\n      sload(0x08)\n        /* \"contracts/CollaborativeArt.sol\":3209:3250  ArtworkSold(artworkPrice, \"artwork sold\") */\n      mload(0x40)\n      tag_162\n      swap2\n      swap1\n      tag_163\n      jump\t// in\n    tag_162:\n      mload(0x40)\n      dup1\n      swap2\n      sub\n      swap1\n      log1\n        /* \"contracts/CollaborativeArt.sol\":3044:3258  function purchaseArtwork() public payable{... */\n      jump\t// out\n        /* \"contracts/CollaborativeArt.sol\":530:553  Artist[] public artists */\n    tag_83:\n      0x03\n      dup2\n      dup2\n      sload\n      dup2\n      lt\n      tag_164\n      jumpi\n      0x00\n      dup1\n      revert\n    tag_164:\n      swap1\n      0x00\n      mstore\n      keccak256(0x00, 0x20)\n      swap1\n      0x02\n      mul\n      add\n      0x00\n      swap2\n      pop\n      swap1\n      pop\n      dup1\n      0x00\n      add\n      0x00\n      swap1\n      sload\n      swap1\n      0x0100\n      exp\n      swap1\n      div\n      0xffffffffffffffffffffffffffffffffffffffff\n      and\n      swap1\n      dup1\n      0x01\n      add\n      sload\n      swap1\n      pop\n      dup3\n      jump\t// out\n        /* \"contracts/CollaborativeArt.sol\":718:752  uint256 public totalPercentage = 0 */\n    tag_88:\n      sload(0x07)\n      dup2\n      jump\t// out\n        /* \"contracts/CollaborativeArt.sol\":560:589  Milestone[] public milestones */\n    tag_93:\n      0x04\n      dup2\n      dup2\n      sload\n      dup2\n      lt\n      tag_166\n      jumpi\n      0x00\n      dup1\n      revert\n    tag_166:\n      swap1\n      0x00\n      mstore\n      keccak256(0x00, 0x20)\n      swap1\n      0x03\n      mul\n      add\n      0x00\n      swap2\n      pop\n      swap1\n      pop\n      dup1\n      0x00\n      add\n      dup1\n      sload\n      tag_168\n      swap1\n      tag_169\n      jump\t// in\n    tag_168:\n      dup1\n      0x1f\n      add\n      0x20\n      dup1\n      swap2\n      div\n      mul\n      0x20\n      add\n      mload(0x40)\n      swap1\n      dup2\n      add\n      0x40\n      mstore\n      dup1\n      swap3\n      swap2\n      swap1\n      dup2\n      dup2\n      mstore\n      0x20\n      add\n      dup3\n      dup1\n      sload\n      tag_170\n      swap1\n      tag_169\n      jump\t// in\n    tag_170:\n      dup1\n      iszero\n      tag_171\n      jumpi\n      dup1\n      0x1f\n      lt\n      tag_172\n      jumpi\n      0x0100\n      dup1\n      dup4\n      sload\n      div\n      mul\n      dup4\n      mstore\n      swap2\n      0x20\n      add\n      swap2\n      jump(tag_171)\n    tag_172:\n      dup3\n      add\n      swap2\n      swap1\n      0x00\n      mstore\n      keccak256(0x00, 0x20)\n      swap1\n    tag_173:\n      dup2\n      sload\n      dup2\n      mstore\n      swap1\n      0x01\n      add\n      swap1\n      0x20\n      add\n      dup1\n      dup4\n      gt\n      tag_173\n      jumpi\n      dup3\n      swap1\n      sub\n      0x1f\n      and\n      dup3\n      add\n      swap2\n    tag_171:\n      pop\n      pop\n      pop\n      pop\n      pop\n      swap1\n      dup1\n      0x01\n      add\n      sload\n      swap1\n      dup1\n      0x02\n      add\n      0x00\n      swap1\n      sload\n      swap1\n      0x0100\n      exp\n      swap1\n      div\n      0xff\n      and\n      swap1\n      pop\n      dup4\n      jump\t// out\n        /* \"@openzeppelin/contracts/utils/cryptography/EIP712.sol\":4917:5093  function _hashTypedDataV4(bytes32 structHash) internal view virtual returns (bytes32) {... */\n    tag_103:\n        /* \"@openzeppelin/contracts/utils/cryptography/EIP712.sol\":4994:5001  bytes32 */\n      0x00\n        /* \"@openzeppelin/contracts/utils/cryptography/EIP712.sol\":5020:5086  MessageHashUtils.toTypedDataHash(_domainSeparatorV4(), structHash) */\n      tag_175\n        /* \"@openzeppelin/contracts/utils/cryptography/EIP712.sol\":5053:5073  _domainSeparatorV4() */\n      tag_176\n        /* \"@openzeppelin/contracts/utils/cryptography/EIP712.sol\":5053:5071  _domainSeparatorV4 */\n      tag_177\n        /* \"@openzeppelin/contracts/utils/cryptography/EIP712.sol\":5053:5073  _domainSeparatorV4() */\n      jump\t// in\n    tag_176:\n        /* \"@openzeppelin/contracts/utils/cryptography/EIP712.sol\":5075:5085  structHash */\n      dup4\n        /* \"@openzeppelin/contracts/utils/cryptography/EIP712.sol\":5020:5052  MessageHashUtils.toTypedDataHash */\n      tag_178\n        /* \"@openzeppelin/contracts/utils/cryptography/EIP712.sol\":5020:5086  MessageHashUtils.toTypedDataHash(_domainSeparatorV4(), structHash) */\n      jump\t// in\n    tag_175:\n        /* \"@openzeppelin/contracts/utils/cryptography/EIP712.sol\":5013:5086  return MessageHashUtils.toTypedDataHash(_domainSeparatorV4(), structHash) */\n      swap1\n      pop\n        /* \"@openzeppelin/contracts/utils/cryptography/EIP712.sol\":4917:5093  function _hashTypedDataV4(bytes32 structHash) internal view virtual returns (bytes32) {... */\n      swap2\n      swap1\n      pop\n      jump\t// out\n        /* \"@openzeppelin/contracts/utils/cryptography/ECDSA.sol\":3702:3957  function recover(bytes32 hash, bytes memory signature) internal pure returns (address) {... */\n    tag_105:\n        /* \"@openzeppelin/contracts/utils/cryptography/ECDSA.sol\":3780:3787  address */\n      0x00\n        /* \"@openzeppelin/contracts/utils/cryptography/ECDSA.sol\":3800:3817  address recovered */\n      dup1\n        /* \"@openzeppelin/contracts/utils/cryptography/ECDSA.sol\":3819:3837  RecoverError error */\n      0x00\n        /* \"@openzeppelin/contracts/utils/cryptography/ECDSA.sol\":3839:3855  bytes32 errorArg */\n      dup1\n        /* \"@openzeppelin/contracts/utils/cryptography/ECDSA.sol\":3859:3886  tryRecover(hash, signature) */\n      tag_180\n        /* \"@openzeppelin/contracts/utils/cryptography/ECDSA.sol\":3870:3874  hash */\n      dup7\n        /* \"@openzeppelin/contracts/utils/cryptography/ECDSA.sol\":3876:3885  signature */\n      dup7\n        /* \"@openzeppelin/contracts/utils/cryptography/ECDSA.sol\":3859:3869  tryRecover */\n      tag_181\n        /* \"@openzeppelin/contracts/utils/cryptography/ECDSA.sol\":3859:3886  tryRecover(hash, signature) */\n      jump\t// in\n    tag_180:\n        /* \"@openzeppelin/contracts/utils/cryptography/ECDSA.sol\":3799:3886  (address recovered, RecoverError error, bytes32 errorArg) = tryRecover(hash, signature) */\n      swap3\n      pop\n      swap3\n      pop\n      swap3\n      pop\n        /* \"@openzeppelin/contracts/utils/cryptography/ECDSA.sol\":3896:3924  _throwError(error, errorArg) */\n      tag_182\n        /* \"@openzeppelin/contracts/utils/cryptography/ECDSA.sol\":3908:3913  error */\n      dup3\n        /* \"@openzeppelin/contracts/utils/cryptography/ECDSA.sol\":3915:3923  errorArg */\n      dup3\n        /* \"@openzeppelin/contracts/utils/cryptography/ECDSA.sol\":3896:3907  _throwError */\n      tag_183\n        /* \"@openzeppelin/contracts/utils/cryptography/ECDSA.sol\":3896:3924  _throwError(error, errorArg) */\n      jump\t// in\n    tag_182:\n        /* \"@openzeppelin/contracts/utils/cryptography/ECDSA.sol\":3941:3950  recovered */\n      dup3\n        /* \"@openzeppelin/contracts/utils/cryptography/ECDSA.sol\":3934:3950  return recovered */\n      swap4\n      pop\n      pop\n      pop\n      pop\n        /* \"@openzeppelin/contracts/utils/cryptography/ECDSA.sol\":3702:3957  function recover(bytes32 hash, bytes memory signature) internal pure returns (address) {... */\n      swap3\n      swap2\n      pop\n      pop\n      jump\t// out\n        /* \"@openzeppelin/contracts/utils/cryptography/EIP712.sol\":6021:6147  function _EIP712Name() internal view returns (string memory) {... */\n    tag_128:\n        /* \"@openzeppelin/contracts/utils/cryptography/EIP712.sol\":6067:6080  string memory */\n      0x60\n        /* \"@openzeppelin/contracts/utils/cryptography/EIP712.sol\":6099:6140  _name.toStringWithFallback(_nameFallback) */\n      tag_185\n        /* \"@openzeppelin/contracts/utils/cryptography/EIP712.sol\":6126:6139  _nameFallback */\n      0x00\n        /* \"@openzeppelin/contracts/utils/cryptography/EIP712.sol\":6099:6104  _name */\n      immutable(\"0x24655aa402609c42cd9913a516bc50fe98c55f24cc6cbf7100f975460651f33e\")\n        /* \"@openzeppelin/contracts/utils/cryptography/EIP712.sol\":6099:6125  _name.toStringWithFallback */\n      tag_186\n      swap1\n        /* \"@openzeppelin/contracts/utils/cryptography/EIP712.sol\":6099:6140  _name.toStringWithFallback(_nameFallback) */\n      swap2\n      swap1\n      0xffffffff\n      and\n      jump\t// in\n    tag_185:\n        /* \"@openzeppelin/contracts/utils/cryptography/EIP712.sol\":6092:6140  return _name.toStringWithFallback(_nameFallback) */\n      swap1\n      pop\n        /* \"@openzeppelin/contracts/utils/cryptography/EIP712.sol\":6021:6147  function _EIP712Name() internal view returns (string memory) {... */\n      swap1\n      jump\t// out\n        /* \"@openzeppelin/contracts/utils/cryptography/EIP712.sol\":6473:6608  function _EIP712Version() internal view returns (string memory) {... */\n    tag_130:\n        /* \"@openzeppelin/contracts/utils/cryptography/EIP712.sol\":6522:6535  string memory */\n      0x60\n        /* \"@openzeppelin/contracts/utils/cryptography/EIP712.sol\":6554:6601  _version.toStringWithFallback(_versionFallback) */\n      tag_188\n        /* \"@openzeppelin/contracts/utils/cryptography/EIP712.sol\":6584:6600  _versionFallback */\n      0x01\n        /* \"@openzeppelin/contracts/utils/cryptography/EIP712.sol\":6554:6562  _version */\n      immutable(\"0xc0bf3ddb79e7c5faf09af1eaa09640fae848e430edf7a04658ec05be9ade7aab\")\n        /* \"@openzeppelin/contracts/utils/cryptography/EIP712.sol\":6554:6583  _version.toStringWithFallback */\n      tag_186\n      swap1\n        /* \"@openzeppelin/contracts/utils/cryptography/EIP712.sol\":6554:6601  _version.toStringWithFallback(_versionFallback) */\n      swap2\n      swap1\n      0xffffffff\n      and\n      jump\t// in\n    tag_188:\n        /* \"@openzeppelin/contracts/utils/cryptography/EIP712.sol\":6547:6601  return _version.toStringWithFallback(_versionFallback) */\n      swap1\n      pop\n        /* \"@openzeppelin/contracts/utils/cryptography/EIP712.sol\":6473:6608  function _EIP712Version() internal view returns (string memory) {... */\n      swap1\n      jump\t// out\n        /* \"contracts/CollaborativeArt.sol\":3288:3619  function distributeFunds() private{... */\n    tag_161:\n        /* \"contracts/CollaborativeArt.sol\":3338:3347  uint256 i */\n      0x00\n        /* \"contracts/CollaborativeArt.sol\":3333:3612  for (uint256 i = 0; i < artists.length; i++){... */\n    tag_190:\n        /* \"contracts/CollaborativeArt.sol\":3357:3364  artists */\n      0x03\n        /* \"contracts/CollaborativeArt.sol\":3357:3371  artists.length */\n      dup1\n      sload\n      swap1\n      pop\n        /* \"contracts/CollaborativeArt.sol\":3353:3354  i */\n      dup2\n        /* \"contracts/CollaborativeArt.sol\":3353:3371  i < artists.length */\n      lt\n        /* \"contracts/CollaborativeArt.sol\":3333:3612  for (uint256 i = 0; i < artists.length; i++){... */\n      iszero\n      tag_191\n      jumpi\n        /* \"contracts/CollaborativeArt.sol\":3392:3412  Artist memory artist */\n      0x00\n        /* \"contracts/CollaborativeArt.sol\":3415:3422  artists */\n      0x03\n        /* \"contracts/CollaborativeArt.sol\":3423:3424  i */\n      dup3\n        /* \"contracts/CollaborativeArt.sol\":3415:3425  artists[i] */\n      dup2\n      sload\n      dup2\n      lt\n      tag_193\n      jumpi\n      tag_194\n      tag_148\n      jump\t// in\n    tag_194:\n    tag_193:\n      swap1\n      0x00\n      mstore\n      keccak256(0x00, 0x20)\n      swap1\n      0x02\n      mul\n      add\n        /* \"contracts/CollaborativeArt.sol\":3392:3425  Artist memory artist = artists[i] */\n      mload(0x40)\n      dup1\n      0x40\n      add\n      0x40\n      mstore\n      swap1\n      dup2\n      0x00\n      dup3\n      add\n      0x00\n      swap1\n      sload\n      swap1\n      0x0100\n      exp\n      swap1\n      div\n      0xffffffffffffffffffffffffffffffffffffffff\n      and\n      0xffffffffffffffffffffffffffffffffffffffff\n      and\n      0xffffffffffffffffffffffffffffffffffffffff\n      and\n      dup2\n      mstore\n      0x20\n      add\n      0x01\n      dup3\n      add\n      sload\n      dup2\n      mstore\n      pop\n      pop\n      swap1\n      pop\n        /* \"contracts/CollaborativeArt.sol\":3443:3455  artistSigned */\n      0x06\n        /* \"contracts/CollaborativeArt.sol\":3443:3477  artistSigned[artist.artistAddress] */\n      0x00\n        /* \"contracts/CollaborativeArt.sol\":3456:3462  artist */\n      dup3\n        /* \"contracts/CollaborativeArt.sol\":3456:3476  artist.artistAddress */\n      0x00\n      add\n      mload\n        /* \"contracts/CollaborativeArt.sol\":3443:3477  artistSigned[artist.artistAddress] */\n      0xffffffffffffffffffffffffffffffffffffffff\n      and\n      0xffffffffffffffffffffffffffffffffffffffff\n      and\n      dup2\n      mstore\n      0x20\n      add\n      swap1\n      dup2\n      mstore\n      0x20\n      add\n      0x00\n      keccak256\n      0x00\n      swap1\n      sload\n      swap1\n      0x0100\n      exp\n      swap1\n      div\n      0xff\n      and\n        /* \"contracts/CollaborativeArt.sol\":3440:3601  if(artistSigned[artist.artistAddress]){... */\n      iszero\n      tag_196\n      jumpi\n        /* \"contracts/CollaborativeArt.sol\":3505:3511  artist */\n      dup1\n        /* \"contracts/CollaborativeArt.sol\":3505:3525  artist.artistAddress */\n      0x00\n      add\n      mload\n        /* \"contracts/CollaborativeArt.sol\":3497:3535  payable(artist.artistAddress).transfer */\n      0xffffffffffffffffffffffffffffffffffffffff\n      and\n        /* \"contracts/CollaborativeArt.sol\":3497:3585  payable(artist.artistAddress).transfer((artworkPrice * artist.ownershipPercentage )/100) */\n      0x08fc\n        /* \"contracts/CollaborativeArt.sol\":3581:3584  100 */\n      0x64\n        /* \"contracts/CollaborativeArt.sol\":3552:3558  artist */\n      dup4\n        /* \"contracts/CollaborativeArt.sol\":3552:3578  artist.ownershipPercentage */\n      0x20\n      add\n      mload\n        /* \"contracts/CollaborativeArt.sol\":3537:3549  artworkPrice */\n      sload(0x08)\n        /* \"contracts/CollaborativeArt.sol\":3537:3578  artworkPrice * artist.ownershipPercentage */\n      tag_197\n      swap2\n      swap1\n      tag_198\n      jump\t// in\n    tag_197:\n        /* \"contracts/CollaborativeArt.sol\":3536:3584  (artworkPrice * artist.ownershipPercentage )/100 */\n      tag_199\n      swap2\n      swap1\n      tag_200\n      jump\t// in\n    tag_199:\n        /* \"contracts/CollaborativeArt.sol\":3497:3585  payable(artist.artistAddress).transfer((artworkPrice * artist.ownershipPercentage )/100) */\n      swap1\n      dup2\n      iszero\n      mul\n      swap1\n      mload(0x40)\n      0x00\n      mload(0x40)\n      dup1\n      dup4\n      sub\n      dup2\n      dup6\n      dup9\n      dup9\n      call\n      swap4\n      pop\n      pop\n      pop\n      pop\n      iszero\n      dup1\n      iszero\n      tag_202\n      jumpi\n      returndatasize\n      0x00\n      dup1\n      returndatacopy\n      revert(0x00, returndatasize)\n    tag_202:\n      pop\n        /* \"contracts/CollaborativeArt.sol\":3440:3601  if(artistSigned[artist.artistAddress]){... */\n    tag_196:\n        /* \"contracts/CollaborativeArt.sol\":3377:3612  {... */\n      pop\n        /* \"contracts/CollaborativeArt.sol\":3373:3376  i++ */\n      dup1\n      dup1\n      0x01\n      add\n      swap2\n      pop\n      pop\n        /* \"contracts/CollaborativeArt.sol\":3333:3612  for (uint256 i = 0; i < artists.length; i++){... */\n      jump(tag_190)\n    tag_191:\n      pop\n        /* \"contracts/CollaborativeArt.sol\":3288:3619  function distributeFunds() private{... */\n      jump\t// out\n        /* \"@openzeppelin/contracts/utils/cryptography/EIP712.sol\":3845:4107  function _domainSeparatorV4() internal view returns (bytes32) {... */\n    tag_177:\n        /* \"@openzeppelin/contracts/utils/cryptography/EIP712.sol\":3898:3905  bytes32 */\n      0x00\n        /* \"@openzeppelin/contracts/utils/cryptography/EIP712.sol\":3938:3949  _cachedThis */\n      immutable(\"0xd981c1aa70496adbf331222473f4f790f8f1219995826de705ab70eb68beb770\")\n        /* \"@openzeppelin/contracts/utils/cryptography/EIP712.sol\":3921:3949  address(this) == _cachedThis */\n      0xffffffffffffffffffffffffffffffffffffffff\n      and\n        /* \"@openzeppelin/contracts/utils/cryptography/EIP712.sol\":3929:3933  this */\n      address\n        /* \"@openzeppelin/contracts/utils/cryptography/EIP712.sol\":3921:3949  address(this) == _cachedThis */\n      0xffffffffffffffffffffffffffffffffffffffff\n      and\n      eq\n        /* \"@openzeppelin/contracts/utils/cryptography/EIP712.sol\":3921:3984  address(this) == _cachedThis && block.chainid == _cachedChainId */\n      dup1\n      iszero\n      tag_204\n      jumpi\n      pop\n        /* \"@openzeppelin/contracts/utils/cryptography/EIP712.sol\":3970:3984  _cachedChainId */\n      immutable(\"0x336523fb849cd6067e17512896452e621202dd9ff259a43a1ec132781bec449f\")\n        /* \"@openzeppelin/contracts/utils/cryptography/EIP712.sol\":3953:3966  block.chainid */\n      chainid\n        /* \"@openzeppelin/contracts/utils/cryptography/EIP712.sol\":3953:3984  block.chainid == _cachedChainId */\n      eq\n        /* \"@openzeppelin/contracts/utils/cryptography/EIP712.sol\":3921:3984  address(this) == _cachedThis && block.chainid == _cachedChainId */\n    tag_204:\n        /* \"@openzeppelin/contracts/utils/cryptography/EIP712.sol\":3917:4101  if (address(this) == _cachedThis && block.chainid == _cachedChainId) {... */\n      iszero\n      tag_205\n      jumpi\n        /* \"@openzeppelin/contracts/utils/cryptography/EIP712.sol\":4007:4029  _cachedDomainSeparator */\n      immutable(\"0x78a9014aa316c0d81e8cac1983f47ca946aa7db198b97933cfa2b1daf2bdc940\")\n        /* \"@openzeppelin/contracts/utils/cryptography/EIP712.sol\":4000:4029  return _cachedDomainSeparator */\n      swap1\n      pop\n      jump(tag_203)\n        /* \"@openzeppelin/contracts/utils/cryptography/EIP712.sol\":3917:4101  if (address(this) == _cachedThis && block.chainid == _cachedChainId) {... */\n    tag_205:\n        /* \"@openzeppelin/contracts/utils/cryptography/EIP712.sol\":4067:4090  _buildDomainSeparator() */\n      tag_207\n        /* \"@openzeppelin/contracts/utils/cryptography/EIP712.sol\":4067:4088  _buildDomainSeparator */\n      tag_208\n        /* \"@openzeppelin/contracts/utils/cryptography/EIP712.sol\":4067:4090  _buildDomainSeparator() */\n      jump\t// in\n    tag_207:\n        /* \"@openzeppelin/contracts/utils/cryptography/EIP712.sol\":4060:4090  return _buildDomainSeparator() */\n      swap1\n      pop\n        /* \"@openzeppelin/contracts/utils/cryptography/EIP712.sol\":3845:4107  function _domainSeparatorV4() internal view returns (bytes32) {... */\n    tag_203:\n      swap1\n      jump\t// out\n        /* \"@openzeppelin/contracts/utils/cryptography/MessageHashUtils.sol\":3353:3754  function toTypedDataHash(bytes32 domainSeparator, bytes32 structHash) internal pure returns (bytes32 digest) {... */\n    tag_178:\n        /* \"@openzeppelin/contracts/utils/cryptography/MessageHashUtils.sol\":3446:3460  bytes32 digest */\n      0x00\n        /* \"@openzeppelin/contracts/utils/cryptography/MessageHashUtils.sol\":3555:3559  0x40 */\n      0x40\n        /* \"@openzeppelin/contracts/utils/cryptography/MessageHashUtils.sol\":3549:3560  mload(0x40) */\n      mload\n        /* \"@openzeppelin/contracts/utils/cryptography/MessageHashUtils.sol\":3585:3595  hex\"19_01\" */\n      0x1901000000000000000000000000000000000000000000000000000000000000\n        /* \"@openzeppelin/contracts/utils/cryptography/MessageHashUtils.sol\":3580:3583  ptr */\n      dup2\n        /* \"@openzeppelin/contracts/utils/cryptography/MessageHashUtils.sol\":3573:3596  mstore(ptr, hex\"19_01\") */\n      mstore\n        /* \"@openzeppelin/contracts/utils/cryptography/MessageHashUtils.sol\":3632:3647  domainSeparator */\n      dup4\n        /* \"@openzeppelin/contracts/utils/cryptography/MessageHashUtils.sol\":3625:3629  0x02 */\n      0x02\n        /* \"@openzeppelin/contracts/utils/cryptography/MessageHashUtils.sol\":3620:3623  ptr */\n      dup3\n        /* \"@openzeppelin/contracts/utils/cryptography/MessageHashUtils.sol\":3616:3630  add(ptr, 0x02) */\n      add\n        /* \"@openzeppelin/contracts/utils/cryptography/MessageHashUtils.sol\":3609:3648  mstore(add(ptr, 0x02), domainSeparator) */\n      mstore\n        /* \"@openzeppelin/contracts/utils/cryptography/MessageHashUtils.sol\":3684:3694  structHash */\n      dup3\n        /* \"@openzeppelin/contracts/utils/cryptography/MessageHashUtils.sol\":3677:3681  0x22 */\n      0x22\n        /* \"@openzeppelin/contracts/utils/cryptography/MessageHashUtils.sol\":3672:3675  ptr */\n      dup3\n        /* \"@openzeppelin/contracts/utils/cryptography/MessageHashUtils.sol\":3668:3682  add(ptr, 0x22) */\n      add\n        /* \"@openzeppelin/contracts/utils/cryptography/MessageHashUtils.sol\":3661:3695  mstore(add(ptr, 0x22), structHash) */\n      mstore\n        /* \"@openzeppelin/contracts/utils/cryptography/MessageHashUtils.sol\":3733:3737  0x42 */\n      0x42\n        /* \"@openzeppelin/contracts/utils/cryptography/MessageHashUtils.sol\":3728:3731  ptr */\n      dup2\n        /* \"@openzeppelin/contracts/utils/cryptography/MessageHashUtils.sol\":3718:3738  keccak256(ptr, 0x42) */\n      keccak256\n        /* \"@openzeppelin/contracts/utils/cryptography/MessageHashUtils.sol\":3708:3738  digest := keccak256(ptr, 0x42) */\n      swap2\n      pop\n        /* \"@openzeppelin/contracts/utils/cryptography/MessageHashUtils.sol\":3524:3748  {... */\n      pop\n        /* \"@openzeppelin/contracts/utils/cryptography/MessageHashUtils.sol\":3353:3754  function toTypedDataHash(bytes32 domainSeparator, bytes32 structHash) internal pure returns (bytes32 digest) {... */\n      swap3\n      swap2\n      pop\n      pop\n      jump\t// out\n        /* \"@openzeppelin/contracts/utils/cryptography/ECDSA.sol\":2129:2895  function tryRecover(bytes32 hash, bytes memory signature) internal pure returns (address, RecoverError, bytes32) {... */\n    tag_181:\n        /* \"@openzeppelin/contracts/utils/cryptography/ECDSA.sol\":2210:2217  address */\n      0x00\n        /* \"@openzeppelin/contracts/utils/cryptography/ECDSA.sol\":2219:2231  RecoverError */\n      dup1\n        /* \"@openzeppelin/contracts/utils/cryptography/ECDSA.sol\":2233:2240  bytes32 */\n      0x00\n        /* \"@openzeppelin/contracts/utils/cryptography/ECDSA.sol\":2276:2278  65 */\n      0x41\n        /* \"@openzeppelin/contracts/utils/cryptography/ECDSA.sol\":2256:2265  signature */\n      dup5\n        /* \"@openzeppelin/contracts/utils/cryptography/ECDSA.sol\":2256:2272  signature.length */\n      mload\n        /* \"@openzeppelin/contracts/utils/cryptography/ECDSA.sol\":2256:2278  signature.length == 65 */\n      sub\n        /* \"@openzeppelin/contracts/utils/cryptography/ECDSA.sol\":2252:2889  if (signature.length == 65) {... */\n      tag_211\n      jumpi\n        /* \"@openzeppelin/contracts/utils/cryptography/ECDSA.sol\":2294:2303  bytes32 r */\n      0x00\n        /* \"@openzeppelin/contracts/utils/cryptography/ECDSA.sol\":2317:2326  bytes32 s */\n      dup1\n        /* \"@openzeppelin/contracts/utils/cryptography/ECDSA.sol\":2340:2347  uint8 v */\n      0x00\n        /* \"@openzeppelin/contracts/utils/cryptography/ECDSA.sol\":2592:2596  0x20 */\n      0x20\n        /* \"@openzeppelin/contracts/utils/cryptography/ECDSA.sol\":2581:2590  signature */\n      dup8\n        /* \"@openzeppelin/contracts/utils/cryptography/ECDSA.sol\":2577:2597  add(signature, 0x20) */\n      add\n        /* \"@openzeppelin/contracts/utils/cryptography/ECDSA.sol\":2571:2598  mload(add(signature, 0x20)) */\n      mload\n        /* \"@openzeppelin/contracts/utils/cryptography/ECDSA.sol\":2566:2598  r := mload(add(signature, 0x20)) */\n      swap3\n      pop\n        /* \"@openzeppelin/contracts/utils/cryptography/ECDSA.sol\":2641:2645  0x40 */\n      0x40\n        /* \"@openzeppelin/contracts/utils/cryptography/ECDSA.sol\":2630:2639  signature */\n      dup8\n        /* \"@openzeppelin/contracts/utils/cryptography/ECDSA.sol\":2626:2646  add(signature, 0x40) */\n      add\n        /* \"@openzeppelin/contracts/utils/cryptography/ECDSA.sol\":2620:2647  mload(add(signature, 0x40)) */\n      mload\n        /* \"@openzeppelin/contracts/utils/cryptography/ECDSA.sol\":2615:2647  s := mload(add(signature, 0x40)) */\n      swap2\n      pop\n        /* \"@openzeppelin/contracts/utils/cryptography/ECDSA.sol\":2698:2702  0x60 */\n      0x60\n        /* \"@openzeppelin/contracts/utils/cryptography/ECDSA.sol\":2687:2696  signature */\n      dup8\n        /* \"@openzeppelin/contracts/utils/cryptography/ECDSA.sol\":2683:2703  add(signature, 0x60) */\n      add\n        /* \"@openzeppelin/contracts/utils/cryptography/ECDSA.sol\":2677:2704  mload(add(signature, 0x60)) */\n      mload\n        /* \"@openzeppelin/contracts/utils/cryptography/ECDSA.sol\":2674:2675  0 */\n      0x00\n        /* \"@openzeppelin/contracts/utils/cryptography/ECDSA.sol\":2669:2705  byte(0, mload(add(signature, 0x60))) */\n      byte\n        /* \"@openzeppelin/contracts/utils/cryptography/ECDSA.sol\":2664:2705  v := byte(0, mload(add(signature, 0x60))) */\n      swap1\n      pop\n        /* \"@openzeppelin/contracts/utils/cryptography/ECDSA.sol\":2739:2764  tryRecover(hash, v, r, s) */\n      tag_212\n        /* \"@openzeppelin/contracts/utils/cryptography/ECDSA.sol\":2750:2754  hash */\n      dup9\n        /* \"@openzeppelin/contracts/utils/cryptography/ECDSA.sol\":2756:2757  v */\n      dup3\n        /* \"@openzeppelin/contracts/utils/cryptography/ECDSA.sol\":2759:2760  r */\n      dup6\n        /* \"@openzeppelin/contracts/utils/cryptography/ECDSA.sol\":2762:2763  s */\n      dup6\n        /* \"@openzeppelin/contracts/utils/cryptography/ECDSA.sol\":2739:2749  tryRecover */\n      tag_213\n        /* \"@openzeppelin/contracts/utils/cryptography/ECDSA.sol\":2739:2764  tryRecover(hash, v, r, s) */\n      jump\t// in\n    tag_212:\n        /* \"@openzeppelin/contracts/utils/cryptography/ECDSA.sol\":2732:2764  return tryRecover(hash, v, r, s) */\n      swap6\n      pop\n      swap6\n      pop\n      swap6\n      pop\n      pop\n      pop\n      pop\n      jump(tag_210)\n        /* \"@openzeppelin/contracts/utils/cryptography/ECDSA.sol\":2252:2889  if (signature.length == 65) {... */\n    tag_211:\n        /* \"@openzeppelin/contracts/utils/cryptography/ECDSA.sol\":2811:2812  0 */\n      0x00\n        /* \"@openzeppelin/contracts/utils/cryptography/ECDSA.sol\":2815:2850  RecoverError.InvalidSignatureLength */\n      0x02\n        /* \"@openzeppelin/contracts/utils/cryptography/ECDSA.sol\":2860:2869  signature */\n      dup6\n        /* \"@openzeppelin/contracts/utils/cryptography/ECDSA.sol\":2860:2876  signature.length */\n      mload\n        /* \"@openzeppelin/contracts/utils/cryptography/ECDSA.sol\":2852:2877  bytes32(signature.length) */\n      0x00\n      shl\n        /* \"@openzeppelin/contracts/utils/cryptography/ECDSA.sol\":2795:2878  return (address(0), RecoverError.InvalidSignatureLength, bytes32(signature.length)) */\n      swap3\n      pop\n      swap3\n      pop\n      swap3\n      pop\n        /* \"@openzeppelin/contracts/utils/cryptography/ECDSA.sol\":2129:2895  function tryRecover(bytes32 hash, bytes memory signature) internal pure returns (address, RecoverError, bytes32) {... */\n    tag_210:\n      swap3\n      pop\n      swap3\n      pop\n      swap3\n      jump\t// out\n        /* \"@openzeppelin/contracts/utils/cryptography/ECDSA.sol\":7196:7728  function _throwError(RecoverError error, bytes32 errorArg) private pure {... */\n    tag_183:\n        /* \"@openzeppelin/contracts/utils/cryptography/ECDSA.sol\":7291:7311  RecoverError.NoError */\n      0x00\n        /* \"@openzeppelin/contracts/utils/cryptography/ECDSA.sol\":7282:7311  error == RecoverError.NoError */\n      0x03\n      dup2\n      gt\n      iszero\n      tag_216\n      jumpi\n      tag_217\n      tag_218\n      jump\t// in\n    tag_217:\n    tag_216:\n        /* \"@openzeppelin/contracts/utils/cryptography/ECDSA.sol\":7282:7287  error */\n      dup3\n        /* \"@openzeppelin/contracts/utils/cryptography/ECDSA.sol\":7282:7311  error == RecoverError.NoError */\n      0x03\n      dup2\n      gt\n      iszero\n      tag_219\n      jumpi\n      tag_220\n      tag_218\n      jump\t// in\n    tag_220:\n    tag_219:\n      sub\n        /* \"@openzeppelin/contracts/utils/cryptography/ECDSA.sol\":7278:7722  if (error == RecoverError.NoError) {... */\n      iszero\n        /* \"@openzeppelin/contracts/utils/cryptography/ECDSA.sol\":7327:7334  return; */\n      tag_215\n        /* \"@openzeppelin/contracts/utils/cryptography/ECDSA.sol\":7278:7722  if (error == RecoverError.NoError) {... */\n      jumpi\n        /* \"@openzeppelin/contracts/utils/cryptography/ECDSA.sol\":7387:7416  RecoverError.InvalidSignature */\n      0x01\n        /* \"@openzeppelin/contracts/utils/cryptography/ECDSA.sol\":7378:7416  error == RecoverError.InvalidSignature */\n      0x03\n      dup2\n      gt\n      iszero\n      tag_223\n      jumpi\n      tag_224\n      tag_218\n      jump\t// in\n    tag_224:\n    tag_223:\n        /* \"@openzeppelin/contracts/utils/cryptography/ECDSA.sol\":7378:7383  error */\n      dup3\n        /* \"@openzeppelin/contracts/utils/cryptography/ECDSA.sol\":7378:7416  error == RecoverError.InvalidSignature */\n      0x03\n      dup2\n      gt\n      iszero\n      tag_225\n      jumpi\n      tag_226\n      tag_218\n      jump\t// in\n    tag_226:\n    tag_225:\n      sub\n        /* \"@openzeppelin/contracts/utils/cryptography/ECDSA.sol\":7374:7722  if (error == RecoverError.InvalidSignature) {... */\n      tag_227\n      jumpi\n        /* \"@openzeppelin/contracts/utils/cryptography/ECDSA.sol\":7439:7462  ECDSAInvalidSignature() */\n      mload(0x40)\n      0xf645eedf00000000000000000000000000000000000000000000000000000000\n      dup2\n      mstore\n      0x04\n      add\n      mload(0x40)\n      dup1\n      swap2\n      sub\n      swap1\n      revert\n        /* \"@openzeppelin/contracts/utils/cryptography/ECDSA.sol\":7374:7722  if (error == RecoverError.InvalidSignature) {... */\n    tag_227:\n        /* \"@openzeppelin/contracts/utils/cryptography/ECDSA.sol\":7492:7527  RecoverError.InvalidSignatureLength */\n      0x02\n        /* \"@openzeppelin/contracts/utils/cryptography/ECDSA.sol\":7483:7527  error == RecoverError.InvalidSignatureLength */\n      0x03\n      dup2\n      gt\n      iszero\n      tag_229\n      jumpi\n      tag_230\n      tag_218\n      jump\t// in\n    tag_230:\n    tag_229:\n        /* \"@openzeppelin/contracts/utils/cryptography/ECDSA.sol\":7483:7488  error */\n      dup3\n        /* \"@openzeppelin/contracts/utils/cryptography/ECDSA.sol\":7483:7527  error == RecoverError.InvalidSignatureLength */\n      0x03\n      dup2\n      gt\n      iszero\n      tag_231\n      jumpi\n      tag_232\n      tag_218\n      jump\t// in\n    tag_232:\n    tag_231:\n      sub\n        /* \"@openzeppelin/contracts/utils/cryptography/ECDSA.sol\":7479:7722  if (error == RecoverError.InvalidSignatureLength) {... */\n      tag_233\n      jumpi\n        /* \"@openzeppelin/contracts/utils/cryptography/ECDSA.sol\":7586:7594  errorArg */\n      dup1\n        /* \"@openzeppelin/contracts/utils/cryptography/ECDSA.sol\":7578:7595  uint256(errorArg) */\n      0x00\n      shr\n        /* \"@openzeppelin/contracts/utils/cryptography/ECDSA.sol\":7550:7596  ECDSAInvalidSignatureLength(uint256(errorArg)) */\n      mload(0x40)\n      0xfce698f700000000000000000000000000000000000000000000000000000000\n      dup2\n      mstore\n      0x04\n      add\n      tag_234\n      swap2\n      swap1\n      tag_47\n      jump\t// in\n    tag_234:\n      mload(0x40)\n      dup1\n      swap2\n      sub\n      swap1\n      revert\n        /* \"@openzeppelin/contracts/utils/cryptography/ECDSA.sol\":7479:7722  if (error == RecoverError.InvalidSignatureLength) {... */\n    tag_233:\n        /* \"@openzeppelin/contracts/utils/cryptography/ECDSA.sol\":7626:7656  RecoverError.InvalidSignatureS */\n      0x03\n        /* \"@openzeppelin/contracts/utils/cryptography/ECDSA.sol\":7617:7656  error == RecoverError.InvalidSignatureS */\n      dup1\n      dup2\n      gt\n      iszero\n      tag_236\n      jumpi\n      tag_237\n      tag_218\n      jump\t// in\n    tag_237:\n    tag_236:\n        /* \"@openzeppelin/contracts/utils/cryptography/ECDSA.sol\":7617:7622  error */\n      dup3\n        /* \"@openzeppelin/contracts/utils/cryptography/ECDSA.sol\":7617:7656  error == RecoverError.InvalidSignatureS */\n      0x03\n      dup2\n      gt\n      iszero\n      tag_238\n      jumpi\n      tag_239\n      tag_218\n      jump\t// in\n    tag_239:\n    tag_238:\n      sub\n        /* \"@openzeppelin/contracts/utils/cryptography/ECDSA.sol\":7613:7722  if (error == RecoverError.InvalidSignatureS) {... */\n      tag_240\n      jumpi\n        /* \"@openzeppelin/contracts/utils/cryptography/ECDSA.sol\":7702:7710  errorArg */\n      dup1\n        /* \"@openzeppelin/contracts/utils/cryptography/ECDSA.sol\":7679:7711  ECDSAInvalidSignatureS(errorArg) */\n      mload(0x40)\n      0xd78bce0c00000000000000000000000000000000000000000000000000000000\n      dup2\n      mstore\n      0x04\n      add\n      tag_241\n      swap2\n      swap1\n      tag_242\n      jump\t// in\n    tag_241:\n      mload(0x40)\n      dup1\n      swap2\n      sub\n      swap1\n      revert\n        /* \"@openzeppelin/contracts/utils/cryptography/ECDSA.sol\":7613:7722  if (error == RecoverError.InvalidSignatureS) {... */\n    tag_240:\n        /* \"@openzeppelin/contracts/utils/cryptography/ECDSA.sol\":7196:7728  function _throwError(RecoverError error, bytes32 errorArg) private pure {... */\n    tag_215:\n      pop\n      pop\n      jump\t// out\n        /* \"@openzeppelin/contracts/utils/ShortStrings.sol\":3385:3652  function toStringWithFallback(ShortString value, string storage store) internal pure returns (string memory) {... */\n    tag_186:\n        /* \"@openzeppelin/contracts/utils/ShortStrings.sol\":3479:3492  string memory */\n      0x60\n        /* \"@openzeppelin/contracts/utils/ShortStrings.sol\":1390:1456  0x00000000000000000000000000000000000000000000000000000000000000FF */\n      0xff\n        /* \"@openzeppelin/contracts/utils/ShortStrings.sol\":3537:3554  FALLBACK_SENTINEL */\n      0x00\n      shl\n        /* \"@openzeppelin/contracts/utils/ShortStrings.sol\":3527:3532  value */\n      dup4\n        /* \"@openzeppelin/contracts/utils/ShortStrings.sol\":3508:3554  ShortString.unwrap(value) != FALLBACK_SENTINEL */\n      eq\n        /* \"@openzeppelin/contracts/utils/ShortStrings.sol\":3504:3646  if (ShortString.unwrap(value) != FALLBACK_SENTINEL) {... */\n      tag_244\n      jumpi\n        /* \"@openzeppelin/contracts/utils/ShortStrings.sol\":3577:3592  toString(value) */\n      tag_245\n        /* \"@openzeppelin/contracts/utils/ShortStrings.sol\":3586:3591  value */\n      dup4\n        /* \"@openzeppelin/contracts/utils/ShortStrings.sol\":3577:3585  toString */\n      tag_246\n        /* \"@openzeppelin/contracts/utils/ShortStrings.sol\":3577:3592  toString(value) */\n      jump\t// in\n    tag_245:\n        /* \"@openzeppelin/contracts/utils/ShortStrings.sol\":3570:3592  return toString(value) */\n      swap1\n      pop\n      jump(tag_243)\n        /* \"@openzeppelin/contracts/utils/ShortStrings.sol\":3504:3646  if (ShortString.unwrap(value) != FALLBACK_SENTINEL) {... */\n    tag_244:\n        /* \"@openzeppelin/contracts/utils/ShortStrings.sol\":3630:3635  store */\n      dup2\n        /* \"@openzeppelin/contracts/utils/ShortStrings.sol\":3623:3635  return store */\n      dup1\n      sload\n      tag_248\n      swap1\n      tag_169\n      jump\t// in\n    tag_248:\n      dup1\n      0x1f\n      add\n      0x20\n      dup1\n      swap2\n      div\n      mul\n      0x20\n      add\n      mload(0x40)\n      swap1\n      dup2\n      add\n      0x40\n      mstore\n      dup1\n      swap3\n      swap2\n      swap1\n      dup2\n      dup2\n      mstore\n      0x20\n      add\n      dup3\n      dup1\n      sload\n      tag_249\n      swap1\n      tag_169\n      jump\t// in\n    tag_249:\n      dup1\n      iszero\n      tag_250\n      jumpi\n      dup1\n      0x1f\n      lt\n      tag_251\n      jumpi\n      0x0100\n      dup1\n      dup4\n      sload\n      div\n      mul\n      dup4\n      mstore\n      swap2\n      0x20\n      add\n      swap2\n      jump(tag_250)\n    tag_251:\n      dup3\n      add\n      swap2\n      swap1\n      0x00\n      mstore\n      keccak256(0x00, 0x20)\n      swap1\n    tag_252:\n      dup2\n      sload\n      dup2\n      mstore\n      swap1\n      0x01\n      add\n      swap1\n      0x20\n      add\n      dup1\n      dup4\n      gt\n      tag_252\n      jumpi\n      dup3\n      swap1\n      sub\n      0x1f\n      and\n      dup3\n      add\n      swap2\n    tag_250:\n      pop\n      pop\n      pop\n      pop\n      pop\n      swap1\n      pop\n        /* \"@openzeppelin/contracts/utils/ShortStrings.sol\":3385:3652  function toStringWithFallback(ShortString value, string storage store) internal pure returns (string memory) {... */\n    tag_243:\n      swap3\n      swap2\n      pop\n      pop\n      jump\t// out\n        /* \"@openzeppelin/contracts/utils/cryptography/EIP712.sol\":4113:4292  function _buildDomainSeparator() private view returns (bytes32) {... */\n    tag_208:\n        /* \"@openzeppelin/contracts/utils/cryptography/EIP712.sol\":4168:4175  bytes32 */\n      0x00\n        /* \"@openzeppelin/contracts/utils/cryptography/EIP712.sol\":2079:2174  keccak256(\"EIP712Domain(string name,string version,uint256 chainId,address verifyingContract)\") */\n      0x8b73c3c69bb8fe3d512ecc4cf759cc79239f7b179b0ffacaa9a75d522b39400f\n        /* \"@openzeppelin/contracts/utils/cryptography/EIP712.sol\":4226:4237  _hashedName */\n      immutable(\"0xa423c60bc1787d67fffc27d03c64206552502a85ae4c5cd0abbc1461b537b9d1\")\n        /* \"@openzeppelin/contracts/utils/cryptography/EIP712.sol\":4239:4253  _hashedVersion */\n      immutable(\"0x9d86ea630c09ef2f1acbc248368c7b7030882e2a5db3011ef0f1f27cf79c9d56\")\n        /* \"@openzeppelin/contracts/utils/cryptography/EIP712.sol\":4255:4268  block.chainid */\n      chainid\n        /* \"@openzeppelin/contracts/utils/cryptography/EIP712.sol\":4278:4282  this */\n      address\n        /* \"@openzeppelin/contracts/utils/cryptography/EIP712.sol\":4204:4284  abi.encode(TYPE_HASH, _hashedName, _hashedVersion, block.chainid, address(this)) */\n      add(0x20, mload(0x40))\n      tag_254\n      swap6\n      swap5\n      swap4\n      swap3\n      swap2\n      swap1\n      tag_255\n      jump\t// in\n    tag_254:\n      mload(0x40)\n      0x20\n      dup2\n      dup4\n      sub\n      sub\n      dup2\n      mstore\n      swap1\n      0x40\n      mstore\n        /* \"@openzeppelin/contracts/utils/cryptography/EIP712.sol\":4194:4285  keccak256(abi.encode(TYPE_HASH, _hashedName, _hashedVersion, block.chainid, address(this))) */\n      dup1\n      mload\n      swap1\n      0x20\n      add\n      keccak256\n        /* \"@openzeppelin/contracts/utils/cryptography/EIP712.sol\":4187:4285  return keccak256(abi.encode(TYPE_HASH, _hashedName, _hashedVersion, block.chainid, address(this))) */\n      swap1\n      pop\n        /* \"@openzeppelin/contracts/utils/cryptography/EIP712.sol\":4113:4292  function _buildDomainSeparator() private view returns (bytes32) {... */\n      swap1\n      jump\t// out\n        /* \"@openzeppelin/contracts/utils/cryptography/ECDSA.sol\":5140:6670  function tryRecover(... */\n    tag_213:\n        /* \"@openzeppelin/contracts/utils/cryptography/ECDSA.sol\":5266:5273  address */\n      0x00\n        /* \"@openzeppelin/contracts/utils/cryptography/ECDSA.sol\":5275:5287  RecoverError */\n      dup1\n        /* \"@openzeppelin/contracts/utils/cryptography/ECDSA.sol\":5289:5296  bytes32 */\n      0x00\n        /* \"@openzeppelin/contracts/utils/cryptography/ECDSA.sol\":6199:6265  0x7FFFFFFFFFFFFFFFFFFFFFFFFFFFFFFF5D576E7357A4501DDFE92F46681B20A0 */\n      0x7fffffffffffffffffffffffffffffff5d576e7357a4501ddfe92f46681b20a0\n        /* \"@openzeppelin/contracts/utils/cryptography/ECDSA.sol\":6194:6195  s */\n      dup5\n        /* \"@openzeppelin/contracts/utils/cryptography/ECDSA.sol\":6186:6196  uint256(s) */\n      0x00\n      shr\n        /* \"@openzeppelin/contracts/utils/cryptography/ECDSA.sol\":6186:6265  uint256(s) > 0x7FFFFFFFFFFFFFFFFFFFFFFFFFFFFFFF5D576E7357A4501DDFE92F46681B20A0 */\n      gt\n        /* \"@openzeppelin/contracts/utils/cryptography/ECDSA.sol\":6182:6346  if (uint256(s) > 0x7FFFFFFFFFFFFFFFFFFFFFFFFFFFFFFF5D576E7357A4501DDFE92F46681B20A0) {... */\n      iszero\n      tag_257\n      jumpi\n        /* \"@openzeppelin/contracts/utils/cryptography/ECDSA.sol\":6297:6298  0 */\n      0x00\n        /* \"@openzeppelin/contracts/utils/cryptography/ECDSA.sol\":6301:6331  RecoverError.InvalidSignatureS */\n      0x03\n        /* \"@openzeppelin/contracts/utils/cryptography/ECDSA.sol\":6333:6334  s */\n      dup6\n        /* \"@openzeppelin/contracts/utils/cryptography/ECDSA.sol\":6281:6335  return (address(0), RecoverError.InvalidSignatureS, s) */\n      swap3\n      pop\n      swap3\n      pop\n      swap3\n      pop\n      jump(tag_256)\n        /* \"@openzeppelin/contracts/utils/cryptography/ECDSA.sol\":6182:6346  if (uint256(s) > 0x7FFFFFFFFFFFFFFFFFFFFFFFFFFFFFFF5D576E7357A4501DDFE92F46681B20A0) {... */\n    tag_257:\n        /* \"@openzeppelin/contracts/utils/cryptography/ECDSA.sol\":6440:6454  address signer */\n      0x00\n        /* \"@openzeppelin/contracts/utils/cryptography/ECDSA.sol\":6457:6481  ecrecover(hash, v, r, s) */\n      0x01\n        /* \"@openzeppelin/contracts/utils/cryptography/ECDSA.sol\":6467:6471  hash */\n      dup9\n        /* \"@openzeppelin/contracts/utils/cryptography/ECDSA.sol\":6473:6474  v */\n      dup9\n        /* \"@openzeppelin/contracts/utils/cryptography/ECDSA.sol\":6476:6477  r */\n      dup9\n        /* \"@openzeppelin/contracts/utils/cryptography/ECDSA.sol\":6479:6480  s */\n      dup9\n        /* \"@openzeppelin/contracts/utils/cryptography/ECDSA.sol\":6457:6481  ecrecover(hash, v, r, s) */\n      mload(0x40)\n      0x00\n      dup2\n      mstore\n      0x20\n      add\n      0x40\n      mstore\n      mload(0x40)\n      tag_258\n      swap5\n      swap4\n      swap3\n      swap2\n      swap1\n      tag_259\n      jump\t// in\n    tag_258:\n      0x20\n      mload(0x40)\n      0x20\n      dup2\n      sub\n      swap1\n      dup1\n      dup5\n      sub\n      swap1\n      dup6\n      gas\n      staticcall\n      iszero\n      dup1\n      iszero\n      tag_261\n      jumpi\n      returndatasize\n      0x00\n      dup1\n      returndatacopy\n      revert(0x00, returndatasize)\n    tag_261:\n      pop\n      pop\n      pop\n      mload(sub(mload(0x40), 0x20))\n        /* \"@openzeppelin/contracts/utils/cryptography/ECDSA.sol\":6440:6481  address signer = ecrecover(hash, v, r, s) */\n      swap1\n      pop\n        /* \"@openzeppelin/contracts/utils/cryptography/ECDSA.sol\":6513:6514  0 */\n      0x00\n        /* \"@openzeppelin/contracts/utils/cryptography/ECDSA.sol\":6495:6515  signer == address(0) */\n      0xffffffffffffffffffffffffffffffffffffffff\n      and\n        /* \"@openzeppelin/contracts/utils/cryptography/ECDSA.sol\":6495:6501  signer */\n      dup2\n        /* \"@openzeppelin/contracts/utils/cryptography/ECDSA.sol\":6495:6515  signer == address(0) */\n      0xffffffffffffffffffffffffffffffffffffffff\n      and\n      sub\n        /* \"@openzeppelin/contracts/utils/cryptography/ECDSA.sol\":6491:6604  if (signer == address(0)) {... */\n      tag_262\n      jumpi\n        /* \"@openzeppelin/contracts/utils/cryptography/ECDSA.sol\":6547:6548  0 */\n      0x00\n        /* \"@openzeppelin/contracts/utils/cryptography/ECDSA.sol\":6551:6580  RecoverError.InvalidSignature */\n      0x01\n        /* \"@openzeppelin/contracts/utils/cryptography/ECDSA.sol\":6590:6591  0 */\n      0x00\n        /* \"@openzeppelin/contracts/utils/cryptography/ECDSA.sol\":6582:6592  bytes32(0) */\n      dup1\n      shl\n        /* \"@openzeppelin/contracts/utils/cryptography/ECDSA.sol\":6531:6593  return (address(0), RecoverError.InvalidSignature, bytes32(0)) */\n      swap4\n      pop\n      swap4\n      pop\n      swap4\n      pop\n      pop\n      jump(tag_256)\n        /* \"@openzeppelin/contracts/utils/cryptography/ECDSA.sol\":6491:6604  if (signer == address(0)) {... */\n    tag_262:\n        /* \"@openzeppelin/contracts/utils/cryptography/ECDSA.sol\":6622:6628  signer */\n      dup1\n        /* \"@openzeppelin/contracts/utils/cryptography/ECDSA.sol\":6630:6650  RecoverError.NoError */\n      0x00\n        /* \"@openzeppelin/contracts/utils/cryptography/ECDSA.sol\":6660:6661  0 */\n      dup1\n        /* \"@openzeppelin/contracts/utils/cryptography/ECDSA.sol\":6652:6662  bytes32(0) */\n      0x00\n      shl\n        /* \"@openzeppelin/contracts/utils/cryptography/ECDSA.sol\":6614:6663  return (signer, RecoverError.NoError, bytes32(0)) */\n      swap4\n      pop\n      swap4\n      pop\n      swap4\n      pop\n      pop\n        /* \"@openzeppelin/contracts/utils/cryptography/ECDSA.sol\":5140:6670  function tryRecover(... */\n    tag_256:\n      swap5\n      pop\n      swap5\n      pop\n      swap5\n      swap2\n      pop\n      pop\n      jump\t// out\n        /* \"@openzeppelin/contracts/utils/ShortStrings.sol\":2078:2483  function toString(ShortString sstr) internal pure returns (string memory) {... */\n    tag_246:\n        /* \"@openzeppelin/contracts/utils/ShortStrings.sol\":2137:2150  string memory */\n      0x60\n        /* \"@openzeppelin/contracts/utils/ShortStrings.sol\":2162:2173  uint256 len */\n      0x00\n        /* \"@openzeppelin/contracts/utils/ShortStrings.sol\":2176:2192  byteLength(sstr) */\n      tag_264\n        /* \"@openzeppelin/contracts/utils/ShortStrings.sol\":2187:2191  sstr */\n      dup4\n        /* \"@openzeppelin/contracts/utils/ShortStrings.sol\":2176:2186  byteLength */\n      tag_265\n        /* \"@openzeppelin/contracts/utils/ShortStrings.sol\":2176:2192  byteLength(sstr) */\n      jump\t// in\n    tag_264:\n        /* \"@openzeppelin/contracts/utils/ShortStrings.sol\":2162:2192  uint256 len = byteLength(sstr) */\n      swap1\n      pop\n        /* \"@openzeppelin/contracts/utils/ShortStrings.sol\":2280:2297  string memory str */\n      0x00\n        /* \"@openzeppelin/contracts/utils/ShortStrings.sol\":2311:2313  32 */\n      0x20\n        /* \"@openzeppelin/contracts/utils/ShortStrings.sol\":2300:2314  new string(32) */\n      0xffffffffffffffff\n      dup2\n      gt\n      iszero\n      tag_266\n      jumpi\n      tag_267\n      tag_133\n      jump\t// in\n    tag_267:\n    tag_266:\n      mload(0x40)\n      swap1\n      dup1\n      dup3\n      mstore\n      dup1\n      0x1f\n      add\n      not(0x1f)\n      and\n      0x20\n      add\n      dup3\n      add\n      0x40\n      mstore\n      dup1\n      iszero\n      tag_268\n      jumpi\n      dup2\n      0x20\n      add\n      0x01\n      dup3\n      mul\n      dup1\n      calldatasize\n      dup4\n      calldatacopy\n      dup1\n      dup3\n      add\n      swap2\n      pop\n      pop\n      swap1\n      pop\n    tag_268:\n      pop\n        /* \"@openzeppelin/contracts/utils/ShortStrings.sol\":2280:2314  string memory str = new string(32) */\n      swap1\n      pop\n        /* \"@openzeppelin/contracts/utils/ShortStrings.sol\":2402:2405  len */\n      dup2\n        /* \"@openzeppelin/contracts/utils/ShortStrings.sol\":2397:2400  str */\n      dup2\n        /* \"@openzeppelin/contracts/utils/ShortStrings.sol\":2390:2406  mstore(str, len) */\n      mstore\n        /* \"@openzeppelin/contracts/utils/ShortStrings.sol\":2442:2446  sstr */\n      dup4\n        /* \"@openzeppelin/contracts/utils/ShortStrings.sol\":2435:2439  0x20 */\n      0x20\n        /* \"@openzeppelin/contracts/utils/ShortStrings.sol\":2430:2433  str */\n      dup3\n        /* \"@openzeppelin/contracts/utils/ShortStrings.sol\":2426:2440  add(str, 0x20) */\n      add\n        /* \"@openzeppelin/contracts/utils/ShortStrings.sol\":2419:2447  mstore(add(str, 0x20), sstr) */\n      mstore\n        /* \"@openzeppelin/contracts/utils/ShortStrings.sol\":2473:2476  str */\n      dup1\n        /* \"@openzeppelin/contracts/utils/ShortStrings.sol\":2466:2476  return str */\n      swap3\n      pop\n      pop\n      pop\n        /* \"@openzeppelin/contracts/utils/ShortStrings.sol\":2078:2483  function toString(ShortString sstr) internal pure returns (string memory) {... */\n      swap2\n      swap1\n      pop\n      jump\t// out\n        /* \"@openzeppelin/contracts/utils/ShortStrings.sol\":2555:2800  function byteLength(ShortString sstr) internal pure returns (uint256) {... */\n    tag_265:\n        /* \"@openzeppelin/contracts/utils/ShortStrings.sol\":2616:2623  uint256 */\n      0x00\n        /* \"@openzeppelin/contracts/utils/ShortStrings.sol\":2635:2649  uint256 result */\n      dup1\n        /* \"@openzeppelin/contracts/utils/ShortStrings.sol\":2688:2692  0xFF */\n      0xff\n        /* \"@openzeppelin/contracts/utils/ShortStrings.sol\":2679:2683  sstr */\n      dup4\n        /* \"@openzeppelin/contracts/utils/ShortStrings.sol\":2652:2685  uint256(ShortString.unwrap(sstr)) */\n      0x00\n      shr\n        /* \"@openzeppelin/contracts/utils/ShortStrings.sol\":2652:2692  uint256(ShortString.unwrap(sstr)) & 0xFF */\n      and\n        /* \"@openzeppelin/contracts/utils/ShortStrings.sol\":2635:2692  uint256 result = uint256(ShortString.unwrap(sstr)) & 0xFF */\n      swap1\n      pop\n        /* \"@openzeppelin/contracts/utils/ShortStrings.sol\":2715:2717  31 */\n      0x1f\n        /* \"@openzeppelin/contracts/utils/ShortStrings.sol\":2706:2712  result */\n      dup2\n        /* \"@openzeppelin/contracts/utils/ShortStrings.sol\":2706:2717  result > 31 */\n      gt\n        /* \"@openzeppelin/contracts/utils/ShortStrings.sol\":2702:2771  if (result > 31) {... */\n      iszero\n      tag_270\n      jumpi\n        /* \"@openzeppelin/contracts/utils/ShortStrings.sol\":2740:2760  InvalidShortString() */\n      mload(0x40)\n      0xb3512b0c00000000000000000000000000000000000000000000000000000000\n      dup2\n      mstore\n      0x04\n      add\n      mload(0x40)\n      dup1\n      swap2\n      sub\n      swap1\n      revert\n        /* \"@openzeppelin/contracts/utils/ShortStrings.sol\":2702:2771  if (result > 31) {... */\n    tag_270:\n        /* \"@openzeppelin/contracts/utils/ShortStrings.sol\":2787:2793  result */\n      dup1\n        /* \"@openzeppelin/contracts/utils/ShortStrings.sol\":2780:2793  return result */\n      swap2\n      pop\n      pop\n        /* \"@openzeppelin/contracts/utils/ShortStrings.sol\":2555:2800  function byteLength(ShortString sstr) internal pure returns (uint256) {... */\n      swap2\n      swap1\n      pop\n      jump\t// out\n        /* \"#utility.yul\":7:82   */\n    tag_271:\n        /* \"#utility.yul\":40:46   */\n      0x00\n        /* \"#utility.yul\":73:75   */\n      0x40\n        /* \"#utility.yul\":67:76   */\n      mload\n        /* \"#utility.yul\":57:76   */\n      swap1\n      pop\n        /* \"#utility.yul\":7:82   */\n      swap1\n      jump\t// out\n        /* \"#utility.yul\":88:205   */\n    tag_272:\n        /* \"#utility.yul\":197:198   */\n      0x00\n        /* \"#utility.yul\":194:195   */\n      dup1\n        /* \"#utility.yul\":187:199   */\n      revert\n        /* \"#utility.yul\":211:328   */\n    tag_273:\n        /* \"#utility.yul\":320:321   */\n      0x00\n        /* \"#utility.yul\":317:318   */\n      dup1\n        /* \"#utility.yul\":310:322   */\n      revert\n        /* \"#utility.yul\":334:451   */\n    tag_274:\n        /* \"#utility.yul\":443:444   */\n      0x00\n        /* \"#utility.yul\":440:441   */\n      dup1\n        /* \"#utility.yul\":433:445   */\n      revert\n        /* \"#utility.yul\":457:574   */\n    tag_275:\n        /* \"#utility.yul\":566:567   */\n      0x00\n        /* \"#utility.yul\":563:564   */\n      dup1\n        /* \"#utility.yul\":556:568   */\n      revert\n        /* \"#utility.yul\":580:697   */\n    tag_276:\n        /* \"#utility.yul\":689:690   */\n      0x00\n        /* \"#utility.yul\":686:687   */\n      dup1\n        /* \"#utility.yul\":679:691   */\n      revert\n        /* \"#utility.yul\":716:1268   */\n    tag_277:\n        /* \"#utility.yul\":773:781   */\n      0x00\n        /* \"#utility.yul\":783:789   */\n      dup1\n        /* \"#utility.yul\":833:836   */\n      dup4\n        /* \"#utility.yul\":826:830   */\n      0x1f\n        /* \"#utility.yul\":818:824   */\n      dup5\n        /* \"#utility.yul\":814:831   */\n      add\n        /* \"#utility.yul\":810:837   */\n      slt\n        /* \"#utility.yul\":800:922   */\n      tag_353\n      jumpi\n        /* \"#utility.yul\":841:920   */\n      tag_354\n      tag_274\n      jump\t// in\n    tag_354:\n        /* \"#utility.yul\":800:922   */\n    tag_353:\n        /* \"#utility.yul\":954:960   */\n      dup3\n        /* \"#utility.yul\":941:961   */\n      calldataload\n        /* \"#utility.yul\":931:961   */\n      swap1\n      pop\n        /* \"#utility.yul\":984:1002   */\n      0xffffffffffffffff\n        /* \"#utility.yul\":976:982   */\n      dup2\n        /* \"#utility.yul\":973:1003   */\n      gt\n        /* \"#utility.yul\":970:1087   */\n      iszero\n      tag_355\n      jumpi\n        /* \"#utility.yul\":1006:1085   */\n      tag_356\n      tag_275\n      jump\t// in\n    tag_356:\n        /* \"#utility.yul\":970:1087   */\n    tag_355:\n        /* \"#utility.yul\":1120:1124   */\n      0x20\n        /* \"#utility.yul\":1112:1118   */\n      dup4\n        /* \"#utility.yul\":1108:1125   */\n      add\n        /* \"#utility.yul\":1096:1125   */\n      swap2\n      pop\n        /* \"#utility.yul\":1174:1177   */\n      dup4\n        /* \"#utility.yul\":1166:1170   */\n      0x01\n        /* \"#utility.yul\":1158:1164   */\n      dup3\n        /* \"#utility.yul\":1154:1171   */\n      mul\n        /* \"#utility.yul\":1144:1152   */\n      dup4\n        /* \"#utility.yul\":1140:1172   */\n      add\n        /* \"#utility.yul\":1137:1178   */\n      gt\n        /* \"#utility.yul\":1134:1262   */\n      iszero\n      tag_357\n      jumpi\n        /* \"#utility.yul\":1181:1260   */\n      tag_358\n      tag_276\n      jump\t// in\n    tag_358:\n        /* \"#utility.yul\":1134:1262   */\n    tag_357:\n        /* \"#utility.yul\":716:1268   */\n      swap3\n      pop\n      swap3\n      swap1\n      pop\n      jump\t// out\n        /* \"#utility.yul\":1274:1801   */\n    tag_23:\n        /* \"#utility.yul\":1344:1350   */\n      0x00\n        /* \"#utility.yul\":1352:1358   */\n      dup1\n        /* \"#utility.yul\":1401:1403   */\n      0x20\n        /* \"#utility.yul\":1389:1398   */\n      dup4\n        /* \"#utility.yul\":1380:1387   */\n      dup6\n        /* \"#utility.yul\":1376:1399   */\n      sub\n        /* \"#utility.yul\":1372:1404   */\n      slt\n        /* \"#utility.yul\":1369:1488   */\n      iszero\n      tag_360\n      jumpi\n        /* \"#utility.yul\":1407:1486   */\n      tag_361\n      tag_272\n      jump\t// in\n    tag_361:\n        /* \"#utility.yul\":1369:1488   */\n    tag_360:\n        /* \"#utility.yul\":1555:1556   */\n      0x00\n        /* \"#utility.yul\":1544:1553   */\n      dup4\n        /* \"#utility.yul\":1540:1557   */\n      add\n        /* \"#utility.yul\":1527:1558   */\n      calldataload\n        /* \"#utility.yul\":1585:1603   */\n      0xffffffffffffffff\n        /* \"#utility.yul\":1577:1583   */\n      dup2\n        /* \"#utility.yul\":1574:1604   */\n      gt\n        /* \"#utility.yul\":1571:1688   */\n      iszero\n      tag_362\n      jumpi\n        /* \"#utility.yul\":1607:1686   */\n      tag_363\n      tag_273\n      jump\t// in\n    tag_363:\n        /* \"#utility.yul\":1571:1688   */\n    tag_362:\n        /* \"#utility.yul\":1720:1784   */\n      tag_364\n        /* \"#utility.yul\":1776:1783   */\n      dup6\n        /* \"#utility.yul\":1767:1773   */\n      dup3\n        /* \"#utility.yul\":1756:1765   */\n      dup7\n        /* \"#utility.yul\":1752:1774   */\n      add\n        /* \"#utility.yul\":1720:1784   */\n      tag_277\n      jump\t// in\n    tag_364:\n        /* \"#utility.yul\":1702:1784   */\n      swap3\n      pop\n      swap3\n      pop\n        /* \"#utility.yul\":1498:1794   */\n      pop\n        /* \"#utility.yul\":1274:1801   */\n      swap3\n      pop\n      swap3\n      swap1\n      pop\n      jump\t// out\n        /* \"#utility.yul\":1807:1933   */\n    tag_278:\n        /* \"#utility.yul\":1844:1851   */\n      0x00\n        /* \"#utility.yul\":1884:1926   */\n      0xffffffffffffffffffffffffffffffffffffffff\n        /* \"#utility.yul\":1877:1882   */\n      dup3\n        /* \"#utility.yul\":1873:1927   */\n      and\n        /* \"#utility.yul\":1862:1927   */\n      swap1\n      pop\n        /* \"#utility.yul\":1807:1933   */\n      swap2\n      swap1\n      pop\n      jump\t// out\n        /* \"#utility.yul\":1939:2035   */\n    tag_279:\n        /* \"#utility.yul\":1976:1983   */\n      0x00\n        /* \"#utility.yul\":2005:2029   */\n      tag_367\n        /* \"#utility.yul\":2023:2028   */\n      dup3\n        /* \"#utility.yul\":2005:2029   */\n      tag_278\n      jump\t// in\n    tag_367:\n        /* \"#utility.yul\":1994:2029   */\n      swap1\n      pop\n        /* \"#utility.yul\":1939:2035   */\n      swap2\n      swap1\n      pop\n      jump\t// out\n        /* \"#utility.yul\":2041:2163   */\n    tag_280:\n        /* \"#utility.yul\":2114:2138   */\n      tag_369\n        /* \"#utility.yul\":2132:2137   */\n      dup2\n        /* \"#utility.yul\":2114:2138   */\n      tag_279\n      jump\t// in\n    tag_369:\n        /* \"#utility.yul\":2107:2112   */\n      dup2\n        /* \"#utility.yul\":2104:2139   */\n      eq\n        /* \"#utility.yul\":2094:2157   */\n      tag_370\n      jumpi\n        /* \"#utility.yul\":2153:2154   */\n      0x00\n        /* \"#utility.yul\":2150:2151   */\n      dup1\n        /* \"#utility.yul\":2143:2155   */\n      revert\n        /* \"#utility.yul\":2094:2157   */\n    tag_370:\n        /* \"#utility.yul\":2041:2163   */\n      pop\n      jump\t// out\n        /* \"#utility.yul\":2169:2308   */\n    tag_281:\n        /* \"#utility.yul\":2215:2220   */\n      0x00\n        /* \"#utility.yul\":2253:2259   */\n      dup2\n        /* \"#utility.yul\":2240:2260   */\n      calldataload\n        /* \"#utility.yul\":2231:2260   */\n      swap1\n      pop\n        /* \"#utility.yul\":2269:2302   */\n      tag_372\n        /* \"#utility.yul\":2296:2301   */\n      dup2\n        /* \"#utility.yul\":2269:2302   */\n      tag_280\n      jump\t// in\n    tag_372:\n        /* \"#utility.yul\":2169:2308   */\n      swap3\n      swap2\n      pop\n      pop\n      jump\t// out\n        /* \"#utility.yul\":2314:2643   */\n    tag_28:\n        /* \"#utility.yul\":2373:2379   */\n      0x00\n        /* \"#utility.yul\":2422:2424   */\n      0x20\n        /* \"#utility.yul\":2410:2419   */\n      dup3\n        /* \"#utility.yul\":2401:2408   */\n      dup5\n        /* \"#utility.yul\":2397:2420   */\n      sub\n        /* \"#utility.yul\":2393:2425   */\n      slt\n        /* \"#utility.yul\":2390:2509   */\n      iszero\n      tag_374\n      jumpi\n        /* \"#utility.yul\":2428:2507   */\n      tag_375\n      tag_272\n      jump\t// in\n    tag_375:\n        /* \"#utility.yul\":2390:2509   */\n    tag_374:\n        /* \"#utility.yul\":2548:2549   */\n      0x00\n        /* \"#utility.yul\":2573:2626   */\n      tag_376\n        /* \"#utility.yul\":2618:2625   */\n      dup5\n        /* \"#utility.yul\":2609:2615   */\n      dup3\n        /* \"#utility.yul\":2598:2607   */\n      dup6\n        /* \"#utility.yul\":2594:2616   */\n      add\n        /* \"#utility.yul\":2573:2626   */\n      tag_281\n      jump\t// in\n    tag_376:\n        /* \"#utility.yul\":2563:2626   */\n      swap2\n      pop\n        /* \"#utility.yul\":2519:2636   */\n      pop\n        /* \"#utility.yul\":2314:2643   */\n      swap3\n      swap2\n      pop\n      pop\n      jump\t// out\n        /* \"#utility.yul\":2649:2739   */\n    tag_282:\n        /* \"#utility.yul\":2683:2690   */\n      0x00\n        /* \"#utility.yul\":2726:2731   */\n      dup2\n        /* \"#utility.yul\":2719:2732   */\n      iszero\n        /* \"#utility.yul\":2712:2733   */\n      iszero\n        /* \"#utility.yul\":2701:2733   */\n      swap1\n      pop\n        /* \"#utility.yul\":2649:2739   */\n      swap2\n      swap1\n      pop\n      jump\t// out\n        /* \"#utility.yul\":2745:2854   */\n    tag_283:\n        /* \"#utility.yul\":2826:2847   */\n      tag_379\n        /* \"#utility.yul\":2841:2846   */\n      dup2\n        /* \"#utility.yul\":2826:2847   */\n      tag_282\n      jump\t// in\n    tag_379:\n        /* \"#utility.yul\":2821:2824   */\n      dup3\n        /* \"#utility.yul\":2814:2848   */\n      mstore\n        /* \"#utility.yul\":2745:2854   */\n      pop\n      pop\n      jump\t// out\n        /* \"#utility.yul\":2860:3070   */\n    tag_31:\n        /* \"#utility.yul\":2947:2951   */\n      0x00\n        /* \"#utility.yul\":2985:2987   */\n      0x20\n        /* \"#utility.yul\":2974:2983   */\n      dup3\n        /* \"#utility.yul\":2970:2988   */\n      add\n        /* \"#utility.yul\":2962:2988   */\n      swap1\n      pop\n        /* \"#utility.yul\":2998:3063   */\n      tag_381\n        /* \"#utility.yul\":3060:3061   */\n      0x00\n        /* \"#utility.yul\":3049:3058   */\n      dup4\n        /* \"#utility.yul\":3045:3062   */\n      add\n        /* \"#utility.yul\":3036:3042   */\n      dup5\n        /* \"#utility.yul\":2998:3063   */\n      tag_283\n      jump\t// in\n    tag_381:\n        /* \"#utility.yul\":2860:3070   */\n      swap3\n      swap2\n      pop\n      pop\n      jump\t// out\n        /* \"#utility.yul\":3076:3153   */\n    tag_284:\n        /* \"#utility.yul\":3113:3120   */\n      0x00\n        /* \"#utility.yul\":3142:3147   */\n      dup2\n        /* \"#utility.yul\":3131:3147   */\n      swap1\n      pop\n        /* \"#utility.yul\":3076:3153   */\n      swap2\n      swap1\n      pop\n      jump\t// out\n        /* \"#utility.yul\":3159:3281   */\n    tag_285:\n        /* \"#utility.yul\":3232:3256   */\n      tag_384\n        /* \"#utility.yul\":3250:3255   */\n      dup2\n        /* \"#utility.yul\":3232:3256   */\n      tag_284\n      jump\t// in\n    tag_384:\n        /* \"#utility.yul\":3225:3230   */\n      dup2\n        /* \"#utility.yul\":3222:3257   */\n      eq\n        /* \"#utility.yul\":3212:3275   */\n      tag_385\n      jumpi\n        /* \"#utility.yul\":3271:3272   */\n      0x00\n        /* \"#utility.yul\":3268:3269   */\n      dup1\n        /* \"#utility.yul\":3261:3273   */\n      revert\n        /* \"#utility.yul\":3212:3275   */\n    tag_385:\n        /* \"#utility.yul\":3159:3281   */\n      pop\n      jump\t// out\n        /* \"#utility.yul\":3287:3426   */\n    tag_286:\n        /* \"#utility.yul\":3333:3338   */\n      0x00\n        /* \"#utility.yul\":3371:3377   */\n      dup2\n        /* \"#utility.yul\":3358:3378   */\n      calldataload\n        /* \"#utility.yul\":3349:3378   */\n      swap1\n      pop\n        /* \"#utility.yul\":3387:3420   */\n      tag_387\n        /* \"#utility.yul\":3414:3419   */\n      dup2\n        /* \"#utility.yul\":3387:3420   */\n      tag_285\n      jump\t// in\n    tag_387:\n        /* \"#utility.yul\":3287:3426   */\n      swap3\n      swap2\n      pop\n      pop\n      jump\t// out\n        /* \"#utility.yul\":3432:3906   */\n    tag_35:\n        /* \"#utility.yul\":3500:3506   */\n      0x00\n        /* \"#utility.yul\":3508:3514   */\n      dup1\n        /* \"#utility.yul\":3557:3559   */\n      0x40\n        /* \"#utility.yul\":3545:3554   */\n      dup4\n        /* \"#utility.yul\":3536:3543   */\n      dup6\n        /* \"#utility.yul\":3532:3555   */\n      sub\n        /* \"#utility.yul\":3528:3560   */\n      slt\n        /* \"#utility.yul\":3525:3644   */\n      iszero\n      tag_389\n      jumpi\n        /* \"#utility.yul\":3563:3642   */\n      tag_390\n      tag_272\n      jump\t// in\n    tag_390:\n        /* \"#utility.yul\":3525:3644   */\n    tag_389:\n        /* \"#utility.yul\":3683:3684   */\n      0x00\n        /* \"#utility.yul\":3708:3761   */\n      tag_391\n        /* \"#utility.yul\":3753:3760   */\n      dup6\n        /* \"#utility.yul\":3744:3750   */\n      dup3\n        /* \"#utility.yul\":3733:3742   */\n      dup7\n        /* \"#utility.yul\":3729:3751   */\n      add\n        /* \"#utility.yul\":3708:3761   */\n      tag_281\n      jump\t// in\n    tag_391:\n        /* \"#utility.yul\":3698:3761   */\n      swap3\n      pop\n        /* \"#utility.yul\":3654:3771   */\n      pop\n        /* \"#utility.yul\":3810:3812   */\n      0x20\n        /* \"#utility.yul\":3836:3889   */\n      tag_392\n        /* \"#utility.yul\":3881:3888   */\n      dup6\n        /* \"#utility.yul\":3872:3878   */\n      dup3\n        /* \"#utility.yul\":3861:3870   */\n      dup7\n        /* \"#utility.yul\":3857:3879   */\n      add\n        /* \"#utility.yul\":3836:3889   */\n      tag_286\n      jump\t// in\n    tag_392:\n        /* \"#utility.yul\":3826:3889   */\n      swap2\n      pop\n        /* \"#utility.yul\":3781:3899   */\n      pop\n        /* \"#utility.yul\":3432:3906   */\n      swap3\n      pop\n      swap3\n      swap1\n      pop\n      jump\t// out\n        /* \"#utility.yul\":3912:4241   */\n    tag_40:\n        /* \"#utility.yul\":3971:3977   */\n      0x00\n        /* \"#utility.yul\":4020:4022   */\n      0x20\n        /* \"#utility.yul\":4008:4017   */\n      dup3\n        /* \"#utility.yul\":3999:4006   */\n      dup5\n        /* \"#utility.yul\":3995:4018   */\n      sub\n        /* \"#utility.yul\":3991:4023   */\n      slt\n        /* \"#utility.yul\":3988:4107   */\n      iszero\n      tag_394\n      jumpi\n        /* \"#utility.yul\":4026:4105   */\n      tag_395\n      tag_272\n      jump\t// in\n    tag_395:\n        /* \"#utility.yul\":3988:4107   */\n    tag_394:\n        /* \"#utility.yul\":4146:4147   */\n      0x00\n        /* \"#utility.yul\":4171:4224   */\n      tag_396\n        /* \"#utility.yul\":4216:4223   */\n      dup5\n        /* \"#utility.yul\":4207:4213   */\n      dup3\n        /* \"#utility.yul\":4196:4205   */\n      dup6\n        /* \"#utility.yul\":4192:4214   */\n      add\n        /* \"#utility.yul\":4171:4224   */\n      tag_286\n      jump\t// in\n    tag_396:\n        /* \"#utility.yul\":4161:4224   */\n      swap2\n      pop\n        /* \"#utility.yul\":4117:4234   */\n      pop\n        /* \"#utility.yul\":3912:4241   */\n      swap3\n      swap2\n      pop\n      pop\n      jump\t// out\n        /* \"#utility.yul\":4247:4365   */\n    tag_287:\n        /* \"#utility.yul\":4334:4358   */\n      tag_398\n        /* \"#utility.yul\":4352:4357   */\n      dup2\n        /* \"#utility.yul\":4334:4358   */\n      tag_284\n      jump\t// in\n    tag_398:\n        /* \"#utility.yul\":4329:4332   */\n      dup3\n        /* \"#utility.yul\":4322:4359   */\n      mstore\n        /* \"#utility.yul\":4247:4365   */\n      pop\n      pop\n      jump\t// out\n        /* \"#utility.yul\":4371:4593   */\n    tag_47:\n        /* \"#utility.yul\":4464:4468   */\n      0x00\n        /* \"#utility.yul\":4502:4504   */\n      0x20\n        /* \"#utility.yul\":4491:4500   */\n      dup3\n        /* \"#utility.yul\":4487:4505   */\n      add\n        /* \"#utility.yul\":4479:4505   */\n      swap1\n      pop\n        /* \"#utility.yul\":4515:4586   */\n      tag_400\n        /* \"#utility.yul\":4583:4584   */\n      0x00\n        /* \"#utility.yul\":4572:4581   */\n      dup4\n        /* \"#utility.yul\":4568:4585   */\n      add\n        /* \"#utility.yul\":4559:4565   */\n      dup5\n        /* \"#utility.yul\":4515:4586   */\n      tag_287\n      jump\t// in\n    tag_400:\n        /* \"#utility.yul\":4371:4593   */\n      swap3\n      swap2\n      pop\n      pop\n      jump\t// out\n        /* \"#utility.yul\":4599:4748   */\n    tag_288:\n        /* \"#utility.yul\":4635:4642   */\n      0x00\n        /* \"#utility.yul\":4675:4741   */\n      0xff00000000000000000000000000000000000000000000000000000000000000\n        /* \"#utility.yul\":4668:4673   */\n      dup3\n        /* \"#utility.yul\":4664:4742   */\n      and\n        /* \"#utility.yul\":4653:4742   */\n      swap1\n      pop\n        /* \"#utility.yul\":4599:4748   */\n      swap2\n      swap1\n      pop\n      jump\t// out\n        /* \"#utility.yul\":4754:4869   */\n    tag_289:\n        /* \"#utility.yul\":4839:4862   */\n      tag_403\n        /* \"#utility.yul\":4856:4861   */\n      dup2\n        /* \"#utility.yul\":4839:4862   */\n      tag_288\n      jump\t// in\n    tag_403:\n        /* \"#utility.yul\":4834:4837   */\n      dup3\n        /* \"#utility.yul\":4827:4863   */\n      mstore\n        /* \"#utility.yul\":4754:4869   */\n      pop\n      pop\n      jump\t// out\n        /* \"#utility.yul\":4875:4974   */\n    tag_290:\n        /* \"#utility.yul\":4927:4933   */\n      0x00\n        /* \"#utility.yul\":4961:4966   */\n      dup2\n        /* \"#utility.yul\":4955:4967   */\n      mload\n        /* \"#utility.yul\":4945:4967   */\n      swap1\n      pop\n        /* \"#utility.yul\":4875:4974   */\n      swap2\n      swap1\n      pop\n      jump\t// out\n        /* \"#utility.yul\":4980:5149   */\n    tag_291:\n        /* \"#utility.yul\":5064:5075   */\n      0x00\n        /* \"#utility.yul\":5098:5104   */\n      dup3\n        /* \"#utility.yul\":5093:5096   */\n      dup3\n        /* \"#utility.yul\":5086:5105   */\n      mstore\n        /* \"#utility.yul\":5138:5142   */\n      0x20\n        /* \"#utility.yul\":5133:5136   */\n      dup3\n        /* \"#utility.yul\":5129:5143   */\n      add\n        /* \"#utility.yul\":5114:5143   */\n      swap1\n      pop\n        /* \"#utility.yul\":4980:5149   */\n      swap3\n      swap2\n      pop\n      pop\n      jump\t// out\n        /* \"#utility.yul\":5155:5401   */\n    tag_292:\n        /* \"#utility.yul\":5236:5237   */\n      0x00\n        /* \"#utility.yul\":5246:5359   */\n    tag_407:\n        /* \"#utility.yul\":5260:5266   */\n      dup4\n        /* \"#utility.yul\":5257:5258   */\n      dup2\n        /* \"#utility.yul\":5254:5267   */\n      lt\n        /* \"#utility.yul\":5246:5359   */\n      iszero\n      tag_409\n      jumpi\n        /* \"#utility.yul\":5345:5346   */\n      dup1\n        /* \"#utility.yul\":5340:5343   */\n      dup3\n        /* \"#utility.yul\":5336:5347   */\n      add\n        /* \"#utility.yul\":5330:5348   */\n      mload\n        /* \"#utility.yul\":5326:5327   */\n      dup2\n        /* \"#utility.yul\":5321:5324   */\n      dup5\n        /* \"#utility.yul\":5317:5328   */\n      add\n        /* \"#utility.yul\":5310:5349   */\n      mstore\n        /* \"#utility.yul\":5282:5284   */\n      0x20\n        /* \"#utility.yul\":5279:5280   */\n      dup2\n        /* \"#utility.yul\":5275:5285   */\n      add\n        /* \"#utility.yul\":5270:5285   */\n      swap1\n      pop\n        /* \"#utility.yul\":5246:5359   */\n      jump(tag_407)\n    tag_409:\n        /* \"#utility.yul\":5393:5394   */\n      0x00\n        /* \"#utility.yul\":5384:5390   */\n      dup5\n        /* \"#utility.yul\":5379:5382   */\n      dup5\n        /* \"#utility.yul\":5375:5391   */\n      add\n        /* \"#utility.yul\":5368:5395   */\n      mstore\n        /* \"#utility.yul\":5217:5401   */\n      pop\n        /* \"#utility.yul\":5155:5401   */\n      pop\n      pop\n      pop\n      jump\t// out\n        /* \"#utility.yul\":5407:5509   */\n    tag_293:\n        /* \"#utility.yul\":5448:5454   */\n      0x00\n        /* \"#utility.yul\":5499:5501   */\n      0x1f\n        /* \"#utility.yul\":5495:5502   */\n      not\n        /* \"#utility.yul\":5490:5492   */\n      0x1f\n        /* \"#utility.yul\":5483:5488   */\n      dup4\n        /* \"#utility.yul\":5479:5493   */\n      add\n        /* \"#utility.yul\":5475:5503   */\n      and\n        /* \"#utility.yul\":5465:5503   */\n      swap1\n      pop\n        /* \"#utility.yul\":5407:5509   */\n      swap2\n      swap1\n      pop\n      jump\t// out\n        /* \"#utility.yul\":5515:5892   */\n    tag_294:\n        /* \"#utility.yul\":5603:5606   */\n      0x00\n        /* \"#utility.yul\":5631:5670   */\n      tag_412\n        /* \"#utility.yul\":5664:5669   */\n      dup3\n        /* \"#utility.yul\":5631:5670   */\n      tag_290\n      jump\t// in\n    tag_412:\n        /* \"#utility.yul\":5686:5757   */\n      tag_413\n        /* \"#utility.yul\":5750:5756   */\n      dup2\n        /* \"#utility.yul\":5745:5748   */\n      dup6\n        /* \"#utility.yul\":5686:5757   */\n      tag_291\n      jump\t// in\n    tag_413:\n        /* \"#utility.yul\":5679:5757   */\n      swap4\n      pop\n        /* \"#utility.yul\":5766:5831   */\n      tag_414\n        /* \"#utility.yul\":5824:5830   */\n      dup2\n        /* \"#utility.yul\":5819:5822   */\n      dup6\n        /* \"#utility.yul\":5812:5816   */\n      0x20\n        /* \"#utility.yul\":5805:5810   */\n      dup7\n        /* \"#utility.yul\":5801:5817   */\n      add\n        /* \"#utility.yul\":5766:5831   */\n      tag_292\n      jump\t// in\n    tag_414:\n        /* \"#utility.yul\":5856:5885   */\n      tag_415\n        /* \"#utility.yul\":5878:5884   */\n      dup2\n        /* \"#utility.yul\":5856:5885   */\n      tag_293\n      jump\t// in\n    tag_415:\n        /* \"#utility.yul\":5851:5854   */\n      dup5\n        /* \"#utility.yul\":5847:5886   */\n      add\n        /* \"#utility.yul\":5840:5886   */\n      swap2\n      pop\n        /* \"#utility.yul\":5607:5892   */\n      pop\n        /* \"#utility.yul\":5515:5892   */\n      swap3\n      swap2\n      pop\n      pop\n      jump\t// out\n        /* \"#utility.yul\":5898:6016   */\n    tag_295:\n        /* \"#utility.yul\":5985:6009   */\n      tag_417\n        /* \"#utility.yul\":6003:6008   */\n      dup2\n        /* \"#utility.yul\":5985:6009   */\n      tag_279\n      jump\t// in\n    tag_417:\n        /* \"#utility.yul\":5980:5983   */\n      dup3\n        /* \"#utility.yul\":5973:6010   */\n      mstore\n        /* \"#utility.yul\":5898:6016   */\n      pop\n      pop\n      jump\t// out\n        /* \"#utility.yul\":6022:6099   */\n    tag_296:\n        /* \"#utility.yul\":6059:6066   */\n      0x00\n        /* \"#utility.yul\":6088:6093   */\n      dup2\n        /* \"#utility.yul\":6077:6093   */\n      swap1\n      pop\n        /* \"#utility.yul\":6022:6099   */\n      swap2\n      swap1\n      pop\n      jump\t// out\n        /* \"#utility.yul\":6105:6223   */\n    tag_297:\n        /* \"#utility.yul\":6192:6216   */\n      tag_420\n        /* \"#utility.yul\":6210:6215   */\n      dup2\n        /* \"#utility.yul\":6192:6216   */\n      tag_296\n      jump\t// in\n    tag_420:\n        /* \"#utility.yul\":6187:6190   */\n      dup3\n        /* \"#utility.yul\":6180:6217   */\n      mstore\n        /* \"#utility.yul\":6105:6223   */\n      pop\n      pop\n      jump\t// out\n        /* \"#utility.yul\":6229:6343   */\n    tag_298:\n        /* \"#utility.yul\":6296:6302   */\n      0x00\n        /* \"#utility.yul\":6330:6335   */\n      dup2\n        /* \"#utility.yul\":6324:6336   */\n      mload\n        /* \"#utility.yul\":6314:6336   */\n      swap1\n      pop\n        /* \"#utility.yul\":6229:6343   */\n      swap2\n      swap1\n      pop\n      jump\t// out\n        /* \"#utility.yul\":6349:6533   */\n    tag_299:\n        /* \"#utility.yul\":6448:6459   */\n      0x00\n        /* \"#utility.yul\":6482:6488   */\n      dup3\n        /* \"#utility.yul\":6477:6480   */\n      dup3\n        /* \"#utility.yul\":6470:6489   */\n      mstore\n        /* \"#utility.yul\":6522:6526   */\n      0x20\n        /* \"#utility.yul\":6517:6520   */\n      dup3\n        /* \"#utility.yul\":6513:6527   */\n      add\n        /* \"#utility.yul\":6498:6527   */\n      swap1\n      pop\n        /* \"#utility.yul\":6349:6533   */\n      swap3\n      swap2\n      pop\n      pop\n      jump\t// out\n        /* \"#utility.yul\":6539:6671   */\n    tag_300:\n        /* \"#utility.yul\":6606:6610   */\n      0x00\n        /* \"#utility.yul\":6629:6632   */\n      dup2\n        /* \"#utility.yul\":6621:6632   */\n      swap1\n      pop\n        /* \"#utility.yul\":6659:6663   */\n      0x20\n        /* \"#utility.yul\":6654:6657   */\n      dup3\n        /* \"#utility.yul\":6650:6664   */\n      add\n        /* \"#utility.yul\":6642:6664   */\n      swap1\n      pop\n        /* \"#utility.yul\":6539:6671   */\n      swap2\n      swap1\n      pop\n      jump\t// out\n        /* \"#utility.yul\":6677:6785   */\n    tag_301:\n        /* \"#utility.yul\":6754:6778   */\n      tag_425\n        /* \"#utility.yul\":6772:6777   */\n      dup2\n        /* \"#utility.yul\":6754:6778   */\n      tag_284\n      jump\t// in\n    tag_425:\n        /* \"#utility.yul\":6749:6752   */\n      dup3\n        /* \"#utility.yul\":6742:6779   */\n      mstore\n        /* \"#utility.yul\":6677:6785   */\n      pop\n      pop\n      jump\t// out\n        /* \"#utility.yul\":6791:6970   */\n    tag_302:\n        /* \"#utility.yul\":6860:6870   */\n      0x00\n        /* \"#utility.yul\":6881:6927   */\n      tag_427\n        /* \"#utility.yul\":6923:6926   */\n      dup4\n        /* \"#utility.yul\":6915:6921   */\n      dup4\n        /* \"#utility.yul\":6881:6927   */\n      tag_301\n      jump\t// in\n    tag_427:\n        /* \"#utility.yul\":6959:6963   */\n      0x20\n        /* \"#utility.yul\":6954:6957   */\n      dup4\n        /* \"#utility.yul\":6950:6964   */\n      add\n        /* \"#utility.yul\":6936:6964   */\n      swap1\n      pop\n        /* \"#utility.yul\":6791:6970   */\n      swap3\n      swap2\n      pop\n      pop\n      jump\t// out\n        /* \"#utility.yul\":6976:7089   */\n    tag_303:\n        /* \"#utility.yul\":7046:7050   */\n      0x00\n        /* \"#utility.yul\":7078:7082   */\n      0x20\n        /* \"#utility.yul\":7073:7076   */\n      dup3\n        /* \"#utility.yul\":7069:7083   */\n      add\n        /* \"#utility.yul\":7061:7083   */\n      swap1\n      pop\n        /* \"#utility.yul\":6976:7089   */\n      swap2\n      swap1\n      pop\n      jump\t// out\n        /* \"#utility.yul\":7125:7857   */\n    tag_304:\n        /* \"#utility.yul\":7244:7247   */\n      0x00\n        /* \"#utility.yul\":7273:7327   */\n      tag_430\n        /* \"#utility.yul\":7321:7326   */\n      dup3\n        /* \"#utility.yul\":7273:7327   */\n      tag_298\n      jump\t// in\n    tag_430:\n        /* \"#utility.yul\":7343:7429   */\n      tag_431\n        /* \"#utility.yul\":7422:7428   */\n      dup2\n        /* \"#utility.yul\":7417:7420   */\n      dup6\n        /* \"#utility.yul\":7343:7429   */\n      tag_299\n      jump\t// in\n    tag_431:\n        /* \"#utility.yul\":7336:7429   */\n      swap4\n      pop\n        /* \"#utility.yul\":7453:7509   */\n      tag_432\n        /* \"#utility.yul\":7503:7508   */\n      dup4\n        /* \"#utility.yul\":7453:7509   */\n      tag_300\n      jump\t// in\n    tag_432:\n        /* \"#utility.yul\":7532:7539   */\n      dup1\n        /* \"#utility.yul\":7563:7564   */\n      0x00\n        /* \"#utility.yul\":7548:7832   */\n    tag_433:\n        /* \"#utility.yul\":7573:7579   */\n      dup4\n        /* \"#utility.yul\":7570:7571   */\n      dup2\n        /* \"#utility.yul\":7567:7580   */\n      lt\n        /* \"#utility.yul\":7548:7832   */\n      iszero\n      tag_435\n      jumpi\n        /* \"#utility.yul\":7649:7655   */\n      dup2\n        /* \"#utility.yul\":7643:7656   */\n      mload\n        /* \"#utility.yul\":7676:7739   */\n      tag_436\n        /* \"#utility.yul\":7735:7738   */\n      dup9\n        /* \"#utility.yul\":7720:7733   */\n      dup3\n        /* \"#utility.yul\":7676:7739   */\n      tag_302\n      jump\t// in\n    tag_436:\n        /* \"#utility.yul\":7669:7739   */\n      swap8\n      pop\n        /* \"#utility.yul\":7762:7822   */\n      tag_437\n        /* \"#utility.yul\":7815:7821   */\n      dup4\n        /* \"#utility.yul\":7762:7822   */\n      tag_303\n      jump\t// in\n    tag_437:\n        /* \"#utility.yul\":7752:7822   */\n      swap3\n      pop\n        /* \"#utility.yul\":7608:7832   */\n      pop\n        /* \"#utility.yul\":7595:7596   */\n      0x01\n        /* \"#utility.yul\":7592:7593   */\n      dup2\n        /* \"#utility.yul\":7588:7597   */\n      add\n        /* \"#utility.yul\":7583:7597   */\n      swap1\n      pop\n        /* \"#utility.yul\":7548:7832   */\n      jump(tag_433)\n    tag_435:\n        /* \"#utility.yul\":7552:7566   */\n      pop\n        /* \"#utility.yul\":7848:7851   */\n      dup6\n        /* \"#utility.yul\":7841:7851   */\n      swap4\n      pop\n        /* \"#utility.yul\":7249:7857   */\n      pop\n      pop\n      pop\n        /* \"#utility.yul\":7125:7857   */\n      swap3\n      swap2\n      pop\n      pop\n      jump\t// out\n        /* \"#utility.yul\":7863:9078   */\n    tag_52:\n        /* \"#utility.yul\":8212:8216   */\n      0x00\n        /* \"#utility.yul\":8250:8253   */\n      0xe0\n        /* \"#utility.yul\":8239:8248   */\n      dup3\n        /* \"#utility.yul\":8235:8254   */\n      add\n        /* \"#utility.yul\":8227:8254   */\n      swap1\n      pop\n        /* \"#utility.yul\":8264:8333   */\n      tag_439\n        /* \"#utility.yul\":8330:8331   */\n      0x00\n        /* \"#utility.yul\":8319:8328   */\n      dup4\n        /* \"#utility.yul\":8315:8332   */\n      add\n        /* \"#utility.yul\":8306:8312   */\n      dup11\n        /* \"#utility.yul\":8264:8333   */\n      tag_289\n      jump\t// in\n    tag_439:\n        /* \"#utility.yul\":8380:8389   */\n      dup2\n        /* \"#utility.yul\":8374:8378   */\n      dup2\n        /* \"#utility.yul\":8370:8390   */\n      sub\n        /* \"#utility.yul\":8365:8367   */\n      0x20\n        /* \"#utility.yul\":8354:8363   */\n      dup4\n        /* \"#utility.yul\":8350:8368   */\n      add\n        /* \"#utility.yul\":8343:8391   */\n      mstore\n        /* \"#utility.yul\":8408:8486   */\n      tag_440\n        /* \"#utility.yul\":8481:8485   */\n      dup2\n        /* \"#utility.yul\":8472:8478   */\n      dup10\n        /* \"#utility.yul\":8408:8486   */\n      tag_294\n      jump\t// in\n    tag_440:\n        /* \"#utility.yul\":8400:8486   */\n      swap1\n      pop\n        /* \"#utility.yul\":8533:8542   */\n      dup2\n        /* \"#utility.yul\":8527:8531   */\n      dup2\n        /* \"#utility.yul\":8523:8543   */\n      sub\n        /* \"#utility.yul\":8518:8520   */\n      0x40\n        /* \"#utility.yul\":8507:8516   */\n      dup4\n        /* \"#utility.yul\":8503:8521   */\n      add\n        /* \"#utility.yul\":8496:8544   */\n      mstore\n        /* \"#utility.yul\":8561:8639   */\n      tag_441\n        /* \"#utility.yul\":8634:8638   */\n      dup2\n        /* \"#utility.yul\":8625:8631   */\n      dup9\n        /* \"#utility.yul\":8561:8639   */\n      tag_294\n      jump\t// in\n    tag_441:\n        /* \"#utility.yul\":8553:8639   */\n      swap1\n      pop\n        /* \"#utility.yul\":8649:8721   */\n      tag_442\n        /* \"#utility.yul\":8717:8719   */\n      0x60\n        /* \"#utility.yul\":8706:8715   */\n      dup4\n        /* \"#utility.yul\":8702:8720   */\n      add\n        /* \"#utility.yul\":8693:8699   */\n      dup8\n        /* \"#utility.yul\":8649:8721   */\n      tag_287\n      jump\t// in\n    tag_442:\n        /* \"#utility.yul\":8731:8804   */\n      tag_443\n        /* \"#utility.yul\":8799:8802   */\n      0x80\n        /* \"#utility.yul\":8788:8797   */\n      dup4\n        /* \"#utility.yul\":8784:8803   */\n      add\n        /* \"#utility.yul\":8775:8781   */\n      dup7\n        /* \"#utility.yul\":8731:8804   */\n      tag_295\n      jump\t// in\n    tag_443:\n        /* \"#utility.yul\":8814:8887   */\n      tag_444\n        /* \"#utility.yul\":8882:8885   */\n      0xa0\n        /* \"#utility.yul\":8871:8880   */\n      dup4\n        /* \"#utility.yul\":8867:8886   */\n      add\n        /* \"#utility.yul\":8858:8864   */\n      dup6\n        /* \"#utility.yul\":8814:8887   */\n      tag_297\n      jump\t// in\n    tag_444:\n        /* \"#utility.yul\":8935:8944   */\n      dup2\n        /* \"#utility.yul\":8929:8933   */\n      dup2\n        /* \"#utility.yul\":8925:8945   */\n      sub\n        /* \"#utility.yul\":8919:8922   */\n      0xc0\n        /* \"#utility.yul\":8908:8917   */\n      dup4\n        /* \"#utility.yul\":8904:8923   */\n      add\n        /* \"#utility.yul\":8897:8946   */\n      mstore\n        /* \"#utility.yul\":8963:9071   */\n      tag_445\n        /* \"#utility.yul\":9066:9070   */\n      dup2\n        /* \"#utility.yul\":9057:9063   */\n      dup5\n        /* \"#utility.yul\":8963:9071   */\n      tag_304\n      jump\t// in\n    tag_445:\n        /* \"#utility.yul\":8955:9071   */\n      swap1\n      pop\n        /* \"#utility.yul\":7863:9078   */\n      swap9\n      swap8\n      pop\n      pop\n      pop\n      pop\n      pop\n      pop\n      pop\n      pop\n      jump\t// out\n        /* \"#utility.yul\":9084:9201   */\n    tag_305:\n        /* \"#utility.yul\":9193:9194   */\n      0x00\n        /* \"#utility.yul\":9190:9191   */\n      dup1\n        /* \"#utility.yul\":9183:9195   */\n      revert\n        /* \"#utility.yul\":9207:9387   */\n    tag_133:\n        /* \"#utility.yul\":9255:9332   */\n      0x4e487b7100000000000000000000000000000000000000000000000000000000\n        /* \"#utility.yul\":9252:9253   */\n      0x00\n        /* \"#utility.yul\":9245:9333   */\n      mstore\n        /* \"#utility.yul\":9352:9356   */\n      0x41\n        /* \"#utility.yul\":9349:9350   */\n      0x04\n        /* \"#utility.yul\":9342:9357   */\n      mstore\n        /* \"#utility.yul\":9376:9380   */\n      0x24\n        /* \"#utility.yul\":9373:9374   */\n      0x00\n        /* \"#utility.yul\":9366:9381   */\n      revert\n        /* \"#utility.yul\":9393:9674   */\n    tag_306:\n        /* \"#utility.yul\":9476:9503   */\n      tag_449\n        /* \"#utility.yul\":9498:9502   */\n      dup3\n        /* \"#utility.yul\":9476:9503   */\n      tag_293\n      jump\t// in\n    tag_449:\n        /* \"#utility.yul\":9468:9474   */\n      dup2\n        /* \"#utility.yul\":9464:9504   */\n      add\n        /* \"#utility.yul\":9606:9612   */\n      dup2\n        /* \"#utility.yul\":9594:9604   */\n      dup2\n        /* \"#utility.yul\":9591:9613   */\n      lt\n        /* \"#utility.yul\":9570:9588   */\n      0xffffffffffffffff\n        /* \"#utility.yul\":9558:9568   */\n      dup3\n        /* \"#utility.yul\":9555:9589   */\n      gt\n        /* \"#utility.yul\":9552:9614   */\n      or\n        /* \"#utility.yul\":9549:9637   */\n      iszero\n      tag_450\n      jumpi\n        /* \"#utility.yul\":9617:9635   */\n      tag_451\n      tag_133\n      jump\t// in\n    tag_451:\n        /* \"#utility.yul\":9549:9637   */\n    tag_450:\n        /* \"#utility.yul\":9657:9667   */\n      dup1\n        /* \"#utility.yul\":9653:9655   */\n      0x40\n        /* \"#utility.yul\":9646:9668   */\n      mstore\n        /* \"#utility.yul\":9436:9674   */\n      pop\n        /* \"#utility.yul\":9393:9674   */\n      pop\n      pop\n      jump\t// out\n        /* \"#utility.yul\":9680:9809   */\n    tag_307:\n        /* \"#utility.yul\":9714:9720   */\n      0x00\n        /* \"#utility.yul\":9741:9761   */\n      tag_453\n      tag_271\n      jump\t// in\n    tag_453:\n        /* \"#utility.yul\":9731:9761   */\n      swap1\n      pop\n        /* \"#utility.yul\":9770:9803   */\n      tag_454\n        /* \"#utility.yul\":9798:9802   */\n      dup3\n        /* \"#utility.yul\":9790:9796   */\n      dup3\n        /* \"#utility.yul\":9770:9803   */\n      tag_306\n      jump\t// in\n    tag_454:\n        /* \"#utility.yul\":9680:9809   */\n      swap2\n      swap1\n      pop\n      jump\t// out\n        /* \"#utility.yul\":9815:10123   */\n    tag_308:\n        /* \"#utility.yul\":9877:9881   */\n      0x00\n        /* \"#utility.yul\":9967:9985   */\n      0xffffffffffffffff\n        /* \"#utility.yul\":9959:9965   */\n      dup3\n        /* \"#utility.yul\":9956:9986   */\n      gt\n        /* \"#utility.yul\":9953:10009   */\n      iszero\n      tag_456\n      jumpi\n        /* \"#utility.yul\":9989:10007   */\n      tag_457\n      tag_133\n      jump\t// in\n    tag_457:\n        /* \"#utility.yul\":9953:10009   */\n    tag_456:\n        /* \"#utility.yul\":10027:10056   */\n      tag_458\n        /* \"#utility.yul\":10049:10055   */\n      dup3\n        /* \"#utility.yul\":10027:10056   */\n      tag_293\n      jump\t// in\n    tag_458:\n        /* \"#utility.yul\":10019:10056   */\n      swap1\n      pop\n        /* \"#utility.yul\":10111:10115   */\n      0x20\n        /* \"#utility.yul\":10105:10109   */\n      dup2\n        /* \"#utility.yul\":10101:10116   */\n      add\n        /* \"#utility.yul\":10093:10116   */\n      swap1\n      pop\n        /* \"#utility.yul\":9815:10123   */\n      swap2\n      swap1\n      pop\n      jump\t// out\n        /* \"#utility.yul\":10129:10275   */\n    tag_309:\n        /* \"#utility.yul\":10226:10232   */\n      dup3\n        /* \"#utility.yul\":10221:10224   */\n      dup2\n        /* \"#utility.yul\":10216:10219   */\n      dup4\n        /* \"#utility.yul\":10203:10233   */\n      calldatacopy\n        /* \"#utility.yul\":10267:10268   */\n      0x00\n        /* \"#utility.yul\":10258:10264   */\n      dup4\n        /* \"#utility.yul\":10253:10256   */\n      dup4\n        /* \"#utility.yul\":10249:10265   */\n      add\n        /* \"#utility.yul\":10242:10269   */\n      mstore\n        /* \"#utility.yul\":10129:10275   */\n      pop\n      pop\n      pop\n      jump\t// out\n        /* \"#utility.yul\":10281:10706   */\n    tag_310:\n        /* \"#utility.yul\":10359:10364   */\n      0x00\n        /* \"#utility.yul\":10384:10450   */\n      tag_461\n        /* \"#utility.yul\":10400:10449   */\n      tag_462\n        /* \"#utility.yul\":10442:10448   */\n      dup5\n        /* \"#utility.yul\":10400:10449   */\n      tag_308\n      jump\t// in\n    tag_462:\n        /* \"#utility.yul\":10384:10450   */\n      tag_307\n      jump\t// in\n    tag_461:\n        /* \"#utility.yul\":10375:10450   */\n      swap1\n      pop\n        /* \"#utility.yul\":10473:10479   */\n      dup3\n        /* \"#utility.yul\":10466:10471   */\n      dup2\n        /* \"#utility.yul\":10459:10480   */\n      mstore\n        /* \"#utility.yul\":10511:10515   */\n      0x20\n        /* \"#utility.yul\":10504:10509   */\n      dup2\n        /* \"#utility.yul\":10500:10516   */\n      add\n        /* \"#utility.yul\":10549:10552   */\n      dup5\n        /* \"#utility.yul\":10540:10546   */\n      dup5\n        /* \"#utility.yul\":10535:10538   */\n      dup5\n        /* \"#utility.yul\":10531:10547   */\n      add\n        /* \"#utility.yul\":10528:10553   */\n      gt\n        /* \"#utility.yul\":10525:10637   */\n      iszero\n      tag_463\n      jumpi\n        /* \"#utility.yul\":10556:10635   */\n      tag_464\n      tag_305\n      jump\t// in\n    tag_464:\n        /* \"#utility.yul\":10525:10637   */\n    tag_463:\n        /* \"#utility.yul\":10646:10700   */\n      tag_465\n        /* \"#utility.yul\":10693:10699   */\n      dup5\n        /* \"#utility.yul\":10688:10691   */\n      dup3\n        /* \"#utility.yul\":10683:10686   */\n      dup6\n        /* \"#utility.yul\":10646:10700   */\n      tag_309\n      jump\t// in\n    tag_465:\n        /* \"#utility.yul\":10365:10706   */\n      pop\n        /* \"#utility.yul\":10281:10706   */\n      swap4\n      swap3\n      pop\n      pop\n      pop\n      jump\t// out\n        /* \"#utility.yul\":10726:11066   */\n    tag_311:\n        /* \"#utility.yul\":10782:10787   */\n      0x00\n        /* \"#utility.yul\":10831:10834   */\n      dup3\n        /* \"#utility.yul\":10824:10828   */\n      0x1f\n        /* \"#utility.yul\":10816:10822   */\n      dup4\n        /* \"#utility.yul\":10812:10829   */\n      add\n        /* \"#utility.yul\":10808:10835   */\n      slt\n        /* \"#utility.yul\":10798:10920   */\n      tag_467\n      jumpi\n        /* \"#utility.yul\":10839:10918   */\n      tag_468\n      tag_274\n      jump\t// in\n    tag_468:\n        /* \"#utility.yul\":10798:10920   */\n    tag_467:\n        /* \"#utility.yul\":10956:10962   */\n      dup2\n        /* \"#utility.yul\":10943:10963   */\n      calldataload\n        /* \"#utility.yul\":10981:11060   */\n      tag_469\n        /* \"#utility.yul\":11056:11059   */\n      dup5\n        /* \"#utility.yul\":11048:11054   */\n      dup3\n        /* \"#utility.yul\":11041:11045   */\n      0x20\n        /* \"#utility.yul\":11033:11039   */\n      dup7\n        /* \"#utility.yul\":11029:11046   */\n      add\n        /* \"#utility.yul\":10981:11060   */\n      tag_310\n      jump\t// in\n    tag_469:\n        /* \"#utility.yul\":10972:11060   */\n      swap2\n      pop\n        /* \"#utility.yul\":10788:11066   */\n      pop\n        /* \"#utility.yul\":10726:11066   */\n      swap3\n      swap2\n      pop\n      pop\n      jump\t// out\n        /* \"#utility.yul\":11072:11726   */\n    tag_56:\n        /* \"#utility.yul\":11150:11156   */\n      0x00\n        /* \"#utility.yul\":11158:11164   */\n      dup1\n        /* \"#utility.yul\":11207:11209   */\n      0x40\n        /* \"#utility.yul\":11195:11204   */\n      dup4\n        /* \"#utility.yul\":11186:11193   */\n      dup6\n        /* \"#utility.yul\":11182:11205   */\n      sub\n        /* \"#utility.yul\":11178:11210   */\n      slt\n        /* \"#utility.yul\":11175:11294   */\n      iszero\n      tag_471\n      jumpi\n        /* \"#utility.yul\":11213:11292   */\n      tag_472\n      tag_272\n      jump\t// in\n    tag_472:\n        /* \"#utility.yul\":11175:11294   */\n    tag_471:\n        /* \"#utility.yul\":11361:11362   */\n      0x00\n        /* \"#utility.yul\":11350:11359   */\n      dup4\n        /* \"#utility.yul\":11346:11363   */\n      add\n        /* \"#utility.yul\":11333:11364   */\n      calldataload\n        /* \"#utility.yul\":11391:11409   */\n      0xffffffffffffffff\n        /* \"#utility.yul\":11383:11389   */\n      dup2\n        /* \"#utility.yul\":11380:11410   */\n      gt\n        /* \"#utility.yul\":11377:11494   */\n      iszero\n      tag_473\n      jumpi\n        /* \"#utility.yul\":11413:11492   */\n      tag_474\n      tag_273\n      jump\t// in\n    tag_474:\n        /* \"#utility.yul\":11377:11494   */\n    tag_473:\n        /* \"#utility.yul\":11518:11581   */\n      tag_475\n        /* \"#utility.yul\":11573:11580   */\n      dup6\n        /* \"#utility.yul\":11564:11570   */\n      dup3\n        /* \"#utility.yul\":11553:11562   */\n      dup7\n        /* \"#utility.yul\":11549:11571   */\n      add\n        /* \"#utility.yul\":11518:11581   */\n      tag_311\n      jump\t// in\n    tag_475:\n        /* \"#utility.yul\":11508:11581   */\n      swap3\n      pop\n        /* \"#utility.yul\":11304:11591   */\n      pop\n        /* \"#utility.yul\":11630:11632   */\n      0x20\n        /* \"#utility.yul\":11656:11709   */\n      tag_476\n        /* \"#utility.yul\":11701:11708   */\n      dup6\n        /* \"#utility.yul\":11692:11698   */\n      dup3\n        /* \"#utility.yul\":11681:11690   */\n      dup7\n        /* \"#utility.yul\":11677:11699   */\n      add\n        /* \"#utility.yul\":11656:11709   */\n      tag_286\n      jump\t// in\n    tag_476:\n        /* \"#utility.yul\":11646:11709   */\n      swap2\n      pop\n        /* \"#utility.yul\":11601:11719   */\n      pop\n        /* \"#utility.yul\":11072:11726   */\n      swap3\n      pop\n      swap3\n      swap1\n      pop\n      jump\t// out\n        /* \"#utility.yul\":11732:11954   */\n    tag_70:\n        /* \"#utility.yul\":11825:11829   */\n      0x00\n        /* \"#utility.yul\":11863:11865   */\n      0x20\n        /* \"#utility.yul\":11852:11861   */\n      dup3\n        /* \"#utility.yul\":11848:11866   */\n      add\n        /* \"#utility.yul\":11840:11866   */\n      swap1\n      pop\n        /* \"#utility.yul\":11876:11947   */\n      tag_478\n        /* \"#utility.yul\":11944:11945   */\n      0x00\n        /* \"#utility.yul\":11933:11942   */\n      dup4\n        /* \"#utility.yul\":11929:11946   */\n      add\n        /* \"#utility.yul\":11920:11926   */\n      dup5\n        /* \"#utility.yul\":11876:11947   */\n      tag_295\n      jump\t// in\n    tag_478:\n        /* \"#utility.yul\":11732:11954   */\n      swap3\n      swap2\n      pop\n      pop\n      jump\t// out\n        /* \"#utility.yul\":11960:12469   */\n    tag_74:\n        /* \"#utility.yul\":12029:12035   */\n      0x00\n        /* \"#utility.yul\":12078:12080   */\n      0x20\n        /* \"#utility.yul\":12066:12075   */\n      dup3\n        /* \"#utility.yul\":12057:12064   */\n      dup5\n        /* \"#utility.yul\":12053:12076   */\n      sub\n        /* \"#utility.yul\":12049:12081   */\n      slt\n        /* \"#utility.yul\":12046:12165   */\n      iszero\n      tag_480\n      jumpi\n        /* \"#utility.yul\":12084:12163   */\n      tag_481\n      tag_272\n      jump\t// in\n    tag_481:\n        /* \"#utility.yul\":12046:12165   */\n    tag_480:\n        /* \"#utility.yul\":12232:12233   */\n      0x00\n        /* \"#utility.yul\":12221:12230   */\n      dup3\n        /* \"#utility.yul\":12217:12234   */\n      add\n        /* \"#utility.yul\":12204:12235   */\n      calldataload\n        /* \"#utility.yul\":12262:12280   */\n      0xffffffffffffffff\n        /* \"#utility.yul\":12254:12260   */\n      dup2\n        /* \"#utility.yul\":12251:12281   */\n      gt\n        /* \"#utility.yul\":12248:12365   */\n      iszero\n      tag_482\n      jumpi\n        /* \"#utility.yul\":12284:12363   */\n      tag_483\n      tag_273\n      jump\t// in\n    tag_483:\n        /* \"#utility.yul\":12248:12365   */\n    tag_482:\n        /* \"#utility.yul\":12389:12452   */\n      tag_484\n        /* \"#utility.yul\":12444:12451   */\n      dup5\n        /* \"#utility.yul\":12435:12441   */\n      dup3\n        /* \"#utility.yul\":12424:12433   */\n      dup6\n        /* \"#utility.yul\":12420:12442   */\n      add\n        /* \"#utility.yul\":12389:12452   */\n      tag_311\n      jump\t// in\n    tag_484:\n        /* \"#utility.yul\":12379:12452   */\n      swap2\n      pop\n        /* \"#utility.yul\":12175:12462   */\n      pop\n        /* \"#utility.yul\":11960:12469   */\n      swap3\n      swap2\n      pop\n      pop\n      jump\t// out\n        /* \"#utility.yul\":12475:12788   */\n    tag_77:\n        /* \"#utility.yul\":12588:12592   */\n      0x00\n        /* \"#utility.yul\":12626:12628   */\n      0x20\n        /* \"#utility.yul\":12615:12624   */\n      dup3\n        /* \"#utility.yul\":12611:12629   */\n      add\n        /* \"#utility.yul\":12603:12629   */\n      swap1\n      pop\n        /* \"#utility.yul\":12675:12684   */\n      dup2\n        /* \"#utility.yul\":12669:12673   */\n      dup2\n        /* \"#utility.yul\":12665:12685   */\n      sub\n        /* \"#utility.yul\":12661:12662   */\n      0x00\n        /* \"#utility.yul\":12650:12659   */\n      dup4\n        /* \"#utility.yul\":12646:12663   */\n      add\n        /* \"#utility.yul\":12639:12686   */\n      mstore\n        /* \"#utility.yul\":12703:12781   */\n      tag_486\n        /* \"#utility.yul\":12776:12780   */\n      dup2\n        /* \"#utility.yul\":12767:12773   */\n      dup5\n        /* \"#utility.yul\":12703:12781   */\n      tag_294\n      jump\t// in\n    tag_486:\n        /* \"#utility.yul\":12695:12781   */\n      swap1\n      pop\n        /* \"#utility.yul\":12475:12788   */\n      swap3\n      swap2\n      pop\n      pop\n      jump\t// out\n        /* \"#utility.yul\":12794:13126   */\n    tag_85:\n        /* \"#utility.yul\":12915:12919   */\n      0x00\n        /* \"#utility.yul\":12953:12955   */\n      0x40\n        /* \"#utility.yul\":12942:12951   */\n      dup3\n        /* \"#utility.yul\":12938:12956   */\n      add\n        /* \"#utility.yul\":12930:12956   */\n      swap1\n      pop\n        /* \"#utility.yul\":12966:13037   */\n      tag_488\n        /* \"#utility.yul\":13034:13035   */\n      0x00\n        /* \"#utility.yul\":13023:13032   */\n      dup4\n        /* \"#utility.yul\":13019:13036   */\n      add\n        /* \"#utility.yul\":13010:13016   */\n      dup6\n        /* \"#utility.yul\":12966:13037   */\n      tag_295\n      jump\t// in\n    tag_488:\n        /* \"#utility.yul\":13047:13119   */\n      tag_489\n        /* \"#utility.yul\":13115:13117   */\n      0x20\n        /* \"#utility.yul\":13104:13113   */\n      dup4\n        /* \"#utility.yul\":13100:13118   */\n      add\n        /* \"#utility.yul\":13091:13097   */\n      dup5\n        /* \"#utility.yul\":13047:13119   */\n      tag_287\n      jump\t// in\n    tag_489:\n        /* \"#utility.yul\":12794:13126   */\n      swap4\n      swap3\n      pop\n      pop\n      pop\n      jump\t// out\n        /* \"#utility.yul\":13132:13653   */\n    tag_95:\n        /* \"#utility.yul\":13295:13299   */\n      0x00\n        /* \"#utility.yul\":13333:13335   */\n      0x60\n        /* \"#utility.yul\":13322:13331   */\n      dup3\n        /* \"#utility.yul\":13318:13336   */\n      add\n        /* \"#utility.yul\":13310:13336   */\n      swap1\n      pop\n        /* \"#utility.yul\":13382:13391   */\n      dup2\n        /* \"#utility.yul\":13376:13380   */\n      dup2\n        /* \"#utility.yul\":13372:13392   */\n      sub\n        /* \"#utility.yul\":13368:13369   */\n      0x00\n        /* \"#utility.yul\":13357:13366   */\n      dup4\n        /* \"#utility.yul\":13353:13370   */\n      add\n        /* \"#utility.yul\":13346:13393   */\n      mstore\n        /* \"#utility.yul\":13410:13488   */\n      tag_491\n        /* \"#utility.yul\":13483:13487   */\n      dup2\n        /* \"#utility.yul\":13474:13480   */\n      dup7\n        /* \"#utility.yul\":13410:13488   */\n      tag_294\n      jump\t// in\n    tag_491:\n        /* \"#utility.yul\":13402:13488   */\n      swap1\n      pop\n        /* \"#utility.yul\":13498:13570   */\n      tag_492\n        /* \"#utility.yul\":13566:13568   */\n      0x20\n        /* \"#utility.yul\":13555:13564   */\n      dup4\n        /* \"#utility.yul\":13551:13569   */\n      add\n        /* \"#utility.yul\":13542:13548   */\n      dup6\n        /* \"#utility.yul\":13498:13570   */\n      tag_287\n      jump\t// in\n    tag_492:\n        /* \"#utility.yul\":13580:13646   */\n      tag_493\n        /* \"#utility.yul\":13642:13644   */\n      0x40\n        /* \"#utility.yul\":13631:13640   */\n      dup4\n        /* \"#utility.yul\":13627:13645   */\n      add\n        /* \"#utility.yul\":13618:13624   */\n      dup5\n        /* \"#utility.yul\":13580:13646   */\n      tag_283\n      jump\t// in\n    tag_493:\n        /* \"#utility.yul\":13132:13653   */\n      swap5\n      swap4\n      pop\n      pop\n      pop\n      pop\n      jump\t// out\n        /* \"#utility.yul\":13659:13841   */\n    tag_312:\n        /* \"#utility.yul\":13799:13833   */\n      0x6d75737420626520616e20617274697374206f66207468652070726f6a656374\n        /* \"#utility.yul\":13795:13796   */\n      0x00\n        /* \"#utility.yul\":13787:13793   */\n      dup3\n        /* \"#utility.yul\":13783:13797   */\n      add\n        /* \"#utility.yul\":13776:13834   */\n      mstore\n        /* \"#utility.yul\":13659:13841   */\n      pop\n      jump\t// out\n        /* \"#utility.yul\":13847:14213   */\n    tag_313:\n        /* \"#utility.yul\":13989:13992   */\n      0x00\n        /* \"#utility.yul\":14010:14077   */\n      tag_496\n        /* \"#utility.yul\":14074:14076   */\n      0x20\n        /* \"#utility.yul\":14069:14072   */\n      dup4\n        /* \"#utility.yul\":14010:14077   */\n      tag_291\n      jump\t// in\n    tag_496:\n        /* \"#utility.yul\":14003:14077   */\n      swap2\n      pop\n        /* \"#utility.yul\":14086:14179   */\n      tag_497\n        /* \"#utility.yul\":14175:14178   */\n      dup3\n        /* \"#utility.yul\":14086:14179   */\n      tag_312\n      jump\t// in\n    tag_497:\n        /* \"#utility.yul\":14204:14206   */\n      0x20\n        /* \"#utility.yul\":14199:14202   */\n      dup3\n        /* \"#utility.yul\":14195:14207   */\n      add\n        /* \"#utility.yul\":14188:14207   */\n      swap1\n      pop\n        /* \"#utility.yul\":13847:14213   */\n      swap2\n      swap1\n      pop\n      jump\t// out\n        /* \"#utility.yul\":14219:14638   */\n    tag_99:\n        /* \"#utility.yul\":14385:14389   */\n      0x00\n        /* \"#utility.yul\":14423:14425   */\n      0x20\n        /* \"#utility.yul\":14412:14421   */\n      dup3\n        /* \"#utility.yul\":14408:14426   */\n      add\n        /* \"#utility.yul\":14400:14426   */\n      swap1\n      pop\n        /* \"#utility.yul\":14472:14481   */\n      dup2\n        /* \"#utility.yul\":14466:14470   */\n      dup2\n        /* \"#utility.yul\":14462:14482   */\n      sub\n        /* \"#utility.yul\":14458:14459   */\n      0x00\n        /* \"#utility.yul\":14447:14456   */\n      dup4\n        /* \"#utility.yul\":14443:14460   */\n      add\n        /* \"#utility.yul\":14436:14483   */\n      mstore\n        /* \"#utility.yul\":14500:14631   */\n      tag_499\n        /* \"#utility.yul\":14626:14630   */\n      dup2\n        /* \"#utility.yul\":14500:14631   */\n      tag_313\n      jump\t// in\n    tag_499:\n        /* \"#utility.yul\":14492:14631   */\n      swap1\n      pop\n        /* \"#utility.yul\":14219:14638   */\n      swap2\n      swap1\n      pop\n      jump\t// out\n        /* \"#utility.yul\":14644:14976   */\n    tag_102:\n        /* \"#utility.yul\":14765:14769   */\n      0x00\n        /* \"#utility.yul\":14803:14805   */\n      0x40\n        /* \"#utility.yul\":14792:14801   */\n      dup3\n        /* \"#utility.yul\":14788:14806   */\n      add\n        /* \"#utility.yul\":14780:14806   */\n      swap1\n      pop\n        /* \"#utility.yul\":14816:14887   */\n      tag_501\n        /* \"#utility.yul\":14884:14885   */\n      0x00\n        /* \"#utility.yul\":14873:14882   */\n      dup4\n        /* \"#utility.yul\":14869:14886   */\n      add\n        /* \"#utility.yul\":14860:14866   */\n      dup6\n        /* \"#utility.yul\":14816:14887   */\n      tag_297\n      jump\t// in\n    tag_501:\n        /* \"#utility.yul\":14897:14969   */\n      tag_502\n        /* \"#utility.yul\":14965:14967   */\n      0x20\n        /* \"#utility.yul\":14954:14963   */\n      dup4\n        /* \"#utility.yul\":14950:14968   */\n      add\n        /* \"#utility.yul\":14941:14947   */\n      dup5\n        /* \"#utility.yul\":14897:14969   */\n      tag_295\n      jump\t// in\n    tag_502:\n        /* \"#utility.yul\":14644:14976   */\n      swap4\n      swap3\n      pop\n      pop\n      pop\n      jump\t// out\n        /* \"#utility.yul\":14982:15149   */\n    tag_314:\n        /* \"#utility.yul\":15122:15141   */\n      0x696e76616c6964207369676e6174757265000000000000000000000000000000\n        /* \"#utility.yul\":15118:15119   */\n      0x00\n        /* \"#utility.yul\":15110:15116   */\n      dup3\n        /* \"#utility.yul\":15106:15120   */\n      add\n        /* \"#utility.yul\":15099:15142   */\n      mstore\n        /* \"#utility.yul\":14982:15149   */\n      pop\n      jump\t// out\n        /* \"#utility.yul\":15155:15521   */\n    tag_315:\n        /* \"#utility.yul\":15297:15300   */\n      0x00\n        /* \"#utility.yul\":15318:15385   */\n      tag_505\n        /* \"#utility.yul\":15382:15384   */\n      0x11\n        /* \"#utility.yul\":15377:15380   */\n      dup4\n        /* \"#utility.yul\":15318:15385   */\n      tag_291\n      jump\t// in\n    tag_505:\n        /* \"#utility.yul\":15311:15385   */\n      swap2\n      pop\n        /* \"#utility.yul\":15394:15487   */\n      tag_506\n        /* \"#utility.yul\":15483:15486   */\n      dup3\n        /* \"#utility.yul\":15394:15487   */\n      tag_314\n      jump\t// in\n    tag_506:\n        /* \"#utility.yul\":15512:15514   */\n      0x20\n        /* \"#utility.yul\":15507:15510   */\n      dup3\n        /* \"#utility.yul\":15503:15515   */\n      add\n        /* \"#utility.yul\":15496:15515   */\n      swap1\n      pop\n        /* \"#utility.yul\":15155:15521   */\n      swap2\n      swap1\n      pop\n      jump\t// out\n        /* \"#utility.yul\":15527:15946   */\n    tag_108:\n        /* \"#utility.yul\":15693:15697   */\n      0x00\n        /* \"#utility.yul\":15731:15733   */\n      0x20\n        /* \"#utility.yul\":15720:15729   */\n      dup3\n        /* \"#utility.yul\":15716:15734   */\n      add\n        /* \"#utility.yul\":15708:15734   */\n      swap1\n      pop\n        /* \"#utility.yul\":15780:15789   */\n      dup2\n        /* \"#utility.yul\":15774:15778   */\n      dup2\n        /* \"#utility.yul\":15770:15790   */\n      sub\n        /* \"#utility.yul\":15766:15767   */\n      0x00\n        /* \"#utility.yul\":15755:15764   */\n      dup4\n        /* \"#utility.yul\":15751:15768   */\n      add\n        /* \"#utility.yul\":15744:15791   */\n      mstore\n        /* \"#utility.yul\":15808:15939   */\n      tag_508\n        /* \"#utility.yul\":15934:15938   */\n      dup2\n        /* \"#utility.yul\":15808:15939   */\n      tag_315\n      jump\t// in\n    tag_508:\n        /* \"#utility.yul\":15800:15939   */\n      swap1\n      pop\n        /* \"#utility.yul\":15527:15946   */\n      swap2\n      swap1\n      pop\n      jump\t// out\n        /* \"#utility.yul\":15952:16176   */\n    tag_316:\n        /* \"#utility.yul\":16092:16126   */\n      0x4f6e6c7920746865206f776e65722063616e2063616c6c20746869732066756e\n        /* \"#utility.yul\":16088:16089   */\n      0x00\n        /* \"#utility.yul\":16080:16086   */\n      dup3\n        /* \"#utility.yul\":16076:16090   */\n      add\n        /* \"#utility.yul\":16069:16127   */\n      mstore\n        /* \"#utility.yul\":16161:16168   */\n      0x6374696f6e000000000000000000000000000000000000000000000000000000\n        /* \"#utility.yul\":16156:16158   */\n      0x20\n        /* \"#utility.yul\":16148:16154   */\n      dup3\n        /* \"#utility.yul\":16144:16159   */\n      add\n        /* \"#utility.yul\":16137:16169   */\n      mstore\n        /* \"#utility.yul\":15952:16176   */\n      pop\n      jump\t// out\n        /* \"#utility.yul\":16182:16548   */\n    tag_317:\n        /* \"#utility.yul\":16324:16327   */\n      0x00\n        /* \"#utility.yul\":16345:16412   */\n      tag_511\n        /* \"#utility.yul\":16409:16411   */\n      0x25\n        /* \"#utility.yul\":16404:16407   */\n      dup4\n        /* \"#utility.yul\":16345:16412   */\n      tag_291\n      jump\t// in\n    tag_511:\n        /* \"#utility.yul\":16338:16412   */\n      swap2\n      pop\n        /* \"#utility.yul\":16421:16514   */\n      tag_512\n        /* \"#utility.yul\":16510:16513   */\n      dup3\n        /* \"#utility.yul\":16421:16514   */\n      tag_316\n      jump\t// in\n    tag_512:\n        /* \"#utility.yul\":16539:16541   */\n      0x40\n        /* \"#utility.yul\":16534:16537   */\n      dup3\n        /* \"#utility.yul\":16530:16542   */\n      add\n        /* \"#utility.yul\":16523:16542   */\n      swap1\n      pop\n        /* \"#utility.yul\":16182:16548   */\n      swap2\n      swap1\n      pop\n      jump\t// out\n        /* \"#utility.yul\":16554:16973   */\n    tag_113:\n        /* \"#utility.yul\":16720:16724   */\n      0x00\n        /* \"#utility.yul\":16758:16760   */\n      0x20\n        /* \"#utility.yul\":16747:16756   */\n      dup3\n        /* \"#utility.yul\":16743:16761   */\n      add\n        /* \"#utility.yul\":16735:16761   */\n      swap1\n      pop\n        /* \"#utility.yul\":16807:16816   */\n      dup2\n        /* \"#utility.yul\":16801:16805   */\n      dup2\n        /* \"#utility.yul\":16797:16817   */\n      sub\n        /* \"#utility.yul\":16793:16794   */\n      0x00\n        /* \"#utility.yul\":16782:16791   */\n      dup4\n        /* \"#utility.yul\":16778:16795   */\n      add\n        /* \"#utility.yul\":16771:16818   */\n      mstore\n        /* \"#utility.yul\":16835:16966   */\n      tag_514\n        /* \"#utility.yul\":16961:16965   */\n      dup2\n        /* \"#utility.yul\":16835:16966   */\n      tag_317\n      jump\t// in\n    tag_514:\n        /* \"#utility.yul\":16827:16966   */\n      swap1\n      pop\n        /* \"#utility.yul\":16554:16973   */\n      swap2\n      swap1\n      pop\n      jump\t// out\n        /* \"#utility.yul\":16979:17159   */\n    tag_318:\n        /* \"#utility.yul\":17027:17104   */\n      0x4e487b7100000000000000000000000000000000000000000000000000000000\n        /* \"#utility.yul\":17024:17025   */\n      0x00\n        /* \"#utility.yul\":17017:17105   */\n      mstore\n        /* \"#utility.yul\":17124:17128   */\n      0x11\n        /* \"#utility.yul\":17121:17122   */\n      0x04\n        /* \"#utility.yul\":17114:17129   */\n      mstore\n        /* \"#utility.yul\":17148:17152   */\n      0x24\n        /* \"#utility.yul\":17145:17146   */\n      0x00\n        /* \"#utility.yul\":17138:17153   */\n      revert\n        /* \"#utility.yul\":17165:17356   */\n    tag_116:\n        /* \"#utility.yul\":17205:17208   */\n      0x00\n        /* \"#utility.yul\":17224:17244   */\n      tag_517\n        /* \"#utility.yul\":17242:17243   */\n      dup3\n        /* \"#utility.yul\":17224:17244   */\n      tag_284\n      jump\t// in\n    tag_517:\n        /* \"#utility.yul\":17219:17244   */\n      swap2\n      pop\n        /* \"#utility.yul\":17258:17278   */\n      tag_518\n        /* \"#utility.yul\":17276:17277   */\n      dup4\n        /* \"#utility.yul\":17258:17278   */\n      tag_284\n      jump\t// in\n    tag_518:\n        /* \"#utility.yul\":17253:17278   */\n      swap3\n      pop\n        /* \"#utility.yul\":17301:17302   */\n      dup3\n        /* \"#utility.yul\":17298:17299   */\n      dup3\n        /* \"#utility.yul\":17294:17303   */\n      add\n        /* \"#utility.yul\":17287:17303   */\n      swap1\n      pop\n        /* \"#utility.yul\":17322:17325   */\n      dup1\n        /* \"#utility.yul\":17319:17320   */\n      dup3\n        /* \"#utility.yul\":17316:17326   */\n      gt\n        /* \"#utility.yul\":17313:17349   */\n      iszero\n      tag_519\n      jumpi\n        /* \"#utility.yul\":17329:17347   */\n      tag_520\n      tag_318\n      jump\t// in\n    tag_520:\n        /* \"#utility.yul\":17313:17349   */\n    tag_519:\n        /* \"#utility.yul\":17165:17356   */\n      swap3\n      swap2\n      pop\n      pop\n      jump\t// out\n        /* \"#utility.yul\":17362:17536   */\n    tag_319:\n        /* \"#utility.yul\":17502:17528   */\n      0x546f74616c204f776e657273686970206d617820313030250000000000000000\n        /* \"#utility.yul\":17498:17499   */\n      0x00\n        /* \"#utility.yul\":17490:17496   */\n      dup3\n        /* \"#utility.yul\":17486:17500   */\n      add\n        /* \"#utility.yul\":17479:17529   */\n      mstore\n        /* \"#utility.yul\":17362:17536   */\n      pop\n      jump\t// out\n        /* \"#utility.yul\":17542:17908   */\n    tag_320:\n        /* \"#utility.yul\":17684:17687   */\n      0x00\n        /* \"#utility.yul\":17705:17772   */\n      tag_523\n        /* \"#utility.yul\":17769:17771   */\n      0x18\n        /* \"#utility.yul\":17764:17767   */\n      dup4\n        /* \"#utility.yul\":17705:17772   */\n      tag_291\n      jump\t// in\n    tag_523:\n        /* \"#utility.yul\":17698:17772   */\n      swap2\n      pop\n        /* \"#utility.yul\":17781:17874   */\n      tag_524\n        /* \"#utility.yul\":17870:17873   */\n      dup3\n        /* \"#utility.yul\":17781:17874   */\n      tag_319\n      jump\t// in\n    tag_524:\n        /* \"#utility.yul\":17899:17901   */\n      0x20\n        /* \"#utility.yul\":17894:17897   */\n      dup3\n        /* \"#utility.yul\":17890:17902   */\n      add\n        /* \"#utility.yul\":17883:17902   */\n      swap1\n      pop\n        /* \"#utility.yul\":17542:17908   */\n      swap2\n      swap1\n      pop\n      jump\t// out\n        /* \"#utility.yul\":17914:18333   */\n    tag_119:\n        /* \"#utility.yul\":18080:18084   */\n      0x00\n        /* \"#utility.yul\":18118:18120   */\n      0x20\n        /* \"#utility.yul\":18107:18116   */\n      dup3\n        /* \"#utility.yul\":18103:18121   */\n      add\n        /* \"#utility.yul\":18095:18121   */\n      swap1\n      pop\n        /* \"#utility.yul\":18167:18176   */\n      dup2\n        /* \"#utility.yul\":18161:18165   */\n      dup2\n        /* \"#utility.yul\":18157:18177   */\n      sub\n        /* \"#utility.yul\":18153:18154   */\n      0x00\n        /* \"#utility.yul\":18142:18151   */\n      dup4\n        /* \"#utility.yul\":18138:18155   */\n      add\n        /* \"#utility.yul\":18131:18178   */\n      mstore\n        /* \"#utility.yul\":18195:18326   */\n      tag_526\n        /* \"#utility.yul\":18321:18325   */\n      dup2\n        /* \"#utility.yul\":18195:18326   */\n      tag_320\n      jump\t// in\n    tag_526:\n        /* \"#utility.yul\":18187:18326   */\n      swap1\n      pop\n        /* \"#utility.yul\":17914:18333   */\n      swap2\n      swap1\n      pop\n      jump\t// out\n        /* \"#utility.yul\":18339:18519   */\n    tag_321:\n        /* \"#utility.yul\":18387:18464   */\n      0x4e487b7100000000000000000000000000000000000000000000000000000000\n        /* \"#utility.yul\":18384:18385   */\n      0x00\n        /* \"#utility.yul\":18377:18465   */\n      mstore\n        /* \"#utility.yul\":18484:18488   */\n      0x22\n        /* \"#utility.yul\":18481:18482   */\n      0x04\n        /* \"#utility.yul\":18474:18489   */\n      mstore\n        /* \"#utility.yul\":18508:18512   */\n      0x24\n        /* \"#utility.yul\":18505:18506   */\n      0x00\n        /* \"#utility.yul\":18498:18513   */\n      revert\n        /* \"#utility.yul\":18525:18845   */\n    tag_169:\n        /* \"#utility.yul\":18569:18575   */\n      0x00\n        /* \"#utility.yul\":18606:18607   */\n      0x02\n        /* \"#utility.yul\":18600:18604   */\n      dup3\n        /* \"#utility.yul\":18596:18608   */\n      div\n        /* \"#utility.yul\":18586:18608   */\n      swap1\n      pop\n        /* \"#utility.yul\":18653:18654   */\n      0x01\n        /* \"#utility.yul\":18647:18651   */\n      dup3\n        /* \"#utility.yul\":18643:18655   */\n      and\n        /* \"#utility.yul\":18674:18692   */\n      dup1\n        /* \"#utility.yul\":18664:18745   */\n      tag_529\n      jumpi\n        /* \"#utility.yul\":18730:18734   */\n      0x7f\n        /* \"#utility.yul\":18722:18728   */\n      dup3\n        /* \"#utility.yul\":18718:18735   */\n      and\n        /* \"#utility.yul\":18708:18735   */\n      swap2\n      pop\n        /* \"#utility.yul\":18664:18745   */\n    tag_529:\n        /* \"#utility.yul\":18792:18794   */\n      0x20\n        /* \"#utility.yul\":18784:18790   */\n      dup3\n        /* \"#utility.yul\":18781:18795   */\n      lt\n        /* \"#utility.yul\":18761:18779   */\n      dup2\n        /* \"#utility.yul\":18758:18796   */\n      sub\n        /* \"#utility.yul\":18755:18839   */\n      tag_530\n      jumpi\n        /* \"#utility.yul\":18811:18829   */\n      tag_531\n      tag_321\n      jump\t// in\n    tag_531:\n        /* \"#utility.yul\":18755:18839   */\n    tag_530:\n        /* \"#utility.yul\":18576:18845   */\n      pop\n        /* \"#utility.yul\":18525:18845   */\n      swap2\n      swap1\n      pop\n      jump\t// out\n        /* \"#utility.yul\":18851:18992   */\n    tag_322:\n        /* \"#utility.yul\":18900:18904   */\n      0x00\n        /* \"#utility.yul\":18923:18926   */\n      dup2\n        /* \"#utility.yul\":18915:18926   */\n      swap1\n      pop\n        /* \"#utility.yul\":18946:18949   */\n      dup2\n        /* \"#utility.yul\":18943:18944   */\n      0x00\n        /* \"#utility.yul\":18936:18950   */\n      mstore\n        /* \"#utility.yul\":18980:18984   */\n      0x20\n        /* \"#utility.yul\":18977:18978   */\n      0x00\n        /* \"#utility.yul\":18967:18985   */\n      keccak256\n        /* \"#utility.yul\":18959:18985   */\n      swap1\n      pop\n        /* \"#utility.yul\":18851:18992   */\n      swap2\n      swap1\n      pop\n      jump\t// out\n        /* \"#utility.yul\":18998:19091   */\n    tag_323:\n        /* \"#utility.yul\":19035:19041   */\n      0x00\n        /* \"#utility.yul\":19082:19084   */\n      0x20\n        /* \"#utility.yul\":19077:19079   */\n      0x1f\n        /* \"#utility.yul\":19070:19075   */\n      dup4\n        /* \"#utility.yul\":19066:19080   */\n      add\n        /* \"#utility.yul\":19062:19085   */\n      div\n        /* \"#utility.yul\":19052:19085   */\n      swap1\n      pop\n        /* \"#utility.yul\":18998:19091   */\n      swap2\n      swap1\n      pop\n      jump\t// out\n        /* \"#utility.yul\":19097:19204   */\n    tag_324:\n        /* \"#utility.yul\":19141:19149   */\n      0x00\n        /* \"#utility.yul\":19191:19196   */\n      dup3\n        /* \"#utility.yul\":19185:19189   */\n      dup3\n        /* \"#utility.yul\":19181:19197   */\n      shl\n        /* \"#utility.yul\":19160:19197   */\n      swap1\n      pop\n        /* \"#utility.yul\":19097:19204   */\n      swap3\n      swap2\n      pop\n      pop\n      jump\t// out\n        /* \"#utility.yul\":19210:19603   */\n    tag_325:\n        /* \"#utility.yul\":19279:19285   */\n      0x00\n        /* \"#utility.yul\":19329:19330   */\n      0x08\n        /* \"#utility.yul\":19317:19327   */\n      dup4\n        /* \"#utility.yul\":19313:19331   */\n      mul\n        /* \"#utility.yul\":19352:19449   */\n      tag_536\n        /* \"#utility.yul\":19382:19448   */\n      0xffffffffffffffffffffffffffffffffffffffffffffffffffffffffffffffff\n        /* \"#utility.yul\":19371:19380   */\n      dup3\n        /* \"#utility.yul\":19352:19449   */\n      tag_324\n      jump\t// in\n    tag_536:\n        /* \"#utility.yul\":19470:19509   */\n      tag_537\n        /* \"#utility.yul\":19500:19508   */\n      dup7\n        /* \"#utility.yul\":19489:19498   */\n      dup4\n        /* \"#utility.yul\":19470:19509   */\n      tag_324\n      jump\t// in\n    tag_537:\n        /* \"#utility.yul\":19458:19509   */\n      swap6\n      pop\n        /* \"#utility.yul\":19542:19546   */\n      dup1\n        /* \"#utility.yul\":19538:19547   */\n      not\n        /* \"#utility.yul\":19531:19536   */\n      dup5\n        /* \"#utility.yul\":19527:19548   */\n      and\n        /* \"#utility.yul\":19518:19548   */\n      swap4\n      pop\n        /* \"#utility.yul\":19591:19595   */\n      dup1\n        /* \"#utility.yul\":19581:19589   */\n      dup7\n        /* \"#utility.yul\":19577:19596   */\n      and\n        /* \"#utility.yul\":19570:19575   */\n      dup5\n        /* \"#utility.yul\":19567:19597   */\n      or\n        /* \"#utility.yul\":19557:19597   */\n      swap3\n      pop\n        /* \"#utility.yul\":19286:19603   */\n      pop\n      pop\n        /* \"#utility.yul\":19210:19603   */\n      swap4\n      swap3\n      pop\n      pop\n      pop\n      jump\t// out\n        /* \"#utility.yul\":19609:19669   */\n    tag_326:\n        /* \"#utility.yul\":19637:19640   */\n      0x00\n        /* \"#utility.yul\":19658:19663   */\n      dup2\n        /* \"#utility.yul\":19651:19663   */\n      swap1\n      pop\n        /* \"#utility.yul\":19609:19669   */\n      swap2\n      swap1\n      pop\n      jump\t// out\n        /* \"#utility.yul\":19675:19817   */\n    tag_327:\n        /* \"#utility.yul\":19725:19734   */\n      0x00\n        /* \"#utility.yul\":19758:19811   */\n      tag_540\n        /* \"#utility.yul\":19776:19810   */\n      tag_541\n        /* \"#utility.yul\":19785:19809   */\n      tag_542\n        /* \"#utility.yul\":19803:19808   */\n      dup5\n        /* \"#utility.yul\":19785:19809   */\n      tag_284\n      jump\t// in\n    tag_542:\n        /* \"#utility.yul\":19776:19810   */\n      tag_326\n      jump\t// in\n    tag_541:\n        /* \"#utility.yul\":19758:19811   */\n      tag_284\n      jump\t// in\n    tag_540:\n        /* \"#utility.yul\":19745:19811   */\n      swap1\n      pop\n        /* \"#utility.yul\":19675:19817   */\n      swap2\n      swap1\n      pop\n      jump\t// out\n        /* \"#utility.yul\":19823:19898   */\n    tag_328:\n        /* \"#utility.yul\":19866:19869   */\n      0x00\n        /* \"#utility.yul\":19887:19892   */\n      dup2\n        /* \"#utility.yul\":19880:19892   */\n      swap1\n      pop\n        /* \"#utility.yul\":19823:19898   */\n      swap2\n      swap1\n      pop\n      jump\t// out\n        /* \"#utility.yul\":19904:20173   */\n    tag_329:\n        /* \"#utility.yul\":20014:20053   */\n      tag_545\n        /* \"#utility.yul\":20045:20052   */\n      dup4\n        /* \"#utility.yul\":20014:20053   */\n      tag_327\n      jump\t// in\n    tag_545:\n        /* \"#utility.yul\":20075:20166   */\n      tag_546\n        /* \"#utility.yul\":20124:20165   */\n      tag_547\n        /* \"#utility.yul\":20148:20164   */\n      dup3\n        /* \"#utility.yul\":20124:20165   */\n      tag_328\n      jump\t// in\n    tag_547:\n        /* \"#utility.yul\":20116:20122   */\n      dup5\n        /* \"#utility.yul\":20109:20113   */\n      dup5\n        /* \"#utility.yul\":20103:20114   */\n      sload\n        /* \"#utility.yul\":20075:20166   */\n      tag_325\n      jump\t// in\n    tag_546:\n        /* \"#utility.yul\":20069:20073   */\n      dup3\n        /* \"#utility.yul\":20062:20167   */\n      sstore\n        /* \"#utility.yul\":19980:20173   */\n      pop\n        /* \"#utility.yul\":19904:20173   */\n      pop\n      pop\n      pop\n      jump\t// out\n        /* \"#utility.yul\":20179:20252   */\n    tag_330:\n        /* \"#utility.yul\":20224:20227   */\n      0x00\n        /* \"#utility.yul\":20179:20252   */\n      swap1\n      jump\t// out\n        /* \"#utility.yul\":20258:20447   */\n    tag_331:\n        /* \"#utility.yul\":20335:20367   */\n      tag_550\n      tag_330\n      jump\t// in\n    tag_550:\n        /* \"#utility.yul\":20376:20441   */\n      tag_551\n        /* \"#utility.yul\":20434:20440   */\n      dup2\n        /* \"#utility.yul\":20426:20432   */\n      dup5\n        /* \"#utility.yul\":20420:20424   */\n      dup5\n        /* \"#utility.yul\":20376:20441   */\n      tag_329\n      jump\t// in\n    tag_551:\n        /* \"#utility.yul\":20311:20447   */\n      pop\n        /* \"#utility.yul\":20258:20447   */\n      pop\n      pop\n      jump\t// out\n        /* \"#utility.yul\":20453:20639   */\n    tag_332:\n        /* \"#utility.yul\":20513:20633   */\n    tag_553:\n        /* \"#utility.yul\":20530:20533   */\n      dup2\n        /* \"#utility.yul\":20523:20528   */\n      dup2\n        /* \"#utility.yul\":20520:20534   */\n      lt\n        /* \"#utility.yul\":20513:20633   */\n      iszero\n      tag_555\n      jumpi\n        /* \"#utility.yul\":20584:20623   */\n      tag_556\n        /* \"#utility.yul\":20621:20622   */\n      0x00\n        /* \"#utility.yul\":20614:20619   */\n      dup3\n        /* \"#utility.yul\":20584:20623   */\n      tag_331\n      jump\t// in\n    tag_556:\n        /* \"#utility.yul\":20557:20558   */\n      0x01\n        /* \"#utility.yul\":20550:20555   */\n      dup2\n        /* \"#utility.yul\":20546:20559   */\n      add\n        /* \"#utility.yul\":20537:20559   */\n      swap1\n      pop\n        /* \"#utility.yul\":20513:20633   */\n      jump(tag_553)\n    tag_555:\n        /* \"#utility.yul\":20453:20639   */\n      pop\n      pop\n      jump\t// out\n        /* \"#utility.yul\":20645:21188   */\n    tag_333:\n        /* \"#utility.yul\":20746:20748   */\n      0x1f\n        /* \"#utility.yul\":20741:20744   */\n      dup3\n        /* \"#utility.yul\":20738:20749   */\n      gt\n        /* \"#utility.yul\":20735:21181   */\n      iszero\n      tag_558\n      jumpi\n        /* \"#utility.yul\":20780:20818   */\n      tag_559\n        /* \"#utility.yul\":20812:20817   */\n      dup2\n        /* \"#utility.yul\":20780:20818   */\n      tag_322\n      jump\t// in\n    tag_559:\n        /* \"#utility.yul\":20864:20893   */\n      tag_560\n        /* \"#utility.yul\":20882:20892   */\n      dup5\n        /* \"#utility.yul\":20864:20893   */\n      tag_323\n      jump\t// in\n    tag_560:\n        /* \"#utility.yul\":20854:20862   */\n      dup2\n        /* \"#utility.yul\":20850:20894   */\n      add\n        /* \"#utility.yul\":21047:21049   */\n      0x20\n        /* \"#utility.yul\":21035:21045   */\n      dup6\n        /* \"#utility.yul\":21032:21050   */\n      lt\n        /* \"#utility.yul\":21029:21078   */\n      iszero\n      tag_561\n      jumpi\n        /* \"#utility.yul\":21068:21076   */\n      dup2\n        /* \"#utility.yul\":21053:21076   */\n      swap1\n      pop\n        /* \"#utility.yul\":21029:21078   */\n    tag_561:\n        /* \"#utility.yul\":21091:21171   */\n      tag_562\n        /* \"#utility.yul\":21147:21169   */\n      tag_563\n        /* \"#utility.yul\":21165:21168   */\n      dup6\n        /* \"#utility.yul\":21147:21169   */\n      tag_323\n      jump\t// in\n    tag_563:\n        /* \"#utility.yul\":21137:21145   */\n      dup4\n        /* \"#utility.yul\":21133:21170   */\n      add\n        /* \"#utility.yul\":21120:21131   */\n      dup3\n        /* \"#utility.yul\":21091:21171   */\n      tag_332\n      jump\t// in\n    tag_562:\n        /* \"#utility.yul\":20750:21181   */\n      pop\n      pop\n        /* \"#utility.yul\":20735:21181   */\n    tag_558:\n        /* \"#utility.yul\":20645:21188   */\n      pop\n      pop\n      pop\n      jump\t// out\n        /* \"#utility.yul\":21194:21311   */\n    tag_334:\n        /* \"#utility.yul\":21248:21256   */\n      0x00\n        /* \"#utility.yul\":21298:21303   */\n      dup3\n        /* \"#utility.yul\":21292:21296   */\n      dup3\n        /* \"#utility.yul\":21288:21304   */\n      shr\n        /* \"#utility.yul\":21267:21304   */\n      swap1\n      pop\n        /* \"#utility.yul\":21194:21311   */\n      swap3\n      swap2\n      pop\n      pop\n      jump\t// out\n        /* \"#utility.yul\":21317:21486   */\n    tag_335:\n        /* \"#utility.yul\":21361:21367   */\n      0x00\n        /* \"#utility.yul\":21394:21445   */\n      tag_566\n        /* \"#utility.yul\":21442:21443   */\n      0x00\n        /* \"#utility.yul\":21438:21444   */\n      not\n        /* \"#utility.yul\":21430:21435   */\n      dup5\n        /* \"#utility.yul\":21427:21428   */\n      0x08\n        /* \"#utility.yul\":21423:21436   */\n      mul\n        /* \"#utility.yul\":21394:21445   */\n      tag_334\n      jump\t// in\n    tag_566:\n        /* \"#utility.yul\":21390:21446   */\n      not\n        /* \"#utility.yul\":21475:21479   */\n      dup1\n        /* \"#utility.yul\":21469:21473   */\n      dup4\n        /* \"#utility.yul\":21465:21480   */\n      and\n        /* \"#utility.yul\":21455:21480   */\n      swap2\n      pop\n        /* \"#utility.yul\":21368:21486   */\n      pop\n        /* \"#utility.yul\":21317:21486   */\n      swap3\n      swap2\n      pop\n      pop\n      jump\t// out\n        /* \"#utility.yul\":21491:21786   */\n    tag_336:\n        /* \"#utility.yul\":21567:21571   */\n      0x00\n        /* \"#utility.yul\":21713:21742   */\n      tag_568\n        /* \"#utility.yul\":21738:21741   */\n      dup4\n        /* \"#utility.yul\":21732:21736   */\n      dup4\n        /* \"#utility.yul\":21713:21742   */\n      tag_335\n      jump\t// in\n    tag_568:\n        /* \"#utility.yul\":21705:21742   */\n      swap2\n      pop\n        /* \"#utility.yul\":21775:21778   */\n      dup3\n        /* \"#utility.yul\":21772:21773   */\n      0x02\n        /* \"#utility.yul\":21768:21779   */\n      mul\n        /* \"#utility.yul\":21762:21766   */\n      dup3\n        /* \"#utility.yul\":21759:21780   */\n      or\n        /* \"#utility.yul\":21751:21780   */\n      swap1\n      pop\n        /* \"#utility.yul\":21491:21786   */\n      swap3\n      swap2\n      pop\n      pop\n      jump\t// out\n        /* \"#utility.yul\":21791:23186   */\n    tag_141:\n        /* \"#utility.yul\":21908:21945   */\n      tag_570\n        /* \"#utility.yul\":21941:21944   */\n      dup3\n        /* \"#utility.yul\":21908:21945   */\n      tag_290\n      jump\t// in\n    tag_570:\n        /* \"#utility.yul\":22010:22028   */\n      0xffffffffffffffff\n        /* \"#utility.yul\":22002:22008   */\n      dup2\n        /* \"#utility.yul\":21999:22029   */\n      gt\n        /* \"#utility.yul\":21996:22052   */\n      iszero\n      tag_571\n      jumpi\n        /* \"#utility.yul\":22032:22050   */\n      tag_572\n      tag_133\n      jump\t// in\n    tag_572:\n        /* \"#utility.yul\":21996:22052   */\n    tag_571:\n        /* \"#utility.yul\":22076:22114   */\n      tag_573\n        /* \"#utility.yul\":22108:22112   */\n      dup3\n        /* \"#utility.yul\":22102:22113   */\n      sload\n        /* \"#utility.yul\":22076:22114   */\n      tag_169\n      jump\t// in\n    tag_573:\n        /* \"#utility.yul\":22161:22228   */\n      tag_574\n        /* \"#utility.yul\":22221:22227   */\n      dup3\n        /* \"#utility.yul\":22213:22219   */\n      dup3\n        /* \"#utility.yul\":22207:22211   */\n      dup6\n        /* \"#utility.yul\":22161:22228   */\n      tag_333\n      jump\t// in\n    tag_574:\n        /* \"#utility.yul\":22255:22256   */\n      0x00\n        /* \"#utility.yul\":22279:22283   */\n      0x20\n        /* \"#utility.yul\":22266:22283   */\n      swap1\n      pop\n        /* \"#utility.yul\":22311:22313   */\n      0x1f\n        /* \"#utility.yul\":22303:22309   */\n      dup4\n        /* \"#utility.yul\":22300:22314   */\n      gt\n        /* \"#utility.yul\":22328:22329   */\n      0x01\n        /* \"#utility.yul\":22323:22941   */\n      dup2\n      eq\n      tag_576\n      jumpi\n        /* \"#utility.yul\":22985:22986   */\n      0x00\n        /* \"#utility.yul\":23002:23008   */\n      dup5\n        /* \"#utility.yul\":22999:23076   */\n      iszero\n      tag_577\n      jumpi\n        /* \"#utility.yul\":23051:23060   */\n      dup3\n        /* \"#utility.yul\":23046:23049   */\n      dup8\n        /* \"#utility.yul\":23042:23061   */\n      add\n        /* \"#utility.yul\":23036:23062   */\n      mload\n        /* \"#utility.yul\":23027:23062   */\n      swap1\n      pop\n        /* \"#utility.yul\":22999:23076   */\n    tag_577:\n        /* \"#utility.yul\":23102:23169   */\n      tag_578\n        /* \"#utility.yul\":23162:23168   */\n      dup6\n        /* \"#utility.yul\":23155:23160   */\n      dup3\n        /* \"#utility.yul\":23102:23169   */\n      tag_336\n      jump\t// in\n    tag_578:\n        /* \"#utility.yul\":23096:23100   */\n      dup7\n        /* \"#utility.yul\":23089:23170   */\n      sstore\n        /* \"#utility.yul\":22958:23180   */\n      pop\n        /* \"#utility.yul\":22293:23180   */\n      jump(tag_575)\n        /* \"#utility.yul\":22323:22941   */\n    tag_576:\n        /* \"#utility.yul\":22375:22379   */\n      0x1f\n        /* \"#utility.yul\":22371:22380   */\n      not\n        /* \"#utility.yul\":22363:22369   */\n      dup5\n        /* \"#utility.yul\":22359:22381   */\n      and\n        /* \"#utility.yul\":22409:22446   */\n      tag_579\n        /* \"#utility.yul\":22441:22445   */\n      dup7\n        /* \"#utility.yul\":22409:22446   */\n      tag_322\n      jump\t// in\n    tag_579:\n        /* \"#utility.yul\":22468:22469   */\n      0x00\n        /* \"#utility.yul\":22482:22690   */\n    tag_580:\n        /* \"#utility.yul\":22496:22503   */\n      dup3\n        /* \"#utility.yul\":22493:22494   */\n      dup2\n        /* \"#utility.yul\":22490:22504   */\n      lt\n        /* \"#utility.yul\":22482:22690   */\n      iszero\n      tag_582\n      jumpi\n        /* \"#utility.yul\":22575:22584   */\n      dup5\n        /* \"#utility.yul\":22570:22573   */\n      dup10\n        /* \"#utility.yul\":22566:22585   */\n      add\n        /* \"#utility.yul\":22560:22586   */\n      mload\n        /* \"#utility.yul\":22552:22558   */\n      dup3\n        /* \"#utility.yul\":22545:22587   */\n      sstore\n        /* \"#utility.yul\":22626:22627   */\n      0x01\n        /* \"#utility.yul\":22618:22624   */\n      dup3\n        /* \"#utility.yul\":22614:22628   */\n      add\n        /* \"#utility.yul\":22604:22628   */\n      swap2\n      pop\n        /* \"#utility.yul\":22673:22675   */\n      0x20\n        /* \"#utility.yul\":22662:22671   */\n      dup6\n        /* \"#utility.yul\":22658:22676   */\n      add\n        /* \"#utility.yul\":22645:22676   */\n      swap5\n      pop\n        /* \"#utility.yul\":22519:22523   */\n      0x20\n        /* \"#utility.yul\":22516:22517   */\n      dup2\n        /* \"#utility.yul\":22512:22524   */\n      add\n        /* \"#utility.yul\":22507:22524   */\n      swap1\n      pop\n        /* \"#utility.yul\":22482:22690   */\n      jump(tag_580)\n    tag_582:\n        /* \"#utility.yul\":22718:22724   */\n      dup7\n        /* \"#utility.yul\":22709:22716   */\n      dup4\n        /* \"#utility.yul\":22706:22725   */\n      lt\n        /* \"#utility.yul\":22703:22882   */\n      iszero\n      tag_583\n      jumpi\n        /* \"#utility.yul\":22776:22785   */\n      dup5\n        /* \"#utility.yul\":22771:22774   */\n      dup10\n        /* \"#utility.yul\":22767:22786   */\n      add\n        /* \"#utility.yul\":22761:22787   */\n      mload\n        /* \"#utility.yul\":22819:22867   */\n      tag_584\n        /* \"#utility.yul\":22861:22865   */\n      0x1f\n        /* \"#utility.yul\":22853:22859   */\n      dup10\n        /* \"#utility.yul\":22849:22866   */\n      and\n        /* \"#utility.yul\":22838:22847   */\n      dup3\n        /* \"#utility.yul\":22819:22867   */\n      tag_335\n      jump\t// in\n    tag_584:\n        /* \"#utility.yul\":22811:22817   */\n      dup4\n        /* \"#utility.yul\":22804:22868   */\n      sstore\n        /* \"#utility.yul\":22726:22882   */\n      pop\n        /* \"#utility.yul\":22703:22882   */\n    tag_583:\n        /* \"#utility.yul\":22928:22929   */\n      0x01\n        /* \"#utility.yul\":22924:22925   */\n      0x02\n        /* \"#utility.yul\":22916:22922   */\n      dup9\n        /* \"#utility.yul\":22912:22926   */\n      mul\n        /* \"#utility.yul\":22908:22930   */\n      add\n        /* \"#utility.yul\":22902:22906   */\n      dup9\n        /* \"#utility.yul\":22895:22931   */\n      sstore\n        /* \"#utility.yul\":22330:22941   */\n      pop\n      pop\n      pop\n        /* \"#utility.yul\":22293:23180   */\n    tag_575:\n      pop\n        /* \"#utility.yul\":21883:23186   */\n      pop\n      pop\n      pop\n        /* \"#utility.yul\":21791:23186   */\n      pop\n      pop\n      jump\t// out\n        /* \"#utility.yul\":23192:23372   */\n    tag_148:\n        /* \"#utility.yul\":23240:23317   */\n      0x4e487b7100000000000000000000000000000000000000000000000000000000\n        /* \"#utility.yul\":23237:23238   */\n      0x00\n        /* \"#utility.yul\":23230:23318   */\n      mstore\n        /* \"#utility.yul\":23337:23341   */\n      0x32\n        /* \"#utility.yul\":23334:23335   */\n      0x04\n        /* \"#utility.yul\":23327:23342   */\n      mstore\n        /* \"#utility.yul\":23361:23365   */\n      0x24\n        /* \"#utility.yul\":23358:23359   */\n      0x00\n        /* \"#utility.yul\":23351:23366   */\n      revert\n        /* \"#utility.yul\":23402:24233   */\n    tag_337:\n        /* \"#utility.yul\":23487:23490   */\n      0x00\n        /* \"#utility.yul\":23524:23529   */\n      dup2\n        /* \"#utility.yul\":23518:23530   */\n      sload\n        /* \"#utility.yul\":23553:23589   */\n      tag_587\n        /* \"#utility.yul\":23579:23588   */\n      dup2\n        /* \"#utility.yul\":23553:23589   */\n      tag_169\n      jump\t// in\n    tag_587:\n        /* \"#utility.yul\":23605:23676   */\n      tag_588\n        /* \"#utility.yul\":23669:23675   */\n      dup2\n        /* \"#utility.yul\":23664:23667   */\n      dup7\n        /* \"#utility.yul\":23605:23676   */\n      tag_291\n      jump\t// in\n    tag_588:\n        /* \"#utility.yul\":23598:23676   */\n      swap5\n      pop\n        /* \"#utility.yul\":23707:23708   */\n      0x01\n        /* \"#utility.yul\":23696:23705   */\n      dup3\n        /* \"#utility.yul\":23692:23709   */\n      and\n        /* \"#utility.yul\":23723:23724   */\n      0x00\n        /* \"#utility.yul\":23718:23882   */\n      dup2\n      eq\n      tag_590\n      jumpi\n        /* \"#utility.yul\":23896:23897   */\n      0x01\n        /* \"#utility.yul\":23891:24227   */\n      dup2\n      eq\n      tag_591\n      jumpi\n        /* \"#utility.yul\":23685:24227   */\n      jump(tag_589)\n        /* \"#utility.yul\":23718:23882   */\n    tag_590:\n        /* \"#utility.yul\":23802:23806   */\n      0xff\n        /* \"#utility.yul\":23798:23807   */\n      not\n        /* \"#utility.yul\":23787:23796   */\n      dup4\n        /* \"#utility.yul\":23783:23808   */\n      and\n        /* \"#utility.yul\":23778:23781   */\n      dup7\n        /* \"#utility.yul\":23771:23809   */\n      mstore\n        /* \"#utility.yul\":23862:23868   */\n      dup2\n        /* \"#utility.yul\":23855:23869   */\n      iszero\n        /* \"#utility.yul\":23848:23870   */\n      iszero\n        /* \"#utility.yul\":23842:23846   */\n      0x20\n        /* \"#utility.yul\":23838:23871   */\n      mul\n        /* \"#utility.yul\":23833:23836   */\n      dup7\n        /* \"#utility.yul\":23829:23872   */\n      add\n        /* \"#utility.yul\":23822:23872   */\n      swap4\n      pop\n        /* \"#utility.yul\":23718:23882   */\n      jump(tag_589)\n        /* \"#utility.yul\":23891:24227   */\n    tag_591:\n        /* \"#utility.yul\":23958:23996   */\n      tag_592\n        /* \"#utility.yul\":23990:23995   */\n      dup6\n        /* \"#utility.yul\":23958:23996   */\n      tag_322\n      jump\t// in\n    tag_592:\n        /* \"#utility.yul\":24018:24019   */\n      0x00\n        /* \"#utility.yul\":24032:24186   */\n    tag_593:\n        /* \"#utility.yul\":24046:24052   */\n      dup4\n        /* \"#utility.yul\":24043:24044   */\n      dup2\n        /* \"#utility.yul\":24040:24053   */\n      lt\n        /* \"#utility.yul\":24032:24186   */\n      iszero\n      tag_595\n      jumpi\n        /* \"#utility.yul\":24120:24127   */\n      dup2\n        /* \"#utility.yul\":24114:24128   */\n      sload\n        /* \"#utility.yul\":24110:24111   */\n      dup2\n        /* \"#utility.yul\":24105:24108   */\n      dup10\n        /* \"#utility.yul\":24101:24112   */\n      add\n        /* \"#utility.yul\":24094:24129   */\n      mstore\n        /* \"#utility.yul\":24170:24171   */\n      0x01\n        /* \"#utility.yul\":24161:24168   */\n      dup3\n        /* \"#utility.yul\":24157:24172   */\n      add\n        /* \"#utility.yul\":24146:24172   */\n      swap2\n      pop\n        /* \"#utility.yul\":24068:24072   */\n      0x20\n        /* \"#utility.yul\":24065:24066   */\n      dup2\n        /* \"#utility.yul\":24061:24073   */\n      add\n        /* \"#utility.yul\":24056:24073   */\n      swap1\n      pop\n        /* \"#utility.yul\":24032:24186   */\n      jump(tag_593)\n    tag_595:\n        /* \"#utility.yul\":24215:24216   */\n      dup1\n        /* \"#utility.yul\":24210:24213   */\n      dup9\n        /* \"#utility.yul\":24206:24217   */\n      add\n        /* \"#utility.yul\":24199:24217   */\n      swap6\n      pop\n        /* \"#utility.yul\":23898:24227   */\n      pop\n      pop\n        /* \"#utility.yul\":23685:24227   */\n    tag_589:\n      pop\n        /* \"#utility.yul\":23491:24233   */\n      pop\n      pop\n        /* \"#utility.yul\":23402:24233   */\n      swap3\n      swap2\n      pop\n      pop\n      jump\t// out\n        /* \"#utility.yul\":24239:24656   */\n    tag_151:\n        /* \"#utility.yul\":24377:24381   */\n      0x00\n        /* \"#utility.yul\":24415:24417   */\n      0x40\n        /* \"#utility.yul\":24404:24413   */\n      dup3\n        /* \"#utility.yul\":24400:24418   */\n      add\n        /* \"#utility.yul\":24392:24418   */\n      swap1\n      pop\n        /* \"#utility.yul\":24428:24499   */\n      tag_597\n        /* \"#utility.yul\":24496:24497   */\n      0x00\n        /* \"#utility.yul\":24485:24494   */\n      dup4\n        /* \"#utility.yul\":24481:24498   */\n      add\n        /* \"#utility.yul\":24472:24478   */\n      dup6\n        /* \"#utility.yul\":24428:24499   */\n      tag_287\n      jump\t// in\n    tag_597:\n        /* \"#utility.yul\":24546:24555   */\n      dup2\n        /* \"#utility.yul\":24540:24544   */\n      dup2\n        /* \"#utility.yul\":24536:24556   */\n      sub\n        /* \"#utility.yul\":24531:24533   */\n      0x20\n        /* \"#utility.yul\":24520:24529   */\n      dup4\n        /* \"#utility.yul\":24516:24534   */\n      add\n        /* \"#utility.yul\":24509:24557   */\n      mstore\n        /* \"#utility.yul\":24574:24649   */\n      tag_598\n        /* \"#utility.yul\":24644:24648   */\n      dup2\n        /* \"#utility.yul\":24635:24641   */\n      dup5\n        /* \"#utility.yul\":24574:24649   */\n      tag_337\n      jump\t// in\n    tag_598:\n        /* \"#utility.yul\":24566:24649   */\n      swap1\n      pop\n        /* \"#utility.yul\":24239:24656   */\n      swap4\n      swap3\n      pop\n      pop\n      pop\n      jump\t// out\n        /* \"#utility.yul\":24662:24843   */\n    tag_338:\n        /* \"#utility.yul\":24802:24835   */\n      0x5061796d656e74206d75737420657175616c20746f2061727420707269636500\n        /* \"#utility.yul\":24798:24799   */\n      0x00\n        /* \"#utility.yul\":24790:24796   */\n      dup3\n        /* \"#utility.yul\":24786:24800   */\n      add\n        /* \"#utility.yul\":24779:24836   */\n      mstore\n        /* \"#utility.yul\":24662:24843   */\n      pop\n      jump\t// out\n        /* \"#utility.yul\":24849:25215   */\n    tag_339:\n        /* \"#utility.yul\":24991:24994   */\n      0x00\n        /* \"#utility.yul\":25012:25079   */\n      tag_601\n        /* \"#utility.yul\":25076:25078   */\n      0x1f\n        /* \"#utility.yul\":25071:25074   */\n      dup4\n        /* \"#utility.yul\":25012:25079   */\n      tag_291\n      jump\t// in\n    tag_601:\n        /* \"#utility.yul\":25005:25079   */\n      swap2\n      pop\n        /* \"#utility.yul\":25088:25181   */\n      tag_602\n        /* \"#utility.yul\":25177:25180   */\n      dup3\n        /* \"#utility.yul\":25088:25181   */\n      tag_338\n      jump\t// in\n    tag_602:\n        /* \"#utility.yul\":25206:25208   */\n      0x20\n        /* \"#utility.yul\":25201:25204   */\n      dup3\n        /* \"#utility.yul\":25197:25209   */\n      add\n        /* \"#utility.yul\":25190:25209   */\n      swap1\n      pop\n        /* \"#utility.yul\":24849:25215   */\n      swap2\n      swap1\n      pop\n      jump\t// out\n        /* \"#utility.yul\":25221:25640   */\n    tag_159:\n        /* \"#utility.yul\":25387:25391   */\n      0x00\n        /* \"#utility.yul\":25425:25427   */\n      0x20\n        /* \"#utility.yul\":25414:25423   */\n      dup3\n        /* \"#utility.yul\":25410:25428   */\n      add\n        /* \"#utility.yul\":25402:25428   */\n      swap1\n      pop\n        /* \"#utility.yul\":25474:25483   */\n      dup2\n        /* \"#utility.yul\":25468:25472   */\n      dup2\n        /* \"#utility.yul\":25464:25484   */\n      sub\n        /* \"#utility.yul\":25460:25461   */\n      0x00\n        /* \"#utility.yul\":25449:25458   */\n      dup4\n        /* \"#utility.yul\":25445:25462   */\n      add\n        /* \"#utility.yul\":25438:25485   */\n      mstore\n        /* \"#utility.yul\":25502:25633   */\n      tag_604\n        /* \"#utility.yul\":25628:25632   */\n      dup2\n        /* \"#utility.yul\":25502:25633   */\n      tag_339\n      jump\t// in\n    tag_604:\n        /* \"#utility.yul\":25494:25633   */\n      swap1\n      pop\n        /* \"#utility.yul\":25221:25640   */\n      swap2\n      swap1\n      pop\n      jump\t// out\n        /* \"#utility.yul\":25646:25808   */\n    tag_340:\n        /* \"#utility.yul\":25786:25800   */\n      0x617274776f726b20736f6c640000000000000000000000000000000000000000\n        /* \"#utility.yul\":25782:25783   */\n      0x00\n        /* \"#utility.yul\":25774:25780   */\n      dup3\n        /* \"#utility.yul\":25770:25784   */\n      add\n        /* \"#utility.yul\":25763:25801   */\n      mstore\n        /* \"#utility.yul\":25646:25808   */\n      pop\n      jump\t// out\n        /* \"#utility.yul\":25814:26180   */\n    tag_341:\n        /* \"#utility.yul\":25956:25959   */\n      0x00\n        /* \"#utility.yul\":25977:26044   */\n      tag_607\n        /* \"#utility.yul\":26041:26043   */\n      0x0c\n        /* \"#utility.yul\":26036:26039   */\n      dup4\n        /* \"#utility.yul\":25977:26044   */\n      tag_291\n      jump\t// in\n    tag_607:\n        /* \"#utility.yul\":25970:26044   */\n      swap2\n      pop\n        /* \"#utility.yul\":26053:26146   */\n      tag_608\n        /* \"#utility.yul\":26142:26145   */\n      dup3\n        /* \"#utility.yul\":26053:26146   */\n      tag_340\n      jump\t// in\n    tag_608:\n        /* \"#utility.yul\":26171:26173   */\n      0x20\n        /* \"#utility.yul\":26166:26169   */\n      dup3\n        /* \"#utility.yul\":26162:26174   */\n      add\n        /* \"#utility.yul\":26155:26174   */\n      swap1\n      pop\n        /* \"#utility.yul\":25814:26180   */\n      swap2\n      swap1\n      pop\n      jump\t// out\n        /* \"#utility.yul\":26186:26715   */\n    tag_163:\n        /* \"#utility.yul\":26380:26384   */\n      0x00\n        /* \"#utility.yul\":26418:26420   */\n      0x40\n        /* \"#utility.yul\":26407:26416   */\n      dup3\n        /* \"#utility.yul\":26403:26421   */\n      add\n        /* \"#utility.yul\":26395:26421   */\n      swap1\n      pop\n        /* \"#utility.yul\":26431:26502   */\n      tag_610\n        /* \"#utility.yul\":26499:26500   */\n      0x00\n        /* \"#utility.yul\":26488:26497   */\n      dup4\n        /* \"#utility.yul\":26484:26501   */\n      add\n        /* \"#utility.yul\":26475:26481   */\n      dup5\n        /* \"#utility.yul\":26431:26502   */\n      tag_287\n      jump\t// in\n    tag_610:\n        /* \"#utility.yul\":26549:26558   */\n      dup2\n        /* \"#utility.yul\":26543:26547   */\n      dup2\n        /* \"#utility.yul\":26539:26559   */\n      sub\n        /* \"#utility.yul\":26534:26536   */\n      0x20\n        /* \"#utility.yul\":26523:26532   */\n      dup4\n        /* \"#utility.yul\":26519:26537   */\n      add\n        /* \"#utility.yul\":26512:26560   */\n      mstore\n        /* \"#utility.yul\":26577:26708   */\n      tag_611\n        /* \"#utility.yul\":26703:26707   */\n      dup2\n        /* \"#utility.yul\":26577:26708   */\n      tag_341\n      jump\t// in\n    tag_611:\n        /* \"#utility.yul\":26569:26708   */\n      swap1\n      pop\n        /* \"#utility.yul\":26186:26715   */\n      swap3\n      swap2\n      pop\n      pop\n      jump\t// out\n        /* \"#utility.yul\":26721:27131   */\n    tag_198:\n        /* \"#utility.yul\":26761:26768   */\n      0x00\n        /* \"#utility.yul\":26784:26804   */\n      tag_613\n        /* \"#utility.yul\":26802:26803   */\n      dup3\n        /* \"#utility.yul\":26784:26804   */\n      tag_284\n      jump\t// in\n    tag_613:\n        /* \"#utility.yul\":26779:26804   */\n      swap2\n      pop\n        /* \"#utility.yul\":26818:26838   */\n      tag_614\n        /* \"#utility.yul\":26836:26837   */\n      dup4\n        /* \"#utility.yul\":26818:26838   */\n      tag_284\n      jump\t// in\n    tag_614:\n        /* \"#utility.yul\":26813:26838   */\n      swap3\n      pop\n        /* \"#utility.yul\":26873:26874   */\n      dup3\n        /* \"#utility.yul\":26870:26871   */\n      dup3\n        /* \"#utility.yul\":26866:26875   */\n      mul\n        /* \"#utility.yul\":26895:26925   */\n      tag_615\n        /* \"#utility.yul\":26913:26924   */\n      dup2\n        /* \"#utility.yul\":26895:26925   */\n      tag_284\n      jump\t// in\n    tag_615:\n        /* \"#utility.yul\":26884:26925   */\n      swap2\n      pop\n        /* \"#utility.yul\":27074:27075   */\n      dup3\n        /* \"#utility.yul\":27065:27072   */\n      dup3\n        /* \"#utility.yul\":27061:27076   */\n      div\n        /* \"#utility.yul\":27058:27059   */\n      dup5\n        /* \"#utility.yul\":27055:27077   */\n      eq\n        /* \"#utility.yul\":27035:27036   */\n      dup4\n        /* \"#utility.yul\":27028:27037   */\n      iszero\n        /* \"#utility.yul\":27008:27091   */\n      or\n        /* \"#utility.yul\":26985:27124   */\n      tag_616\n      jumpi\n        /* \"#utility.yul\":27104:27122   */\n      tag_617\n      tag_318\n      jump\t// in\n    tag_617:\n        /* \"#utility.yul\":26985:27124   */\n    tag_616:\n        /* \"#utility.yul\":26769:27131   */\n      pop\n        /* \"#utility.yul\":26721:27131   */\n      swap3\n      swap2\n      pop\n      pop\n      jump\t// out\n        /* \"#utility.yul\":27137:27317   */\n    tag_342:\n        /* \"#utility.yul\":27185:27262   */\n      0x4e487b7100000000000000000000000000000000000000000000000000000000\n        /* \"#utility.yul\":27182:27183   */\n      0x00\n        /* \"#utility.yul\":27175:27263   */\n      mstore\n        /* \"#utility.yul\":27282:27286   */\n      0x12\n        /* \"#utility.yul\":27279:27280   */\n      0x04\n        /* \"#utility.yul\":27272:27287   */\n      mstore\n        /* \"#utility.yul\":27306:27310   */\n      0x24\n        /* \"#utility.yul\":27303:27304   */\n      0x00\n        /* \"#utility.yul\":27296:27311   */\n      revert\n        /* \"#utility.yul\":27323:27508   */\n    tag_200:\n        /* \"#utility.yul\":27363:27364   */\n      0x00\n        /* \"#utility.yul\":27380:27400   */\n      tag_620\n        /* \"#utility.yul\":27398:27399   */\n      dup3\n        /* \"#utility.yul\":27380:27400   */\n      tag_284\n      jump\t// in\n    tag_620:\n        /* \"#utility.yul\":27375:27400   */\n      swap2\n      pop\n        /* \"#utility.yul\":27414:27434   */\n      tag_621\n        /* \"#utility.yul\":27432:27433   */\n      dup4\n        /* \"#utility.yul\":27414:27434   */\n      tag_284\n      jump\t// in\n    tag_621:\n        /* \"#utility.yul\":27409:27434   */\n      swap3\n      pop\n        /* \"#utility.yul\":27453:27454   */\n      dup3\n        /* \"#utility.yul\":27443:27478   */\n      tag_622\n      jumpi\n        /* \"#utility.yul\":27458:27476   */\n      tag_623\n      tag_342\n      jump\t// in\n    tag_623:\n        /* \"#utility.yul\":27443:27478   */\n    tag_622:\n        /* \"#utility.yul\":27500:27501   */\n      dup3\n        /* \"#utility.yul\":27497:27498   */\n      dup3\n        /* \"#utility.yul\":27493:27502   */\n      div\n        /* \"#utility.yul\":27488:27502   */\n      swap1\n      pop\n        /* \"#utility.yul\":27323:27508   */\n      swap3\n      swap2\n      pop\n      pop\n      jump\t// out\n        /* \"#utility.yul\":27514:27694   */\n    tag_218:\n        /* \"#utility.yul\":27562:27639   */\n      0x4e487b7100000000000000000000000000000000000000000000000000000000\n        /* \"#utility.yul\":27559:27560   */\n      0x00\n        /* \"#utility.yul\":27552:27640   */\n      mstore\n        /* \"#utility.yul\":27659:27663   */\n      0x21\n        /* \"#utility.yul\":27656:27657   */\n      0x04\n        /* \"#utility.yul\":27649:27664   */\n      mstore\n        /* \"#utility.yul\":27683:27687   */\n      0x24\n        /* \"#utility.yul\":27680:27681   */\n      0x00\n        /* \"#utility.yul\":27673:27688   */\n      revert\n        /* \"#utility.yul\":27700:27922   */\n    tag_242:\n        /* \"#utility.yul\":27793:27797   */\n      0x00\n        /* \"#utility.yul\":27831:27833   */\n      0x20\n        /* \"#utility.yul\":27820:27829   */\n      dup3\n        /* \"#utility.yul\":27816:27834   */\n      add\n        /* \"#utility.yul\":27808:27834   */\n      swap1\n      pop\n        /* \"#utility.yul\":27844:27915   */\n      tag_626\n        /* \"#utility.yul\":27912:27913   */\n      0x00\n        /* \"#utility.yul\":27901:27910   */\n      dup4\n        /* \"#utility.yul\":27897:27914   */\n      add\n        /* \"#utility.yul\":27888:27894   */\n      dup5\n        /* \"#utility.yul\":27844:27915   */\n      tag_297\n      jump\t// in\n    tag_626:\n        /* \"#utility.yul\":27700:27922   */\n      swap3\n      swap2\n      pop\n      pop\n      jump\t// out\n        /* \"#utility.yul\":27928:28592   */\n    tag_255:\n        /* \"#utility.yul\":28133:28137   */\n      0x00\n        /* \"#utility.yul\":28171:28174   */\n      0xa0\n        /* \"#utility.yul\":28160:28169   */\n      dup3\n        /* \"#utility.yul\":28156:28175   */\n      add\n        /* \"#utility.yul\":28148:28175   */\n      swap1\n      pop\n        /* \"#utility.yul\":28185:28256   */\n      tag_628\n        /* \"#utility.yul\":28253:28254   */\n      0x00\n        /* \"#utility.yul\":28242:28251   */\n      dup4\n        /* \"#utility.yul\":28238:28255   */\n      add\n        /* \"#utility.yul\":28229:28235   */\n      dup9\n        /* \"#utility.yul\":28185:28256   */\n      tag_297\n      jump\t// in\n    tag_628:\n        /* \"#utility.yul\":28266:28338   */\n      tag_629\n        /* \"#utility.yul\":28334:28336   */\n      0x20\n        /* \"#utility.yul\":28323:28332   */\n      dup4\n        /* \"#utility.yul\":28319:28337   */\n      add\n        /* \"#utility.yul\":28310:28316   */\n      dup8\n        /* \"#utility.yul\":28266:28338   */\n      tag_297\n      jump\t// in\n    tag_629:\n        /* \"#utility.yul\":28348:28420   */\n      tag_630\n        /* \"#utility.yul\":28416:28418   */\n      0x40\n        /* \"#utility.yul\":28405:28414   */\n      dup4\n        /* \"#utility.yul\":28401:28419   */\n      add\n        /* \"#utility.yul\":28392:28398   */\n      dup7\n        /* \"#utility.yul\":28348:28420   */\n      tag_297\n      jump\t// in\n    tag_630:\n        /* \"#utility.yul\":28430:28502   */\n      tag_631\n        /* \"#utility.yul\":28498:28500   */\n      0x60\n        /* \"#utility.yul\":28487:28496   */\n      dup4\n        /* \"#utility.yul\":28483:28501   */\n      add\n        /* \"#utility.yul\":28474:28480   */\n      dup6\n        /* \"#utility.yul\":28430:28502   */\n      tag_287\n      jump\t// in\n    tag_631:\n        /* \"#utility.yul\":28512:28585   */\n      tag_632\n        /* \"#utility.yul\":28580:28583   */\n      0x80\n        /* \"#utility.yul\":28569:28578   */\n      dup4\n        /* \"#utility.yul\":28565:28584   */\n      add\n        /* \"#utility.yul\":28556:28562   */\n      dup5\n        /* \"#utility.yul\":28512:28585   */\n      tag_295\n      jump\t// in\n    tag_632:\n        /* \"#utility.yul\":27928:28592   */\n      swap7\n      swap6\n      pop\n      pop\n      pop\n      pop\n      pop\n      pop\n      jump\t// out\n        /* \"#utility.yul\":28598:28684   */\n    tag_343:\n        /* \"#utility.yul\":28633:28640   */\n      0x00\n        /* \"#utility.yul\":28673:28677   */\n      0xff\n        /* \"#utility.yul\":28666:28671   */\n      dup3\n        /* \"#utility.yul\":28662:28678   */\n      and\n        /* \"#utility.yul\":28651:28678   */\n      swap1\n      pop\n        /* \"#utility.yul\":28598:28684   */\n      swap2\n      swap1\n      pop\n      jump\t// out\n        /* \"#utility.yul\":28690:28802   */\n    tag_344:\n        /* \"#utility.yul\":28773:28795   */\n      tag_635\n        /* \"#utility.yul\":28789:28794   */\n      dup2\n        /* \"#utility.yul\":28773:28795   */\n      tag_343\n      jump\t// in\n    tag_635:\n        /* \"#utility.yul\":28768:28771   */\n      dup3\n        /* \"#utility.yul\":28761:28796   */\n      mstore\n        /* \"#utility.yul\":28690:28802   */\n      pop\n      pop\n      jump\t// out\n        /* \"#utility.yul\":28808:29353   */\n    tag_259:\n        /* \"#utility.yul\":28981:28985   */\n      0x00\n        /* \"#utility.yul\":29019:29022   */\n      0x80\n        /* \"#utility.yul\":29008:29017   */\n      dup3\n        /* \"#utility.yul\":29004:29023   */\n      add\n        /* \"#utility.yul\":28996:29023   */\n      swap1\n      pop\n        /* \"#utility.yul\":29033:29104   */\n      tag_637\n        /* \"#utility.yul\":29101:29102   */\n      0x00\n        /* \"#utility.yul\":29090:29099   */\n      dup4\n        /* \"#utility.yul\":29086:29103   */\n      add\n        /* \"#utility.yul\":29077:29083   */\n      dup8\n        /* \"#utility.yul\":29033:29104   */\n      tag_297\n      jump\t// in\n    tag_637:\n        /* \"#utility.yul\":29114:29182   */\n      tag_638\n        /* \"#utility.yul\":29178:29180   */\n      0x20\n        /* \"#utility.yul\":29167:29176   */\n      dup4\n        /* \"#utility.yul\":29163:29181   */\n      add\n        /* \"#utility.yul\":29154:29160   */\n      dup7\n        /* \"#utility.yul\":29114:29182   */\n      tag_344\n      jump\t// in\n    tag_638:\n        /* \"#utility.yul\":29192:29264   */\n      tag_639\n        /* \"#utility.yul\":29260:29262   */\n      0x40\n        /* \"#utility.yul\":29249:29258   */\n      dup4\n        /* \"#utility.yul\":29245:29263   */\n      add\n        /* \"#utility.yul\":29236:29242   */\n      dup6\n        /* \"#utility.yul\":29192:29264   */\n      tag_297\n      jump\t// in\n    tag_639:\n        /* \"#utility.yul\":29274:29346   */\n      tag_640\n        /* \"#utility.yul\":29342:29344   */\n      0x60\n        /* \"#utility.yul\":29331:29340   */\n      dup4\n        /* \"#utility.yul\":29327:29345   */\n      add\n        /* \"#utility.yul\":29318:29324   */\n      dup5\n        /* \"#utility.yul\":29274:29346   */\n      tag_297\n      jump\t// in\n    tag_640:\n        /* \"#utility.yul\":28808:29353   */\n      swap6\n      swap5\n      pop\n      pop\n      pop\n      pop\n      pop\n      jump\t// out\n\n    auxdata: 0xa2646970667358221220f466ab053f095c73d660132153bc9288688a2d252046b68d55b5d51389ff3b9b64736f6c63430008180033\n}\n",
				"bytecode": {
					"linkReferences": {},
					"object": "6101606040525f60075534801562000015575f80fd5b506040518060400160405280601081526020017f436f6c6c61626f726174697665417274000000000000000000000000000000008152506040518060400160405280600381526020017f312e300000000000000000000000000000000000000000000000000000000000815250620000975f836200017760201b90919060201c565b6101208181525050620000b56001826200017760201b90919060201c565b6101408181525050818051906020012060e08181525050808051906020012061010081815250504660a08181525050620000f4620001cc60201b60201c565b608081815250503073ffffffffffffffffffffffffffffffffffffffff1660c08173ffffffffffffffffffffffffffffffffffffffff168152505050503360025f6101000a81548173ffffffffffffffffffffffffffffffffffffffff021916908373ffffffffffffffffffffffffffffffffffffffff160217905550620007f6565b5f6020835110156200019c5762000194836200022860201b60201c565b9050620001c6565b82620001ae836200029260201b60201c565b5f019081620001be9190620004ff565b5060ff5f1b90505b92915050565b5f7f8b73c3c69bb8fe3d512ecc4cf759cc79239f7b179b0ffacaa9a75d522b39400f60e0516101005146306040516020016200020d95949392919062000651565b60405160208183030381529060405280519060200120905090565b5f80829050601f815111156200027757826040517f305a27a90000000000000000000000000000000000000000000000000000000081526004016200026e919062000736565b60405180910390fd5b805181620002859062000787565b5f1c175f1b915050919050565b5f819050919050565b5f81519050919050565b7f4e487b71000000000000000000000000000000000000000000000000000000005f52604160045260245ffd5b7f4e487b71000000000000000000000000000000000000000000000000000000005f52602260045260245ffd5b5f60028204905060018216806200031757607f821691505b6020821081036200032d576200032c620002d2565b5b50919050565b5f819050815f5260205f209050919050565b5f6020601f8301049050919050565b5f82821b905092915050565b5f60088302620003917fffffffffffffffffffffffffffffffffffffffffffffffffffffffffffffffff8262000354565b6200039d868362000354565b95508019841693508086168417925050509392505050565b5f819050919050565b5f819050919050565b5f620003e7620003e1620003db84620003b5565b620003be565b620003b5565b9050919050565b5f819050919050565b6200040283620003c7565b6200041a6200041182620003ee565b84845462000360565b825550505050565b5f90565b6200043062000422565b6200043d818484620003f7565b505050565b5b818110156200046457620004585f8262000426565b60018101905062000443565b5050565b601f821115620004b3576200047d8162000333565b620004888462000345565b8101602085101562000498578190505b620004b0620004a78562000345565b83018262000442565b50505b505050565b5f82821c905092915050565b5f620004d55f1984600802620004b8565b1980831691505092915050565b5f620004ef8383620004c4565b9150826002028217905092915050565b6200050a826200029b565b67ffffffffffffffff811115620005265762000525620002a5565b5b620005328254620002ff565b6200053f82828562000468565b5f60209050601f83116001811462000575575f841562000560578287015190505b6200056c8582620004e2565b865550620005db565b601f198416620005858662000333565b5f5b82811015620005ae5784890151825560018201915060208501945060208101905062000587565b86831015620005ce5784890151620005ca601f891682620004c4565b8355505b6001600288020188555050505b505050505050565b5f819050919050565b620005f781620005e3565b82525050565b6200060881620003b5565b82525050565b5f73ffffffffffffffffffffffffffffffffffffffff82169050919050565b5f62000639826200060e565b9050919050565b6200064b816200062d565b82525050565b5f60a082019050620006665f830188620005ec565b620006756020830187620005ec565b620006846040830186620005ec565b620006936060830185620005fd565b620006a2608083018462000640565b9695505050505050565b5f82825260208201905092915050565b5f5b83811015620006db578082015181840152602081019050620006be565b5f8484015250505050565b5f601f19601f8301169050919050565b5f62000702826200029b565b6200070e8185620006ac565b935062000720818560208601620006bc565b6200072b81620006e6565b840191505092915050565b5f6020820190508181035f830152620007508184620006f6565b905092915050565b5f81519050919050565b5f819050602082019050919050565b5f6200077e8251620005e3565b80915050919050565b5f620007938262000758565b826200079f8462000762565b9050620007ac8162000771565b92506020821015620007ef57620007ea7fffffffffffffffffffffffffffffffffffffffffffffffffffffffffffffffff8360200360080262000354565b831692505b5050919050565b60805160a05160c05160e0516101005161012051610140516124fd620008485f395f610e7701525f610e3c01525f6113ab01525f61138a01525f61100f01525f61106501525f61108e01526124fd5ff3fe6080604052600436106100e7575f3560e01c806385e08a6b11610089578063ab1ce0b011610058578063ab1ce0b0146102eb578063cd7e10c1146102f5578063d44a0e6114610332578063e89e4ed61461035c576100e7565b806385e08a6b1461023357806389b5efa71461025b5780638da5cb5b146102855780638f2238ba146102af576100e7565b80636beeedb8116100c55780636beeedb8146101775780637f8fbc221461019f57806384b0196e146101db57806384b62c281461020b576100e7565b806352bb27b0146100eb578063538b7242146101135780635d1b58051461014f575b5f80fd5b3480156100f6575f80fd5b50610111600480360381019061010c9190611614565b61039a565b005b34801561011e575f80fd5b50610139600480360381019061013491906116b9565b6105bc565b60405161014691906116fe565b60405180910390f35b34801561015a575f80fd5b506101756004803603810190610170919061174a565b6105d9565b005b348015610182575f80fd5b5061019d60048036038101906101989190611788565b610814565b005b3480156101aa575f80fd5b506101c560048036038101906101c091906116b9565b6108ad565b6040516101d291906117c2565b60405180910390f35b3480156101e6575f80fd5b506101ef6108c2565b604051610202979695949392919061197d565b60405180910390f35b348015610216575f80fd5b50610231600480360381019061022c9190611b27565b610967565b005b34801561023e575f80fd5b5061025960048036038101906102549190611788565b610a7e565b005b348015610266575f80fd5b5061026f610b8b565b60405161027c91906117c2565b60405180910390f35b348015610290575f80fd5b50610299610b91565b6040516102a69190611b81565b60405180910390f35b3480156102ba575f80fd5b506102d560048036038101906102d09190611b9a565b610bb6565b6040516102e29190611be1565b60405180910390f35b6102f3610c4f565b005b348015610300575f80fd5b5061031b60048036038101906103169190611788565b610cd6565b604051610329929190611c01565b60405180910390f35b34801561033d575f80fd5b50610346610d24565b60405161035391906117c2565b60405180910390f35b348015610367575f80fd5b50610382600480360381019061037d9190611788565b610d2a565b60405161039193929190611c28565b60405180910390f35b5f60055f3373ffffffffffffffffffffffffffffffffffffffff1673ffffffffffffffffffffffffffffffffffffffff1681526020019081526020015f205411610419576040517f08c379a000000000000000000000000000000000000000000000000000000000815260040161041090611cae565b60405180910390fd5b5f61046b7f8540a2c73aef6d686398f23a870bf15edd661211f410e2614d1e6add9f1b737533604051602001610450929190611ccc565b60405160208183030381529060405280519060200120610df1565b90505f6104bb8285858080601f0160208091040260200160405190810160405280939291908181526020018383808284375f81840152601f19601f82011690508083019250505050505050610e0a565b90503373ffffffffffffffffffffffffffffffffffffffff168173ffffffffffffffffffffffffffffffffffffffff161461052b576040517f08c379a000000000000000000000000000000000000000000000000000000000815260040161052290611d3d565b60405180910390fd5b600160065f3373ffffffffffffffffffffffffffffffffffffffff1673ffffffffffffffffffffffffffffffffffffffff1681526020019081526020015f205f6101000a81548160ff0219169083151502179055507ea8282372ef7169fe149442a58bf78d598416efe464e3468b4de9997235e9d7336040516105ae9190611b81565b60405180910390a150505050565b6006602052805f5260405f205f915054906101000a900460ff1681565b60025f9054906101000a900473ffffffffffffffffffffffffffffffffffffffff1673ffffffffffffffffffffffffffffffffffffffff163373ffffffffffffffffffffffffffffffffffffffff1614610668576040517f08c379a000000000000000000000000000000000000000000000000000000000815260040161065f90611dcb565b60405180910390fd5b6064816007546106789190611e16565b11156106b9576040517f08c379a00000000000000000000000000000000000000000000000000000000081526004016106b090611e93565b60405180910390fd5b5f60405180604001604052808473ffffffffffffffffffffffffffffffffffffffff168152602001838152509050600381908060018154018082558091505060019003905f5260205f2090600202015f909190919091505f820151815f015f6101000a81548173ffffffffffffffffffffffffffffffffffffffff021916908373ffffffffffffffffffffffffffffffffffffffff1602179055506020820151816001015550508160055f8573ffffffffffffffffffffffffffffffffffffffff1673ffffffffffffffffffffffffffffffffffffffff1681526020019081526020015f2081905550600160065f8573ffffffffffffffffffffffffffffffffffffffff1673ffffffffffffffffffffffffffffffffffffffff1681526020019081526020015f205f6101000a81548160ff0219169083151502179055508160075f8282546108089190611e16565b92505081905550505050565b60025f9054906101000a900473ffffffffffffffffffffffffffffffffffffffff1673ffffffffffffffffffffffffffffffffffffffff163373ffffffffffffffffffffffffffffffffffffffff16146108a3576040517f08c379a000000000000000000000000000000000000000000000000000000000815260040161089a90611dcb565b60405180910390fd5b8060088190555050565b6005602052805f5260405f205f915090505481565b5f6060805f805f60606108d3610e34565b6108db610e6e565b46305f801b5f67ffffffffffffffff8111156108fa576108f9611a03565b5b6040519080825280602002602001820160405280156109285781602001602082028036833780820191505090505b507f0f00000000000000000000000000000000000000000000000000000000000000959493929190965096509650965096509650965090919293949596565b60025f9054906101000a900473ffffffffffffffffffffffffffffffffffffffff1673ffffffffffffffffffffffffffffffffffffffff163373ffffffffffffffffffffffffffffffffffffffff16146109f6576040517f08c379a00000000000000000000000000000000000000000000000000000000081526004016109ed90611dcb565b60405180910390fd5b600460405180606001604052808481526020018381526020015f1515815250908060018154018082558091505060019003905f5260205f2090600302015f909190919091505f820151815f019081610a4e91906120ab565b50602082015181600101556040820151816002015f6101000a81548160ff02191690831515021790555050505050565b60025f9054906101000a900473ffffffffffffffffffffffffffffffffffffffff1673ffffffffffffffffffffffffffffffffffffffff163373ffffffffffffffffffffffffffffffffffffffff1614610b0d576040517f08c379a0000000000000000000000000000000000000000000000000000000008152600401610b0490611dcb565b60405180910390fd5b5f60048281548110610b2257610b2161217a565b5b905f5260205f20906003020190506001816002015f6101000a81548160ff0219169083151502179055507f596b9dbf4a34a065b97919d952a438e69135615bbbe14d29df893d0ee0d78e4882825f01604051610b7f929190612228565b60405180910390a15050565b60085481565b60025f9054906101000a900473ffffffffffffffffffffffffffffffffffffffff1681565b606060025f9054906101000a900473ffffffffffffffffffffffffffffffffffffffff1673ffffffffffffffffffffffffffffffffffffffff163373ffffffffffffffffffffffffffffffffffffffff1614610c47576040517f08c379a0000000000000000000000000000000000000000000000000000000008152600401610c3e90611dcb565b60405180910390fd5b819050919050565b6008543414610c93576040517f08c379a0000000000000000000000000000000000000000000000000000000008152600401610c8a906122a0565b60405180910390fd5b610c9b610ea9565b7fd9952cbf75a3b7d22cfb7c2b9c7c00a23513676e5a486e14dcaf74485b483127600854604051610ccc9190612308565b60405180910390a1565b60038181548110610ce5575f80fd5b905f5260205f2090600202015f91509050805f015f9054906101000a900473ffffffffffffffffffffffffffffffffffffffff16908060010154905082565b60075481565b60048181548110610d39575f80fd5b905f5260205f2090600302015f91509050805f018054610d5890611ede565b80601f0160208091040260200160405190810160405280929190818152602001828054610d8490611ede565b8015610dcf5780601f10610da657610100808354040283529160200191610dcf565b820191905f5260205f20905b815481529060010190602001808311610db257829003601f168201915b505050505090806001015490806002015f9054906101000a900460ff16905083565b5f610e03610dfd61100c565b836110c2565b9050919050565b5f805f80610e188686611102565b925092509250610e288282611157565b82935050505092915050565b6060610e695f7f00000000000000000000000000000000000000000000000000000000000000006112b990919063ffffffff16565b905090565b6060610ea460017f00000000000000000000000000000000000000000000000000000000000000006112b990919063ffffffff16565b905090565b5f5b600380549050811015611009575f60038281548110610ecd57610ecc61217a565b5b905f5260205f2090600202016040518060400160405290815f82015f9054906101000a900473ffffffffffffffffffffffffffffffffffffffff1673ffffffffffffffffffffffffffffffffffffffff1673ffffffffffffffffffffffffffffffffffffffff168152602001600182015481525050905060065f825f015173ffffffffffffffffffffffffffffffffffffffff1673ffffffffffffffffffffffffffffffffffffffff1681526020019081526020015f205f9054906101000a900460ff1615610ffb57805f015173ffffffffffffffffffffffffffffffffffffffff166108fc60648360200151600854610fc79190612334565b610fd191906123a2565b90811502906040515f60405180830381858888f19350505050158015610ff9573d5f803e3d5ffd5b505b508080600101915050610eab565b50565b5f7f000000000000000000000000000000000000000000000000000000000000000073ffffffffffffffffffffffffffffffffffffffff163073ffffffffffffffffffffffffffffffffffffffff1614801561108757507f000000000000000000000000000000000000000000000000000000000000000046145b156110b4577f000000000000000000000000000000000000000000000000000000000000000090506110bf565b6110bc611366565b90505b90565b5f6040517f190100000000000000000000000000000000000000000000000000000000000081528360028201528260228201526042812091505092915050565b5f805f6041845103611142575f805f602087015192506040870151915060608701515f1a9050611134888285856113fb565b955095509550505050611150565b5f600285515f1b9250925092505b9250925092565b5f600381111561116a576111696123d2565b5b82600381111561117d5761117c6123d2565b5b03156112b55760016003811115611197576111966123d2565b5b8260038111156111aa576111a96123d2565b5b036111e1576040517ff645eedf00000000000000000000000000000000000000000000000000000000815260040160405180910390fd5b600260038111156111f5576111f46123d2565b5b826003811115611208576112076123d2565b5b0361124c57805f1c6040517ffce698f700000000000000000000000000000000000000000000000000000000815260040161124391906117c2565b60405180910390fd5b60038081111561125f5761125e6123d2565b5b826003811115611272576112716123d2565b5b036112b457806040517fd78bce0c0000000000000000000000000000000000000000000000000000000081526004016112ab91906123ff565b60405180910390fd5b5b5050565b606060ff5f1b83146112d5576112ce836114e2565b9050611360565b8180546112e190611ede565b80601f016020809104026020016040519081016040528092919081815260200182805461130d90611ede565b80156113585780601f1061132f57610100808354040283529160200191611358565b820191905f5260205f20905b81548152906001019060200180831161133b57829003601f168201915b505050505090505b92915050565b5f7f8b73c3c69bb8fe3d512ecc4cf759cc79239f7b179b0ffacaa9a75d522b39400f7f00000000000000000000000000000000000000000000000000000000000000007f000000000000000000000000000000000000000000000000000000000000000046306040516020016113e0959493929190612418565b60405160208183030381529060405280519060200120905090565b5f805f7f7fffffffffffffffffffffffffffffff5d576e7357a4501ddfe92f46681b20a0845f1c1115611437575f6003859250925092506114d8565b5f6001888888886040515f815260200160405260405161145a9493929190612484565b6020604051602081039080840390855afa15801561147a573d5f803e3d5ffd5b5050506020604051035190505f73ffffffffffffffffffffffffffffffffffffffff168173ffffffffffffffffffffffffffffffffffffffff16036114cb575f60015f801b935093509350506114d8565b805f805f1b935093509350505b9450945094915050565b60605f6114ee83611554565b90505f602067ffffffffffffffff81111561150c5761150b611a03565b5b6040519080825280601f01601f19166020018201604052801561153e5781602001600182028036833780820191505090505b5090508181528360208201528092505050919050565b5f8060ff835f1c169050601f811115611599576040517fb3512b0c00000000000000000000000000000000000000000000000000000000815260040160405180910390fd5b80915050919050565b5f604051905090565b5f80fd5b5f80fd5b5f80fd5b5f80fd5b5f80fd5b5f8083601f8401126115d4576115d36115b3565b5b8235905067ffffffffffffffff8111156115f1576115f06115b7565b5b60208301915083600182028301111561160d5761160c6115bb565b5b9250929050565b5f806020838503121561162a576116296115ab565b5b5f83013567ffffffffffffffff811115611647576116466115af565b5b611653858286016115bf565b92509250509250929050565b5f73ffffffffffffffffffffffffffffffffffffffff82169050919050565b5f6116888261165f565b9050919050565b6116988161167e565b81146116a2575f80fd5b50565b5f813590506116b38161168f565b92915050565b5f602082840312156116ce576116cd6115ab565b5b5f6116db848285016116a5565b91505092915050565b5f8115159050919050565b6116f8816116e4565b82525050565b5f6020820190506117115f8301846116ef565b92915050565b5f819050919050565b61172981611717565b8114611733575f80fd5b50565b5f8135905061174481611720565b92915050565b5f80604083850312156117605761175f6115ab565b5b5f61176d858286016116a5565b925050602061177e85828601611736565b9150509250929050565b5f6020828403121561179d5761179c6115ab565b5b5f6117aa84828501611736565b91505092915050565b6117bc81611717565b82525050565b5f6020820190506117d55f8301846117b3565b92915050565b5f7fff0000000000000000000000000000000000000000000000000000000000000082169050919050565b61180f816117db565b82525050565b5f81519050919050565b5f82825260208201905092915050565b5f5b8381101561184c578082015181840152602081019050611831565b5f8484015250505050565b5f601f19601f8301169050919050565b5f61187182611815565b61187b818561181f565b935061188b81856020860161182f565b61189481611857565b840191505092915050565b6118a88161167e565b82525050565b5f819050919050565b6118c0816118ae565b82525050565b5f81519050919050565b5f82825260208201905092915050565b5f819050602082019050919050565b6118f881611717565b82525050565b5f61190983836118ef565b60208301905092915050565b5f602082019050919050565b5f61192b826118c6565b61193581856118d0565b9350611940836118e0565b805f5b8381101561197057815161195788826118fe565b975061196283611915565b925050600181019050611943565b5085935050505092915050565b5f60e0820190506119905f83018a611806565b81810360208301526119a28189611867565b905081810360408301526119b68188611867565b90506119c560608301876117b3565b6119d2608083018661189f565b6119df60a08301856118b7565b81810360c08301526119f18184611921565b905098975050505050505050565b5f80fd5b7f4e487b71000000000000000000000000000000000000000000000000000000005f52604160045260245ffd5b611a3982611857565b810181811067ffffffffffffffff82111715611a5857611a57611a03565b5b80604052505050565b5f611a6a6115a2565b9050611a768282611a30565b919050565b5f67ffffffffffffffff821115611a9557611a94611a03565b5b611a9e82611857565b9050602081019050919050565b828183375f83830152505050565b5f611acb611ac684611a7b565b611a61565b905082815260208101848484011115611ae757611ae66119ff565b5b611af2848285611aab565b509392505050565b5f82601f830112611b0e57611b0d6115b3565b5b8135611b1e848260208601611ab9565b91505092915050565b5f8060408385031215611b3d57611b3c6115ab565b5b5f83013567ffffffffffffffff811115611b5a57611b596115af565b5b611b6685828601611afa565b9250506020611b7785828601611736565b9150509250929050565b5f602082019050611b945f83018461189f565b92915050565b5f60208284031215611baf57611bae6115ab565b5b5f82013567ffffffffffffffff811115611bcc57611bcb6115af565b5b611bd884828501611afa565b91505092915050565b5f6020820190508181035f830152611bf98184611867565b905092915050565b5f604082019050611c145f83018561189f565b611c2160208301846117b3565b9392505050565b5f6060820190508181035f830152611c408186611867565b9050611c4f60208301856117b3565b611c5c60408301846116ef565b949350505050565b7f6d75737420626520616e20617274697374206f66207468652070726f6a6563745f82015250565b5f611c9860208361181f565b9150611ca382611c64565b602082019050919050565b5f6020820190508181035f830152611cc581611c8c565b9050919050565b5f604082019050611cdf5f8301856118b7565b611cec602083018461189f565b9392505050565b7f696e76616c6964207369676e61747572650000000000000000000000000000005f82015250565b5f611d2760118361181f565b9150611d3282611cf3565b602082019050919050565b5f6020820190508181035f830152611d5481611d1b565b9050919050565b7f4f6e6c7920746865206f776e65722063616e2063616c6c20746869732066756e5f8201527f6374696f6e000000000000000000000000000000000000000000000000000000602082015250565b5f611db560258361181f565b9150611dc082611d5b565b604082019050919050565b5f6020820190508181035f830152611de281611da9565b9050919050565b7f4e487b71000000000000000000000000000000000000000000000000000000005f52601160045260245ffd5b5f611e2082611717565b9150611e2b83611717565b9250828201905080821115611e4357611e42611de9565b5b92915050565b7f546f74616c204f776e657273686970206d6178203130302500000000000000005f82015250565b5f611e7d60188361181f565b9150611e8882611e49565b602082019050919050565b5f6020820190508181035f830152611eaa81611e71565b9050919050565b7f4e487b71000000000000000000000000000000000000000000000000000000005f52602260045260245ffd5b5f6002820490506001821680611ef557607f821691505b602082108103611f0857611f07611eb1565b5b50919050565b5f819050815f5260205f209050919050565b5f6020601f8301049050919050565b5f82821b905092915050565b5f60088302611f6a7fffffffffffffffffffffffffffffffffffffffffffffffffffffffffffffffff82611f2f565b611f748683611f2f565b95508019841693508086168417925050509392505050565b5f819050919050565b5f611faf611faa611fa584611717565b611f8c565b611717565b9050919050565b5f819050919050565b611fc883611f95565b611fdc611fd482611fb6565b848454611f3b565b825550505050565b5f90565b611ff0611fe4565b611ffb818484611fbf565b505050565b5b8181101561201e576120135f82611fe8565b600181019050612001565b5050565b601f8211156120635761203481611f0e565b61203d84611f20565b8101602085101561204c578190505b61206061205885611f20565b830182612000565b50505b505050565b5f82821c905092915050565b5f6120835f1984600802612068565b1980831691505092915050565b5f61209b8383612074565b9150826002028217905092915050565b6120b482611815565b67ffffffffffffffff8111156120cd576120cc611a03565b5b6120d78254611ede565b6120e2828285612022565b5f60209050601f831160018114612113575f8415612101578287015190505b61210b8582612090565b865550612172565b601f19841661212186611f0e565b5f5b8281101561214857848901518255600182019150602085019450602081019050612123565b868310156121655784890151612161601f891682612074565b8355505b6001600288020188555050505b505050505050565b7f4e487b71000000000000000000000000000000000000000000000000000000005f52603260045260245ffd5b5f81546121b381611ede565b6121bd818661181f565b9450600182165f81146121d757600181146121ed5761221f565b60ff19831686528115156020028601935061221f565b6121f685611f0e565b5f5b83811015612217578154818901526001820191506020810190506121f8565b808801955050505b50505092915050565b5f60408201905061223b5f8301856117b3565b818103602083015261224d81846121a7565b90509392505050565b7f5061796d656e74206d75737420657175616c20746f20617274207072696365005f82015250565b5f61228a601f8361181f565b915061229582612256565b602082019050919050565b5f6020820190508181035f8301526122b78161227e565b9050919050565b7f617274776f726b20736f6c6400000000000000000000000000000000000000005f82015250565b5f6122f2600c8361181f565b91506122fd826122be565b602082019050919050565b5f60408201905061231b5f8301846117b3565b818103602083015261232c816122e6565b905092915050565b5f61233e82611717565b915061234983611717565b925082820261235781611717565b9150828204841483151761236e5761236d611de9565b5b5092915050565b7f4e487b71000000000000000000000000000000000000000000000000000000005f52601260045260245ffd5b5f6123ac82611717565b91506123b783611717565b9250826123c7576123c6612375565b5b828204905092915050565b7f4e487b71000000000000000000000000000000000000000000000000000000005f52602160045260245ffd5b5f6020820190506124125f8301846118b7565b92915050565b5f60a08201905061242b5f8301886118b7565b61243860208301876118b7565b61244560408301866118b7565b61245260608301856117b3565b61245f608083018461189f565b9695505050505050565b5f60ff82169050919050565b61247e81612469565b82525050565b5f6080820190506124975f8301876118b7565b6124a46020830186612475565b6124b160408301856118b7565b6124be60608301846118b7565b9594505050505056fea2646970667358221220f466ab053f095c73d660132153bc9288688a2d252046b68d55b5d51389ff3b9b64736f6c63430008180033",
					"opcodes": "PUSH2 0x160 PUSH1 0x40 MSTORE PUSH0 PUSH1 0x7 SSTORE CALLVALUE DUP1 ISZERO PUSH3 0x15 JUMPI PUSH0 DUP1 REVERT JUMPDEST POP PUSH1 0x40 MLOAD DUP1 PUSH1 0x40 ADD PUSH1 0x40 MSTORE DUP1 PUSH1 0x10 DUP2 MSTORE PUSH1 0x20 ADD PUSH32 0x436F6C6C61626F72617469766541727400000000000000000000000000000000 DUP2 MSTORE POP PUSH1 0x40 MLOAD DUP1 PUSH1 0x40 ADD PUSH1 0x40 MSTORE DUP1 PUSH1 0x3 DUP2 MSTORE PUSH1 0x20 ADD PUSH32 0x312E300000000000000000000000000000000000000000000000000000000000 DUP2 MSTORE POP PUSH3 0x97 PUSH0 DUP4 PUSH3 0x177 PUSH1 0x20 SHL SWAP1 SWAP2 SWAP1 PUSH1 0x20 SHR JUMP JUMPDEST PUSH2 0x120 DUP2 DUP2 MSTORE POP POP PUSH3 0xB5 PUSH1 0x1 DUP3 PUSH3 0x177 PUSH1 0x20 SHL SWAP1 SWAP2 SWAP1 PUSH1 0x20 SHR JUMP JUMPDEST PUSH2 0x140 DUP2 DUP2 MSTORE POP POP DUP2 DUP1 MLOAD SWAP1 PUSH1 0x20 ADD KECCAK256 PUSH1 0xE0 DUP2 DUP2 MSTORE POP POP DUP1 DUP1 MLOAD SWAP1 PUSH1 0x20 ADD KECCAK256 PUSH2 0x100 DUP2 DUP2 MSTORE POP POP CHAINID PUSH1 0xA0 DUP2 DUP2 MSTORE POP POP PUSH3 0xF4 PUSH3 0x1CC PUSH1 0x20 SHL PUSH1 0x20 SHR JUMP JUMPDEST PUSH1 0x80 DUP2 DUP2 MSTORE POP POP ADDRESS PUSH20 0xFFFFFFFFFFFFFFFFFFFFFFFFFFFFFFFFFFFFFFFF AND PUSH1 0xC0 DUP2 PUSH20 0xFFFFFFFFFFFFFFFFFFFFFFFFFFFFFFFFFFFFFFFF AND DUP2 MSTORE POP POP POP POP CALLER PUSH1 0x2 PUSH0 PUSH2 0x100 EXP DUP2 SLOAD DUP2 PUSH20 0xFFFFFFFFFFFFFFFFFFFFFFFFFFFFFFFFFFFFFFFF MUL NOT AND SWAP1 DUP4 PUSH20 0xFFFFFFFFFFFFFFFFFFFFFFFFFFFFFFFFFFFFFFFF AND MUL OR SWAP1 SSTORE POP PUSH3 0x7F6 JUMP JUMPDEST PUSH0 PUSH1 0x20 DUP4 MLOAD LT ISZERO PUSH3 0x19C JUMPI PUSH3 0x194 DUP4 PUSH3 0x228 PUSH1 0x20 SHL PUSH1 0x20 SHR JUMP JUMPDEST SWAP1 POP PUSH3 0x1C6 JUMP JUMPDEST DUP3 PUSH3 0x1AE DUP4 PUSH3 0x292 PUSH1 0x20 SHL PUSH1 0x20 SHR JUMP JUMPDEST PUSH0 ADD SWAP1 DUP2 PUSH3 0x1BE SWAP2 SWAP1 PUSH3 0x4FF JUMP JUMPDEST POP PUSH1 0xFF PUSH0 SHL SWAP1 POP JUMPDEST SWAP3 SWAP2 POP POP JUMP JUMPDEST PUSH0 PUSH32 0x8B73C3C69BB8FE3D512ECC4CF759CC79239F7B179B0FFACAA9A75D522B39400F PUSH1 0xE0 MLOAD PUSH2 0x100 MLOAD CHAINID ADDRESS PUSH1 0x40 MLOAD PUSH1 0x20 ADD PUSH3 0x20D SWAP6 SWAP5 SWAP4 SWAP3 SWAP2 SWAP1 PUSH3 0x651 JUMP JUMPDEST PUSH1 0x40 MLOAD PUSH1 0x20 DUP2 DUP4 SUB SUB DUP2 MSTORE SWAP1 PUSH1 0x40 MSTORE DUP1 MLOAD SWAP1 PUSH1 0x20 ADD KECCAK256 SWAP1 POP SWAP1 JUMP JUMPDEST PUSH0 DUP1 DUP3 SWAP1 POP PUSH1 0x1F DUP2 MLOAD GT ISZERO PUSH3 0x277 JUMPI DUP3 PUSH1 0x40 MLOAD PUSH32 0x305A27A900000000000000000000000000000000000000000000000000000000 DUP2 MSTORE PUSH1 0x4 ADD PUSH3 0x26E SWAP2 SWAP1 PUSH3 0x736 JUMP JUMPDEST PUSH1 0x40 MLOAD DUP1 SWAP2 SUB SWAP1 REVERT JUMPDEST DUP1 MLOAD DUP2 PUSH3 0x285 SWAP1 PUSH3 0x787 JUMP JUMPDEST PUSH0 SHR OR PUSH0 SHL SWAP2 POP POP SWAP2 SWAP1 POP JUMP JUMPDEST PUSH0 DUP2 SWAP1 POP SWAP2 SWAP1 POP JUMP JUMPDEST PUSH0 DUP2 MLOAD SWAP1 POP SWAP2 SWAP1 POP JUMP JUMPDEST PUSH32 0x4E487B7100000000000000000000000000000000000000000000000000000000 PUSH0 MSTORE PUSH1 0x41 PUSH1 0x4 MSTORE PUSH1 0x24 PUSH0 REVERT JUMPDEST PUSH32 0x4E487B7100000000000000000000000000000000000000000000000000000000 PUSH0 MSTORE PUSH1 0x22 PUSH1 0x4 MSTORE PUSH1 0x24 PUSH0 REVERT JUMPDEST PUSH0 PUSH1 0x2 DUP3 DIV SWAP1 POP PUSH1 0x1 DUP3 AND DUP1 PUSH3 0x317 JUMPI PUSH1 0x7F DUP3 AND SWAP2 POP JUMPDEST PUSH1 0x20 DUP3 LT DUP2 SUB PUSH3 0x32D JUMPI PUSH3 0x32C PUSH3 0x2D2 JUMP JUMPDEST JUMPDEST POP SWAP2 SWAP1 POP JUMP JUMPDEST PUSH0 DUP2 SWAP1 POP DUP2 PUSH0 MSTORE PUSH1 0x20 PUSH0 KECCAK256 SWAP1 POP SWAP2 SWAP1 POP JUMP JUMPDEST PUSH0 PUSH1 0x20 PUSH1 0x1F DUP4 ADD DIV SWAP1 POP SWAP2 SWAP1 POP JUMP JUMPDEST PUSH0 DUP3 DUP3 SHL SWAP1 POP SWAP3 SWAP2 POP POP JUMP JUMPDEST PUSH0 PUSH1 0x8 DUP4 MUL PUSH3 0x391 PUSH32 0xFFFFFFFFFFFFFFFFFFFFFFFFFFFFFFFFFFFFFFFFFFFFFFFFFFFFFFFFFFFFFFFF DUP3 PUSH3 0x354 JUMP JUMPDEST PUSH3 0x39D DUP7 DUP4 PUSH3 0x354 JUMP JUMPDEST SWAP6 POP DUP1 NOT DUP5 AND SWAP4 POP DUP1 DUP7 AND DUP5 OR SWAP3 POP POP POP SWAP4 SWAP3 POP POP POP JUMP JUMPDEST PUSH0 DUP2 SWAP1 POP SWAP2 SWAP1 POP JUMP JUMPDEST PUSH0 DUP2 SWAP1 POP SWAP2 SWAP1 POP JUMP JUMPDEST PUSH0 PUSH3 0x3E7 PUSH3 0x3E1 PUSH3 0x3DB DUP5 PUSH3 0x3B5 JUMP JUMPDEST PUSH3 0x3BE JUMP JUMPDEST PUSH3 0x3B5 JUMP JUMPDEST SWAP1 POP SWAP2 SWAP1 POP JUMP JUMPDEST PUSH0 DUP2 SWAP1 POP SWAP2 SWAP1 POP JUMP JUMPDEST PUSH3 0x402 DUP4 PUSH3 0x3C7 JUMP JUMPDEST PUSH3 0x41A PUSH3 0x411 DUP3 PUSH3 0x3EE JUMP JUMPDEST DUP5 DUP5 SLOAD PUSH3 0x360 JUMP JUMPDEST DUP3 SSTORE POP POP POP POP JUMP JUMPDEST PUSH0 SWAP1 JUMP JUMPDEST PUSH3 0x430 PUSH3 0x422 JUMP JUMPDEST PUSH3 0x43D DUP2 DUP5 DUP5 PUSH3 0x3F7 JUMP JUMPDEST POP POP POP JUMP JUMPDEST JUMPDEST DUP2 DUP2 LT ISZERO PUSH3 0x464 JUMPI PUSH3 0x458 PUSH0 DUP3 PUSH3 0x426 JUMP JUMPDEST PUSH1 0x1 DUP2 ADD SWAP1 POP PUSH3 0x443 JUMP JUMPDEST POP POP JUMP JUMPDEST PUSH1 0x1F DUP3 GT ISZERO PUSH3 0x4B3 JUMPI PUSH3 0x47D DUP2 PUSH3 0x333 JUMP JUMPDEST PUSH3 0x488 DUP5 PUSH3 0x345 JUMP JUMPDEST DUP2 ADD PUSH1 0x20 DUP6 LT ISZERO PUSH3 0x498 JUMPI DUP2 SWAP1 POP JUMPDEST PUSH3 0x4B0 PUSH3 0x4A7 DUP6 PUSH3 0x345 JUMP JUMPDEST DUP4 ADD DUP3 PUSH3 0x442 JUMP JUMPDEST POP POP JUMPDEST POP POP POP JUMP JUMPDEST PUSH0 DUP3 DUP3 SHR SWAP1 POP SWAP3 SWAP2 POP POP JUMP JUMPDEST PUSH0 PUSH3 0x4D5 PUSH0 NOT DUP5 PUSH1 0x8 MUL PUSH3 0x4B8 JUMP JUMPDEST NOT DUP1 DUP4 AND SWAP2 POP POP SWAP3 SWAP2 POP POP JUMP JUMPDEST PUSH0 PUSH3 0x4EF DUP4 DUP4 PUSH3 0x4C4 JUMP JUMPDEST SWAP2 POP DUP3 PUSH1 0x2 MUL DUP3 OR SWAP1 POP SWAP3 SWAP2 POP POP JUMP JUMPDEST PUSH3 0x50A DUP3 PUSH3 0x29B JUMP JUMPDEST PUSH8 0xFFFFFFFFFFFFFFFF DUP2 GT ISZERO PUSH3 0x526 JUMPI PUSH3 0x525 PUSH3 0x2A5 JUMP JUMPDEST JUMPDEST PUSH3 0x532 DUP3 SLOAD PUSH3 0x2FF JUMP JUMPDEST PUSH3 0x53F DUP3 DUP3 DUP6 PUSH3 0x468 JUMP JUMPDEST PUSH0 PUSH1 0x20 SWAP1 POP PUSH1 0x1F DUP4 GT PUSH1 0x1 DUP2 EQ PUSH3 0x575 JUMPI PUSH0 DUP5 ISZERO PUSH3 0x560 JUMPI DUP3 DUP8 ADD MLOAD SWAP1 POP JUMPDEST PUSH3 0x56C DUP6 DUP3 PUSH3 0x4E2 JUMP JUMPDEST DUP7 SSTORE POP PUSH3 0x5DB JUMP JUMPDEST PUSH1 0x1F NOT DUP5 AND PUSH3 0x585 DUP7 PUSH3 0x333 JUMP JUMPDEST PUSH0 JUMPDEST DUP3 DUP2 LT ISZERO PUSH3 0x5AE JUMPI DUP5 DUP10 ADD MLOAD DUP3 SSTORE PUSH1 0x1 DUP3 ADD SWAP2 POP PUSH1 0x20 DUP6 ADD SWAP5 POP PUSH1 0x20 DUP2 ADD SWAP1 POP PUSH3 0x587 JUMP JUMPDEST DUP7 DUP4 LT ISZERO PUSH3 0x5CE JUMPI DUP5 DUP10 ADD MLOAD PUSH3 0x5CA PUSH1 0x1F DUP10 AND DUP3 PUSH3 0x4C4 JUMP JUMPDEST DUP4 SSTORE POP JUMPDEST PUSH1 0x1 PUSH1 0x2 DUP9 MUL ADD DUP9 SSTORE POP POP POP JUMPDEST POP POP POP POP POP POP JUMP JUMPDEST PUSH0 DUP2 SWAP1 POP SWAP2 SWAP1 POP JUMP JUMPDEST PUSH3 0x5F7 DUP2 PUSH3 0x5E3 JUMP JUMPDEST DUP3 MSTORE POP POP JUMP JUMPDEST PUSH3 0x608 DUP2 PUSH3 0x3B5 JUMP JUMPDEST DUP3 MSTORE POP POP JUMP JUMPDEST PUSH0 PUSH20 0xFFFFFFFFFFFFFFFFFFFFFFFFFFFFFFFFFFFFFFFF DUP3 AND SWAP1 POP SWAP2 SWAP1 POP JUMP JUMPDEST PUSH0 PUSH3 0x639 DUP3 PUSH3 0x60E JUMP JUMPDEST SWAP1 POP SWAP2 SWAP1 POP JUMP JUMPDEST PUSH3 0x64B DUP2 PUSH3 0x62D JUMP JUMPDEST DUP3 MSTORE POP POP JUMP JUMPDEST PUSH0 PUSH1 0xA0 DUP3 ADD SWAP1 POP PUSH3 0x666 PUSH0 DUP4 ADD DUP9 PUSH3 0x5EC JUMP JUMPDEST PUSH3 0x675 PUSH1 0x20 DUP4 ADD DUP8 PUSH3 0x5EC JUMP JUMPDEST PUSH3 0x684 PUSH1 0x40 DUP4 ADD DUP7 PUSH3 0x5EC JUMP JUMPDEST PUSH3 0x693 PUSH1 0x60 DUP4 ADD DUP6 PUSH3 0x5FD JUMP JUMPDEST PUSH3 0x6A2 PUSH1 0x80 DUP4 ADD DUP5 PUSH3 0x640 JUMP JUMPDEST SWAP7 SWAP6 POP POP POP POP POP POP JUMP JUMPDEST PUSH0 DUP3 DUP3 MSTORE PUSH1 0x20 DUP3 ADD SWAP1 POP SWAP3 SWAP2 POP POP JUMP JUMPDEST PUSH0 JUMPDEST DUP4 DUP2 LT ISZERO PUSH3 0x6DB JUMPI DUP1 DUP3 ADD MLOAD DUP2 DUP5 ADD MSTORE PUSH1 0x20 DUP2 ADD SWAP1 POP PUSH3 0x6BE JUMP JUMPDEST PUSH0 DUP5 DUP5 ADD MSTORE POP POP POP POP JUMP JUMPDEST PUSH0 PUSH1 0x1F NOT PUSH1 0x1F DUP4 ADD AND SWAP1 POP SWAP2 SWAP1 POP JUMP JUMPDEST PUSH0 PUSH3 0x702 DUP3 PUSH3 0x29B JUMP JUMPDEST PUSH3 0x70E DUP2 DUP6 PUSH3 0x6AC JUMP JUMPDEST SWAP4 POP PUSH3 0x720 DUP2 DUP6 PUSH1 0x20 DUP7 ADD PUSH3 0x6BC JUMP JUMPDEST PUSH3 0x72B DUP2 PUSH3 0x6E6 JUMP JUMPDEST DUP5 ADD SWAP2 POP POP SWAP3 SWAP2 POP POP JUMP JUMPDEST PUSH0 PUSH1 0x20 DUP3 ADD SWAP1 POP DUP2 DUP2 SUB PUSH0 DUP4 ADD MSTORE PUSH3 0x750 DUP2 DUP5 PUSH3 0x6F6 JUMP JUMPDEST SWAP1 POP SWAP3 SWAP2 POP POP JUMP JUMPDEST PUSH0 DUP2 MLOAD SWAP1 POP SWAP2 SWAP1 POP JUMP JUMPDEST PUSH0 DUP2 SWAP1 POP PUSH1 0x20 DUP3 ADD SWAP1 POP SWAP2 SWAP1 POP JUMP JUMPDEST PUSH0 PUSH3 0x77E DUP3 MLOAD PUSH3 0x5E3 JUMP JUMPDEST DUP1 SWAP2 POP POP SWAP2 SWAP1 POP JUMP JUMPDEST PUSH0 PUSH3 0x793 DUP3 PUSH3 0x758 JUMP JUMPDEST DUP3 PUSH3 0x79F DUP5 PUSH3 0x762 JUMP JUMPDEST SWAP1 POP PUSH3 0x7AC DUP2 PUSH3 0x771 JUMP JUMPDEST SWAP3 POP PUSH1 0x20 DUP3 LT ISZERO PUSH3 0x7EF JUMPI PUSH3 0x7EA PUSH32 0xFFFFFFFFFFFFFFFFFFFFFFFFFFFFFFFFFFFFFFFFFFFFFFFFFFFFFFFFFFFFFFFF DUP4 PUSH1 0x20 SUB PUSH1 0x8 MUL PUSH3 0x354 JUMP JUMPDEST DUP4 AND SWAP3 POP JUMPDEST POP POP SWAP2 SWAP1 POP JUMP JUMPDEST PUSH1 0x80 MLOAD PUSH1 0xA0 MLOAD PUSH1 0xC0 MLOAD PUSH1 0xE0 MLOAD PUSH2 0x100 MLOAD PUSH2 0x120 MLOAD PUSH2 0x140 MLOAD PUSH2 0x24FD PUSH3 0x848 PUSH0 CODECOPY PUSH0 PUSH2 0xE77 ADD MSTORE PUSH0 PUSH2 0xE3C ADD MSTORE PUSH0 PUSH2 0x13AB ADD MSTORE PUSH0 PUSH2 0x138A ADD MSTORE PUSH0 PUSH2 0x100F ADD MSTORE PUSH0 PUSH2 0x1065 ADD MSTORE PUSH0 PUSH2 0x108E ADD MSTORE PUSH2 0x24FD PUSH0 RETURN INVALID PUSH1 0x80 PUSH1 0x40 MSTORE PUSH1 0x4 CALLDATASIZE LT PUSH2 0xE7 JUMPI PUSH0 CALLDATALOAD PUSH1 0xE0 SHR DUP1 PUSH4 0x85E08A6B GT PUSH2 0x89 JUMPI DUP1 PUSH4 0xAB1CE0B0 GT PUSH2 0x58 JUMPI DUP1 PUSH4 0xAB1CE0B0 EQ PUSH2 0x2EB JUMPI DUP1 PUSH4 0xCD7E10C1 EQ PUSH2 0x2F5 JUMPI DUP1 PUSH4 0xD44A0E61 EQ PUSH2 0x332 JUMPI DUP1 PUSH4 0xE89E4ED6 EQ PUSH2 0x35C JUMPI PUSH2 0xE7 JUMP JUMPDEST DUP1 PUSH4 0x85E08A6B EQ PUSH2 0x233 JUMPI DUP1 PUSH4 0x89B5EFA7 EQ PUSH2 0x25B JUMPI DUP1 PUSH4 0x8DA5CB5B EQ PUSH2 0x285 JUMPI DUP1 PUSH4 0x8F2238BA EQ PUSH2 0x2AF JUMPI PUSH2 0xE7 JUMP JUMPDEST DUP1 PUSH4 0x6BEEEDB8 GT PUSH2 0xC5 JUMPI DUP1 PUSH4 0x6BEEEDB8 EQ PUSH2 0x177 JUMPI DUP1 PUSH4 0x7F8FBC22 EQ PUSH2 0x19F JUMPI DUP1 PUSH4 0x84B0196E EQ PUSH2 0x1DB JUMPI DUP1 PUSH4 0x84B62C28 EQ PUSH2 0x20B JUMPI PUSH2 0xE7 JUMP JUMPDEST DUP1 PUSH4 0x52BB27B0 EQ PUSH2 0xEB JUMPI DUP1 PUSH4 0x538B7242 EQ PUSH2 0x113 JUMPI DUP1 PUSH4 0x5D1B5805 EQ PUSH2 0x14F JUMPI JUMPDEST PUSH0 DUP1 REVERT JUMPDEST CALLVALUE DUP1 ISZERO PUSH2 0xF6 JUMPI PUSH0 DUP1 REVERT JUMPDEST POP PUSH2 0x111 PUSH1 0x4 DUP1 CALLDATASIZE SUB DUP2 ADD SWAP1 PUSH2 0x10C SWAP2 SWAP1 PUSH2 0x1614 JUMP JUMPDEST PUSH2 0x39A JUMP JUMPDEST STOP JUMPDEST CALLVALUE DUP1 ISZERO PUSH2 0x11E JUMPI PUSH0 DUP1 REVERT JUMPDEST POP PUSH2 0x139 PUSH1 0x4 DUP1 CALLDATASIZE SUB DUP2 ADD SWAP1 PUSH2 0x134 SWAP2 SWAP1 PUSH2 0x16B9 JUMP JUMPDEST PUSH2 0x5BC JUMP JUMPDEST PUSH1 0x40 MLOAD PUSH2 0x146 SWAP2 SWAP1 PUSH2 0x16FE JUMP JUMPDEST PUSH1 0x40 MLOAD DUP1 SWAP2 SUB SWAP1 RETURN JUMPDEST CALLVALUE DUP1 ISZERO PUSH2 0x15A JUMPI PUSH0 DUP1 REVERT JUMPDEST POP PUSH2 0x175 PUSH1 0x4 DUP1 CALLDATASIZE SUB DUP2 ADD SWAP1 PUSH2 0x170 SWAP2 SWAP1 PUSH2 0x174A JUMP JUMPDEST PUSH2 0x5D9 JUMP JUMPDEST STOP JUMPDEST CALLVALUE DUP1 ISZERO PUSH2 0x182 JUMPI PUSH0 DUP1 REVERT JUMPDEST POP PUSH2 0x19D PUSH1 0x4 DUP1 CALLDATASIZE SUB DUP2 ADD SWAP1 PUSH2 0x198 SWAP2 SWAP1 PUSH2 0x1788 JUMP JUMPDEST PUSH2 0x814 JUMP JUMPDEST STOP JUMPDEST CALLVALUE DUP1 ISZERO PUSH2 0x1AA JUMPI PUSH0 DUP1 REVERT JUMPDEST POP PUSH2 0x1C5 PUSH1 0x4 DUP1 CALLDATASIZE SUB DUP2 ADD SWAP1 PUSH2 0x1C0 SWAP2 SWAP1 PUSH2 0x16B9 JUMP JUMPDEST PUSH2 0x8AD JUMP JUMPDEST PUSH1 0x40 MLOAD PUSH2 0x1D2 SWAP2 SWAP1 PUSH2 0x17C2 JUMP JUMPDEST PUSH1 0x40 MLOAD DUP1 SWAP2 SUB SWAP1 RETURN JUMPDEST CALLVALUE DUP1 ISZERO PUSH2 0x1E6 JUMPI PUSH0 DUP1 REVERT JUMPDEST POP PUSH2 0x1EF PUSH2 0x8C2 JUMP JUMPDEST PUSH1 0x40 MLOAD PUSH2 0x202 SWAP8 SWAP7 SWAP6 SWAP5 SWAP4 SWAP3 SWAP2 SWAP1 PUSH2 0x197D JUMP JUMPDEST PUSH1 0x40 MLOAD DUP1 SWAP2 SUB SWAP1 RETURN JUMPDEST CALLVALUE DUP1 ISZERO PUSH2 0x216 JUMPI PUSH0 DUP1 REVERT JUMPDEST POP PUSH2 0x231 PUSH1 0x4 DUP1 CALLDATASIZE SUB DUP2 ADD SWAP1 PUSH2 0x22C SWAP2 SWAP1 PUSH2 0x1B27 JUMP JUMPDEST PUSH2 0x967 JUMP JUMPDEST STOP JUMPDEST CALLVALUE DUP1 ISZERO PUSH2 0x23E JUMPI PUSH0 DUP1 REVERT JUMPDEST POP PUSH2 0x259 PUSH1 0x4 DUP1 CALLDATASIZE SUB DUP2 ADD SWAP1 PUSH2 0x254 SWAP2 SWAP1 PUSH2 0x1788 JUMP JUMPDEST PUSH2 0xA7E JUMP JUMPDEST STOP JUMPDEST CALLVALUE DUP1 ISZERO PUSH2 0x266 JUMPI PUSH0 DUP1 REVERT JUMPDEST POP PUSH2 0x26F PUSH2 0xB8B JUMP JUMPDEST PUSH1 0x40 MLOAD PUSH2 0x27C SWAP2 SWAP1 PUSH2 0x17C2 JUMP JUMPDEST PUSH1 0x40 MLOAD DUP1 SWAP2 SUB SWAP1 RETURN JUMPDEST CALLVALUE DUP1 ISZERO PUSH2 0x290 JUMPI PUSH0 DUP1 REVERT JUMPDEST POP PUSH2 0x299 PUSH2 0xB91 JUMP JUMPDEST PUSH1 0x40 MLOAD PUSH2 0x2A6 SWAP2 SWAP1 PUSH2 0x1B81 JUMP JUMPDEST PUSH1 0x40 MLOAD DUP1 SWAP2 SUB SWAP1 RETURN JUMPDEST CALLVALUE DUP1 ISZERO PUSH2 0x2BA JUMPI PUSH0 DUP1 REVERT JUMPDEST POP PUSH2 0x2D5 PUSH1 0x4 DUP1 CALLDATASIZE SUB DUP2 ADD SWAP1 PUSH2 0x2D0 SWAP2 SWAP1 PUSH2 0x1B9A JUMP JUMPDEST PUSH2 0xBB6 JUMP JUMPDEST PUSH1 0x40 MLOAD PUSH2 0x2E2 SWAP2 SWAP1 PUSH2 0x1BE1 JUMP JUMPDEST PUSH1 0x40 MLOAD DUP1 SWAP2 SUB SWAP1 RETURN JUMPDEST PUSH2 0x2F3 PUSH2 0xC4F JUMP JUMPDEST STOP JUMPDEST CALLVALUE DUP1 ISZERO PUSH2 0x300 JUMPI PUSH0 DUP1 REVERT JUMPDEST POP PUSH2 0x31B PUSH1 0x4 DUP1 CALLDATASIZE SUB DUP2 ADD SWAP1 PUSH2 0x316 SWAP2 SWAP1 PUSH2 0x1788 JUMP JUMPDEST PUSH2 0xCD6 JUMP JUMPDEST PUSH1 0x40 MLOAD PUSH2 0x329 SWAP3 SWAP2 SWAP1 PUSH2 0x1C01 JUMP JUMPDEST PUSH1 0x40 MLOAD DUP1 SWAP2 SUB SWAP1 RETURN JUMPDEST CALLVALUE DUP1 ISZERO PUSH2 0x33D JUMPI PUSH0 DUP1 REVERT JUMPDEST POP PUSH2 0x346 PUSH2 0xD24 JUMP JUMPDEST PUSH1 0x40 MLOAD PUSH2 0x353 SWAP2 SWAP1 PUSH2 0x17C2 JUMP JUMPDEST PUSH1 0x40 MLOAD DUP1 SWAP2 SUB SWAP1 RETURN JUMPDEST CALLVALUE DUP1 ISZERO PUSH2 0x367 JUMPI PUSH0 DUP1 REVERT JUMPDEST POP PUSH2 0x382 PUSH1 0x4 DUP1 CALLDATASIZE SUB DUP2 ADD SWAP1 PUSH2 0x37D SWAP2 SWAP1 PUSH2 0x1788 JUMP JUMPDEST PUSH2 0xD2A JUMP JUMPDEST PUSH1 0x40 MLOAD PUSH2 0x391 SWAP4 SWAP3 SWAP2 SWAP1 PUSH2 0x1C28 JUMP JUMPDEST PUSH1 0x40 MLOAD DUP1 SWAP2 SUB SWAP1 RETURN JUMPDEST PUSH0 PUSH1 0x5 PUSH0 CALLER PUSH20 0xFFFFFFFFFFFFFFFFFFFFFFFFFFFFFFFFFFFFFFFF AND PUSH20 0xFFFFFFFFFFFFFFFFFFFFFFFFFFFFFFFFFFFFFFFF AND DUP2 MSTORE PUSH1 0x20 ADD SWAP1 DUP2 MSTORE PUSH1 0x20 ADD PUSH0 KECCAK256 SLOAD GT PUSH2 0x419 JUMPI PUSH1 0x40 MLOAD PUSH32 0x8C379A000000000000000000000000000000000000000000000000000000000 DUP2 MSTORE PUSH1 0x4 ADD PUSH2 0x410 SWAP1 PUSH2 0x1CAE JUMP JUMPDEST PUSH1 0x40 MLOAD DUP1 SWAP2 SUB SWAP1 REVERT JUMPDEST PUSH0 PUSH2 0x46B PUSH32 0x8540A2C73AEF6D686398F23A870BF15EDD661211F410E2614D1E6ADD9F1B7375 CALLER PUSH1 0x40 MLOAD PUSH1 0x20 ADD PUSH2 0x450 SWAP3 SWAP2 SWAP1 PUSH2 0x1CCC JUMP JUMPDEST PUSH1 0x40 MLOAD PUSH1 0x20 DUP2 DUP4 SUB SUB DUP2 MSTORE SWAP1 PUSH1 0x40 MSTORE DUP1 MLOAD SWAP1 PUSH1 0x20 ADD KECCAK256 PUSH2 0xDF1 JUMP JUMPDEST SWAP1 POP PUSH0 PUSH2 0x4BB DUP3 DUP6 DUP6 DUP1 DUP1 PUSH1 0x1F ADD PUSH1 0x20 DUP1 SWAP2 DIV MUL PUSH1 0x20 ADD PUSH1 0x40 MLOAD SWAP1 DUP2 ADD PUSH1 0x40 MSTORE DUP1 SWAP4 SWAP3 SWAP2 SWAP1 DUP2 DUP2 MSTORE PUSH1 0x20 ADD DUP4 DUP4 DUP1 DUP3 DUP5 CALLDATACOPY PUSH0 DUP2 DUP5 ADD MSTORE PUSH1 0x1F NOT PUSH1 0x1F DUP3 ADD AND SWAP1 POP DUP1 DUP4 ADD SWAP3 POP POP POP POP POP POP POP PUSH2 0xE0A JUMP JUMPDEST SWAP1 POP CALLER PUSH20 0xFFFFFFFFFFFFFFFFFFFFFFFFFFFFFFFFFFFFFFFF AND DUP2 PUSH20 0xFFFFFFFFFFFFFFFFFFFFFFFFFFFFFFFFFFFFFFFF AND EQ PUSH2 0x52B JUMPI PUSH1 0x40 MLOAD PUSH32 0x8C379A000000000000000000000000000000000000000000000000000000000 DUP2 MSTORE PUSH1 0x4 ADD PUSH2 0x522 SWAP1 PUSH2 0x1D3D JUMP JUMPDEST PUSH1 0x40 MLOAD DUP1 SWAP2 SUB SWAP1 REVERT JUMPDEST PUSH1 0x1 PUSH1 0x6 PUSH0 CALLER PUSH20 0xFFFFFFFFFFFFFFFFFFFFFFFFFFFFFFFFFFFFFFFF AND PUSH20 0xFFFFFFFFFFFFFFFFFFFFFFFFFFFFFFFFFFFFFFFF AND DUP2 MSTORE PUSH1 0x20 ADD SWAP1 DUP2 MSTORE PUSH1 0x20 ADD PUSH0 KECCAK256 PUSH0 PUSH2 0x100 EXP DUP2 SLOAD DUP2 PUSH1 0xFF MUL NOT AND SWAP1 DUP4 ISZERO ISZERO MUL OR SWAP1 SSTORE POP PUSH31 0xA8282372EF7169FE149442A58BF78D598416EFE464E3468B4DE9997235E9D7 CALLER PUSH1 0x40 MLOAD PUSH2 0x5AE SWAP2 SWAP1 PUSH2 0x1B81 JUMP JUMPDEST PUSH1 0x40 MLOAD DUP1 SWAP2 SUB SWAP1 LOG1 POP POP POP POP JUMP JUMPDEST PUSH1 0x6 PUSH1 0x20 MSTORE DUP1 PUSH0 MSTORE PUSH1 0x40 PUSH0 KECCAK256 PUSH0 SWAP2 POP SLOAD SWAP1 PUSH2 0x100 EXP SWAP1 DIV PUSH1 0xFF AND DUP2 JUMP JUMPDEST PUSH1 0x2 PUSH0 SWAP1 SLOAD SWAP1 PUSH2 0x100 EXP SWAP1 DIV PUSH20 0xFFFFFFFFFFFFFFFFFFFFFFFFFFFFFFFFFFFFFFFF AND PUSH20 0xFFFFFFFFFFFFFFFFFFFFFFFFFFFFFFFFFFFFFFFF AND CALLER PUSH20 0xFFFFFFFFFFFFFFFFFFFFFFFFFFFFFFFFFFFFFFFF AND EQ PUSH2 0x668 JUMPI PUSH1 0x40 MLOAD PUSH32 0x8C379A000000000000000000000000000000000000000000000000000000000 DUP2 MSTORE PUSH1 0x4 ADD PUSH2 0x65F SWAP1 PUSH2 0x1DCB JUMP JUMPDEST PUSH1 0x40 MLOAD DUP1 SWAP2 SUB SWAP1 REVERT JUMPDEST PUSH1 0x64 DUP2 PUSH1 0x7 SLOAD PUSH2 0x678 SWAP2 SWAP1 PUSH2 0x1E16 JUMP JUMPDEST GT ISZERO PUSH2 0x6B9 JUMPI PUSH1 0x40 MLOAD PUSH32 0x8C379A000000000000000000000000000000000000000000000000000000000 DUP2 MSTORE PUSH1 0x4 ADD PUSH2 0x6B0 SWAP1 PUSH2 0x1E93 JUMP JUMPDEST PUSH1 0x40 MLOAD DUP1 SWAP2 SUB SWAP1 REVERT JUMPDEST PUSH0 PUSH1 0x40 MLOAD DUP1 PUSH1 0x40 ADD PUSH1 0x40 MSTORE DUP1 DUP5 PUSH20 0xFFFFFFFFFFFFFFFFFFFFFFFFFFFFFFFFFFFFFFFF AND DUP2 MSTORE PUSH1 0x20 ADD DUP4 DUP2 MSTORE POP SWAP1 POP PUSH1 0x3 DUP2 SWAP1 DUP1 PUSH1 0x1 DUP2 SLOAD ADD DUP1 DUP3 SSTORE DUP1 SWAP2 POP POP PUSH1 0x1 SWAP1 SUB SWAP1 PUSH0 MSTORE PUSH1 0x20 PUSH0 KECCAK256 SWAP1 PUSH1 0x2 MUL ADD PUSH0 SWAP1 SWAP2 SWAP1 SWAP2 SWAP1 SWAP2 POP PUSH0 DUP3 ADD MLOAD DUP2 PUSH0 ADD PUSH0 PUSH2 0x100 EXP DUP2 SLOAD DUP2 PUSH20 0xFFFFFFFFFFFFFFFFFFFFFFFFFFFFFFFFFFFFFFFF MUL NOT AND SWAP1 DUP4 PUSH20 0xFFFFFFFFFFFFFFFFFFFFFFFFFFFFFFFFFFFFFFFF AND MUL OR SWAP1 SSTORE POP PUSH1 0x20 DUP3 ADD MLOAD DUP2 PUSH1 0x1 ADD SSTORE POP POP DUP2 PUSH1 0x5 PUSH0 DUP6 PUSH20 0xFFFFFFFFFFFFFFFFFFFFFFFFFFFFFFFFFFFFFFFF AND PUSH20 0xFFFFFFFFFFFFFFFFFFFFFFFFFFFFFFFFFFFFFFFF AND DUP2 MSTORE PUSH1 0x20 ADD SWAP1 DUP2 MSTORE PUSH1 0x20 ADD PUSH0 KECCAK256 DUP2 SWAP1 SSTORE POP PUSH1 0x1 PUSH1 0x6 PUSH0 DUP6 PUSH20 0xFFFFFFFFFFFFFFFFFFFFFFFFFFFFFFFFFFFFFFFF AND PUSH20 0xFFFFFFFFFFFFFFFFFFFFFFFFFFFFFFFFFFFFFFFF AND DUP2 MSTORE PUSH1 0x20 ADD SWAP1 DUP2 MSTORE PUSH1 0x20 ADD PUSH0 KECCAK256 PUSH0 PUSH2 0x100 EXP DUP2 SLOAD DUP2 PUSH1 0xFF MUL NOT AND SWAP1 DUP4 ISZERO ISZERO MUL OR SWAP1 SSTORE POP DUP2 PUSH1 0x7 PUSH0 DUP3 DUP3 SLOAD PUSH2 0x808 SWAP2 SWAP1 PUSH2 0x1E16 JUMP JUMPDEST SWAP3 POP POP DUP2 SWAP1 SSTORE POP POP POP POP JUMP JUMPDEST PUSH1 0x2 PUSH0 SWAP1 SLOAD SWAP1 PUSH2 0x100 EXP SWAP1 DIV PUSH20 0xFFFFFFFFFFFFFFFFFFFFFFFFFFFFFFFFFFFFFFFF AND PUSH20 0xFFFFFFFFFFFFFFFFFFFFFFFFFFFFFFFFFFFFFFFF AND CALLER PUSH20 0xFFFFFFFFFFFFFFFFFFFFFFFFFFFFFFFFFFFFFFFF AND EQ PUSH2 0x8A3 JUMPI PUSH1 0x40 MLOAD PUSH32 0x8C379A000000000000000000000000000000000000000000000000000000000 DUP2 MSTORE PUSH1 0x4 ADD PUSH2 0x89A SWAP1 PUSH2 0x1DCB JUMP JUMPDEST PUSH1 0x40 MLOAD DUP1 SWAP2 SUB SWAP1 REVERT JUMPDEST DUP1 PUSH1 0x8 DUP2 SWAP1 SSTORE POP POP JUMP JUMPDEST PUSH1 0x5 PUSH1 0x20 MSTORE DUP1 PUSH0 MSTORE PUSH1 0x40 PUSH0 KECCAK256 PUSH0 SWAP2 POP SWAP1 POP SLOAD DUP2 JUMP JUMPDEST PUSH0 PUSH1 0x60 DUP1 PUSH0 DUP1 PUSH0 PUSH1 0x60 PUSH2 0x8D3 PUSH2 0xE34 JUMP JUMPDEST PUSH2 0x8DB PUSH2 0xE6E JUMP JUMPDEST CHAINID ADDRESS PUSH0 DUP1 SHL PUSH0 PUSH8 0xFFFFFFFFFFFFFFFF DUP2 GT ISZERO PUSH2 0x8FA JUMPI PUSH2 0x8F9 PUSH2 0x1A03 JUMP JUMPDEST JUMPDEST PUSH1 0x40 MLOAD SWAP1 DUP1 DUP3 MSTORE DUP1 PUSH1 0x20 MUL PUSH1 0x20 ADD DUP3 ADD PUSH1 0x40 MSTORE DUP1 ISZERO PUSH2 0x928 JUMPI DUP2 PUSH1 0x20 ADD PUSH1 0x20 DUP3 MUL DUP1 CALLDATASIZE DUP4 CALLDATACOPY DUP1 DUP3 ADD SWAP2 POP POP SWAP1 POP JUMPDEST POP PUSH32 0xF00000000000000000000000000000000000000000000000000000000000000 SWAP6 SWAP5 SWAP4 SWAP3 SWAP2 SWAP1 SWAP7 POP SWAP7 POP SWAP7 POP SWAP7 POP SWAP7 POP SWAP7 POP SWAP7 POP SWAP1 SWAP2 SWAP3 SWAP4 SWAP5 SWAP6 SWAP7 JUMP JUMPDEST PUSH1 0x2 PUSH0 SWAP1 SLOAD SWAP1 PUSH2 0x100 EXP SWAP1 DIV PUSH20 0xFFFFFFFFFFFFFFFFFFFFFFFFFFFFFFFFFFFFFFFF AND PUSH20 0xFFFFFFFFFFFFFFFFFFFFFFFFFFFFFFFFFFFFFFFF AND CALLER PUSH20 0xFFFFFFFFFFFFFFFFFFFFFFFFFFFFFFFFFFFFFFFF AND EQ PUSH2 0x9F6 JUMPI PUSH1 0x40 MLOAD PUSH32 0x8C379A000000000000000000000000000000000000000000000000000000000 DUP2 MSTORE PUSH1 0x4 ADD PUSH2 0x9ED SWAP1 PUSH2 0x1DCB JUMP JUMPDEST PUSH1 0x40 MLOAD DUP1 SWAP2 SUB SWAP1 REVERT JUMPDEST PUSH1 0x4 PUSH1 0x40 MLOAD DUP1 PUSH1 0x60 ADD PUSH1 0x40 MSTORE DUP1 DUP5 DUP2 MSTORE PUSH1 0x20 ADD DUP4 DUP2 MSTORE PUSH1 0x20 ADD PUSH0 ISZERO ISZERO DUP2 MSTORE POP SWAP1 DUP1 PUSH1 0x1 DUP2 SLOAD ADD DUP1 DUP3 SSTORE DUP1 SWAP2 POP POP PUSH1 0x1 SWAP1 SUB SWAP1 PUSH0 MSTORE PUSH1 0x20 PUSH0 KECCAK256 SWAP1 PUSH1 0x3 MUL ADD PUSH0 SWAP1 SWAP2 SWAP1 SWAP2 SWAP1 SWAP2 POP PUSH0 DUP3 ADD MLOAD DUP2 PUSH0 ADD SWAP1 DUP2 PUSH2 0xA4E SWAP2 SWAP1 PUSH2 0x20AB JUMP JUMPDEST POP PUSH1 0x20 DUP3 ADD MLOAD DUP2 PUSH1 0x1 ADD SSTORE PUSH1 0x40 DUP3 ADD MLOAD DUP2 PUSH1 0x2 ADD PUSH0 PUSH2 0x100 EXP DUP2 SLOAD DUP2 PUSH1 0xFF MUL NOT AND SWAP1 DUP4 ISZERO ISZERO MUL OR SWAP1 SSTORE POP POP POP POP POP JUMP JUMPDEST PUSH1 0x2 PUSH0 SWAP1 SLOAD SWAP1 PUSH2 0x100 EXP SWAP1 DIV PUSH20 0xFFFFFFFFFFFFFFFFFFFFFFFFFFFFFFFFFFFFFFFF AND PUSH20 0xFFFFFFFFFFFFFFFFFFFFFFFFFFFFFFFFFFFFFFFF AND CALLER PUSH20 0xFFFFFFFFFFFFFFFFFFFFFFFFFFFFFFFFFFFFFFFF AND EQ PUSH2 0xB0D JUMPI PUSH1 0x40 MLOAD PUSH32 0x8C379A000000000000000000000000000000000000000000000000000000000 DUP2 MSTORE PUSH1 0x4 ADD PUSH2 0xB04 SWAP1 PUSH2 0x1DCB JUMP JUMPDEST PUSH1 0x40 MLOAD DUP1 SWAP2 SUB SWAP1 REVERT JUMPDEST PUSH0 PUSH1 0x4 DUP3 DUP2 SLOAD DUP2 LT PUSH2 0xB22 JUMPI PUSH2 0xB21 PUSH2 0x217A JUMP JUMPDEST JUMPDEST SWAP1 PUSH0 MSTORE PUSH1 0x20 PUSH0 KECCAK256 SWAP1 PUSH1 0x3 MUL ADD SWAP1 POP PUSH1 0x1 DUP2 PUSH1 0x2 ADD PUSH0 PUSH2 0x100 EXP DUP2 SLOAD DUP2 PUSH1 0xFF MUL NOT AND SWAP1 DUP4 ISZERO ISZERO MUL OR SWAP1 SSTORE POP PUSH32 0x596B9DBF4A34A065B97919D952A438E69135615BBBE14D29DF893D0EE0D78E48 DUP3 DUP3 PUSH0 ADD PUSH1 0x40 MLOAD PUSH2 0xB7F SWAP3 SWAP2 SWAP1 PUSH2 0x2228 JUMP JUMPDEST PUSH1 0x40 MLOAD DUP1 SWAP2 SUB SWAP1 LOG1 POP POP JUMP JUMPDEST PUSH1 0x8 SLOAD DUP2 JUMP JUMPDEST PUSH1 0x2 PUSH0 SWAP1 SLOAD SWAP1 PUSH2 0x100 EXP SWAP1 DIV PUSH20 0xFFFFFFFFFFFFFFFFFFFFFFFFFFFFFFFFFFFFFFFF AND DUP2 JUMP JUMPDEST PUSH1 0x60 PUSH1 0x2 PUSH0 SWAP1 SLOAD SWAP1 PUSH2 0x100 EXP SWAP1 DIV PUSH20 0xFFFFFFFFFFFFFFFFFFFFFFFFFFFFFFFFFFFFFFFF AND PUSH20 0xFFFFFFFFFFFFFFFFFFFFFFFFFFFFFFFFFFFFFFFF AND CALLER PUSH20 0xFFFFFFFFFFFFFFFFFFFFFFFFFFFFFFFFFFFFFFFF AND EQ PUSH2 0xC47 JUMPI PUSH1 0x40 MLOAD PUSH32 0x8C379A000000000000000000000000000000000000000000000000000000000 DUP2 MSTORE PUSH1 0x4 ADD PUSH2 0xC3E SWAP1 PUSH2 0x1DCB JUMP JUMPDEST PUSH1 0x40 MLOAD DUP1 SWAP2 SUB SWAP1 REVERT JUMPDEST DUP2 SWAP1 POP SWAP2 SWAP1 POP JUMP JUMPDEST PUSH1 0x8 SLOAD CALLVALUE EQ PUSH2 0xC93 JUMPI PUSH1 0x40 MLOAD PUSH32 0x8C379A000000000000000000000000000000000000000000000000000000000 DUP2 MSTORE PUSH1 0x4 ADD PUSH2 0xC8A SWAP1 PUSH2 0x22A0 JUMP JUMPDEST PUSH1 0x40 MLOAD DUP1 SWAP2 SUB SWAP1 REVERT JUMPDEST PUSH2 0xC9B PUSH2 0xEA9 JUMP JUMPDEST PUSH32 0xD9952CBF75A3B7D22CFB7C2B9C7C00A23513676E5A486E14DCAF74485B483127 PUSH1 0x8 SLOAD PUSH1 0x40 MLOAD PUSH2 0xCCC SWAP2 SWAP1 PUSH2 0x2308 JUMP JUMPDEST PUSH1 0x40 MLOAD DUP1 SWAP2 SUB SWAP1 LOG1 JUMP JUMPDEST PUSH1 0x3 DUP2 DUP2 SLOAD DUP2 LT PUSH2 0xCE5 JUMPI PUSH0 DUP1 REVERT JUMPDEST SWAP1 PUSH0 MSTORE PUSH1 0x20 PUSH0 KECCAK256 SWAP1 PUSH1 0x2 MUL ADD PUSH0 SWAP2 POP SWAP1 POP DUP1 PUSH0 ADD PUSH0 SWAP1 SLOAD SWAP1 PUSH2 0x100 EXP SWAP1 DIV PUSH20 0xFFFFFFFFFFFFFFFFFFFFFFFFFFFFFFFFFFFFFFFF AND SWAP1 DUP1 PUSH1 0x1 ADD SLOAD SWAP1 POP DUP3 JUMP JUMPDEST PUSH1 0x7 SLOAD DUP2 JUMP JUMPDEST PUSH1 0x4 DUP2 DUP2 SLOAD DUP2 LT PUSH2 0xD39 JUMPI PUSH0 DUP1 REVERT JUMPDEST SWAP1 PUSH0 MSTORE PUSH1 0x20 PUSH0 KECCAK256 SWAP1 PUSH1 0x3 MUL ADD PUSH0 SWAP2 POP SWAP1 POP DUP1 PUSH0 ADD DUP1 SLOAD PUSH2 0xD58 SWAP1 PUSH2 0x1EDE JUMP JUMPDEST DUP1 PUSH1 0x1F ADD PUSH1 0x20 DUP1 SWAP2 DIV MUL PUSH1 0x20 ADD PUSH1 0x40 MLOAD SWAP1 DUP2 ADD PUSH1 0x40 MSTORE DUP1 SWAP3 SWAP2 SWAP1 DUP2 DUP2 MSTORE PUSH1 0x20 ADD DUP3 DUP1 SLOAD PUSH2 0xD84 SWAP1 PUSH2 0x1EDE JUMP JUMPDEST DUP1 ISZERO PUSH2 0xDCF JUMPI DUP1 PUSH1 0x1F LT PUSH2 0xDA6 JUMPI PUSH2 0x100 DUP1 DUP4 SLOAD DIV MUL DUP4 MSTORE SWAP2 PUSH1 0x20 ADD SWAP2 PUSH2 0xDCF JUMP JUMPDEST DUP3 ADD SWAP2 SWAP1 PUSH0 MSTORE PUSH1 0x20 PUSH0 KECCAK256 SWAP1 JUMPDEST DUP2 SLOAD DUP2 MSTORE SWAP1 PUSH1 0x1 ADD SWAP1 PUSH1 0x20 ADD DUP1 DUP4 GT PUSH2 0xDB2 JUMPI DUP3 SWAP1 SUB PUSH1 0x1F AND DUP3 ADD SWAP2 JUMPDEST POP POP POP POP POP SWAP1 DUP1 PUSH1 0x1 ADD SLOAD SWAP1 DUP1 PUSH1 0x2 ADD PUSH0 SWAP1 SLOAD SWAP1 PUSH2 0x100 EXP SWAP1 DIV PUSH1 0xFF AND SWAP1 POP DUP4 JUMP JUMPDEST PUSH0 PUSH2 0xE03 PUSH2 0xDFD PUSH2 0x100C JUMP JUMPDEST DUP4 PUSH2 0x10C2 JUMP JUMPDEST SWAP1 POP SWAP2 SWAP1 POP JUMP JUMPDEST PUSH0 DUP1 PUSH0 DUP1 PUSH2 0xE18 DUP7 DUP7 PUSH2 0x1102 JUMP JUMPDEST SWAP3 POP SWAP3 POP SWAP3 POP PUSH2 0xE28 DUP3 DUP3 PUSH2 0x1157 JUMP JUMPDEST DUP3 SWAP4 POP POP POP POP SWAP3 SWAP2 POP POP JUMP JUMPDEST PUSH1 0x60 PUSH2 0xE69 PUSH0 PUSH32 0x0 PUSH2 0x12B9 SWAP1 SWAP2 SWAP1 PUSH4 0xFFFFFFFF AND JUMP JUMPDEST SWAP1 POP SWAP1 JUMP JUMPDEST PUSH1 0x60 PUSH2 0xEA4 PUSH1 0x1 PUSH32 0x0 PUSH2 0x12B9 SWAP1 SWAP2 SWAP1 PUSH4 0xFFFFFFFF AND JUMP JUMPDEST SWAP1 POP SWAP1 JUMP JUMPDEST PUSH0 JUMPDEST PUSH1 0x3 DUP1 SLOAD SWAP1 POP DUP2 LT ISZERO PUSH2 0x1009 JUMPI PUSH0 PUSH1 0x3 DUP3 DUP2 SLOAD DUP2 LT PUSH2 0xECD JUMPI PUSH2 0xECC PUSH2 0x217A JUMP JUMPDEST JUMPDEST SWAP1 PUSH0 MSTORE PUSH1 0x20 PUSH0 KECCAK256 SWAP1 PUSH1 0x2 MUL ADD PUSH1 0x40 MLOAD DUP1 PUSH1 0x40 ADD PUSH1 0x40 MSTORE SWAP1 DUP2 PUSH0 DUP3 ADD PUSH0 SWAP1 SLOAD SWAP1 PUSH2 0x100 EXP SWAP1 DIV PUSH20 0xFFFFFFFFFFFFFFFFFFFFFFFFFFFFFFFFFFFFFFFF AND PUSH20 0xFFFFFFFFFFFFFFFFFFFFFFFFFFFFFFFFFFFFFFFF AND PUSH20 0xFFFFFFFFFFFFFFFFFFFFFFFFFFFFFFFFFFFFFFFF AND DUP2 MSTORE PUSH1 0x20 ADD PUSH1 0x1 DUP3 ADD SLOAD DUP2 MSTORE POP POP SWAP1 POP PUSH1 0x6 PUSH0 DUP3 PUSH0 ADD MLOAD PUSH20 0xFFFFFFFFFFFFFFFFFFFFFFFFFFFFFFFFFFFFFFFF AND PUSH20 0xFFFFFFFFFFFFFFFFFFFFFFFFFFFFFFFFFFFFFFFF AND DUP2 MSTORE PUSH1 0x20 ADD SWAP1 DUP2 MSTORE PUSH1 0x20 ADD PUSH0 KECCAK256 PUSH0 SWAP1 SLOAD SWAP1 PUSH2 0x100 EXP SWAP1 DIV PUSH1 0xFF AND ISZERO PUSH2 0xFFB JUMPI DUP1 PUSH0 ADD MLOAD PUSH20 0xFFFFFFFFFFFFFFFFFFFFFFFFFFFFFFFFFFFFFFFF AND PUSH2 0x8FC PUSH1 0x64 DUP4 PUSH1 0x20 ADD MLOAD PUSH1 0x8 SLOAD PUSH2 0xFC7 SWAP2 SWAP1 PUSH2 0x2334 JUMP JUMPDEST PUSH2 0xFD1 SWAP2 SWAP1 PUSH2 0x23A2 JUMP JUMPDEST SWAP1 DUP2 ISZERO MUL SWAP1 PUSH1 0x40 MLOAD PUSH0 PUSH1 0x40 MLOAD DUP1 DUP4 SUB DUP2 DUP6 DUP9 DUP9 CALL SWAP4 POP POP POP POP ISZERO DUP1 ISZERO PUSH2 0xFF9 JUMPI RETURNDATASIZE PUSH0 DUP1 RETURNDATACOPY RETURNDATASIZE PUSH0 REVERT JUMPDEST POP JUMPDEST POP DUP1 DUP1 PUSH1 0x1 ADD SWAP2 POP POP PUSH2 0xEAB JUMP JUMPDEST POP JUMP JUMPDEST PUSH0 PUSH32 0x0 PUSH20 0xFFFFFFFFFFFFFFFFFFFFFFFFFFFFFFFFFFFFFFFF AND ADDRESS PUSH20 0xFFFFFFFFFFFFFFFFFFFFFFFFFFFFFFFFFFFFFFFF AND EQ DUP1 ISZERO PUSH2 0x1087 JUMPI POP PUSH32 0x0 CHAINID EQ JUMPDEST ISZERO PUSH2 0x10B4 JUMPI PUSH32 0x0 SWAP1 POP PUSH2 0x10BF JUMP JUMPDEST PUSH2 0x10BC PUSH2 0x1366 JUMP JUMPDEST SWAP1 POP JUMPDEST SWAP1 JUMP JUMPDEST PUSH0 PUSH1 0x40 MLOAD PUSH32 0x1901000000000000000000000000000000000000000000000000000000000000 DUP2 MSTORE DUP4 PUSH1 0x2 DUP3 ADD MSTORE DUP3 PUSH1 0x22 DUP3 ADD MSTORE PUSH1 0x42 DUP2 KECCAK256 SWAP2 POP POP SWAP3 SWAP2 POP POP JUMP JUMPDEST PUSH0 DUP1 PUSH0 PUSH1 0x41 DUP5 MLOAD SUB PUSH2 0x1142 JUMPI PUSH0 DUP1 PUSH0 PUSH1 0x20 DUP8 ADD MLOAD SWAP3 POP PUSH1 0x40 DUP8 ADD MLOAD SWAP2 POP PUSH1 0x60 DUP8 ADD MLOAD PUSH0 BYTE SWAP1 POP PUSH2 0x1134 DUP9 DUP3 DUP6 DUP6 PUSH2 0x13FB JUMP JUMPDEST SWAP6 POP SWAP6 POP SWAP6 POP POP POP POP PUSH2 0x1150 JUMP JUMPDEST PUSH0 PUSH1 0x2 DUP6 MLOAD PUSH0 SHL SWAP3 POP SWAP3 POP SWAP3 POP JUMPDEST SWAP3 POP SWAP3 POP SWAP3 JUMP JUMPDEST PUSH0 PUSH1 0x3 DUP2 GT ISZERO PUSH2 0x116A JUMPI PUSH2 0x1169 PUSH2 0x23D2 JUMP JUMPDEST JUMPDEST DUP3 PUSH1 0x3 DUP2 GT ISZERO PUSH2 0x117D JUMPI PUSH2 0x117C PUSH2 0x23D2 JUMP JUMPDEST JUMPDEST SUB ISZERO PUSH2 0x12B5 JUMPI PUSH1 0x1 PUSH1 0x3 DUP2 GT ISZERO PUSH2 0x1197 JUMPI PUSH2 0x1196 PUSH2 0x23D2 JUMP JUMPDEST JUMPDEST DUP3 PUSH1 0x3 DUP2 GT ISZERO PUSH2 0x11AA JUMPI PUSH2 0x11A9 PUSH2 0x23D2 JUMP JUMPDEST JUMPDEST SUB PUSH2 0x11E1 JUMPI PUSH1 0x40 MLOAD PUSH32 0xF645EEDF00000000000000000000000000000000000000000000000000000000 DUP2 MSTORE PUSH1 0x4 ADD PUSH1 0x40 MLOAD DUP1 SWAP2 SUB SWAP1 REVERT JUMPDEST PUSH1 0x2 PUSH1 0x3 DUP2 GT ISZERO PUSH2 0x11F5 JUMPI PUSH2 0x11F4 PUSH2 0x23D2 JUMP JUMPDEST JUMPDEST DUP3 PUSH1 0x3 DUP2 GT ISZERO PUSH2 0x1208 JUMPI PUSH2 0x1207 PUSH2 0x23D2 JUMP JUMPDEST JUMPDEST SUB PUSH2 0x124C JUMPI DUP1 PUSH0 SHR PUSH1 0x40 MLOAD PUSH32 0xFCE698F700000000000000000000000000000000000000000000000000000000 DUP2 MSTORE PUSH1 0x4 ADD PUSH2 0x1243 SWAP2 SWAP1 PUSH2 0x17C2 JUMP JUMPDEST PUSH1 0x40 MLOAD DUP1 SWAP2 SUB SWAP1 REVERT JUMPDEST PUSH1 0x3 DUP1 DUP2 GT ISZERO PUSH2 0x125F JUMPI PUSH2 0x125E PUSH2 0x23D2 JUMP JUMPDEST JUMPDEST DUP3 PUSH1 0x3 DUP2 GT ISZERO PUSH2 0x1272 JUMPI PUSH2 0x1271 PUSH2 0x23D2 JUMP JUMPDEST JUMPDEST SUB PUSH2 0x12B4 JUMPI DUP1 PUSH1 0x40 MLOAD PUSH32 0xD78BCE0C00000000000000000000000000000000000000000000000000000000 DUP2 MSTORE PUSH1 0x4 ADD PUSH2 0x12AB SWAP2 SWAP1 PUSH2 0x23FF JUMP JUMPDEST PUSH1 0x40 MLOAD DUP1 SWAP2 SUB SWAP1 REVERT JUMPDEST JUMPDEST POP POP JUMP JUMPDEST PUSH1 0x60 PUSH1 0xFF PUSH0 SHL DUP4 EQ PUSH2 0x12D5 JUMPI PUSH2 0x12CE DUP4 PUSH2 0x14E2 JUMP JUMPDEST SWAP1 POP PUSH2 0x1360 JUMP JUMPDEST DUP2 DUP1 SLOAD PUSH2 0x12E1 SWAP1 PUSH2 0x1EDE JUMP JUMPDEST DUP1 PUSH1 0x1F ADD PUSH1 0x20 DUP1 SWAP2 DIV MUL PUSH1 0x20 ADD PUSH1 0x40 MLOAD SWAP1 DUP2 ADD PUSH1 0x40 MSTORE DUP1 SWAP3 SWAP2 SWAP1 DUP2 DUP2 MSTORE PUSH1 0x20 ADD DUP3 DUP1 SLOAD PUSH2 0x130D SWAP1 PUSH2 0x1EDE JUMP JUMPDEST DUP1 ISZERO PUSH2 0x1358 JUMPI DUP1 PUSH1 0x1F LT PUSH2 0x132F JUMPI PUSH2 0x100 DUP1 DUP4 SLOAD DIV MUL DUP4 MSTORE SWAP2 PUSH1 0x20 ADD SWAP2 PUSH2 0x1358 JUMP JUMPDEST DUP3 ADD SWAP2 SWAP1 PUSH0 MSTORE PUSH1 0x20 PUSH0 KECCAK256 SWAP1 JUMPDEST DUP2 SLOAD DUP2 MSTORE SWAP1 PUSH1 0x1 ADD SWAP1 PUSH1 0x20 ADD DUP1 DUP4 GT PUSH2 0x133B JUMPI DUP3 SWAP1 SUB PUSH1 0x1F AND DUP3 ADD SWAP2 JUMPDEST POP POP POP POP POP SWAP1 POP JUMPDEST SWAP3 SWAP2 POP POP JUMP JUMPDEST PUSH0 PUSH32 0x8B73C3C69BB8FE3D512ECC4CF759CC79239F7B179B0FFACAA9A75D522B39400F PUSH32 0x0 PUSH32 0x0 CHAINID ADDRESS PUSH1 0x40 MLOAD PUSH1 0x20 ADD PUSH2 0x13E0 SWAP6 SWAP5 SWAP4 SWAP3 SWAP2 SWAP1 PUSH2 0x2418 JUMP JUMPDEST PUSH1 0x40 MLOAD PUSH1 0x20 DUP2 DUP4 SUB SUB DUP2 MSTORE SWAP1 PUSH1 0x40 MSTORE DUP1 MLOAD SWAP1 PUSH1 0x20 ADD KECCAK256 SWAP1 POP SWAP1 JUMP JUMPDEST PUSH0 DUP1 PUSH0 PUSH32 0x7FFFFFFFFFFFFFFFFFFFFFFFFFFFFFFF5D576E7357A4501DDFE92F46681B20A0 DUP5 PUSH0 SHR GT ISZERO PUSH2 0x1437 JUMPI PUSH0 PUSH1 0x3 DUP6 SWAP3 POP SWAP3 POP SWAP3 POP PUSH2 0x14D8 JUMP JUMPDEST PUSH0 PUSH1 0x1 DUP9 DUP9 DUP9 DUP9 PUSH1 0x40 MLOAD PUSH0 DUP2 MSTORE PUSH1 0x20 ADD PUSH1 0x40 MSTORE PUSH1 0x40 MLOAD PUSH2 0x145A SWAP5 SWAP4 SWAP3 SWAP2 SWAP1 PUSH2 0x2484 JUMP JUMPDEST PUSH1 0x20 PUSH1 0x40 MLOAD PUSH1 0x20 DUP2 SUB SWAP1 DUP1 DUP5 SUB SWAP1 DUP6 GAS STATICCALL ISZERO DUP1 ISZERO PUSH2 0x147A JUMPI RETURNDATASIZE PUSH0 DUP1 RETURNDATACOPY RETURNDATASIZE PUSH0 REVERT JUMPDEST POP POP POP PUSH1 0x20 PUSH1 0x40 MLOAD SUB MLOAD SWAP1 POP PUSH0 PUSH20 0xFFFFFFFFFFFFFFFFFFFFFFFFFFFFFFFFFFFFFFFF AND DUP2 PUSH20 0xFFFFFFFFFFFFFFFFFFFFFFFFFFFFFFFFFFFFFFFF AND SUB PUSH2 0x14CB JUMPI PUSH0 PUSH1 0x1 PUSH0 DUP1 SHL SWAP4 POP SWAP4 POP SWAP4 POP POP PUSH2 0x14D8 JUMP JUMPDEST DUP1 PUSH0 DUP1 PUSH0 SHL SWAP4 POP SWAP4 POP SWAP4 POP POP JUMPDEST SWAP5 POP SWAP5 POP SWAP5 SWAP2 POP POP JUMP JUMPDEST PUSH1 0x60 PUSH0 PUSH2 0x14EE DUP4 PUSH2 0x1554 JUMP JUMPDEST SWAP1 POP PUSH0 PUSH1 0x20 PUSH8 0xFFFFFFFFFFFFFFFF DUP2 GT ISZERO PUSH2 0x150C JUMPI PUSH2 0x150B PUSH2 0x1A03 JUMP JUMPDEST JUMPDEST PUSH1 0x40 MLOAD SWAP1 DUP1 DUP3 MSTORE DUP1 PUSH1 0x1F ADD PUSH1 0x1F NOT AND PUSH1 0x20 ADD DUP3 ADD PUSH1 0x40 MSTORE DUP1 ISZERO PUSH2 0x153E JUMPI DUP2 PUSH1 0x20 ADD PUSH1 0x1 DUP3 MUL DUP1 CALLDATASIZE DUP4 CALLDATACOPY DUP1 DUP3 ADD SWAP2 POP POP SWAP1 POP JUMPDEST POP SWAP1 POP DUP2 DUP2 MSTORE DUP4 PUSH1 0x20 DUP3 ADD MSTORE DUP1 SWAP3 POP POP POP SWAP2 SWAP1 POP JUMP JUMPDEST PUSH0 DUP1 PUSH1 0xFF DUP4 PUSH0 SHR AND SWAP1 POP PUSH1 0x1F DUP2 GT ISZERO PUSH2 0x1599 JUMPI PUSH1 0x40 MLOAD PUSH32 0xB3512B0C00000000000000000000000000000000000000000000000000000000 DUP2 MSTORE PUSH1 0x4 ADD PUSH1 0x40 MLOAD DUP1 SWAP2 SUB SWAP1 REVERT JUMPDEST DUP1 SWAP2 POP POP SWAP2 SWAP1 POP JUMP JUMPDEST PUSH0 PUSH1 0x40 MLOAD SWAP1 POP SWAP1 JUMP JUMPDEST PUSH0 DUP1 REVERT JUMPDEST PUSH0 DUP1 REVERT JUMPDEST PUSH0 DUP1 REVERT JUMPDEST PUSH0 DUP1 REVERT JUMPDEST PUSH0 DUP1 REVERT JUMPDEST PUSH0 DUP1 DUP4 PUSH1 0x1F DUP5 ADD SLT PUSH2 0x15D4 JUMPI PUSH2 0x15D3 PUSH2 0x15B3 JUMP JUMPDEST JUMPDEST DUP3 CALLDATALOAD SWAP1 POP PUSH8 0xFFFFFFFFFFFFFFFF DUP2 GT ISZERO PUSH2 0x15F1 JUMPI PUSH2 0x15F0 PUSH2 0x15B7 JUMP JUMPDEST JUMPDEST PUSH1 0x20 DUP4 ADD SWAP2 POP DUP4 PUSH1 0x1 DUP3 MUL DUP4 ADD GT ISZERO PUSH2 0x160D JUMPI PUSH2 0x160C PUSH2 0x15BB JUMP JUMPDEST JUMPDEST SWAP3 POP SWAP3 SWAP1 POP JUMP JUMPDEST PUSH0 DUP1 PUSH1 0x20 DUP4 DUP6 SUB SLT ISZERO PUSH2 0x162A JUMPI PUSH2 0x1629 PUSH2 0x15AB JUMP JUMPDEST JUMPDEST PUSH0 DUP4 ADD CALLDATALOAD PUSH8 0xFFFFFFFFFFFFFFFF DUP2 GT ISZERO PUSH2 0x1647 JUMPI PUSH2 0x1646 PUSH2 0x15AF JUMP JUMPDEST JUMPDEST PUSH2 0x1653 DUP6 DUP3 DUP7 ADD PUSH2 0x15BF JUMP JUMPDEST SWAP3 POP SWAP3 POP POP SWAP3 POP SWAP3 SWAP1 POP JUMP JUMPDEST PUSH0 PUSH20 0xFFFFFFFFFFFFFFFFFFFFFFFFFFFFFFFFFFFFFFFF DUP3 AND SWAP1 POP SWAP2 SWAP1 POP JUMP JUMPDEST PUSH0 PUSH2 0x1688 DUP3 PUSH2 0x165F JUMP JUMPDEST SWAP1 POP SWAP2 SWAP1 POP JUMP JUMPDEST PUSH2 0x1698 DUP2 PUSH2 0x167E JUMP JUMPDEST DUP2 EQ PUSH2 0x16A2 JUMPI PUSH0 DUP1 REVERT JUMPDEST POP JUMP JUMPDEST PUSH0 DUP2 CALLDATALOAD SWAP1 POP PUSH2 0x16B3 DUP2 PUSH2 0x168F JUMP JUMPDEST SWAP3 SWAP2 POP POP JUMP JUMPDEST PUSH0 PUSH1 0x20 DUP3 DUP5 SUB SLT ISZERO PUSH2 0x16CE JUMPI PUSH2 0x16CD PUSH2 0x15AB JUMP JUMPDEST JUMPDEST PUSH0 PUSH2 0x16DB DUP5 DUP3 DUP6 ADD PUSH2 0x16A5 JUMP JUMPDEST SWAP2 POP POP SWAP3 SWAP2 POP POP JUMP JUMPDEST PUSH0 DUP2 ISZERO ISZERO SWAP1 POP SWAP2 SWAP1 POP JUMP JUMPDEST PUSH2 0x16F8 DUP2 PUSH2 0x16E4 JUMP JUMPDEST DUP3 MSTORE POP POP JUMP JUMPDEST PUSH0 PUSH1 0x20 DUP3 ADD SWAP1 POP PUSH2 0x1711 PUSH0 DUP4 ADD DUP5 PUSH2 0x16EF JUMP JUMPDEST SWAP3 SWAP2 POP POP JUMP JUMPDEST PUSH0 DUP2 SWAP1 POP SWAP2 SWAP1 POP JUMP JUMPDEST PUSH2 0x1729 DUP2 PUSH2 0x1717 JUMP JUMPDEST DUP2 EQ PUSH2 0x1733 JUMPI PUSH0 DUP1 REVERT JUMPDEST POP JUMP JUMPDEST PUSH0 DUP2 CALLDATALOAD SWAP1 POP PUSH2 0x1744 DUP2 PUSH2 0x1720 JUMP JUMPDEST SWAP3 SWAP2 POP POP JUMP JUMPDEST PUSH0 DUP1 PUSH1 0x40 DUP4 DUP6 SUB SLT ISZERO PUSH2 0x1760 JUMPI PUSH2 0x175F PUSH2 0x15AB JUMP JUMPDEST JUMPDEST PUSH0 PUSH2 0x176D DUP6 DUP3 DUP7 ADD PUSH2 0x16A5 JUMP JUMPDEST SWAP3 POP POP PUSH1 0x20 PUSH2 0x177E DUP6 DUP3 DUP7 ADD PUSH2 0x1736 JUMP JUMPDEST SWAP2 POP POP SWAP3 POP SWAP3 SWAP1 POP JUMP JUMPDEST PUSH0 PUSH1 0x20 DUP3 DUP5 SUB SLT ISZERO PUSH2 0x179D JUMPI PUSH2 0x179C PUSH2 0x15AB JUMP JUMPDEST JUMPDEST PUSH0 PUSH2 0x17AA DUP5 DUP3 DUP6 ADD PUSH2 0x1736 JUMP JUMPDEST SWAP2 POP POP SWAP3 SWAP2 POP POP JUMP JUMPDEST PUSH2 0x17BC DUP2 PUSH2 0x1717 JUMP JUMPDEST DUP3 MSTORE POP POP JUMP JUMPDEST PUSH0 PUSH1 0x20 DUP3 ADD SWAP1 POP PUSH2 0x17D5 PUSH0 DUP4 ADD DUP5 PUSH2 0x17B3 JUMP JUMPDEST SWAP3 SWAP2 POP POP JUMP JUMPDEST PUSH0 PUSH32 0xFF00000000000000000000000000000000000000000000000000000000000000 DUP3 AND SWAP1 POP SWAP2 SWAP1 POP JUMP JUMPDEST PUSH2 0x180F DUP2 PUSH2 0x17DB JUMP JUMPDEST DUP3 MSTORE POP POP JUMP JUMPDEST PUSH0 DUP2 MLOAD SWAP1 POP SWAP2 SWAP1 POP JUMP JUMPDEST PUSH0 DUP3 DUP3 MSTORE PUSH1 0x20 DUP3 ADD SWAP1 POP SWAP3 SWAP2 POP POP JUMP JUMPDEST PUSH0 JUMPDEST DUP4 DUP2 LT ISZERO PUSH2 0x184C JUMPI DUP1 DUP3 ADD MLOAD DUP2 DUP5 ADD MSTORE PUSH1 0x20 DUP2 ADD SWAP1 POP PUSH2 0x1831 JUMP JUMPDEST PUSH0 DUP5 DUP5 ADD MSTORE POP POP POP POP JUMP JUMPDEST PUSH0 PUSH1 0x1F NOT PUSH1 0x1F DUP4 ADD AND SWAP1 POP SWAP2 SWAP1 POP JUMP JUMPDEST PUSH0 PUSH2 0x1871 DUP3 PUSH2 0x1815 JUMP JUMPDEST PUSH2 0x187B DUP2 DUP6 PUSH2 0x181F JUMP JUMPDEST SWAP4 POP PUSH2 0x188B DUP2 DUP6 PUSH1 0x20 DUP7 ADD PUSH2 0x182F JUMP JUMPDEST PUSH2 0x1894 DUP2 PUSH2 0x1857 JUMP JUMPDEST DUP5 ADD SWAP2 POP POP SWAP3 SWAP2 POP POP JUMP JUMPDEST PUSH2 0x18A8 DUP2 PUSH2 0x167E JUMP JUMPDEST DUP3 MSTORE POP POP JUMP JUMPDEST PUSH0 DUP2 SWAP1 POP SWAP2 SWAP1 POP JUMP JUMPDEST PUSH2 0x18C0 DUP2 PUSH2 0x18AE JUMP JUMPDEST DUP3 MSTORE POP POP JUMP JUMPDEST PUSH0 DUP2 MLOAD SWAP1 POP SWAP2 SWAP1 POP JUMP JUMPDEST PUSH0 DUP3 DUP3 MSTORE PUSH1 0x20 DUP3 ADD SWAP1 POP SWAP3 SWAP2 POP POP JUMP JUMPDEST PUSH0 DUP2 SWAP1 POP PUSH1 0x20 DUP3 ADD SWAP1 POP SWAP2 SWAP1 POP JUMP JUMPDEST PUSH2 0x18F8 DUP2 PUSH2 0x1717 JUMP JUMPDEST DUP3 MSTORE POP POP JUMP JUMPDEST PUSH0 PUSH2 0x1909 DUP4 DUP4 PUSH2 0x18EF JUMP JUMPDEST PUSH1 0x20 DUP4 ADD SWAP1 POP SWAP3 SWAP2 POP POP JUMP JUMPDEST PUSH0 PUSH1 0x20 DUP3 ADD SWAP1 POP SWAP2 SWAP1 POP JUMP JUMPDEST PUSH0 PUSH2 0x192B DUP3 PUSH2 0x18C6 JUMP JUMPDEST PUSH2 0x1935 DUP2 DUP6 PUSH2 0x18D0 JUMP JUMPDEST SWAP4 POP PUSH2 0x1940 DUP4 PUSH2 0x18E0 JUMP JUMPDEST DUP1 PUSH0 JUMPDEST DUP4 DUP2 LT ISZERO PUSH2 0x1970 JUMPI DUP2 MLOAD PUSH2 0x1957 DUP9 DUP3 PUSH2 0x18FE JUMP JUMPDEST SWAP8 POP PUSH2 0x1962 DUP4 PUSH2 0x1915 JUMP JUMPDEST SWAP3 POP POP PUSH1 0x1 DUP2 ADD SWAP1 POP PUSH2 0x1943 JUMP JUMPDEST POP DUP6 SWAP4 POP POP POP POP SWAP3 SWAP2 POP POP JUMP JUMPDEST PUSH0 PUSH1 0xE0 DUP3 ADD SWAP1 POP PUSH2 0x1990 PUSH0 DUP4 ADD DUP11 PUSH2 0x1806 JUMP JUMPDEST DUP2 DUP2 SUB PUSH1 0x20 DUP4 ADD MSTORE PUSH2 0x19A2 DUP2 DUP10 PUSH2 0x1867 JUMP JUMPDEST SWAP1 POP DUP2 DUP2 SUB PUSH1 0x40 DUP4 ADD MSTORE PUSH2 0x19B6 DUP2 DUP9 PUSH2 0x1867 JUMP JUMPDEST SWAP1 POP PUSH2 0x19C5 PUSH1 0x60 DUP4 ADD DUP8 PUSH2 0x17B3 JUMP JUMPDEST PUSH2 0x19D2 PUSH1 0x80 DUP4 ADD DUP7 PUSH2 0x189F JUMP JUMPDEST PUSH2 0x19DF PUSH1 0xA0 DUP4 ADD DUP6 PUSH2 0x18B7 JUMP JUMPDEST DUP2 DUP2 SUB PUSH1 0xC0 DUP4 ADD MSTORE PUSH2 0x19F1 DUP2 DUP5 PUSH2 0x1921 JUMP JUMPDEST SWAP1 POP SWAP9 SWAP8 POP POP POP POP POP POP POP POP JUMP JUMPDEST PUSH0 DUP1 REVERT JUMPDEST PUSH32 0x4E487B7100000000000000000000000000000000000000000000000000000000 PUSH0 MSTORE PUSH1 0x41 PUSH1 0x4 MSTORE PUSH1 0x24 PUSH0 REVERT JUMPDEST PUSH2 0x1A39 DUP3 PUSH2 0x1857 JUMP JUMPDEST DUP2 ADD DUP2 DUP2 LT PUSH8 0xFFFFFFFFFFFFFFFF DUP3 GT OR ISZERO PUSH2 0x1A58 JUMPI PUSH2 0x1A57 PUSH2 0x1A03 JUMP JUMPDEST JUMPDEST DUP1 PUSH1 0x40 MSTORE POP POP POP JUMP JUMPDEST PUSH0 PUSH2 0x1A6A PUSH2 0x15A2 JUMP JUMPDEST SWAP1 POP PUSH2 0x1A76 DUP3 DUP3 PUSH2 0x1A30 JUMP JUMPDEST SWAP2 SWAP1 POP JUMP JUMPDEST PUSH0 PUSH8 0xFFFFFFFFFFFFFFFF DUP3 GT ISZERO PUSH2 0x1A95 JUMPI PUSH2 0x1A94 PUSH2 0x1A03 JUMP JUMPDEST JUMPDEST PUSH2 0x1A9E DUP3 PUSH2 0x1857 JUMP JUMPDEST SWAP1 POP PUSH1 0x20 DUP2 ADD SWAP1 POP SWAP2 SWAP1 POP JUMP JUMPDEST DUP3 DUP2 DUP4 CALLDATACOPY PUSH0 DUP4 DUP4 ADD MSTORE POP POP POP JUMP JUMPDEST PUSH0 PUSH2 0x1ACB PUSH2 0x1AC6 DUP5 PUSH2 0x1A7B JUMP JUMPDEST PUSH2 0x1A61 JUMP JUMPDEST SWAP1 POP DUP3 DUP2 MSTORE PUSH1 0x20 DUP2 ADD DUP5 DUP5 DUP5 ADD GT ISZERO PUSH2 0x1AE7 JUMPI PUSH2 0x1AE6 PUSH2 0x19FF JUMP JUMPDEST JUMPDEST PUSH2 0x1AF2 DUP5 DUP3 DUP6 PUSH2 0x1AAB JUMP JUMPDEST POP SWAP4 SWAP3 POP POP POP JUMP JUMPDEST PUSH0 DUP3 PUSH1 0x1F DUP4 ADD SLT PUSH2 0x1B0E JUMPI PUSH2 0x1B0D PUSH2 0x15B3 JUMP JUMPDEST JUMPDEST DUP2 CALLDATALOAD PUSH2 0x1B1E DUP5 DUP3 PUSH1 0x20 DUP7 ADD PUSH2 0x1AB9 JUMP JUMPDEST SWAP2 POP POP SWAP3 SWAP2 POP POP JUMP JUMPDEST PUSH0 DUP1 PUSH1 0x40 DUP4 DUP6 SUB SLT ISZERO PUSH2 0x1B3D JUMPI PUSH2 0x1B3C PUSH2 0x15AB JUMP JUMPDEST JUMPDEST PUSH0 DUP4 ADD CALLDATALOAD PUSH8 0xFFFFFFFFFFFFFFFF DUP2 GT ISZERO PUSH2 0x1B5A JUMPI PUSH2 0x1B59 PUSH2 0x15AF JUMP JUMPDEST JUMPDEST PUSH2 0x1B66 DUP6 DUP3 DUP7 ADD PUSH2 0x1AFA JUMP JUMPDEST SWAP3 POP POP PUSH1 0x20 PUSH2 0x1B77 DUP6 DUP3 DUP7 ADD PUSH2 0x1736 JUMP JUMPDEST SWAP2 POP POP SWAP3 POP SWAP3 SWAP1 POP JUMP JUMPDEST PUSH0 PUSH1 0x20 DUP3 ADD SWAP1 POP PUSH2 0x1B94 PUSH0 DUP4 ADD DUP5 PUSH2 0x189F JUMP JUMPDEST SWAP3 SWAP2 POP POP JUMP JUMPDEST PUSH0 PUSH1 0x20 DUP3 DUP5 SUB SLT ISZERO PUSH2 0x1BAF JUMPI PUSH2 0x1BAE PUSH2 0x15AB JUMP JUMPDEST JUMPDEST PUSH0 DUP3 ADD CALLDATALOAD PUSH8 0xFFFFFFFFFFFFFFFF DUP2 GT ISZERO PUSH2 0x1BCC JUMPI PUSH2 0x1BCB PUSH2 0x15AF JUMP JUMPDEST JUMPDEST PUSH2 0x1BD8 DUP5 DUP3 DUP6 ADD PUSH2 0x1AFA JUMP JUMPDEST SWAP2 POP POP SWAP3 SWAP2 POP POP JUMP JUMPDEST PUSH0 PUSH1 0x20 DUP3 ADD SWAP1 POP DUP2 DUP2 SUB PUSH0 DUP4 ADD MSTORE PUSH2 0x1BF9 DUP2 DUP5 PUSH2 0x1867 JUMP JUMPDEST SWAP1 POP SWAP3 SWAP2 POP POP JUMP JUMPDEST PUSH0 PUSH1 0x40 DUP3 ADD SWAP1 POP PUSH2 0x1C14 PUSH0 DUP4 ADD DUP6 PUSH2 0x189F JUMP JUMPDEST PUSH2 0x1C21 PUSH1 0x20 DUP4 ADD DUP5 PUSH2 0x17B3 JUMP JUMPDEST SWAP4 SWAP3 POP POP POP JUMP JUMPDEST PUSH0 PUSH1 0x60 DUP3 ADD SWAP1 POP DUP2 DUP2 SUB PUSH0 DUP4 ADD MSTORE PUSH2 0x1C40 DUP2 DUP7 PUSH2 0x1867 JUMP JUMPDEST SWAP1 POP PUSH2 0x1C4F PUSH1 0x20 DUP4 ADD DUP6 PUSH2 0x17B3 JUMP JUMPDEST PUSH2 0x1C5C PUSH1 0x40 DUP4 ADD DUP5 PUSH2 0x16EF JUMP JUMPDEST SWAP5 SWAP4 POP POP POP POP JUMP JUMPDEST PUSH32 0x6D75737420626520616E20617274697374206F66207468652070726F6A656374 PUSH0 DUP3 ADD MSTORE POP JUMP JUMPDEST PUSH0 PUSH2 0x1C98 PUSH1 0x20 DUP4 PUSH2 0x181F JUMP JUMPDEST SWAP2 POP PUSH2 0x1CA3 DUP3 PUSH2 0x1C64 JUMP JUMPDEST PUSH1 0x20 DUP3 ADD SWAP1 POP SWAP2 SWAP1 POP JUMP JUMPDEST PUSH0 PUSH1 0x20 DUP3 ADD SWAP1 POP DUP2 DUP2 SUB PUSH0 DUP4 ADD MSTORE PUSH2 0x1CC5 DUP2 PUSH2 0x1C8C JUMP JUMPDEST SWAP1 POP SWAP2 SWAP1 POP JUMP JUMPDEST PUSH0 PUSH1 0x40 DUP3 ADD SWAP1 POP PUSH2 0x1CDF PUSH0 DUP4 ADD DUP6 PUSH2 0x18B7 JUMP JUMPDEST PUSH2 0x1CEC PUSH1 0x20 DUP4 ADD DUP5 PUSH2 0x189F JUMP JUMPDEST SWAP4 SWAP3 POP POP POP JUMP JUMPDEST PUSH32 0x696E76616C6964207369676E6174757265000000000000000000000000000000 PUSH0 DUP3 ADD MSTORE POP JUMP JUMPDEST PUSH0 PUSH2 0x1D27 PUSH1 0x11 DUP4 PUSH2 0x181F JUMP JUMPDEST SWAP2 POP PUSH2 0x1D32 DUP3 PUSH2 0x1CF3 JUMP JUMPDEST PUSH1 0x20 DUP3 ADD SWAP1 POP SWAP2 SWAP1 POP JUMP JUMPDEST PUSH0 PUSH1 0x20 DUP3 ADD SWAP1 POP DUP2 DUP2 SUB PUSH0 DUP4 ADD MSTORE PUSH2 0x1D54 DUP2 PUSH2 0x1D1B JUMP JUMPDEST SWAP1 POP SWAP2 SWAP1 POP JUMP JUMPDEST PUSH32 0x4F6E6C7920746865206F776E65722063616E2063616C6C20746869732066756E PUSH0 DUP3 ADD MSTORE PUSH32 0x6374696F6E000000000000000000000000000000000000000000000000000000 PUSH1 0x20 DUP3 ADD MSTORE POP JUMP JUMPDEST PUSH0 PUSH2 0x1DB5 PUSH1 0x25 DUP4 PUSH2 0x181F JUMP JUMPDEST SWAP2 POP PUSH2 0x1DC0 DUP3 PUSH2 0x1D5B JUMP JUMPDEST PUSH1 0x40 DUP3 ADD SWAP1 POP SWAP2 SWAP1 POP JUMP JUMPDEST PUSH0 PUSH1 0x20 DUP3 ADD SWAP1 POP DUP2 DUP2 SUB PUSH0 DUP4 ADD MSTORE PUSH2 0x1DE2 DUP2 PUSH2 0x1DA9 JUMP JUMPDEST SWAP1 POP SWAP2 SWAP1 POP JUMP JUMPDEST PUSH32 0x4E487B7100000000000000000000000000000000000000000000000000000000 PUSH0 MSTORE PUSH1 0x11 PUSH1 0x4 MSTORE PUSH1 0x24 PUSH0 REVERT JUMPDEST PUSH0 PUSH2 0x1E20 DUP3 PUSH2 0x1717 JUMP JUMPDEST SWAP2 POP PUSH2 0x1E2B DUP4 PUSH2 0x1717 JUMP JUMPDEST SWAP3 POP DUP3 DUP3 ADD SWAP1 POP DUP1 DUP3 GT ISZERO PUSH2 0x1E43 JUMPI PUSH2 0x1E42 PUSH2 0x1DE9 JUMP JUMPDEST JUMPDEST SWAP3 SWAP2 POP POP JUMP JUMPDEST PUSH32 0x546F74616C204F776E657273686970206D617820313030250000000000000000 PUSH0 DUP3 ADD MSTORE POP JUMP JUMPDEST PUSH0 PUSH2 0x1E7D PUSH1 0x18 DUP4 PUSH2 0x181F JUMP JUMPDEST SWAP2 POP PUSH2 0x1E88 DUP3 PUSH2 0x1E49 JUMP JUMPDEST PUSH1 0x20 DUP3 ADD SWAP1 POP SWAP2 SWAP1 POP JUMP JUMPDEST PUSH0 PUSH1 0x20 DUP3 ADD SWAP1 POP DUP2 DUP2 SUB PUSH0 DUP4 ADD MSTORE PUSH2 0x1EAA DUP2 PUSH2 0x1E71 JUMP JUMPDEST SWAP1 POP SWAP2 SWAP1 POP JUMP JUMPDEST PUSH32 0x4E487B7100000000000000000000000000000000000000000000000000000000 PUSH0 MSTORE PUSH1 0x22 PUSH1 0x4 MSTORE PUSH1 0x24 PUSH0 REVERT JUMPDEST PUSH0 PUSH1 0x2 DUP3 DIV SWAP1 POP PUSH1 0x1 DUP3 AND DUP1 PUSH2 0x1EF5 JUMPI PUSH1 0x7F DUP3 AND SWAP2 POP JUMPDEST PUSH1 0x20 DUP3 LT DUP2 SUB PUSH2 0x1F08 JUMPI PUSH2 0x1F07 PUSH2 0x1EB1 JUMP JUMPDEST JUMPDEST POP SWAP2 SWAP1 POP JUMP JUMPDEST PUSH0 DUP2 SWAP1 POP DUP2 PUSH0 MSTORE PUSH1 0x20 PUSH0 KECCAK256 SWAP1 POP SWAP2 SWAP1 POP JUMP JUMPDEST PUSH0 PUSH1 0x20 PUSH1 0x1F DUP4 ADD DIV SWAP1 POP SWAP2 SWAP1 POP JUMP JUMPDEST PUSH0 DUP3 DUP3 SHL SWAP1 POP SWAP3 SWAP2 POP POP JUMP JUMPDEST PUSH0 PUSH1 0x8 DUP4 MUL PUSH2 0x1F6A PUSH32 0xFFFFFFFFFFFFFFFFFFFFFFFFFFFFFFFFFFFFFFFFFFFFFFFFFFFFFFFFFFFFFFFF DUP3 PUSH2 0x1F2F JUMP JUMPDEST PUSH2 0x1F74 DUP7 DUP4 PUSH2 0x1F2F JUMP JUMPDEST SWAP6 POP DUP1 NOT DUP5 AND SWAP4 POP DUP1 DUP7 AND DUP5 OR SWAP3 POP POP POP SWAP4 SWAP3 POP POP POP JUMP JUMPDEST PUSH0 DUP2 SWAP1 POP SWAP2 SWAP1 POP JUMP JUMPDEST PUSH0 PUSH2 0x1FAF PUSH2 0x1FAA PUSH2 0x1FA5 DUP5 PUSH2 0x1717 JUMP JUMPDEST PUSH2 0x1F8C JUMP JUMPDEST PUSH2 0x1717 JUMP JUMPDEST SWAP1 POP SWAP2 SWAP1 POP JUMP JUMPDEST PUSH0 DUP2 SWAP1 POP SWAP2 SWAP1 POP JUMP JUMPDEST PUSH2 0x1FC8 DUP4 PUSH2 0x1F95 JUMP JUMPDEST PUSH2 0x1FDC PUSH2 0x1FD4 DUP3 PUSH2 0x1FB6 JUMP JUMPDEST DUP5 DUP5 SLOAD PUSH2 0x1F3B JUMP JUMPDEST DUP3 SSTORE POP POP POP POP JUMP JUMPDEST PUSH0 SWAP1 JUMP JUMPDEST PUSH2 0x1FF0 PUSH2 0x1FE4 JUMP JUMPDEST PUSH2 0x1FFB DUP2 DUP5 DUP5 PUSH2 0x1FBF JUMP JUMPDEST POP POP POP JUMP JUMPDEST JUMPDEST DUP2 DUP2 LT ISZERO PUSH2 0x201E JUMPI PUSH2 0x2013 PUSH0 DUP3 PUSH2 0x1FE8 JUMP JUMPDEST PUSH1 0x1 DUP2 ADD SWAP1 POP PUSH2 0x2001 JUMP JUMPDEST POP POP JUMP JUMPDEST PUSH1 0x1F DUP3 GT ISZERO PUSH2 0x2063 JUMPI PUSH2 0x2034 DUP2 PUSH2 0x1F0E JUMP JUMPDEST PUSH2 0x203D DUP5 PUSH2 0x1F20 JUMP JUMPDEST DUP2 ADD PUSH1 0x20 DUP6 LT ISZERO PUSH2 0x204C JUMPI DUP2 SWAP1 POP JUMPDEST PUSH2 0x2060 PUSH2 0x2058 DUP6 PUSH2 0x1F20 JUMP JUMPDEST DUP4 ADD DUP3 PUSH2 0x2000 JUMP JUMPDEST POP POP JUMPDEST POP POP POP JUMP JUMPDEST PUSH0 DUP3 DUP3 SHR SWAP1 POP SWAP3 SWAP2 POP POP JUMP JUMPDEST PUSH0 PUSH2 0x2083 PUSH0 NOT DUP5 PUSH1 0x8 MUL PUSH2 0x2068 JUMP JUMPDEST NOT DUP1 DUP4 AND SWAP2 POP POP SWAP3 SWAP2 POP POP JUMP JUMPDEST PUSH0 PUSH2 0x209B DUP4 DUP4 PUSH2 0x2074 JUMP JUMPDEST SWAP2 POP DUP3 PUSH1 0x2 MUL DUP3 OR SWAP1 POP SWAP3 SWAP2 POP POP JUMP JUMPDEST PUSH2 0x20B4 DUP3 PUSH2 0x1815 JUMP JUMPDEST PUSH8 0xFFFFFFFFFFFFFFFF DUP2 GT ISZERO PUSH2 0x20CD JUMPI PUSH2 0x20CC PUSH2 0x1A03 JUMP JUMPDEST JUMPDEST PUSH2 0x20D7 DUP3 SLOAD PUSH2 0x1EDE JUMP JUMPDEST PUSH2 0x20E2 DUP3 DUP3 DUP6 PUSH2 0x2022 JUMP JUMPDEST PUSH0 PUSH1 0x20 SWAP1 POP PUSH1 0x1F DUP4 GT PUSH1 0x1 DUP2 EQ PUSH2 0x2113 JUMPI PUSH0 DUP5 ISZERO PUSH2 0x2101 JUMPI DUP3 DUP8 ADD MLOAD SWAP1 POP JUMPDEST PUSH2 0x210B DUP6 DUP3 PUSH2 0x2090 JUMP JUMPDEST DUP7 SSTORE POP PUSH2 0x2172 JUMP JUMPDEST PUSH1 0x1F NOT DUP5 AND PUSH2 0x2121 DUP7 PUSH2 0x1F0E JUMP JUMPDEST PUSH0 JUMPDEST DUP3 DUP2 LT ISZERO PUSH2 0x2148 JUMPI DUP5 DUP10 ADD MLOAD DUP3 SSTORE PUSH1 0x1 DUP3 ADD SWAP2 POP PUSH1 0x20 DUP6 ADD SWAP5 POP PUSH1 0x20 DUP2 ADD SWAP1 POP PUSH2 0x2123 JUMP JUMPDEST DUP7 DUP4 LT ISZERO PUSH2 0x2165 JUMPI DUP5 DUP10 ADD MLOAD PUSH2 0x2161 PUSH1 0x1F DUP10 AND DUP3 PUSH2 0x2074 JUMP JUMPDEST DUP4 SSTORE POP JUMPDEST PUSH1 0x1 PUSH1 0x2 DUP9 MUL ADD DUP9 SSTORE POP POP POP JUMPDEST POP POP POP POP POP POP JUMP JUMPDEST PUSH32 0x4E487B7100000000000000000000000000000000000000000000000000000000 PUSH0 MSTORE PUSH1 0x32 PUSH1 0x4 MSTORE PUSH1 0x24 PUSH0 REVERT JUMPDEST PUSH0 DUP2 SLOAD PUSH2 0x21B3 DUP2 PUSH2 0x1EDE JUMP JUMPDEST PUSH2 0x21BD DUP2 DUP7 PUSH2 0x181F JUMP JUMPDEST SWAP5 POP PUSH1 0x1 DUP3 AND PUSH0 DUP2 EQ PUSH2 0x21D7 JUMPI PUSH1 0x1 DUP2 EQ PUSH2 0x21ED JUMPI PUSH2 0x221F JUMP JUMPDEST PUSH1 0xFF NOT DUP4 AND DUP7 MSTORE DUP2 ISZERO ISZERO PUSH1 0x20 MUL DUP7 ADD SWAP4 POP PUSH2 0x221F JUMP JUMPDEST PUSH2 0x21F6 DUP6 PUSH2 0x1F0E JUMP JUMPDEST PUSH0 JUMPDEST DUP4 DUP2 LT ISZERO PUSH2 0x2217 JUMPI DUP2 SLOAD DUP2 DUP10 ADD MSTORE PUSH1 0x1 DUP3 ADD SWAP2 POP PUSH1 0x20 DUP2 ADD SWAP1 POP PUSH2 0x21F8 JUMP JUMPDEST DUP1 DUP9 ADD SWAP6 POP POP POP JUMPDEST POP POP POP SWAP3 SWAP2 POP POP JUMP JUMPDEST PUSH0 PUSH1 0x40 DUP3 ADD SWAP1 POP PUSH2 0x223B PUSH0 DUP4 ADD DUP6 PUSH2 0x17B3 JUMP JUMPDEST DUP2 DUP2 SUB PUSH1 0x20 DUP4 ADD MSTORE PUSH2 0x224D DUP2 DUP5 PUSH2 0x21A7 JUMP JUMPDEST SWAP1 POP SWAP4 SWAP3 POP POP POP JUMP JUMPDEST PUSH32 0x5061796D656E74206D75737420657175616C20746F2061727420707269636500 PUSH0 DUP3 ADD MSTORE POP JUMP JUMPDEST PUSH0 PUSH2 0x228A PUSH1 0x1F DUP4 PUSH2 0x181F JUMP JUMPDEST SWAP2 POP PUSH2 0x2295 DUP3 PUSH2 0x2256 JUMP JUMPDEST PUSH1 0x20 DUP3 ADD SWAP1 POP SWAP2 SWAP1 POP JUMP JUMPDEST PUSH0 PUSH1 0x20 DUP3 ADD SWAP1 POP DUP2 DUP2 SUB PUSH0 DUP4 ADD MSTORE PUSH2 0x22B7 DUP2 PUSH2 0x227E JUMP JUMPDEST SWAP1 POP SWAP2 SWAP1 POP JUMP JUMPDEST PUSH32 0x617274776F726B20736F6C640000000000000000000000000000000000000000 PUSH0 DUP3 ADD MSTORE POP JUMP JUMPDEST PUSH0 PUSH2 0x22F2 PUSH1 0xC DUP4 PUSH2 0x181F JUMP JUMPDEST SWAP2 POP PUSH2 0x22FD DUP3 PUSH2 0x22BE JUMP JUMPDEST PUSH1 0x20 DUP3 ADD SWAP1 POP SWAP2 SWAP1 POP JUMP JUMPDEST PUSH0 PUSH1 0x40 DUP3 ADD SWAP1 POP PUSH2 0x231B PUSH0 DUP4 ADD DUP5 PUSH2 0x17B3 JUMP JUMPDEST DUP2 DUP2 SUB PUSH1 0x20 DUP4 ADD MSTORE PUSH2 0x232C DUP2 PUSH2 0x22E6 JUMP JUMPDEST SWAP1 POP SWAP3 SWAP2 POP POP JUMP JUMPDEST PUSH0 PUSH2 0x233E DUP3 PUSH2 0x1717 JUMP JUMPDEST SWAP2 POP PUSH2 0x2349 DUP4 PUSH2 0x1717 JUMP JUMPDEST SWAP3 POP DUP3 DUP3 MUL PUSH2 0x2357 DUP2 PUSH2 0x1717 JUMP JUMPDEST SWAP2 POP DUP3 DUP3 DIV DUP5 EQ DUP4 ISZERO OR PUSH2 0x236E JUMPI PUSH2 0x236D PUSH2 0x1DE9 JUMP JUMPDEST JUMPDEST POP SWAP3 SWAP2 POP POP JUMP JUMPDEST PUSH32 0x4E487B7100000000000000000000000000000000000000000000000000000000 PUSH0 MSTORE PUSH1 0x12 PUSH1 0x4 MSTORE PUSH1 0x24 PUSH0 REVERT JUMPDEST PUSH0 PUSH2 0x23AC DUP3 PUSH2 0x1717 JUMP JUMPDEST SWAP2 POP PUSH2 0x23B7 DUP4 PUSH2 0x1717 JUMP JUMPDEST SWAP3 POP DUP3 PUSH2 0x23C7 JUMPI PUSH2 0x23C6 PUSH2 0x2375 JUMP JUMPDEST JUMPDEST DUP3 DUP3 DIV SWAP1 POP SWAP3 SWAP2 POP POP JUMP JUMPDEST PUSH32 0x4E487B7100000000000000000000000000000000000000000000000000000000 PUSH0 MSTORE PUSH1 0x21 PUSH1 0x4 MSTORE PUSH1 0x24 PUSH0 REVERT JUMPDEST PUSH0 PUSH1 0x20 DUP3 ADD SWAP1 POP PUSH2 0x2412 PUSH0 DUP4 ADD DUP5 PUSH2 0x18B7 JUMP JUMPDEST SWAP3 SWAP2 POP POP JUMP JUMPDEST PUSH0 PUSH1 0xA0 DUP3 ADD SWAP1 POP PUSH2 0x242B PUSH0 DUP4 ADD DUP9 PUSH2 0x18B7 JUMP JUMPDEST PUSH2 0x2438 PUSH1 0x20 DUP4 ADD DUP8 PUSH2 0x18B7 JUMP JUMPDEST PUSH2 0x2445 PUSH1 0x40 DUP4 ADD DUP7 PUSH2 0x18B7 JUMP JUMPDEST PUSH2 0x2452 PUSH1 0x60 DUP4 ADD DUP6 PUSH2 0x17B3 JUMP JUMPDEST PUSH2 0x245F PUSH1 0x80 DUP4 ADD DUP5 PUSH2 0x189F JUMP JUMPDEST SWAP7 SWAP6 POP POP POP POP POP POP JUMP JUMPDEST PUSH0 PUSH1 0xFF DUP3 AND SWAP1 POP SWAP2 SWAP1 POP JUMP JUMPDEST PUSH2 0x247E DUP2 PUSH2 0x2469 JUMP JUMPDEST DUP3 MSTORE POP POP JUMP JUMPDEST PUSH0 PUSH1 0x80 DUP3 ADD SWAP1 POP PUSH2 0x2497 PUSH0 DUP4 ADD DUP8 PUSH2 0x18B7 JUMP JUMPDEST PUSH2 0x24A4 PUSH1 0x20 DUP4 ADD DUP7 PUSH2 0x2475 JUMP JUMPDEST PUSH2 0x24B1 PUSH1 0x40 DUP4 ADD DUP6 PUSH2 0x18B7 JUMP JUMPDEST PUSH2 0x24BE PUSH1 0x60 DUP4 ADD DUP5 PUSH2 0x18B7 JUMP JUMPDEST SWAP6 SWAP5 POP POP POP POP POP JUMP INVALID LOG2 PUSH5 0x6970667358 0x22 SLT KECCAK256 DELEGATECALL PUSH7 0xAB053F095C73D6 PUSH1 0x13 0x21 MSTORE8 0xBC SWAP3 DUP9 PUSH9 0x8A2D252046B68D55B5 0xD5 SGT DUP10 SELFDESTRUCT EXTCODESIZE SWAP12 PUSH5 0x736F6C6343 STOP ADDMOD XOR STOP CALLER "
				},
				"gasEstimates": {
					"creation": {
						"codeDepositCost": "1893800",
						"executionCost": "infinite",
						"totalCost": "infinite"
					},
					"external": {
						"addArtist(address,uint256)": "infinite",
						"addMilestone(string,uint256)": "infinite",
						"artistSigned(address)": "2879",
						"artistToOwnershipPercentage(address)": "2847",
						"artists(uint256)": "infinite",
						"artworkPrice()": "2470",
						"eip712Domain()": "infinite",
						"markMilestoneAsCompleted(uint256)": "infinite",
						"milestones(uint256)": "infinite",
						"owner()": "2575",
						"purchaseArtwork()": "infinite",
						"resolveDispute(string)": "infinite",
						"setArtworkPrice(uint256)": "24707",
						"signContract(bytes)": "infinite",
						"totalPercentage()": "2491"
					},
					"internal": {
						"distributeFunds()": "infinite"
					}
				},
				"methodIdentifiers": {
					"addArtist(address,uint256)": "5d1b5805",
					"addMilestone(string,uint256)": "84b62c28",
					"artistSigned(address)": "538b7242",
					"artistToOwnershipPercentage(address)": "7f8fbc22",
					"artists(uint256)": "cd7e10c1",
					"artworkPrice()": "89b5efa7",
					"eip712Domain()": "84b0196e",
					"markMilestoneAsCompleted(uint256)": "85e08a6b",
					"milestones(uint256)": "e89e4ed6",
					"owner()": "8da5cb5b",
					"purchaseArtwork()": "ab1ce0b0",
					"resolveDispute(string)": "8f2238ba",
					"setArtworkPrice(uint256)": "6beeedb8",
					"signContract(bytes)": "52bb27b0",
					"totalPercentage()": "d44a0e61"
				}
			},
			"storageLayout": {
				"storage": [
					{
						"astId": 991,
						"contract": "contracts/CollaborativeArt.sol:CollaborativeArt",
						"label": "_nameFallback",
						"offset": 0,
						"slot": "0",
						"type": "t_string_storage"
					},
					{
						"astId": 993,
						"contract": "contracts/CollaborativeArt.sol:CollaborativeArt",
						"label": "_versionFallback",
						"offset": 0,
						"slot": "1",
						"type": "t_string_storage"
					},
					{
						"astId": 2440,
						"contract": "contracts/CollaborativeArt.sol:CollaborativeArt",
						"label": "owner",
						"offset": 0,
						"slot": "2",
						"type": "t_address"
					},
					{
						"astId": 2444,
						"contract": "contracts/CollaborativeArt.sol:CollaborativeArt",
						"label": "artists",
						"offset": 0,
						"slot": "3",
						"type": "t_array(t_struct(Artist)2431_storage)dyn_storage"
					},
					{
						"astId": 2448,
						"contract": "contracts/CollaborativeArt.sol:CollaborativeArt",
						"label": "milestones",
						"offset": 0,
						"slot": "4",
						"type": "t_array(t_struct(Milestone)2438_storage)dyn_storage"
					},
					{
						"astId": 2452,
						"contract": "contracts/CollaborativeArt.sol:CollaborativeArt",
						"label": "artistToOwnershipPercentage",
						"offset": 0,
						"slot": "5",
						"type": "t_mapping(t_address,t_uint256)"
					},
					{
						"astId": 2456,
						"contract": "contracts/CollaborativeArt.sol:CollaborativeArt",
						"label": "artistSigned",
						"offset": 0,
						"slot": "6",
						"type": "t_mapping(t_address,t_bool)"
					},
					{
						"astId": 2459,
						"contract": "contracts/CollaborativeArt.sol:CollaborativeArt",
						"label": "totalPercentage",
						"offset": 0,
						"slot": "7",
						"type": "t_uint256"
					},
					{
						"astId": 2461,
						"contract": "contracts/CollaborativeArt.sol:CollaborativeArt",
						"label": "artworkPrice",
						"offset": 0,
						"slot": "8",
						"type": "t_uint256"
					}
				],
				"types": {
					"t_address": {
						"encoding": "inplace",
						"label": "address",
						"numberOfBytes": "20"
					},
					"t_array(t_struct(Artist)2431_storage)dyn_storage": {
						"base": "t_struct(Artist)2431_storage",
						"encoding": "dynamic_array",
						"label": "struct CollaborativeArt.Artist[]",
						"numberOfBytes": "32"
					},
					"t_array(t_struct(Milestone)2438_storage)dyn_storage": {
						"base": "t_struct(Milestone)2438_storage",
						"encoding": "dynamic_array",
						"label": "struct CollaborativeArt.Milestone[]",
						"numberOfBytes": "32"
					},
					"t_bool": {
						"encoding": "inplace",
						"label": "bool",
						"numberOfBytes": "1"
					},
					"t_mapping(t_address,t_bool)": {
						"encoding": "mapping",
						"key": "t_address",
						"label": "mapping(address => bool)",
						"numberOfBytes": "32",
						"value": "t_bool"
					},
					"t_mapping(t_address,t_uint256)": {
						"encoding": "mapping",
						"key": "t_address",
						"label": "mapping(address => uint256)",
						"numberOfBytes": "32",
						"value": "t_uint256"
					},
					"t_string_storage": {
						"encoding": "bytes",
						"label": "string",
						"numberOfBytes": "32"
					},
					"t_struct(Artist)2431_storage": {
						"encoding": "inplace",
						"label": "struct CollaborativeArt.Artist",
						"members": [
							{
								"astId": 2428,
								"contract": "contracts/CollaborativeArt.sol:CollaborativeArt",
								"label": "artistAddress",
								"offset": 0,
								"slot": "0",
								"type": "t_address"
							},
							{
								"astId": 2430,
								"contract": "contracts/CollaborativeArt.sol:CollaborativeArt",
								"label": "ownershipPercentage",
								"offset": 0,
								"slot": "1",
								"type": "t_uint256"
							}
						],
						"numberOfBytes": "64"
					},
					"t_struct(Milestone)2438_storage": {
						"encoding": "inplace",
						"label": "struct CollaborativeArt.Milestone",
						"members": [
							{
								"astId": 2433,
								"contract": "contracts/CollaborativeArt.sol:CollaborativeArt",
								"label": "description",
								"offset": 0,
								"slot": "0",
								"type": "t_string_storage"
							},
							{
								"astId": 2435,
								"contract": "contracts/CollaborativeArt.sol:CollaborativeArt",
								"label": "deadline",
								"offset": 0,
								"slot": "1",
								"type": "t_uint256"
							},
							{
								"astId": 2437,
								"contract": "contracts/CollaborativeArt.sol:CollaborativeArt",
								"label": "completed",
								"offset": 0,
								"slot": "2",
								"type": "t_bool"
							}
						],
						"numberOfBytes": "96"
					},
					"t_uint256": {
						"encoding": "inplace",
						"label": "uint256",
						"numberOfBytes": "32"
					}
				}
			},
			"userdoc": {
				"kind": "user",
				"methods": {},
				"version": 1
			}
		}
	}
}